{
	"src/Kipu-Bank_v2.sol": {
		"KipuBank": {
			"abi": [
				{
					"inputs": [
						{
							"internalType": "uint256",
							"name": "_bankCap",
							"type": "uint256"
						},
						{
							"internalType": "uint256",
							"name": "_withdrawLimit",
							"type": "uint256"
						}
					],
					"stateMutability": "nonpayable",
					"type": "constructor"
				},
				{
					"inputs": [],
					"name": "KipuBank__AmountMustBeGreaterThanZero",
					"type": "error"
				},
				{
					"inputs": [
						{
							"internalType": "uint256",
							"name": "attempted",
							"type": "uint256"
						},
						{
							"internalType": "uint256",
							"name": "cap",
							"type": "uint256"
						}
					],
					"name": "KipuBank__ExceedsBankCap",
					"type": "error"
				},
				{
					"inputs": [
						{
							"internalType": "uint256",
							"name": "attempted",
							"type": "uint256"
						},
						{
							"internalType": "uint256",
							"name": "limit",
							"type": "uint256"
						}
					],
					"name": "KipuBank__ExceedsWithdrawLimit",
					"type": "error"
				},
				{
					"inputs": [
						{
							"internalType": "address",
							"name": "token",
							"type": "address"
						},
						{
							"internalType": "uint256",
							"name": "requested",
							"type": "uint256"
						},
						{
							"internalType": "uint256",
							"name": "available",
							"type": "uint256"
						}
					],
					"name": "KipuBank__InsufficientBalance",
					"type": "error"
				},
				{
					"inputs": [],
					"name": "KipuBank__NotAToken",
					"type": "error"
				},
				{
					"inputs": [],
					"name": "KipuBank__OracleCompromised",
					"type": "error"
				},
				{
					"inputs": [
						{
							"internalType": "address",
							"name": "tokenAddress",
							"type": "address"
						}
					],
					"name": "KipuBank__PriceFeedNotSet",
					"type": "error"
				},
				{
					"inputs": [],
					"name": "KipuBank__StalePrice",
					"type": "error"
				},
				{
					"inputs": [
						{
							"internalType": "address",
							"name": "to",
							"type": "address"
						},
						{
							"internalType": "uint256",
							"name": "amount",
							"type": "uint256"
						}
					],
					"name": "KipuBank__TransferFailed",
					"type": "error"
				},
				{
					"inputs": [
						{
							"internalType": "address",
							"name": "owner",
							"type": "address"
						}
					],
					"name": "OwnableInvalidOwner",
					"type": "error"
				},
				{
					"inputs": [
						{
							"internalType": "address",
							"name": "account",
							"type": "address"
						}
					],
					"name": "OwnableUnauthorizedAccount",
					"type": "error"
				},
				{
					"inputs": [
						{
							"internalType": "address",
							"name": "token",
							"type": "address"
						}
					],
					"name": "SafeERC20FailedOperation",
					"type": "error"
				},
				{
					"anonymous": false,
					"inputs": [
						{
							"indexed": true,
							"internalType": "address",
							"name": "token",
							"type": "address"
						},
						{
							"indexed": true,
							"internalType": "address",
							"name": "user",
							"type": "address"
						},
						{
							"indexed": false,
							"internalType": "uint256",
							"name": "amount",
							"type": "uint256"
						}
					],
					"name": "Deposited",
					"type": "event"
				},
				{
					"anonymous": false,
					"inputs": [
						{
							"indexed": true,
							"internalType": "address",
							"name": "previousOwner",
							"type": "address"
						},
						{
							"indexed": true,
							"internalType": "address",
							"name": "newOwner",
							"type": "address"
						}
					],
					"name": "OwnershipTransferred",
					"type": "event"
				},
				{
					"anonymous": false,
					"inputs": [
						{
							"indexed": true,
							"internalType": "address",
							"name": "token",
							"type": "address"
						},
						{
							"indexed": true,
							"internalType": "address",
							"name": "feed",
							"type": "address"
						}
					],
					"name": "PriceFeedUpdated",
					"type": "event"
				},
				{
					"anonymous": false,
					"inputs": [
						{
							"indexed": true,
							"internalType": "address",
							"name": "token",
							"type": "address"
						},
						{
							"indexed": true,
							"internalType": "address",
							"name": "user",
							"type": "address"
						},
						{
							"indexed": false,
							"internalType": "uint256",
							"name": "amount",
							"type": "uint256"
						}
					],
					"name": "Withdrawn",
					"type": "event"
				},
				{
					"stateMutability": "payable",
					"type": "fallback"
				},
				{
					"inputs": [],
					"name": "ETH_ADDRESS",
					"outputs": [
						{
							"internalType": "address",
							"name": "",
							"type": "address"
						}
					],
					"stateMutability": "view",
					"type": "function"
				},
				{
					"inputs": [],
					"name": "ORACLE_HEARTBEAT",
					"outputs": [
						{
							"internalType": "uint256",
							"name": "",
							"type": "uint256"
						}
					],
					"stateMutability": "view",
					"type": "function"
				},
				{
					"inputs": [],
					"name": "deposit",
					"outputs": [],
					"stateMutability": "payable",
					"type": "function"
				},
				{
					"inputs": [
						{
							"internalType": "address",
							"name": "_tokenAddress",
							"type": "address"
						},
						{
							"internalType": "uint256",
							"name": "_amount",
							"type": "uint256"
						}
					],
					"name": "depositToken",
					"outputs": [],
					"stateMutability": "nonpayable",
					"type": "function"
				},
				{
					"inputs": [
						{
							"internalType": "address",
							"name": "_tokenAddress",
							"type": "address"
						}
					],
					"name": "getMyBalance",
					"outputs": [
						{
							"internalType": "uint256",
							"name": "",
							"type": "uint256"
						}
					],
					"stateMutability": "view",
					"type": "function"
				},
				{
					"inputs": [],
					"name": "getTotalEthBalance",
					"outputs": [
						{
							"internalType": "uint256",
							"name": "",
							"type": "uint256"
						}
					],
					"stateMutability": "view",
					"type": "function"
				},
				{
					"inputs": [
						{
							"internalType": "address",
							"name": "_tokenAddress",
							"type": "address"
						},
						{
							"internalType": "uint256",
							"name": "_amount",
							"type": "uint256"
						}
					],
					"name": "getValueInUsd",
					"outputs": [
						{
							"internalType": "uint256",
							"name": "",
							"type": "uint256"
						}
					],
					"stateMutability": "view",
					"type": "function"
				},
				{
					"inputs": [],
					"name": "i_bankCap",
					"outputs": [
						{
							"internalType": "uint256",
							"name": "",
							"type": "uint256"
						}
					],
					"stateMutability": "view",
					"type": "function"
				},
				{
					"inputs": [],
					"name": "i_withdrawLimit",
					"outputs": [
						{
							"internalType": "uint256",
							"name": "",
							"type": "uint256"
						}
					],
					"stateMutability": "view",
					"type": "function"
				},
				{
					"inputs": [],
					"name": "owner",
					"outputs": [
						{
							"internalType": "address",
							"name": "",
							"type": "address"
						}
					],
					"stateMutability": "view",
					"type": "function"
				},
				{
					"inputs": [],
					"name": "renounceOwnership",
					"outputs": [],
					"stateMutability": "nonpayable",
					"type": "function"
				},
				{
					"inputs": [
						{
							"internalType": "address",
							"name": "",
							"type": "address"
						},
						{
							"internalType": "address",
							"name": "",
							"type": "address"
						}
					],
					"name": "s_balances",
					"outputs": [
						{
							"internalType": "uint256",
							"name": "",
							"type": "uint256"
						}
					],
					"stateMutability": "view",
					"type": "function"
				},
				{
					"inputs": [
						{
							"internalType": "address",
							"name": "",
							"type": "address"
						}
					],
					"name": "s_tokenInfo",
					"outputs": [
						{
							"internalType": "address",
							"name": "priceFeed",
							"type": "address"
						},
						{
							"internalType": "uint8",
							"name": "decimals",
							"type": "uint8"
						}
					],
					"stateMutability": "view",
					"type": "function"
				},
				{
					"inputs": [],
					"name": "s_totalDeposits",
					"outputs": [
						{
							"internalType": "uint32",
							"name": "",
							"type": "uint32"
						}
					],
					"stateMutability": "view",
					"type": "function"
				},
				{
					"inputs": [],
					"name": "s_totalUsdValue",
					"outputs": [
						{
							"internalType": "uint256",
							"name": "",
							"type": "uint256"
						}
					],
					"stateMutability": "view",
					"type": "function"
				},
				{
					"inputs": [],
					"name": "s_totalWithdrawals",
					"outputs": [
						{
							"internalType": "uint32",
							"name": "",
							"type": "uint32"
						}
					],
					"stateMutability": "view",
					"type": "function"
				},
				{
					"inputs": [
						{
							"internalType": "address",
							"name": "_tokenAddress",
							"type": "address"
						},
						{
							"internalType": "address",
							"name": "_priceFeedAddress",
							"type": "address"
						}
					],
					"name": "setPriceFeed",
					"outputs": [],
					"stateMutability": "nonpayable",
					"type": "function"
				},
				{
					"inputs": [
						{
							"internalType": "address",
							"name": "newOwner",
							"type": "address"
						}
					],
					"name": "transferOwnership",
					"outputs": [],
					"stateMutability": "nonpayable",
					"type": "function"
				},
				{
					"inputs": [
						{
							"internalType": "uint256",
							"name": "_amount",
							"type": "uint256"
						}
					],
					"name": "withdraw",
					"outputs": [],
					"stateMutability": "nonpayable",
					"type": "function"
				},
				{
					"inputs": [
						{
							"internalType": "address",
							"name": "_tokenAddress",
							"type": "address"
						},
						{
							"internalType": "uint256",
							"name": "_amount",
							"type": "uint256"
						}
					],
					"name": "withdrawToken",
					"outputs": [],
					"stateMutability": "nonpayable",
					"type": "function"
				},
				{
					"stateMutability": "payable",
					"type": "receive"
				}
			],
			"devdoc": {
				"author": "Santiago Carmenes",
				"errors": {
					"OwnableInvalidOwner(address)": [
						{
							"details": "The owner is not a valid owner account. (eg. `address(0)`)"
						}
					],
					"OwnableUnauthorizedAccount(address)": [
						{
							"details": "The caller account is not authorized to perform an operation."
						}
					],
					"SafeERC20FailedOperation(address)": [
						{
							"details": "An operation with an ERC-20 token failed."
						}
					]
				},
				"kind": "dev",
				"methods": {
					"constructor": {
						"params": {
							"_bankCap": "Total USD limit for the bank",
							"_withdrawLimit": "Maximum withdrawal limit per transaction"
						}
					},
					"deposit()": {
						"details": "Uses withinBankCap modifier to enforce bank cap"
					},
					"depositToken(address,uint256)": {
						"params": {
							"_amount": "Amount of tokens to deposit",
							"_tokenAddress": "Address of the ERC20 token"
						}
					},
					"getMyBalance(address)": {
						"params": {
							"_tokenAddress": "Address of the ERC20 token"
						},
						"returns": {
							"_0": "balance Amount of tokens available for the user"
						}
					},
					"getTotalEthBalance()": {
						"returns": {
							"_0": "totalBalance Total ETH stored in the contract"
						}
					},
					"getValueInUsd(address,uint256)": {
						"params": {
							"_amount": "Amount of tokens",
							"_tokenAddress": "Address of the token"
						},
						"returns": {
							"_0": "valueInUsd Value in USD with decimals"
						}
					},
					"owner()": {
						"details": "Returns the address of the current owner."
					},
					"renounceOwnership()": {
						"details": "Leaves the contract without owner. It will not be possible to call `onlyOwner` functions. Can only be called by the current owner. NOTE: Renouncing ownership will leave the contract without an owner, thereby disabling any functionality that is only available to the owner."
					},
					"setPriceFeed(address,address)": {
						"params": {
							"_tokenAddress": "Address of the token"
						}
					},
					"transferOwnership(address)": {
						"details": "Transfers ownership of the contract to a new account (`newOwner`). Can only be called by the current owner."
					},
					"withdraw(uint256)": {
						"details": "Uses withinWithdrawLimit and hasSufficientBalance modifiers",
						"params": {
							"_amount": "Amount of ETH to withdraw"
						}
					},
					"withdrawToken(address,uint256)": {
						"params": {
							"_amount": "Amount of tokens to withdraw",
							"_tokenAddress": "Address of the ERC20 token"
						}
					}
				},
				"stateVariables": {
					"i_bankCap": {
						"details": "Chose to use uint256 since ERC20 tokens also use uint256 for amounts"
					},
					"s_balances": {
						"details": "mapping(TokenAddress => mapping(UserAddress => Amount)) "
					},
					"s_tokenInfo": {
						"details": "mapping(TokenAddress => TokenInfo)"
					}
				},
				"title": "KipuBank - A simple bank with deposit and withdrawal limits",
				"version": 1
			},
			"evm": {
				"assembly": "    /* \"src/Kipu-Bank_v2.sol\":838:14332  contract KipuBank is Ownable {... */\n  mstore(0x40, 0xc0)\n    /* \"src/Kipu-Bank_v2.sol\":5238:5394  constructor(uint256 _bankCap, uint256 _withdrawLimit) Ownable(msg.sender) {... */\n  callvalue\n  dup1\n  iszero\n  tag_1\n  jumpi\n  revert(0x00, 0x00)\ntag_1:\n  pop\n  mload(0x40)\n  sub(codesize, bytecodeSize)\n  dup1\n  bytecodeSize\n  dup4\n  codecopy\n  dup2\n  dup2\n  add\n  0x40\n  mstore\n  dup2\n  add\n  swap1\n  tag_2\n  swap2\n  swap1\n  tag_3\n  jump\t// in\ntag_2:\n    /* \"src/Kipu-Bank_v2.sol\":5300:5310  msg.sender */\n  caller\n    /* \"lib/openzeppelin-contracts/contracts/access/Ownable.sol\":1335:1336  0 */\n  0x00\n    /* \"lib/openzeppelin-contracts/contracts/access/Ownable.sol\":1311:1337  initialOwner == address(0) */\n  0xffffffffffffffffffffffffffffffffffffffff\n  and\n    /* \"lib/openzeppelin-contracts/contracts/access/Ownable.sol\":1311:1323  initialOwner */\n  dup2\n    /* \"lib/openzeppelin-contracts/contracts/access/Ownable.sol\":1311:1337  initialOwner == address(0) */\n  0xffffffffffffffffffffffffffffffffffffffff\n  and\n  sub\n    /* \"lib/openzeppelin-contracts/contracts/access/Ownable.sol\":1307:1404  if (initialOwner == address(0)) {... */\n  tag_7\n  jumpi\n    /* \"lib/openzeppelin-contracts/contracts/access/Ownable.sol\":1389:1390  0 */\n  0x00\n    /* \"lib/openzeppelin-contracts/contracts/access/Ownable.sol\":1361:1392  OwnableInvalidOwner(address(0)) */\n  mload(0x40)\n  0x1e4fbdf700000000000000000000000000000000000000000000000000000000\n  dup2\n  mstore\n  0x04\n  add\n  tag_8\n  swap2\n  swap1\n  tag_9\n  jump\t// in\ntag_8:\n  mload(0x40)\n  dup1\n  swap2\n  sub\n  swap1\n  revert\n    /* \"lib/openzeppelin-contracts/contracts/access/Ownable.sol\":1307:1404  if (initialOwner == address(0)) {... */\ntag_7:\n    /* \"lib/openzeppelin-contracts/contracts/access/Ownable.sol\":1414:1446  _transferOwnership(initialOwner) */\n  tag_10\n    /* \"lib/openzeppelin-contracts/contracts/access/Ownable.sol\":1433:1445  initialOwner */\n  dup2\n    /* \"lib/openzeppelin-contracts/contracts/access/Ownable.sol\":1414:1432  _transferOwnership */\n  shl(0x20, tag_11)\n    /* \"lib/openzeppelin-contracts/contracts/access/Ownable.sol\":1414:1446  _transferOwnership(initialOwner) */\n  0x20\n  shr\n  jump\t// in\ntag_10:\n    /* \"lib/openzeppelin-contracts/contracts/access/Ownable.sol\":1262:1454  constructor(address initialOwner) {... */\n  pop\n    /* \"src/Kipu-Bank_v2.sol\":5335:5343  _bankCap */\n  dup2\n    /* \"src/Kipu-Bank_v2.sol\":5323:5343  i_bankCap = _bankCap */\n  0x80\n  dup2\n  dup2\n  mstore\n  pop\n  pop\n    /* \"src/Kipu-Bank_v2.sol\":5372:5386  _withdrawLimit */\n  dup1\n    /* \"src/Kipu-Bank_v2.sol\":5354:5386  i_withdrawLimit = _withdrawLimit */\n  0xa0\n  dup2\n  dup2\n  mstore\n  pop\n  pop\n    /* \"src/Kipu-Bank_v2.sol\":5238:5394  constructor(uint256 _bankCap, uint256 _withdrawLimit) Ownable(msg.sender) {... */\n  pop\n  pop\n    /* \"src/Kipu-Bank_v2.sol\":838:14332  contract KipuBank is Ownable {... */\n  jump(tag_13)\n    /* \"lib/openzeppelin-contracts/contracts/access/Ownable.sol\":3006:3197  function _transferOwnership(address newOwner) internal virtual {... */\ntag_11:\n    /* \"lib/openzeppelin-contracts/contracts/access/Ownable.sol\":3080:3096  address oldOwner */\n  0x00\n    /* \"lib/openzeppelin-contracts/contracts/access/Ownable.sol\":3099:3105  _owner */\n  0x00\n  0x00\n  swap1\n  sload\n  swap1\n  0x0100\n  exp\n  swap1\n  div\n  0xffffffffffffffffffffffffffffffffffffffff\n  and\n    /* \"lib/openzeppelin-contracts/contracts/access/Ownable.sol\":3080:3105  address oldOwner = _owner */\n  swap1\n  pop\n    /* \"lib/openzeppelin-contracts/contracts/access/Ownable.sol\":3125:3133  newOwner */\n  dup2\n    /* \"lib/openzeppelin-contracts/contracts/access/Ownable.sol\":3116:3122  _owner */\n  0x00\n  0x00\n    /* \"lib/openzeppelin-contracts/contracts/access/Ownable.sol\":3116:3133  _owner = newOwner */\n  0x0100\n  exp\n  dup2\n  sload\n  dup2\n  0xffffffffffffffffffffffffffffffffffffffff\n  mul\n  not\n  and\n  swap1\n  dup4\n  0xffffffffffffffffffffffffffffffffffffffff\n  and\n  mul\n  or\n  swap1\n  sstore\n  pop\n    /* \"lib/openzeppelin-contracts/contracts/access/Ownable.sol\":3180:3188  newOwner */\n  dup2\n    /* \"lib/openzeppelin-contracts/contracts/access/Ownable.sol\":3149:3189  OwnershipTransferred(oldOwner, newOwner) */\n  0xffffffffffffffffffffffffffffffffffffffff\n  and\n    /* \"lib/openzeppelin-contracts/contracts/access/Ownable.sol\":3170:3178  oldOwner */\n  dup2\n    /* \"lib/openzeppelin-contracts/contracts/access/Ownable.sol\":3149:3189  OwnershipTransferred(oldOwner, newOwner) */\n  0xffffffffffffffffffffffffffffffffffffffff\n  and\n  0x8be0079c531659141344cd1fd0a4f28419497f9722a3daafe3b4186f6b6457e0\n  mload(0x40)\n  mload(0x40)\n  dup1\n  swap2\n  sub\n  swap1\n  log3\n    /* \"lib/openzeppelin-contracts/contracts/access/Ownable.sol\":3069:3197  {... */\n  pop\n    /* \"lib/openzeppelin-contracts/contracts/access/Ownable.sol\":3006:3197  function _transferOwnership(address newOwner) internal virtual {... */\n  pop\n  jump\t// out\n    /* \"#utility.yul\":88:205   */\ntag_16:\n    /* \"#utility.yul\":197:198   */\n  0x00\n    /* \"#utility.yul\":194:195   */\n  0x00\n    /* \"#utility.yul\":187:199   */\n  revert\n    /* \"#utility.yul\":334:411   */\ntag_18:\n    /* \"#utility.yul\":371:378   */\n  0x00\n    /* \"#utility.yul\":400:405   */\n  dup2\n    /* \"#utility.yul\":389:405   */\n  swap1\n  pop\n    /* \"#utility.yul\":334:411   */\n  swap2\n  swap1\n  pop\n  jump\t// out\n    /* \"#utility.yul\":417:539   */\ntag_19:\n    /* \"#utility.yul\":490:514   */\n  tag_30\n    /* \"#utility.yul\":508:513   */\n  dup2\n    /* \"#utility.yul\":490:514   */\n  tag_18\n  jump\t// in\ntag_30:\n    /* \"#utility.yul\":483:488   */\n  dup2\n    /* \"#utility.yul\":480:515   */\n  eq\n    /* \"#utility.yul\":470:533   */\n  tag_31\n  jumpi\n    /* \"#utility.yul\":529:530   */\n  0x00\n    /* \"#utility.yul\":526:527   */\n  0x00\n    /* \"#utility.yul\":519:531   */\n  revert\n    /* \"#utility.yul\":470:533   */\ntag_31:\n    /* \"#utility.yul\":417:539   */\n  pop\n  jump\t// out\n    /* \"#utility.yul\":545:688   */\ntag_20:\n    /* \"#utility.yul\":602:607   */\n  0x00\n    /* \"#utility.yul\":633:639   */\n  dup2\n    /* \"#utility.yul\":627:640   */\n  mload\n    /* \"#utility.yul\":618:640   */\n  swap1\n  pop\n    /* \"#utility.yul\":649:682   */\n  tag_33\n    /* \"#utility.yul\":676:681   */\n  dup2\n    /* \"#utility.yul\":649:682   */\n  tag_19\n  jump\t// in\ntag_33:\n    /* \"#utility.yul\":545:688   */\n  swap3\n  swap2\n  pop\n  pop\n  jump\t// out\n    /* \"#utility.yul\":694:1201   */\ntag_3:\n    /* \"#utility.yul\":773:779   */\n  0x00\n    /* \"#utility.yul\":781:787   */\n  0x00\n    /* \"#utility.yul\":830:832   */\n  0x40\n    /* \"#utility.yul\":818:827   */\n  dup4\n    /* \"#utility.yul\":809:816   */\n  dup6\n    /* \"#utility.yul\":805:828   */\n  sub\n    /* \"#utility.yul\":801:833   */\n  slt\n    /* \"#utility.yul\":798:917   */\n  iszero\n  tag_35\n  jumpi\n    /* \"#utility.yul\":836:915   */\n  tag_36\n  tag_16\n  jump\t// in\ntag_36:\n    /* \"#utility.yul\":798:917   */\ntag_35:\n    /* \"#utility.yul\":956:957   */\n  0x00\n    /* \"#utility.yul\":981:1045   */\n  tag_37\n    /* \"#utility.yul\":1037:1044   */\n  dup6\n    /* \"#utility.yul\":1028:1034   */\n  dup3\n    /* \"#utility.yul\":1017:1026   */\n  dup7\n    /* \"#utility.yul\":1013:1035   */\n  add\n    /* \"#utility.yul\":981:1045   */\n  tag_20\n  jump\t// in\ntag_37:\n    /* \"#utility.yul\":971:1045   */\n  swap3\n  pop\n    /* \"#utility.yul\":927:1055   */\n  pop\n    /* \"#utility.yul\":1094:1096   */\n  0x20\n    /* \"#utility.yul\":1120:1184   */\n  tag_38\n    /* \"#utility.yul\":1176:1183   */\n  dup6\n    /* \"#utility.yul\":1167:1173   */\n  dup3\n    /* \"#utility.yul\":1156:1165   */\n  dup7\n    /* \"#utility.yul\":1152:1174   */\n  add\n    /* \"#utility.yul\":1120:1184   */\n  tag_20\n  jump\t// in\ntag_38:\n    /* \"#utility.yul\":1110:1184   */\n  swap2\n  pop\n    /* \"#utility.yul\":1065:1194   */\n  pop\n    /* \"#utility.yul\":694:1201   */\n  swap3\n  pop\n  swap3\n  swap1\n  pop\n  jump\t// out\n    /* \"#utility.yul\":1207:1333   */\ntag_21:\n    /* \"#utility.yul\":1244:1251   */\n  0x00\n    /* \"#utility.yul\":1284:1326   */\n  0xffffffffffffffffffffffffffffffffffffffff\n    /* \"#utility.yul\":1277:1282   */\n  dup3\n    /* \"#utility.yul\":1273:1327   */\n  and\n    /* \"#utility.yul\":1262:1327   */\n  swap1\n  pop\n    /* \"#utility.yul\":1207:1333   */\n  swap2\n  swap1\n  pop\n  jump\t// out\n    /* \"#utility.yul\":1339:1435   */\ntag_22:\n    /* \"#utility.yul\":1376:1383   */\n  0x00\n    /* \"#utility.yul\":1405:1429   */\n  tag_41\n    /* \"#utility.yul\":1423:1428   */\n  dup3\n    /* \"#utility.yul\":1405:1429   */\n  tag_21\n  jump\t// in\ntag_41:\n    /* \"#utility.yul\":1394:1429   */\n  swap1\n  pop\n    /* \"#utility.yul\":1339:1435   */\n  swap2\n  swap1\n  pop\n  jump\t// out\n    /* \"#utility.yul\":1441:1559   */\ntag_23:\n    /* \"#utility.yul\":1528:1552   */\n  tag_43\n    /* \"#utility.yul\":1546:1551   */\n  dup2\n    /* \"#utility.yul\":1528:1552   */\n  tag_22\n  jump\t// in\ntag_43:\n    /* \"#utility.yul\":1523:1526   */\n  dup3\n    /* \"#utility.yul\":1516:1553   */\n  mstore\n    /* \"#utility.yul\":1441:1559   */\n  pop\n  pop\n  jump\t// out\n    /* \"#utility.yul\":1565:1787   */\ntag_9:\n    /* \"#utility.yul\":1658:1662   */\n  0x00\n    /* \"#utility.yul\":1696:1698   */\n  0x20\n    /* \"#utility.yul\":1685:1694   */\n  dup3\n    /* \"#utility.yul\":1681:1699   */\n  add\n    /* \"#utility.yul\":1673:1699   */\n  swap1\n  pop\n    /* \"#utility.yul\":1709:1780   */\n  tag_45\n    /* \"#utility.yul\":1777:1778   */\n  0x00\n    /* \"#utility.yul\":1766:1775   */\n  dup4\n    /* \"#utility.yul\":1762:1779   */\n  add\n    /* \"#utility.yul\":1753:1759   */\n  dup5\n    /* \"#utility.yul\":1709:1780   */\n  tag_23\n  jump\t// in\ntag_45:\n    /* \"#utility.yul\":1565:1787   */\n  swap3\n  swap2\n  pop\n  pop\n  jump\t// out\n    /* \"src/Kipu-Bank_v2.sol\":838:14332  contract KipuBank is Ownable {... */\ntag_13:\n  mload(0x80)\n  mload(0xa0)\n  codecopy(0x00, dataOffset(sub_0), dataSize(sub_0))\n  0x00\n  assignImmutable(\"0xfcac3a328906cd87f9d71e44cbced3f71903964f2eaa0b58019ffefc2172c181\")\n  0x00\n  assignImmutable(\"0x7375017ea568916b57e2ed473624235a6147b80f0dede68541a577eedcecf3b8\")\n  return(0x00, dataSize(sub_0))\nstop\n\nsub_0: assembly {\n        /* \"src/Kipu-Bank_v2.sol\":838:14332  contract KipuBank is Ownable {... */\n      mstore(0x40, 0x80)\n      jumpi(tag_1, lt(calldatasize, 0x04))\n      shr(0xe0, calldataload(0x00))\n      dup1\n      0x8da5cb5b\n      gt\n      tag_23\n      jumpi\n      dup1\n      0xdccd58e3\n      gt\n      tag_24\n      jumpi\n      dup1\n      0xdccd58e3\n      eq\n      tag_18\n      jumpi\n      dup1\n      0xf2fde38b\n      eq\n      tag_19\n      jumpi\n      dup1\n      0xf3db702c\n      eq\n      tag_20\n      jumpi\n      dup1\n      0xf6687af7\n      eq\n      tag_21\n      jumpi\n      dup1\n      0xfe3192f6\n      eq\n      tag_22\n      jumpi\n      jump(tag_2)\n    tag_24:\n      dup1\n      0x8da5cb5b\n      eq\n      tag_13\n      jumpi\n      dup1\n      0x9e281a98\n      eq\n      tag_14\n      jumpi\n      dup1\n      0xa734f06e\n      eq\n      tag_15\n      jumpi\n      dup1\n      0xc801fb40\n      eq\n      tag_16\n      jumpi\n      dup1\n      0xd0e30db0\n      eq\n      tag_17\n      jumpi\n      jump(tag_2)\n    tag_23:\n      dup1\n      0x4a83c3b7\n      gt\n      tag_25\n      jumpi\n      dup1\n      0x4a83c3b7\n      eq\n      tag_8\n      jumpi\n      dup1\n      0x52963c2b\n      eq\n      tag_9\n      jumpi\n      dup1\n      0x715018a6\n      eq\n      tag_10\n      jumpi\n      dup1\n      0x76e11286\n      eq\n      tag_11\n      jumpi\n      dup1\n      0x7e3ef7cd\n      eq\n      tag_12\n      jumpi\n      jump(tag_2)\n    tag_25:\n      dup1\n      0x287cc96b\n      eq\n      tag_3\n      jumpi\n      dup1\n      0x2e1a7d4d\n      eq\n      tag_4\n      jumpi\n      dup1\n      0x338b5dea\n      eq\n      tag_5\n      jumpi\n      dup1\n      0x3b1a4ec4\n      eq\n      tag_6\n      jumpi\n      dup1\n      0x432017ca\n      eq\n      tag_7\n      jumpi\n      jump(tag_2)\n    tag_1:\n      jumpi(tag_2, calldatasize)\n        /* \"src/Kipu-Bank_v2.sol\":14238:14242  this */\n      address\n        /* \"src/Kipu-Bank_v2.sol\":14238:14250  this.deposit */\n      0xffffffffffffffffffffffffffffffffffffffff\n      and\n      0xd0e30db0\n        /* \"src/Kipu-Bank_v2.sol\":14238:14252  this.deposit() */\n      mload(0x40)\n      dup2\n      0xffffffff\n      and\n      0xe0\n      shl\n      dup2\n      mstore\n      0x04\n      add\n      0x00\n      mload(0x40)\n      dup1\n      dup4\n      sub\n      dup2\n      0x00\n      dup8\n      dup1\n      extcodesize\n      iszero\n      dup1\n      iszero\n      tag_28\n      jumpi\n      revert(0x00, 0x00)\n    tag_28:\n      pop\n      gas\n      call\n      iszero\n      dup1\n      iszero\n      tag_30\n      jumpi\n      returndatacopy(0x00, 0x00, returndatasize)\n      revert(0x00, returndatasize)\n    tag_30:\n      stop\n        /* \"src/Kipu-Bank_v2.sol\":838:14332  contract KipuBank is Ownable {... */\n    tag_2:\n        /* \"src/Kipu-Bank_v2.sol\":14307:14311  this */\n      address\n        /* \"src/Kipu-Bank_v2.sol\":14307:14319  this.deposit */\n      0xffffffffffffffffffffffffffffffffffffffff\n      and\n      0xd0e30db0\n        /* \"src/Kipu-Bank_v2.sol\":14307:14321  this.deposit() */\n      mload(0x40)\n      dup2\n      0xffffffff\n      and\n      0xe0\n      shl\n      dup2\n      mstore\n      0x04\n      add\n      0x00\n      mload(0x40)\n      dup1\n      dup4\n      sub\n      dup2\n      0x00\n      dup8\n      dup1\n      extcodesize\n      iszero\n      dup1\n      iszero\n      tag_33\n      jumpi\n      revert(0x00, 0x00)\n    tag_33:\n      pop\n      gas\n      call\n      iszero\n      dup1\n      iszero\n      tag_35\n      jumpi\n      returndatacopy(0x00, 0x00, returndatasize)\n      revert(0x00, returndatasize)\n    tag_35:\n      stop\n        /* \"src/Kipu-Bank_v2.sol\":9247:9356  function getTotalEthBalance() external view returns (uint256) {... */\n    tag_3:\n      callvalue\n      dup1\n      iszero\n      tag_36\n      jumpi\n      revert(0x00, 0x00)\n    tag_36:\n      pop\n      tag_37\n      tag_38\n      jump\t// in\n    tag_37:\n      mload(0x40)\n      tag_39\n      swap2\n      swap1\n      tag_40\n      jump\t// in\n    tag_39:\n      mload(0x40)\n      dup1\n      swap2\n      sub\n      swap1\n      return\n        /* \"src/Kipu-Bank_v2.sol\":8178:8356  function withdraw(uint256 _amount) external withinWithdrawLimit(_amount) hasSufficientBalance(ETH_ADDRESS, _amount) {... */\n    tag_4:\n      callvalue\n      dup1\n      iszero\n      tag_41\n      jumpi\n      revert(0x00, 0x00)\n    tag_41:\n      pop\n      tag_42\n      0x04\n      dup1\n      calldatasize\n      sub\n      dup2\n      add\n      swap1\n      tag_43\n      swap2\n      swap1\n      tag_44\n      jump\t// in\n    tag_43:\n      tag_45\n      jump\t// in\n    tag_42:\n      stop\n        /* \"src/Kipu-Bank_v2.sol\":7646:8002  function depositToken(address _tokenAddress, uint256 _amount) external withinBankCap(_tokenAddress, _amount) {... */\n    tag_5:\n      callvalue\n      dup1\n      iszero\n      tag_46\n      jumpi\n      revert(0x00, 0x00)\n    tag_46:\n      pop\n      tag_47\n      0x04\n      dup1\n      calldatasize\n      sub\n      dup2\n      add\n      swap1\n      tag_48\n      swap2\n      swap1\n      tag_49\n      jump\t// in\n    tag_48:\n      tag_50\n      jump\t// in\n    tag_47:\n      stop\n        /* \"src/Kipu-Bank_v2.sol\":2324:2354  uint256 public s_totalUsdValue */\n    tag_6:\n      callvalue\n      dup1\n      iszero\n      tag_51\n      jumpi\n      revert(0x00, 0x00)\n    tag_51:\n      pop\n      tag_52\n      tag_53\n      jump\t// in\n    tag_52:\n      mload(0x40)\n      tag_54\n      swap2\n      swap1\n      tag_40\n      jump\t// in\n    tag_54:\n      mload(0x40)\n      dup1\n      swap2\n      sub\n      swap1\n      return\n        /* \"src/Kipu-Bank_v2.sol\":3251:3299  mapping(address => TokenInfo) public s_tokenInfo */\n    tag_7:\n      callvalue\n      dup1\n      iszero\n      tag_55\n      jumpi\n      revert(0x00, 0x00)\n    tag_55:\n      pop\n      tag_56\n      0x04\n      dup1\n      calldatasize\n      sub\n      dup2\n      add\n      swap1\n      tag_57\n      swap2\n      swap1\n      tag_58\n      jump\t// in\n    tag_57:\n      tag_59\n      jump\t// in\n    tag_56:\n      mload(0x40)\n      tag_60\n      swap3\n      swap2\n      swap1\n      tag_61\n      jump\t// in\n    tag_60:\n      mload(0x40)\n      dup1\n      swap2\n      sub\n      swap1\n      return\n        /* \"src/Kipu-Bank_v2.sol\":1626:1673  uint256 public constant ORACLE_HEARTBEAT = 3600 */\n    tag_8:\n      callvalue\n      dup1\n      iszero\n      tag_62\n      jumpi\n      revert(0x00, 0x00)\n    tag_62:\n      pop\n      tag_63\n      tag_64\n      jump\t// in\n    tag_63:\n      mload(0x40)\n      tag_65\n      swap2\n      swap1\n      tag_40\n      jump\t// in\n    tag_65:\n      mload(0x40)\n      dup1\n      swap2\n      sub\n      swap1\n      return\n        /* \"src/Kipu-Bank_v2.sol\":2416:2445  uint32 public s_totalDeposits */\n    tag_9:\n      callvalue\n      dup1\n      iszero\n      tag_66\n      jumpi\n      revert(0x00, 0x00)\n    tag_66:\n      pop\n      tag_67\n      tag_68\n      jump\t// in\n    tag_67:\n      mload(0x40)\n      tag_69\n      swap2\n      swap1\n      tag_70\n      jump\t// in\n    tag_69:\n      mload(0x40)\n      dup1\n      swap2\n      sub\n      swap1\n      return\n        /* \"lib/openzeppelin-contracts/contracts/access/Ownable.sol\":2368:2471  function renounceOwnership() public virtual onlyOwner {... */\n    tag_10:\n      callvalue\n      dup1\n      iszero\n      tag_71\n      jumpi\n      revert(0x00, 0x00)\n    tag_71:\n      pop\n      tag_72\n      tag_73\n      jump\t// in\n    tag_72:\n      stop\n        /* \"src/Kipu-Bank_v2.sol\":9471:9983  function setPriceFeed(address _tokenAddress, address _priceFeedAddress) external onlyOwner {... */\n    tag_11:\n      callvalue\n      dup1\n      iszero\n      tag_74\n      jumpi\n      revert(0x00, 0x00)\n    tag_74:\n      pop\n      tag_75\n      0x04\n      dup1\n      calldatasize\n      sub\n      dup2\n      add\n      swap1\n      tag_76\n      swap2\n      swap1\n      tag_77\n      jump\t// in\n    tag_76:\n      tag_78\n      jump\t// in\n    tag_75:\n      stop\n        /* \"src/Kipu-Bank_v2.sol\":8983:9123  function getMyBalance(address _tokenAddress) external view returns (uint256) {... */\n    tag_12:\n      callvalue\n      dup1\n      iszero\n      tag_79\n      jumpi\n      revert(0x00, 0x00)\n    tag_79:\n      pop\n      tag_80\n      0x04\n      dup1\n      calldatasize\n      sub\n      dup2\n      add\n      swap1\n      tag_81\n      swap2\n      swap1\n      tag_58\n      jump\t// in\n    tag_81:\n      tag_82\n      jump\t// in\n    tag_80:\n      mload(0x40)\n      tag_83\n      swap2\n      swap1\n      tag_40\n      jump\t// in\n    tag_83:\n      mload(0x40)\n      dup1\n      swap2\n      sub\n      swap1\n      return\n        /* \"lib/openzeppelin-contracts/contracts/access/Ownable.sol\":1693:1780  function owner() public view virtual returns (address) {... */\n    tag_13:\n      callvalue\n      dup1\n      iszero\n      tag_84\n      jumpi\n      revert(0x00, 0x00)\n    tag_84:\n      pop\n      tag_85\n      tag_86\n      jump\t// in\n    tag_85:\n      mload(0x40)\n      tag_87\n      swap2\n      swap1\n      tag_88\n      jump\t// in\n    tag_87:\n      mload(0x40)\n      dup1\n      swap2\n      sub\n      swap1\n      return\n        /* \"src/Kipu-Bank_v2.sol\":8527:8807  function withdrawToken(address _tokenAddress, uint256 _amount) external hasSufficientBalance(_tokenAddress, _amount) {... */\n    tag_14:\n      callvalue\n      dup1\n      iszero\n      tag_89\n      jumpi\n      revert(0x00, 0x00)\n    tag_89:\n      pop\n      tag_90\n      0x04\n      dup1\n      calldatasize\n      sub\n      dup2\n      add\n      swap1\n      tag_91\n      swap2\n      swap1\n      tag_49\n      jump\t// in\n    tag_91:\n      tag_92\n      jump\t// in\n    tag_90:\n      stop\n        /* \"src/Kipu-Bank_v2.sol\":1498:1546  address public constant ETH_ADDRESS = address(0) */\n    tag_15:\n      callvalue\n      dup1\n      iszero\n      tag_93\n      jumpi\n      revert(0x00, 0x00)\n    tag_93:\n      pop\n      tag_94\n      tag_95\n      jump\t// in\n    tag_94:\n      mload(0x40)\n      tag_96\n      swap2\n      swap1\n      tag_88\n      jump\t// in\n    tag_96:\n      mload(0x40)\n      dup1\n      swap2\n      sub\n      swap1\n      return\n        /* \"src/Kipu-Bank_v2.sol\":2223:2263  uint256 public immutable i_withdrawLimit */\n    tag_16:\n      callvalue\n      dup1\n      iszero\n      tag_97\n      jumpi\n      revert(0x00, 0x00)\n    tag_97:\n      pop\n      tag_98\n      tag_99\n      jump\t// in\n    tag_98:\n      mload(0x40)\n      tag_100\n      swap2\n      swap1\n      tag_40\n      jump\t// in\n    tag_100:\n      mload(0x40)\n      dup1\n      swap2\n      sub\n      swap1\n      return\n        /* \"src/Kipu-Bank_v2.sol\":7340:7477  function deposit() external payable withinBankCap(ETH_ADDRESS, msg.value) {... */\n    tag_17:\n      tag_101\n      tag_102\n      jump\t// in\n    tag_101:\n      stop\n        /* \"src/Kipu-Bank_v2.sol\":3085:3150  mapping(address => mapping(address => uint256)) public s_balances */\n    tag_18:\n      callvalue\n      dup1\n      iszero\n      tag_103\n      jumpi\n      revert(0x00, 0x00)\n    tag_103:\n      pop\n      tag_104\n      0x04\n      dup1\n      calldatasize\n      sub\n      dup2\n      add\n      swap1\n      tag_105\n      swap2\n      swap1\n      tag_77\n      jump\t// in\n    tag_105:\n      tag_106\n      jump\t// in\n    tag_104:\n      mload(0x40)\n      tag_107\n      swap2\n      swap1\n      tag_40\n      jump\t// in\n    tag_107:\n      mload(0x40)\n      dup1\n      swap2\n      sub\n      swap1\n      return\n        /* \"lib/openzeppelin-contracts/contracts/access/Ownable.sol\":2626:2846  function transferOwnership(address newOwner) public virtual onlyOwner {... */\n    tag_19:\n      callvalue\n      dup1\n      iszero\n      tag_108\n      jumpi\n      revert(0x00, 0x00)\n    tag_108:\n      pop\n      tag_109\n      0x04\n      dup1\n      calldatasize\n      sub\n      dup2\n      add\n      swap1\n      tag_110\n      swap2\n      swap1\n      tag_58\n      jump\t// in\n    tag_110:\n      tag_111\n      jump\t// in\n    tag_109:\n      stop\n        /* \"src/Kipu-Bank_v2.sol\":2510:2542  uint32 public s_totalWithdrawals */\n    tag_20:\n      callvalue\n      dup1\n      iszero\n      tag_112\n      jumpi\n      revert(0x00, 0x00)\n    tag_112:\n      pop\n      tag_113\n      tag_114\n      jump\t// in\n    tag_113:\n      mload(0x40)\n      tag_115\n      swap2\n      swap1\n      tag_70\n      jump\t// in\n    tag_115:\n      mload(0x40)\n      dup1\n      swap2\n      sub\n      swap1\n      return\n        /* \"src/Kipu-Bank_v2.sol\":2107:2141  uint256 public immutable i_bankCap */\n    tag_21:\n      callvalue\n      dup1\n      iszero\n      tag_116\n      jumpi\n      revert(0x00, 0x00)\n    tag_116:\n      pop\n      tag_117\n      tag_118\n      jump\t// in\n    tag_117:\n      mload(0x40)\n      tag_119\n      swap2\n      swap1\n      tag_40\n      jump\t// in\n    tag_119:\n      mload(0x40)\n      dup1\n      swap2\n      sub\n      swap1\n      return\n        /* \"src/Kipu-Bank_v2.sol\":10466:11275  function getValueInUsd(address _tokenAddress, uint256 _amount) public view returns (uint256) {... */\n    tag_22:\n      callvalue\n      dup1\n      iszero\n      tag_120\n      jumpi\n      revert(0x00, 0x00)\n    tag_120:\n      pop\n      tag_121\n      0x04\n      dup1\n      calldatasize\n      sub\n      dup2\n      add\n      swap1\n      tag_122\n      swap2\n      swap1\n      tag_49\n      jump\t// in\n    tag_122:\n      tag_123\n      jump\t// in\n    tag_121:\n      mload(0x40)\n      tag_124\n      swap2\n      swap1\n      tag_40\n      jump\t// in\n    tag_124:\n      mload(0x40)\n      dup1\n      swap2\n      sub\n      swap1\n      return\n        /* \"src/Kipu-Bank_v2.sol\":9247:9356  function getTotalEthBalance() external view returns (uint256) {... */\n    tag_38:\n        /* \"src/Kipu-Bank_v2.sol\":9300:9307  uint256 */\n      0x00\n        /* \"src/Kipu-Bank_v2.sol\":9327:9348  address(this).balance */\n      selfbalance\n        /* \"src/Kipu-Bank_v2.sol\":9320:9348  return address(this).balance */\n      swap1\n      pop\n        /* \"src/Kipu-Bank_v2.sol\":9247:9356  function getTotalEthBalance() external view returns (uint256) {... */\n      swap1\n      jump\t// out\n        /* \"src/Kipu-Bank_v2.sol\":8178:8356  function withdraw(uint256 _amount) external withinWithdrawLimit(_amount) hasSufficientBalance(ETH_ADDRESS, _amount) {... */\n    tag_45:\n        /* \"src/Kipu-Bank_v2.sol\":8242:8249  _amount */\n      dup1\n        /* \"src/Kipu-Bank_v2.sol\":6233:6248  i_withdrawLimit */\n      immutable(\"0xfcac3a328906cd87f9d71e44cbced3f71903964f2eaa0b58019ffefc2172c181\")\n        /* \"src/Kipu-Bank_v2.sol\":6223:6230  _amount */\n      dup2\n        /* \"src/Kipu-Bank_v2.sol\":6223:6248  _amount > i_withdrawLimit */\n      gt\n        /* \"src/Kipu-Bank_v2.sol\":6219:6340  if (_amount > i_withdrawLimit) {... */\n      iszero\n      tag_127\n      jumpi\n        /* \"src/Kipu-Bank_v2.sol\":6303:6310  _amount */\n      dup1\n        /* \"src/Kipu-Bank_v2.sol\":6312:6327  i_withdrawLimit */\n      immutable(\"0xfcac3a328906cd87f9d71e44cbced3f71903964f2eaa0b58019ffefc2172c181\")\n        /* \"src/Kipu-Bank_v2.sol\":6272:6328  KipuBank__ExceedsWithdrawLimit(_amount, i_withdrawLimit) */\n      mload(0x40)\n      0x6310199600000000000000000000000000000000000000000000000000000000\n      dup2\n      mstore\n      0x04\n      add\n      tag_128\n      swap3\n      swap2\n      swap1\n      tag_129\n      jump\t// in\n    tag_128:\n      mload(0x40)\n      dup1\n      swap2\n      sub\n      swap1\n      revert\n        /* \"src/Kipu-Bank_v2.sol\":6219:6340  if (_amount > i_withdrawLimit) {... */\n    tag_127:\n        /* \"src/Kipu-Bank_v2.sol\":1544:1545  0 */\n      0x00\n        /* \"src/Kipu-Bank_v2.sol\":8285:8292  _amount */\n      dup3\n        /* \"src/Kipu-Bank_v2.sol\":6517:6527  s_balances */\n      0x03\n        /* \"src/Kipu-Bank_v2.sol\":6517:6542  s_balances[_tokenAddress] */\n      0x00\n        /* \"src/Kipu-Bank_v2.sol\":6528:6541  _tokenAddress */\n      dup4\n        /* \"src/Kipu-Bank_v2.sol\":6517:6542  s_balances[_tokenAddress] */\n      0xffffffffffffffffffffffffffffffffffffffff\n      and\n      0xffffffffffffffffffffffffffffffffffffffff\n      and\n      dup2\n      mstore\n      0x20\n      add\n      swap1\n      dup2\n      mstore\n      0x20\n      add\n      0x00\n      keccak256\n        /* \"src/Kipu-Bank_v2.sol\":6517:6554  s_balances[_tokenAddress][msg.sender] */\n      0x00\n        /* \"src/Kipu-Bank_v2.sol\":6543:6553  msg.sender */\n      caller\n        /* \"src/Kipu-Bank_v2.sol\":6517:6554  s_balances[_tokenAddress][msg.sender] */\n      0xffffffffffffffffffffffffffffffffffffffff\n      and\n      0xffffffffffffffffffffffffffffffffffffffff\n      and\n      dup2\n      mstore\n      0x20\n      add\n      swap1\n      dup2\n      mstore\n      0x20\n      add\n      0x00\n      keccak256\n      sload\n        /* \"src/Kipu-Bank_v2.sol\":6507:6514  _amount */\n      dup2\n        /* \"src/Kipu-Bank_v2.sol\":6507:6554  _amount > s_balances[_tokenAddress][msg.sender] */\n      gt\n        /* \"src/Kipu-Bank_v2.sol\":6503:6682  if (_amount > s_balances[_tokenAddress][msg.sender]) {... */\n      iszero\n      tag_131\n      jumpi\n        /* \"src/Kipu-Bank_v2.sol\":6608:6621  _tokenAddress */\n      dup2\n        /* \"src/Kipu-Bank_v2.sol\":6623:6630  _amount */\n      dup2\n        /* \"src/Kipu-Bank_v2.sol\":6632:6642  s_balances */\n      0x03\n        /* \"src/Kipu-Bank_v2.sol\":6632:6657  s_balances[_tokenAddress] */\n      0x00\n        /* \"src/Kipu-Bank_v2.sol\":6643:6656  _tokenAddress */\n      dup6\n        /* \"src/Kipu-Bank_v2.sol\":6632:6657  s_balances[_tokenAddress] */\n      0xffffffffffffffffffffffffffffffffffffffff\n      and\n      0xffffffffffffffffffffffffffffffffffffffff\n      and\n      dup2\n      mstore\n      0x20\n      add\n      swap1\n      dup2\n      mstore\n      0x20\n      add\n      0x00\n      keccak256\n        /* \"src/Kipu-Bank_v2.sol\":6632:6669  s_balances[_tokenAddress][msg.sender] */\n      0x00\n        /* \"src/Kipu-Bank_v2.sol\":6658:6668  msg.sender */\n      caller\n        /* \"src/Kipu-Bank_v2.sol\":6632:6669  s_balances[_tokenAddress][msg.sender] */\n      0xffffffffffffffffffffffffffffffffffffffff\n      and\n      0xffffffffffffffffffffffffffffffffffffffff\n      and\n      dup2\n      mstore\n      0x20\n      add\n      swap1\n      dup2\n      mstore\n      0x20\n      add\n      0x00\n      keccak256\n      sload\n        /* \"src/Kipu-Bank_v2.sol\":6578:6670  KipuBank__InsufficientBalance(_tokenAddress, _amount, s_balances[_tokenAddress][msg.sender]) */\n      mload(0x40)\n      0x5fedab0900000000000000000000000000000000000000000000000000000000\n      dup2\n      mstore\n      0x04\n      add\n      tag_132\n      swap4\n      swap3\n      swap2\n      swap1\n      tag_133\n      jump\t// in\n    tag_132:\n      mload(0x40)\n      dup1\n      swap2\n      sub\n      swap1\n      revert\n        /* \"src/Kipu-Bank_v2.sol\":6503:6682  if (_amount > s_balances[_tokenAddress][msg.sender]) {... */\n    tag_131:\n        /* \"src/Kipu-Bank_v2.sol\":8305:8348  _withdraw(ETH_ADDRESS, msg.sender, _amount) */\n      tag_135\n        /* \"src/Kipu-Bank_v2.sol\":1544:1545  0 */\n      0x00\n        /* \"src/Kipu-Bank_v2.sol\":8328:8338  msg.sender */\n      caller\n        /* \"src/Kipu-Bank_v2.sol\":8340:8347  _amount */\n      dup7\n        /* \"src/Kipu-Bank_v2.sol\":8305:8314  _withdraw */\n      tag_136\n        /* \"src/Kipu-Bank_v2.sol\":8305:8348  _withdraw(ETH_ADDRESS, msg.sender, _amount) */\n      jump\t// in\n    tag_135:\n        /* \"src/Kipu-Bank_v2.sol\":6350:6351  _ */\n      pop\n      pop\n        /* \"src/Kipu-Bank_v2.sol\":8178:8356  function withdraw(uint256 _amount) external withinWithdrawLimit(_amount) hasSufficientBalance(ETH_ADDRESS, _amount) {... */\n      pop\n      pop\n      jump\t// out\n        /* \"src/Kipu-Bank_v2.sol\":7646:8002  function depositToken(address _tokenAddress, uint256 _amount) external withinBankCap(_tokenAddress, _amount) {... */\n    tag_50:\n        /* \"src/Kipu-Bank_v2.sol\":7731:7744  _tokenAddress */\n      dup2\n        /* \"src/Kipu-Bank_v2.sol\":7746:7753  _amount */\n      dup2\n        /* \"src/Kipu-Bank_v2.sol\":5820:5841  uint256 incomingValue */\n      0x00\n        /* \"src/Kipu-Bank_v2.sol\":5844:5881  getValueInUsd(_tokenAddress, _amount) */\n      tag_138\n        /* \"src/Kipu-Bank_v2.sol\":5858:5871  _tokenAddress */\n      dup4\n        /* \"src/Kipu-Bank_v2.sol\":5873:5880  _amount */\n      dup4\n        /* \"src/Kipu-Bank_v2.sol\":5844:5857  getValueInUsd */\n      tag_123\n        /* \"src/Kipu-Bank_v2.sol\":5844:5881  getValueInUsd(_tokenAddress, _amount) */\n      jump\t// in\n    tag_138:\n        /* \"src/Kipu-Bank_v2.sol\":5820:5881  uint256 incomingValue = getValueInUsd(_tokenAddress, _amount) */\n      swap1\n      pop\n        /* \"src/Kipu-Bank_v2.sol\":5940:5949  i_bankCap */\n      immutable(\"0x7375017ea568916b57e2ed473624235a6147b80f0dede68541a577eedcecf3b8\")\n        /* \"src/Kipu-Bank_v2.sol\":5924:5937  incomingValue */\n      dup2\n        /* \"src/Kipu-Bank_v2.sol\":5906:5921  s_totalUsdValue */\n      sload(0x01)\n        /* \"src/Kipu-Bank_v2.sol\":5906:5937  s_totalUsdValue + incomingValue */\n      tag_139\n      swap2\n      swap1\n      tag_140\n      jump\t// in\n    tag_139:\n        /* \"src/Kipu-Bank_v2.sol\":5906:5949  s_totalUsdValue + incomingValue > i_bankCap */\n      gt\n        /* \"src/Kipu-Bank_v2.sol\":5902:6053  if (s_totalUsdValue + incomingValue > i_bankCap) {... */\n      iszero\n      tag_141\n      jumpi\n        /* \"src/Kipu-Bank_v2.sol\":6016:6029  incomingValue */\n      dup1\n        /* \"src/Kipu-Bank_v2.sol\":5998:6013  s_totalUsdValue */\n      sload(0x01)\n        /* \"src/Kipu-Bank_v2.sol\":5998:6029  s_totalUsdValue + incomingValue */\n      tag_142\n      swap2\n      swap1\n      tag_140\n      jump\t// in\n    tag_142:\n        /* \"src/Kipu-Bank_v2.sol\":6031:6040  i_bankCap */\n      immutable(\"0x7375017ea568916b57e2ed473624235a6147b80f0dede68541a577eedcecf3b8\")\n        /* \"src/Kipu-Bank_v2.sol\":5973:6041  KipuBank__ExceedsBankCap(s_totalUsdValue + incomingValue, i_bankCap) */\n      mload(0x40)\n      0xf6167f4e00000000000000000000000000000000000000000000000000000000\n      dup2\n      mstore\n      0x04\n      add\n      tag_143\n      swap3\n      swap2\n      swap1\n      tag_129\n      jump\t// in\n    tag_143:\n      mload(0x40)\n      dup1\n      swap2\n      sub\n      swap1\n      revert\n        /* \"src/Kipu-Bank_v2.sol\":5902:6053  if (s_totalUsdValue + incomingValue > i_bankCap) {... */\n    tag_141:\n        /* \"src/Kipu-Bank_v2.sol\":1544:1545  0 */\n      0x00\n        /* \"src/Kipu-Bank_v2.sol\":7770:7798  _tokenAddress == ETH_ADDRESS */\n      0xffffffffffffffffffffffffffffffffffffffff\n      and\n        /* \"src/Kipu-Bank_v2.sol\":7770:7783  _tokenAddress */\n      dup6\n        /* \"src/Kipu-Bank_v2.sol\":7770:7798  _tokenAddress == ETH_ADDRESS */\n      0xffffffffffffffffffffffffffffffffffffffff\n      and\n      sub\n        /* \"src/Kipu-Bank_v2.sol\":7766:7855  if (_tokenAddress == ETH_ADDRESS) {... */\n      tag_145\n      jumpi\n        /* \"src/Kipu-Bank_v2.sol\":7822:7843  KipuBank__NotAToken() */\n      mload(0x40)\n      0x7cb522e900000000000000000000000000000000000000000000000000000000\n      dup2\n      mstore\n      0x04\n      add\n      mload(0x40)\n      dup1\n      swap2\n      sub\n      swap1\n      revert\n        /* \"src/Kipu-Bank_v2.sol\":7766:7855  if (_tokenAddress == ETH_ADDRESS) {... */\n    tag_145:\n        /* \"src/Kipu-Bank_v2.sol\":7865:7939  IERC20(_tokenAddress).safeTransferFrom(msg.sender, address(this), _amount) */\n      tag_146\n        /* \"src/Kipu-Bank_v2.sol\":7904:7914  msg.sender */\n      caller\n        /* \"src/Kipu-Bank_v2.sol\":7924:7928  this */\n      address\n        /* \"src/Kipu-Bank_v2.sol\":7931:7938  _amount */\n      dup7\n        /* \"src/Kipu-Bank_v2.sol\":7872:7885  _tokenAddress */\n      dup9\n        /* \"src/Kipu-Bank_v2.sol\":7865:7903  IERC20(_tokenAddress).safeTransferFrom */\n      0xffffffffffffffffffffffffffffffffffffffff\n      and\n      tag_147\n      swap1\n        /* \"src/Kipu-Bank_v2.sol\":7865:7939  IERC20(_tokenAddress).safeTransferFrom(msg.sender, address(this), _amount) */\n      swap4\n      swap3\n      swap2\n      swap1\n      0xffffffff\n      and\n      jump\t// in\n    tag_146:\n        /* \"src/Kipu-Bank_v2.sol\":7950:7994  _deposit(_tokenAddress, msg.sender, _amount) */\n      tag_148\n        /* \"src/Kipu-Bank_v2.sol\":7959:7972  _tokenAddress */\n      dup6\n        /* \"src/Kipu-Bank_v2.sol\":7974:7984  msg.sender */\n      caller\n        /* \"src/Kipu-Bank_v2.sol\":7986:7993  _amount */\n      dup7\n        /* \"src/Kipu-Bank_v2.sol\":7950:7958  _deposit */\n      tag_149\n        /* \"src/Kipu-Bank_v2.sol\":7950:7994  _deposit(_tokenAddress, msg.sender, _amount) */\n      jump\t// in\n    tag_148:\n        /* \"src/Kipu-Bank_v2.sol\":5809:6072  {... */\n      pop\n        /* \"src/Kipu-Bank_v2.sol\":7646:8002  function depositToken(address _tokenAddress, uint256 _amount) external withinBankCap(_tokenAddress, _amount) {... */\n      pop\n      pop\n      pop\n      pop\n      jump\t// out\n        /* \"src/Kipu-Bank_v2.sol\":2324:2354  uint256 public s_totalUsdValue */\n    tag_53:\n      sload(0x01)\n      dup2\n      jump\t// out\n        /* \"src/Kipu-Bank_v2.sol\":3251:3299  mapping(address => TokenInfo) public s_tokenInfo */\n    tag_59:\n      mstore(0x20, 0x04)\n      dup1\n      0x00\n      mstore\n      keccak256(0x00, 0x40)\n      0x00\n      swap2\n      pop\n      swap1\n      pop\n      dup1\n      0x00\n      add\n      0x00\n      swap1\n      sload\n      swap1\n      0x0100\n      exp\n      swap1\n      div\n      0xffffffffffffffffffffffffffffffffffffffff\n      and\n      swap1\n      dup1\n      0x00\n      add\n      0x14\n      swap1\n      sload\n      swap1\n      0x0100\n      exp\n      swap1\n      div\n      0xff\n      and\n      swap1\n      pop\n      dup3\n      jump\t// out\n        /* \"src/Kipu-Bank_v2.sol\":1626:1673  uint256 public constant ORACLE_HEARTBEAT = 3600 */\n    tag_64:\n        /* \"src/Kipu-Bank_v2.sol\":1669:1673  3600 */\n      0x0e10\n        /* \"src/Kipu-Bank_v2.sol\":1626:1673  uint256 public constant ORACLE_HEARTBEAT = 3600 */\n      dup2\n      jump\t// out\n        /* \"src/Kipu-Bank_v2.sol\":2416:2445  uint32 public s_totalDeposits */\n    tag_68:\n      0x02\n      0x00\n      swap1\n      sload\n      swap1\n      0x0100\n      exp\n      swap1\n      div\n      0xffffffff\n      and\n      dup2\n      jump\t// out\n        /* \"lib/openzeppelin-contracts/contracts/access/Ownable.sol\":2368:2471  function renounceOwnership() public virtual onlyOwner {... */\n    tag_73:\n        /* \"lib/openzeppelin-contracts/contracts/access/Ownable.sol\":1579:1592  _checkOwner() */\n      tag_151\n        /* \"lib/openzeppelin-contracts/contracts/access/Ownable.sol\":1579:1590  _checkOwner */\n      tag_152\n        /* \"lib/openzeppelin-contracts/contracts/access/Ownable.sol\":1579:1592  _checkOwner() */\n      jump\t// in\n    tag_151:\n        /* \"lib/openzeppelin-contracts/contracts/access/Ownable.sol\":2433:2463  _transferOwnership(address(0)) */\n      tag_154\n        /* \"lib/openzeppelin-contracts/contracts/access/Ownable.sol\":2460:2461  0 */\n      0x00\n        /* \"lib/openzeppelin-contracts/contracts/access/Ownable.sol\":2433:2451  _transferOwnership */\n      tag_155\n        /* \"lib/openzeppelin-contracts/contracts/access/Ownable.sol\":2433:2463  _transferOwnership(address(0)) */\n      jump\t// in\n    tag_154:\n        /* \"lib/openzeppelin-contracts/contracts/access/Ownable.sol\":2368:2471  function renounceOwnership() public virtual onlyOwner {... */\n      jump\t// out\n        /* \"src/Kipu-Bank_v2.sol\":9471:9983  function setPriceFeed(address _tokenAddress, address _priceFeedAddress) external onlyOwner {... */\n    tag_78:\n        /* \"lib/openzeppelin-contracts/contracts/access/Ownable.sol\":1579:1592  _checkOwner() */\n      tag_157\n        /* \"lib/openzeppelin-contracts/contracts/access/Ownable.sol\":1579:1590  _checkOwner */\n      tag_152\n        /* \"lib/openzeppelin-contracts/contracts/access/Ownable.sol\":1579:1592  _checkOwner() */\n      jump\t// in\n    tag_157:\n        /* \"src/Kipu-Bank_v2.sol\":9573:9587  uint8 decimals */\n      0x00\n        /* \"src/Kipu-Bank_v2.sol\":1544:1545  0 */\n      0x00\n        /* \"src/Kipu-Bank_v2.sol\":9602:9630  _tokenAddress == ETH_ADDRESS */\n      0xffffffffffffffffffffffffffffffffffffffff\n      and\n        /* \"src/Kipu-Bank_v2.sol\":9602:9615  _tokenAddress */\n      dup4\n        /* \"src/Kipu-Bank_v2.sol\":9602:9630  _tokenAddress == ETH_ADDRESS */\n      0xffffffffffffffffffffffffffffffffffffffff\n      and\n      sub\n        /* \"src/Kipu-Bank_v2.sol\":9598:9756  if (_tokenAddress == ETH_ADDRESS) {... */\n      tag_159\n      jumpi\n        /* \"src/Kipu-Bank_v2.sol\":9658:9660  18 */\n      0x12\n        /* \"src/Kipu-Bank_v2.sol\":9647:9660  decimals = 18 */\n      swap1\n      pop\n        /* \"src/Kipu-Bank_v2.sol\":9598:9756  if (_tokenAddress == ETH_ADDRESS) {... */\n      jump(tag_160)\n    tag_159:\n        /* \"src/Kipu-Bank_v2.sol\":9719:9732  _tokenAddress */\n      dup3\n        /* \"src/Kipu-Bank_v2.sol\":9704:9742  IERC20Metadata(_tokenAddress).decimals */\n      0xffffffffffffffffffffffffffffffffffffffff\n      and\n      0x313ce567\n        /* \"src/Kipu-Bank_v2.sol\":9704:9744  IERC20Metadata(_tokenAddress).decimals() */\n      mload(0x40)\n      dup2\n      0xffffffff\n      and\n      0xe0\n      shl\n      dup2\n      mstore\n      0x04\n      add\n      0x20\n      mload(0x40)\n      dup1\n      dup4\n      sub\n      dup2\n      dup7\n      gas\n      staticcall\n      iszero\n      dup1\n      iszero\n      tag_162\n      jumpi\n      returndatacopy(0x00, 0x00, returndatasize)\n      revert(0x00, returndatasize)\n    tag_162:\n      pop\n      pop\n      pop\n      pop\n      mload(0x40)\n      returndatasize\n      not(0x1f)\n      0x1f\n      dup3\n      add\n      and\n      dup3\n      add\n      dup1\n      0x40\n      mstore\n      pop\n      dup2\n      add\n      swap1\n      tag_163\n      swap2\n      swap1\n      tag_164\n      jump\t// in\n    tag_163:\n        /* \"src/Kipu-Bank_v2.sol\":9693:9744  decimals = IERC20Metadata(_tokenAddress).decimals() */\n      swap1\n      pop\n        /* \"src/Kipu-Bank_v2.sol\":9598:9756  if (_tokenAddress == ETH_ADDRESS) {... */\n    tag_160:\n        /* \"src/Kipu-Bank_v2.sol\":9768:9790  TokenInfo memory token */\n      0x00\n        /* \"src/Kipu-Bank_v2.sol\":9793:9854  TokenInfo({priceFeed: _priceFeedAddress, decimals: decimals}) */\n      mload(0x40)\n      dup1\n      0x40\n      add\n      0x40\n      mstore\n      dup1\n        /* \"src/Kipu-Bank_v2.sol\":9815:9832  _priceFeedAddress */\n      dup5\n        /* \"src/Kipu-Bank_v2.sol\":9793:9854  TokenInfo({priceFeed: _priceFeedAddress, decimals: decimals}) */\n      0xffffffffffffffffffffffffffffffffffffffff\n      and\n      dup2\n      mstore\n      0x20\n      add\n        /* \"src/Kipu-Bank_v2.sol\":9844:9852  decimals */\n      dup4\n        /* \"src/Kipu-Bank_v2.sol\":9793:9854  TokenInfo({priceFeed: _priceFeedAddress, decimals: decimals}) */\n      0xff\n      and\n      dup2\n      mstore\n      pop\n        /* \"src/Kipu-Bank_v2.sol\":9768:9854  TokenInfo memory token = TokenInfo({priceFeed: _priceFeedAddress, decimals: decimals}) */\n      swap1\n      pop\n        /* \"src/Kipu-Bank_v2.sol\":9894:9899  token */\n      dup1\n        /* \"src/Kipu-Bank_v2.sol\":9865:9876  s_tokenInfo */\n      0x04\n        /* \"src/Kipu-Bank_v2.sol\":9865:9891  s_tokenInfo[_tokenAddress] */\n      0x00\n        /* \"src/Kipu-Bank_v2.sol\":9877:9890  _tokenAddress */\n      dup7\n        /* \"src/Kipu-Bank_v2.sol\":9865:9891  s_tokenInfo[_tokenAddress] */\n      0xffffffffffffffffffffffffffffffffffffffff\n      and\n      0xffffffffffffffffffffffffffffffffffffffff\n      and\n      dup2\n      mstore\n      0x20\n      add\n      swap1\n      dup2\n      mstore\n      0x20\n      add\n      0x00\n      keccak256\n        /* \"src/Kipu-Bank_v2.sol\":9865:9899  s_tokenInfo[_tokenAddress] = token */\n      0x00\n      dup3\n      add\n      mload\n      dup2\n      0x00\n      add\n      exp(0x0100, 0x00)\n      dup2\n      sload\n      dup2\n      0xffffffffffffffffffffffffffffffffffffffff\n      mul\n      not\n      and\n      swap1\n      dup4\n      0xffffffffffffffffffffffffffffffffffffffff\n      and\n      mul\n      or\n      swap1\n      sstore\n      pop\n      0x20\n      dup3\n      add\n      mload\n      dup2\n      0x00\n      add\n      exp(0x0100, 0x14)\n      dup2\n      sload\n      dup2\n      0xff\n      mul\n      not\n      and\n      swap1\n      dup4\n      0xff\n      and\n      mul\n      or\n      swap1\n      sstore\n      pop\n      swap1\n      pop\n      pop\n        /* \"src/Kipu-Bank_v2.sol\":9957:9974  _priceFeedAddress */\n      dup3\n        /* \"src/Kipu-Bank_v2.sol\":9925:9975  PriceFeedUpdated(_tokenAddress, _priceFeedAddress) */\n      0xffffffffffffffffffffffffffffffffffffffff\n      and\n        /* \"src/Kipu-Bank_v2.sol\":9942:9955  _tokenAddress */\n      dup5\n        /* \"src/Kipu-Bank_v2.sol\":9925:9975  PriceFeedUpdated(_tokenAddress, _priceFeedAddress) */\n      0xffffffffffffffffffffffffffffffffffffffff\n      and\n      0xa8abe0398416476db5b05737cd4da3b3cbde5012d978a6a6c3fd49d321753536\n      mload(0x40)\n      mload(0x40)\n      dup1\n      swap2\n      sub\n      swap1\n      log3\n        /* \"src/Kipu-Bank_v2.sol\":9562:9983  {... */\n      pop\n      pop\n        /* \"src/Kipu-Bank_v2.sol\":9471:9983  function setPriceFeed(address _tokenAddress, address _priceFeedAddress) external onlyOwner {... */\n      pop\n      pop\n      jump\t// out\n        /* \"src/Kipu-Bank_v2.sol\":8983:9123  function getMyBalance(address _tokenAddress) external view returns (uint256) {... */\n    tag_82:\n        /* \"src/Kipu-Bank_v2.sol\":9051:9058  uint256 */\n      0x00\n        /* \"src/Kipu-Bank_v2.sol\":9078:9088  s_balances */\n      0x03\n        /* \"src/Kipu-Bank_v2.sol\":9078:9103  s_balances[_tokenAddress] */\n      0x00\n        /* \"src/Kipu-Bank_v2.sol\":9089:9102  _tokenAddress */\n      dup4\n        /* \"src/Kipu-Bank_v2.sol\":9078:9103  s_balances[_tokenAddress] */\n      0xffffffffffffffffffffffffffffffffffffffff\n      and\n      0xffffffffffffffffffffffffffffffffffffffff\n      and\n      dup2\n      mstore\n      0x20\n      add\n      swap1\n      dup2\n      mstore\n      0x20\n      add\n      0x00\n      keccak256\n        /* \"src/Kipu-Bank_v2.sol\":9078:9115  s_balances[_tokenAddress][msg.sender] */\n      0x00\n        /* \"src/Kipu-Bank_v2.sol\":9104:9114  msg.sender */\n      caller\n        /* \"src/Kipu-Bank_v2.sol\":9078:9115  s_balances[_tokenAddress][msg.sender] */\n      0xffffffffffffffffffffffffffffffffffffffff\n      and\n      0xffffffffffffffffffffffffffffffffffffffff\n      and\n      dup2\n      mstore\n      0x20\n      add\n      swap1\n      dup2\n      mstore\n      0x20\n      add\n      0x00\n      keccak256\n      sload\n        /* \"src/Kipu-Bank_v2.sol\":9071:9115  return s_balances[_tokenAddress][msg.sender] */\n      swap1\n      pop\n        /* \"src/Kipu-Bank_v2.sol\":8983:9123  function getMyBalance(address _tokenAddress) external view returns (uint256) {... */\n      swap2\n      swap1\n      pop\n      jump\t// out\n        /* \"lib/openzeppelin-contracts/contracts/access/Ownable.sol\":1693:1780  function owner() public view virtual returns (address) {... */\n    tag_86:\n        /* \"lib/openzeppelin-contracts/contracts/access/Ownable.sol\":1739:1746  address */\n      0x00\n        /* \"lib/openzeppelin-contracts/contracts/access/Ownable.sol\":1766:1772  _owner */\n      0x00\n      0x00\n      swap1\n      sload\n      swap1\n      0x0100\n      exp\n      swap1\n      div\n      0xffffffffffffffffffffffffffffffffffffffff\n      and\n        /* \"lib/openzeppelin-contracts/contracts/access/Ownable.sol\":1759:1772  return _owner */\n      swap1\n      pop\n        /* \"lib/openzeppelin-contracts/contracts/access/Ownable.sol\":1693:1780  function owner() public view virtual returns (address) {... */\n      swap1\n      jump\t// out\n        /* \"src/Kipu-Bank_v2.sol\":8527:8807  function withdrawToken(address _tokenAddress, uint256 _amount) external hasSufficientBalance(_tokenAddress, _amount) {... */\n    tag_92:\n        /* \"src/Kipu-Bank_v2.sol\":8620:8633  _tokenAddress */\n      dup2\n        /* \"src/Kipu-Bank_v2.sol\":8635:8642  _amount */\n      dup2\n        /* \"src/Kipu-Bank_v2.sol\":6517:6527  s_balances */\n      0x03\n        /* \"src/Kipu-Bank_v2.sol\":6517:6542  s_balances[_tokenAddress] */\n      0x00\n        /* \"src/Kipu-Bank_v2.sol\":6528:6541  _tokenAddress */\n      dup4\n        /* \"src/Kipu-Bank_v2.sol\":6517:6542  s_balances[_tokenAddress] */\n      0xffffffffffffffffffffffffffffffffffffffff\n      and\n      0xffffffffffffffffffffffffffffffffffffffff\n      and\n      dup2\n      mstore\n      0x20\n      add\n      swap1\n      dup2\n      mstore\n      0x20\n      add\n      0x00\n      keccak256\n        /* \"src/Kipu-Bank_v2.sol\":6517:6554  s_balances[_tokenAddress][msg.sender] */\n      0x00\n        /* \"src/Kipu-Bank_v2.sol\":6543:6553  msg.sender */\n      caller\n        /* \"src/Kipu-Bank_v2.sol\":6517:6554  s_balances[_tokenAddress][msg.sender] */\n      0xffffffffffffffffffffffffffffffffffffffff\n      and\n      0xffffffffffffffffffffffffffffffffffffffff\n      and\n      dup2\n      mstore\n      0x20\n      add\n      swap1\n      dup2\n      mstore\n      0x20\n      add\n      0x00\n      keccak256\n      sload\n        /* \"src/Kipu-Bank_v2.sol\":6507:6514  _amount */\n      dup2\n        /* \"src/Kipu-Bank_v2.sol\":6507:6554  _amount > s_balances[_tokenAddress][msg.sender] */\n      gt\n        /* \"src/Kipu-Bank_v2.sol\":6503:6682  if (_amount > s_balances[_tokenAddress][msg.sender]) {... */\n      iszero\n      tag_168\n      jumpi\n        /* \"src/Kipu-Bank_v2.sol\":6608:6621  _tokenAddress */\n      dup2\n        /* \"src/Kipu-Bank_v2.sol\":6623:6630  _amount */\n      dup2\n        /* \"src/Kipu-Bank_v2.sol\":6632:6642  s_balances */\n      0x03\n        /* \"src/Kipu-Bank_v2.sol\":6632:6657  s_balances[_tokenAddress] */\n      0x00\n        /* \"src/Kipu-Bank_v2.sol\":6643:6656  _tokenAddress */\n      dup6\n        /* \"src/Kipu-Bank_v2.sol\":6632:6657  s_balances[_tokenAddress] */\n      0xffffffffffffffffffffffffffffffffffffffff\n      and\n      0xffffffffffffffffffffffffffffffffffffffff\n      and\n      dup2\n      mstore\n      0x20\n      add\n      swap1\n      dup2\n      mstore\n      0x20\n      add\n      0x00\n      keccak256\n        /* \"src/Kipu-Bank_v2.sol\":6632:6669  s_balances[_tokenAddress][msg.sender] */\n      0x00\n        /* \"src/Kipu-Bank_v2.sol\":6658:6668  msg.sender */\n      caller\n        /* \"src/Kipu-Bank_v2.sol\":6632:6669  s_balances[_tokenAddress][msg.sender] */\n      0xffffffffffffffffffffffffffffffffffffffff\n      and\n      0xffffffffffffffffffffffffffffffffffffffff\n      and\n      dup2\n      mstore\n      0x20\n      add\n      swap1\n      dup2\n      mstore\n      0x20\n      add\n      0x00\n      keccak256\n      sload\n        /* \"src/Kipu-Bank_v2.sol\":6578:6670  KipuBank__InsufficientBalance(_tokenAddress, _amount, s_balances[_tokenAddress][msg.sender]) */\n      mload(0x40)\n      0x5fedab0900000000000000000000000000000000000000000000000000000000\n      dup2\n      mstore\n      0x04\n      add\n      tag_169\n      swap4\n      swap3\n      swap2\n      swap1\n      tag_133\n      jump\t// in\n    tag_169:\n      mload(0x40)\n      dup1\n      swap2\n      sub\n      swap1\n      revert\n        /* \"src/Kipu-Bank_v2.sol\":6503:6682  if (_amount > s_balances[_tokenAddress][msg.sender]) {... */\n    tag_168:\n        /* \"src/Kipu-Bank_v2.sol\":1544:1545  0 */\n      0x00\n        /* \"src/Kipu-Bank_v2.sol\":8659:8687  _tokenAddress == ETH_ADDRESS */\n      0xffffffffffffffffffffffffffffffffffffffff\n      and\n        /* \"src/Kipu-Bank_v2.sol\":8659:8672  _tokenAddress */\n      dup5\n        /* \"src/Kipu-Bank_v2.sol\":8659:8687  _tokenAddress == ETH_ADDRESS */\n      0xffffffffffffffffffffffffffffffffffffffff\n      and\n      sub\n        /* \"src/Kipu-Bank_v2.sol\":8655:8744  if (_tokenAddress == ETH_ADDRESS) {... */\n      tag_171\n      jumpi\n        /* \"src/Kipu-Bank_v2.sol\":8711:8732  KipuBank__NotAToken() */\n      mload(0x40)\n      0x7cb522e900000000000000000000000000000000000000000000000000000000\n      dup2\n      mstore\n      0x04\n      add\n      mload(0x40)\n      dup1\n      swap2\n      sub\n      swap1\n      revert\n        /* \"src/Kipu-Bank_v2.sol\":8655:8744  if (_tokenAddress == ETH_ADDRESS) {... */\n    tag_171:\n        /* \"src/Kipu-Bank_v2.sol\":8754:8799  _withdraw(_tokenAddress, msg.sender, _amount) */\n      tag_172\n        /* \"src/Kipu-Bank_v2.sol\":8764:8777  _tokenAddress */\n      dup5\n        /* \"src/Kipu-Bank_v2.sol\":8779:8789  msg.sender */\n      caller\n        /* \"src/Kipu-Bank_v2.sol\":8791:8798  _amount */\n      dup6\n        /* \"src/Kipu-Bank_v2.sol\":8754:8763  _withdraw */\n      tag_136\n        /* \"src/Kipu-Bank_v2.sol\":8754:8799  _withdraw(_tokenAddress, msg.sender, _amount) */\n      jump\t// in\n    tag_172:\n        /* \"src/Kipu-Bank_v2.sol\":8527:8807  function withdrawToken(address _tokenAddress, uint256 _amount) external hasSufficientBalance(_tokenAddress, _amount) {... */\n      pop\n      pop\n      pop\n      pop\n      jump\t// out\n        /* \"src/Kipu-Bank_v2.sol\":1498:1546  address public constant ETH_ADDRESS = address(0) */\n    tag_95:\n        /* \"src/Kipu-Bank_v2.sol\":1544:1545  0 */\n      0x00\n        /* \"src/Kipu-Bank_v2.sol\":1498:1546  address public constant ETH_ADDRESS = address(0) */\n      dup2\n      jump\t// out\n        /* \"src/Kipu-Bank_v2.sol\":2223:2263  uint256 public immutable i_withdrawLimit */\n    tag_99:\n      immutable(\"0xfcac3a328906cd87f9d71e44cbced3f71903964f2eaa0b58019ffefc2172c181\")\n      dup2\n      jump\t// out\n        /* \"src/Kipu-Bank_v2.sol\":7340:7477  function deposit() external payable withinBankCap(ETH_ADDRESS, msg.value) {... */\n    tag_102:\n        /* \"src/Kipu-Bank_v2.sol\":1544:1545  0 */\n      0x00\n        /* \"src/Kipu-Bank_v2.sol\":7403:7412  msg.value */\n      callvalue\n        /* \"src/Kipu-Bank_v2.sol\":5820:5841  uint256 incomingValue */\n      0x00\n        /* \"src/Kipu-Bank_v2.sol\":5844:5881  getValueInUsd(_tokenAddress, _amount) */\n      tag_174\n        /* \"src/Kipu-Bank_v2.sol\":5858:5871  _tokenAddress */\n      dup4\n        /* \"src/Kipu-Bank_v2.sol\":5873:5880  _amount */\n      dup4\n        /* \"src/Kipu-Bank_v2.sol\":5844:5857  getValueInUsd */\n      tag_123\n        /* \"src/Kipu-Bank_v2.sol\":5844:5881  getValueInUsd(_tokenAddress, _amount) */\n      jump\t// in\n    tag_174:\n        /* \"src/Kipu-Bank_v2.sol\":5820:5881  uint256 incomingValue = getValueInUsd(_tokenAddress, _amount) */\n      swap1\n      pop\n        /* \"src/Kipu-Bank_v2.sol\":5940:5949  i_bankCap */\n      immutable(\"0x7375017ea568916b57e2ed473624235a6147b80f0dede68541a577eedcecf3b8\")\n        /* \"src/Kipu-Bank_v2.sol\":5924:5937  incomingValue */\n      dup2\n        /* \"src/Kipu-Bank_v2.sol\":5906:5921  s_totalUsdValue */\n      sload(0x01)\n        /* \"src/Kipu-Bank_v2.sol\":5906:5937  s_totalUsdValue + incomingValue */\n      tag_175\n      swap2\n      swap1\n      tag_140\n      jump\t// in\n    tag_175:\n        /* \"src/Kipu-Bank_v2.sol\":5906:5949  s_totalUsdValue + incomingValue > i_bankCap */\n      gt\n        /* \"src/Kipu-Bank_v2.sol\":5902:6053  if (s_totalUsdValue + incomingValue > i_bankCap) {... */\n      iszero\n      tag_176\n      jumpi\n        /* \"src/Kipu-Bank_v2.sol\":6016:6029  incomingValue */\n      dup1\n        /* \"src/Kipu-Bank_v2.sol\":5998:6013  s_totalUsdValue */\n      sload(0x01)\n        /* \"src/Kipu-Bank_v2.sol\":5998:6029  s_totalUsdValue + incomingValue */\n      tag_177\n      swap2\n      swap1\n      tag_140\n      jump\t// in\n    tag_177:\n        /* \"src/Kipu-Bank_v2.sol\":6031:6040  i_bankCap */\n      immutable(\"0x7375017ea568916b57e2ed473624235a6147b80f0dede68541a577eedcecf3b8\")\n        /* \"src/Kipu-Bank_v2.sol\":5973:6041  KipuBank__ExceedsBankCap(s_totalUsdValue + incomingValue, i_bankCap) */\n      mload(0x40)\n      0xf6167f4e00000000000000000000000000000000000000000000000000000000\n      dup2\n      mstore\n      0x04\n      add\n      tag_178\n      swap3\n      swap2\n      swap1\n      tag_129\n      jump\t// in\n    tag_178:\n      mload(0x40)\n      dup1\n      swap2\n      sub\n      swap1\n      revert\n        /* \"src/Kipu-Bank_v2.sol\":5902:6053  if (s_totalUsdValue + incomingValue > i_bankCap) {... */\n    tag_176:\n        /* \"src/Kipu-Bank_v2.sol\":7425:7469  _deposit(ETH_ADDRESS, msg.sender, msg.value) */\n      tag_180\n        /* \"src/Kipu-Bank_v2.sol\":1544:1545  0 */\n      0x00\n        /* \"src/Kipu-Bank_v2.sol\":7447:7457  msg.sender */\n      caller\n        /* \"src/Kipu-Bank_v2.sol\":7459:7468  msg.value */\n      callvalue\n        /* \"src/Kipu-Bank_v2.sol\":7425:7433  _deposit */\n      tag_149\n        /* \"src/Kipu-Bank_v2.sol\":7425:7469  _deposit(ETH_ADDRESS, msg.sender, msg.value) */\n      jump\t// in\n    tag_180:\n        /* \"src/Kipu-Bank_v2.sol\":5809:6072  {... */\n      pop\n        /* \"src/Kipu-Bank_v2.sol\":7340:7477  function deposit() external payable withinBankCap(ETH_ADDRESS, msg.value) {... */\n      pop\n      pop\n      jump\t// out\n        /* \"src/Kipu-Bank_v2.sol\":3085:3150  mapping(address => mapping(address => uint256)) public s_balances */\n    tag_106:\n      mstore(0x20, 0x03)\n      dup2\n      0x00\n      mstore\n      mstore(0x20, keccak256(0x00, 0x40))\n      dup1\n      0x00\n      mstore\n      keccak256(0x00, 0x40)\n      0x00\n      swap2\n      pop\n      swap2\n      pop\n      pop\n      sload\n      dup2\n      jump\t// out\n        /* \"lib/openzeppelin-contracts/contracts/access/Ownable.sol\":2626:2846  function transferOwnership(address newOwner) public virtual onlyOwner {... */\n    tag_111:\n        /* \"lib/openzeppelin-contracts/contracts/access/Ownable.sol\":1579:1592  _checkOwner() */\n      tag_182\n        /* \"lib/openzeppelin-contracts/contracts/access/Ownable.sol\":1579:1590  _checkOwner */\n      tag_152\n        /* \"lib/openzeppelin-contracts/contracts/access/Ownable.sol\":1579:1592  _checkOwner() */\n      jump\t// in\n    tag_182:\n        /* \"lib/openzeppelin-contracts/contracts/access/Ownable.sol\":2731:2732  0 */\n      0x00\n        /* \"lib/openzeppelin-contracts/contracts/access/Ownable.sol\":2711:2733  newOwner == address(0) */\n      0xffffffffffffffffffffffffffffffffffffffff\n      and\n        /* \"lib/openzeppelin-contracts/contracts/access/Ownable.sol\":2711:2719  newOwner */\n      dup2\n        /* \"lib/openzeppelin-contracts/contracts/access/Ownable.sol\":2711:2733  newOwner == address(0) */\n      0xffffffffffffffffffffffffffffffffffffffff\n      and\n      sub\n        /* \"lib/openzeppelin-contracts/contracts/access/Ownable.sol\":2707:2800  if (newOwner == address(0)) {... */\n      tag_184\n      jumpi\n        /* \"lib/openzeppelin-contracts/contracts/access/Ownable.sol\":2785:2786  0 */\n      0x00\n        /* \"lib/openzeppelin-contracts/contracts/access/Ownable.sol\":2757:2788  OwnableInvalidOwner(address(0)) */\n      mload(0x40)\n      0x1e4fbdf700000000000000000000000000000000000000000000000000000000\n      dup2\n      mstore\n      0x04\n      add\n      tag_185\n      swap2\n      swap1\n      tag_88\n      jump\t// in\n    tag_185:\n      mload(0x40)\n      dup1\n      swap2\n      sub\n      swap1\n      revert\n        /* \"lib/openzeppelin-contracts/contracts/access/Ownable.sol\":2707:2800  if (newOwner == address(0)) {... */\n    tag_184:\n        /* \"lib/openzeppelin-contracts/contracts/access/Ownable.sol\":2810:2838  _transferOwnership(newOwner) */\n      tag_186\n        /* \"lib/openzeppelin-contracts/contracts/access/Ownable.sol\":2829:2837  newOwner */\n      dup2\n        /* \"lib/openzeppelin-contracts/contracts/access/Ownable.sol\":2810:2828  _transferOwnership */\n      tag_155\n        /* \"lib/openzeppelin-contracts/contracts/access/Ownable.sol\":2810:2838  _transferOwnership(newOwner) */\n      jump\t// in\n    tag_186:\n        /* \"lib/openzeppelin-contracts/contracts/access/Ownable.sol\":2626:2846  function transferOwnership(address newOwner) public virtual onlyOwner {... */\n      pop\n      jump\t// out\n        /* \"src/Kipu-Bank_v2.sol\":2510:2542  uint32 public s_totalWithdrawals */\n    tag_114:\n      0x02\n      0x04\n      swap1\n      sload\n      swap1\n      0x0100\n      exp\n      swap1\n      div\n      0xffffffff\n      and\n      dup2\n      jump\t// out\n        /* \"src/Kipu-Bank_v2.sol\":2107:2141  uint256 public immutable i_bankCap */\n    tag_118:\n      immutable(\"0x7375017ea568916b57e2ed473624235a6147b80f0dede68541a577eedcecf3b8\")\n      dup2\n      jump\t// out\n        /* \"src/Kipu-Bank_v2.sol\":10466:11275  function getValueInUsd(address _tokenAddress, uint256 _amount) public view returns (uint256) {... */\n    tag_123:\n        /* \"src/Kipu-Bank_v2.sol\":10550:10557  uint256 */\n      0x00\n        /* \"src/Kipu-Bank_v2.sol\":10570:10592  TokenInfo memory token */\n      0x00\n        /* \"src/Kipu-Bank_v2.sol\":10595:10606  s_tokenInfo */\n      0x04\n        /* \"src/Kipu-Bank_v2.sol\":10595:10621  s_tokenInfo[_tokenAddress] */\n      0x00\n        /* \"src/Kipu-Bank_v2.sol\":10607:10620  _tokenAddress */\n      dup6\n        /* \"src/Kipu-Bank_v2.sol\":10595:10621  s_tokenInfo[_tokenAddress] */\n      0xffffffffffffffffffffffffffffffffffffffff\n      and\n      0xffffffffffffffffffffffffffffffffffffffff\n      and\n      dup2\n      mstore\n      0x20\n      add\n      swap1\n      dup2\n      mstore\n      0x20\n      add\n      0x00\n      keccak256\n        /* \"src/Kipu-Bank_v2.sol\":10570:10621  TokenInfo memory token = s_tokenInfo[_tokenAddress] */\n      mload(0x40)\n      dup1\n      0x40\n      add\n      0x40\n      mstore\n      swap1\n      dup2\n      0x00\n      dup3\n      add\n      0x00\n      swap1\n      sload\n      swap1\n      0x0100\n      exp\n      swap1\n      div\n      0xffffffffffffffffffffffffffffffffffffffff\n      and\n      0xffffffffffffffffffffffffffffffffffffffff\n      and\n      0xffffffffffffffffffffffffffffffffffffffff\n      and\n      dup2\n      mstore\n      0x20\n      add\n      0x00\n      dup3\n      add\n      0x14\n      swap1\n      sload\n      swap1\n      0x0100\n      exp\n      swap1\n      div\n      0xff\n      and\n      0xff\n      and\n      0xff\n      and\n      dup2\n      mstore\n      pop\n      pop\n      swap1\n      pop\n        /* \"src/Kipu-Bank_v2.sol\":10673:10674  0 */\n      0x00\n        /* \"src/Kipu-Bank_v2.sol\":10646:10675  token.priceFeed == address(0) */\n      0xffffffffffffffffffffffffffffffffffffffff\n      and\n        /* \"src/Kipu-Bank_v2.sol\":10646:10651  token */\n      dup2\n        /* \"src/Kipu-Bank_v2.sol\":10646:10661  token.priceFeed */\n      0x00\n      add\n      mload\n        /* \"src/Kipu-Bank_v2.sol\":10646:10675  token.priceFeed == address(0) */\n      0xffffffffffffffffffffffffffffffffffffffff\n      and\n      sub\n        /* \"src/Kipu-Bank_v2.sol\":10642:10751  if (token.priceFeed == address(0)) {... */\n      tag_188\n      jumpi\n        /* \"src/Kipu-Bank_v2.sol\":10725:10738  _tokenAddress */\n      dup4\n        /* \"src/Kipu-Bank_v2.sol\":10699:10739  KipuBank__PriceFeedNotSet(_tokenAddress) */\n      mload(0x40)\n      0xc25bec5600000000000000000000000000000000000000000000000000000000\n      dup2\n      mstore\n      0x04\n      add\n      tag_189\n      swap2\n      swap1\n      tag_88\n      jump\t// in\n    tag_189:\n      mload(0x40)\n      dup1\n      swap2\n      sub\n      swap1\n      revert\n        /* \"src/Kipu-Bank_v2.sol\":10642:10751  if (token.priceFeed == address(0)) {... */\n    tag_188:\n        /* \"src/Kipu-Bank_v2.sol\":10771:10802  AggregatorV3Interface priceFeed */\n      0x00\n        /* \"src/Kipu-Bank_v2.sol\":10827:10832  token */\n      dup2\n        /* \"src/Kipu-Bank_v2.sol\":10827:10842  token.priceFeed */\n      0x00\n      add\n      mload\n        /* \"src/Kipu-Bank_v2.sol\":10771:10843  AggregatorV3Interface priceFeed = AggregatorV3Interface(token.priceFeed) */\n      swap1\n      pop\n        /* \"src/Kipu-Bank_v2.sol\":10857:10869  int256 price */\n      0x00\n        /* \"src/Kipu-Bank_v2.sol\":10873:10890  uint256 updatedAt */\n      0x00\n        /* \"src/Kipu-Bank_v2.sol\":10896:10905  priceFeed */\n      dup3\n        /* \"src/Kipu-Bank_v2.sol\":10896:10921  priceFeed.latestRoundData */\n      0xffffffffffffffffffffffffffffffffffffffff\n      and\n      0xfeaf968c\n        /* \"src/Kipu-Bank_v2.sol\":10896:10923  priceFeed.latestRoundData() */\n      mload(0x40)\n      dup2\n      0xffffffff\n      and\n      0xe0\n      shl\n      dup2\n      mstore\n      0x04\n      add\n      0xa0\n      mload(0x40)\n      dup1\n      dup4\n      sub\n      dup2\n      dup7\n      gas\n      staticcall\n      iszero\n      dup1\n      iszero\n      tag_191\n      jumpi\n      returndatacopy(0x00, 0x00, returndatasize)\n      revert(0x00, returndatasize)\n    tag_191:\n      pop\n      pop\n      pop\n      pop\n      mload(0x40)\n      returndatasize\n      not(0x1f)\n      0x1f\n      dup3\n      add\n      and\n      dup3\n      add\n      dup1\n      0x40\n      mstore\n      pop\n      dup2\n      add\n      swap1\n      tag_192\n      swap2\n      swap1\n      tag_193\n      jump\t// in\n    tag_192:\n        /* \"src/Kipu-Bank_v2.sol\":10854:10923  (, int256 price, , uint256 updatedAt, ) = priceFeed.latestRoundData() */\n      pop\n      swap4\n      pop\n      pop\n      swap3\n      pop\n      pop\n        /* \"src/Kipu-Bank_v2.sol\":10949:10950  0 */\n      0x00\n        /* \"src/Kipu-Bank_v2.sol\":10940:10945  price */\n      dup3\n        /* \"src/Kipu-Bank_v2.sol\":10940:10950  price <= 0 */\n      sgt\n        /* \"src/Kipu-Bank_v2.sol\":10936:11015  if (price <= 0) {... */\n      tag_194\n      jumpi\n        /* \"src/Kipu-Bank_v2.sol\":10974:11003  KipuBank__OracleCompromised() */\n      mload(0x40)\n      0x780cfa4700000000000000000000000000000000000000000000000000000000\n      dup2\n      mstore\n      0x04\n      add\n      mload(0x40)\n      dup1\n      swap2\n      sub\n      swap1\n      revert\n        /* \"src/Kipu-Bank_v2.sol\":10936:11015  if (price <= 0) {... */\n    tag_194:\n        /* \"src/Kipu-Bank_v2.sol\":1669:1673  3600 */\n      0x0e10\n        /* \"src/Kipu-Bank_v2.sol\":11047:11056  updatedAt */\n      dup2\n        /* \"src/Kipu-Bank_v2.sol\":11029:11044  block.timestamp */\n      timestamp\n        /* \"src/Kipu-Bank_v2.sol\":11029:11056  block.timestamp - updatedAt */\n      tag_195\n      swap2\n      swap1\n      tag_196\n      jump\t// in\n    tag_195:\n        /* \"src/Kipu-Bank_v2.sol\":11029:11075  block.timestamp - updatedAt > ORACLE_HEARTBEAT */\n      gt\n        /* \"src/Kipu-Bank_v2.sol\":11025:11133  if (block.timestamp - updatedAt > ORACLE_HEARTBEAT) {... */\n      iszero\n      tag_197\n      jumpi\n        /* \"src/Kipu-Bank_v2.sol\":11099:11121  KipuBank__StalePrice() */\n      mload(0x40)\n      0x71a821df00000000000000000000000000000000000000000000000000000000\n      dup2\n      mstore\n      0x04\n      add\n      mload(0x40)\n      dup1\n      swap2\n      sub\n      swap1\n      revert\n        /* \"src/Kipu-Bank_v2.sol\":11025:11133  if (block.timestamp - updatedAt > ORACLE_HEARTBEAT) {... */\n    tag_197:\n        /* \"src/Kipu-Bank_v2.sol\":11251:11256  token */\n      dup4\n        /* \"src/Kipu-Bank_v2.sol\":11251:11265  token.decimals */\n      0x20\n      add\n      mload\n        /* \"src/Kipu-Bank_v2.sol\":11243:11266  uint256(token.decimals) */\n      0xff\n      and\n        /* \"src/Kipu-Bank_v2.sol\":11239:11241  10 */\n      0x0a\n        /* \"src/Kipu-Bank_v2.sol\":11239:11266  10**uint256(token.decimals) */\n      tag_198\n      swap2\n      swap1\n      tag_199\n      jump\t// in\n    tag_198:\n        /* \"src/Kipu-Bank_v2.sol\":11228:11233  price */\n      dup3\n        /* \"src/Kipu-Bank_v2.sol\":11210:11217  _amount */\n      dup8\n        /* \"src/Kipu-Bank_v2.sol\":11210:11234  _amount * uint256(price) */\n      tag_200\n      swap2\n      swap1\n      tag_201\n      jump\t// in\n    tag_200:\n        /* \"src/Kipu-Bank_v2.sol\":11209:11267  (_amount * uint256(price)) / (10**uint256(token.decimals)) */\n      tag_202\n      swap2\n      swap1\n      tag_203\n      jump\t// in\n    tag_202:\n        /* \"src/Kipu-Bank_v2.sol\":11202:11267  return (_amount * uint256(price)) / (10**uint256(token.decimals)) */\n      swap5\n      pop\n      pop\n      pop\n      pop\n      pop\n        /* \"src/Kipu-Bank_v2.sol\":10466:11275  function getValueInUsd(address _tokenAddress, uint256 _amount) public view returns (uint256) {... */\n      swap3\n      swap2\n      pop\n      pop\n      jump\t// out\n        /* \"src/Kipu-Bank_v2.sol\":12282:12830  function _withdraw(address _tokenAddress, address _user, uint256 _amount) internal nonZeroAmount(_amount) {... */\n    tag_136:\n        /* \"src/Kipu-Bank_v2.sol\":12379:12386  _amount */\n      dup1\n        /* \"src/Kipu-Bank_v2.sol\":6832:6833  0 */\n      0x00\n        /* \"src/Kipu-Bank_v2.sol\":6821:6828  _amount */\n      dup2\n        /* \"src/Kipu-Bank_v2.sol\":6821:6833  _amount == 0 */\n      sub\n        /* \"src/Kipu-Bank_v2.sol\":6817:6908  if (_amount == 0) {... */\n      tag_205\n      jumpi\n        /* \"src/Kipu-Bank_v2.sol\":6857:6896  KipuBank__AmountMustBeGreaterThanZero() */\n      mload(0x40)\n      0xfa4e609e00000000000000000000000000000000000000000000000000000000\n      dup2\n      mstore\n      0x04\n      add\n      mload(0x40)\n      dup1\n      swap2\n      sub\n      swap1\n      revert\n        /* \"src/Kipu-Bank_v2.sol\":6817:6908  if (_amount == 0) {... */\n    tag_205:\n        /* \"src/Kipu-Bank_v2.sol\":12435:12442  _amount */\n      dup2\n        /* \"src/Kipu-Bank_v2.sol\":12399:12409  s_balances */\n      0x03\n        /* \"src/Kipu-Bank_v2.sol\":12399:12424  s_balances[_tokenAddress] */\n      0x00\n        /* \"src/Kipu-Bank_v2.sol\":12410:12423  _tokenAddress */\n      dup7\n        /* \"src/Kipu-Bank_v2.sol\":12399:12424  s_balances[_tokenAddress] */\n      0xffffffffffffffffffffffffffffffffffffffff\n      and\n      0xffffffffffffffffffffffffffffffffffffffff\n      and\n      dup2\n      mstore\n      0x20\n      add\n      swap1\n      dup2\n      mstore\n      0x20\n      add\n      0x00\n      keccak256\n        /* \"src/Kipu-Bank_v2.sol\":12399:12431  s_balances[_tokenAddress][_user] */\n      0x00\n        /* \"src/Kipu-Bank_v2.sol\":12425:12430  _user */\n      dup6\n        /* \"src/Kipu-Bank_v2.sol\":12399:12431  s_balances[_tokenAddress][_user] */\n      0xffffffffffffffffffffffffffffffffffffffff\n      and\n      0xffffffffffffffffffffffffffffffffffffffff\n      and\n      dup2\n      mstore\n      0x20\n      add\n      swap1\n      dup2\n      mstore\n      0x20\n      add\n      0x00\n      keccak256\n      0x00\n        /* \"src/Kipu-Bank_v2.sol\":12399:12442  s_balances[_tokenAddress][_user] -= _amount */\n      dup3\n      dup3\n      sload\n      tag_207\n      swap2\n      swap1\n      tag_196\n      jump\t// in\n    tag_207:\n      swap3\n      pop\n      pop\n      dup2\n      swap1\n      sstore\n      pop\n        /* \"src/Kipu-Bank_v2.sol\":12453:12475  _updateCounters(false) */\n      tag_208\n        /* \"src/Kipu-Bank_v2.sol\":12469:12474  false */\n      0x00\n        /* \"src/Kipu-Bank_v2.sol\":12453:12468  _updateCounters */\n      tag_209\n        /* \"src/Kipu-Bank_v2.sol\":12453:12475  _updateCounters(false) */\n      jump\t// in\n    tag_208:\n        /* \"src/Kipu-Bank_v2.sol\":12488:12501  uint256 value */\n      0x00\n        /* \"src/Kipu-Bank_v2.sol\":12504:12541  getValueInUsd(_tokenAddress, _amount) */\n      tag_210\n        /* \"src/Kipu-Bank_v2.sol\":12518:12531  _tokenAddress */\n      dup6\n        /* \"src/Kipu-Bank_v2.sol\":12533:12540  _amount */\n      dup5\n        /* \"src/Kipu-Bank_v2.sol\":12504:12517  getValueInUsd */\n      tag_123\n        /* \"src/Kipu-Bank_v2.sol\":12504:12541  getValueInUsd(_tokenAddress, _amount) */\n      jump\t// in\n    tag_210:\n        /* \"src/Kipu-Bank_v2.sol\":12488:12541  uint256 value = getValueInUsd(_tokenAddress, _amount) */\n      swap1\n      pop\n        /* \"src/Kipu-Bank_v2.sol\":12571:12576  value */\n      dup1\n        /* \"src/Kipu-Bank_v2.sol\":12552:12567  s_totalUsdValue */\n      0x01\n      0x00\n        /* \"src/Kipu-Bank_v2.sol\":12552:12576  s_totalUsdValue -= value */\n      dup3\n      dup3\n      sload\n      tag_211\n      swap2\n      swap1\n      tag_196\n      jump\t// in\n    tag_211:\n      swap3\n      pop\n      pop\n      dup2\n      swap1\n      sstore\n      pop\n        /* \"src/Kipu-Bank_v2.sol\":1544:1545  0 */\n      0x00\n        /* \"src/Kipu-Bank_v2.sol\":12593:12621  _tokenAddress == ETH_ADDRESS */\n      0xffffffffffffffffffffffffffffffffffffffff\n      and\n        /* \"src/Kipu-Bank_v2.sol\":12593:12606  _tokenAddress */\n      dup6\n        /* \"src/Kipu-Bank_v2.sol\":12593:12621  _tokenAddress == ETH_ADDRESS */\n      0xffffffffffffffffffffffffffffffffffffffff\n      and\n      sub\n        /* \"src/Kipu-Bank_v2.sol\":12589:12765  if (_tokenAddress == ETH_ADDRESS) {... */\n      tag_212\n      jumpi\n        /* \"src/Kipu-Bank_v2.sol\":12638:12670  _safeTransferEth(_user, _amount) */\n      tag_213\n        /* \"src/Kipu-Bank_v2.sol\":12655:12660  _user */\n      dup5\n        /* \"src/Kipu-Bank_v2.sol\":12662:12669  _amount */\n      dup5\n        /* \"src/Kipu-Bank_v2.sol\":12638:12654  _safeTransferEth */\n      tag_214\n        /* \"src/Kipu-Bank_v2.sol\":12638:12670  _safeTransferEth(_user, _amount) */\n      jump\t// in\n    tag_213:\n        /* \"src/Kipu-Bank_v2.sol\":12589:12765  if (_tokenAddress == ETH_ADDRESS) {... */\n      jump(tag_215)\n    tag_212:\n        /* \"src/Kipu-Bank_v2.sol\":12703:12753  IERC20(_tokenAddress).safeTransfer(_user, _amount) */\n      tag_216\n        /* \"src/Kipu-Bank_v2.sol\":12738:12743  _user */\n      dup5\n        /* \"src/Kipu-Bank_v2.sol\":12745:12752  _amount */\n      dup5\n        /* \"src/Kipu-Bank_v2.sol\":12710:12723  _tokenAddress */\n      dup8\n        /* \"src/Kipu-Bank_v2.sol\":12703:12737  IERC20(_tokenAddress).safeTransfer */\n      0xffffffffffffffffffffffffffffffffffffffff\n      and\n      tag_217\n      swap1\n        /* \"src/Kipu-Bank_v2.sol\":12703:12753  IERC20(_tokenAddress).safeTransfer(_user, _amount) */\n      swap3\n      swap2\n      swap1\n      0xffffffff\n      and\n      jump\t// in\n    tag_216:\n        /* \"src/Kipu-Bank_v2.sol\":12589:12765  if (_tokenAddress == ETH_ADDRESS) {... */\n    tag_215:\n        /* \"src/Kipu-Bank_v2.sol\":12807:12812  _user */\n      dup4\n        /* \"src/Kipu-Bank_v2.sol\":12782:12822  Withdrawn(_tokenAddress, _user, _amount) */\n      0xffffffffffffffffffffffffffffffffffffffff\n      and\n        /* \"src/Kipu-Bank_v2.sol\":12792:12805  _tokenAddress */\n      dup6\n        /* \"src/Kipu-Bank_v2.sol\":12782:12822  Withdrawn(_tokenAddress, _user, _amount) */\n      0xffffffffffffffffffffffffffffffffffffffff\n      and\n      0xd1c19fbcd4551a5edfb66d43d2e337c04837afda3482b42bdf569a8fccdae5fb\n        /* \"src/Kipu-Bank_v2.sol\":12814:12821  _amount */\n      dup6\n        /* \"src/Kipu-Bank_v2.sol\":12782:12822  Withdrawn(_tokenAddress, _user, _amount) */\n      mload(0x40)\n      tag_218\n      swap2\n      swap1\n      tag_40\n      jump\t// in\n    tag_218:\n      mload(0x40)\n      dup1\n      swap2\n      sub\n      swap1\n      log3\n        /* \"src/Kipu-Bank_v2.sol\":12388:12830  {... */\n      pop\n        /* \"src/Kipu-Bank_v2.sol\":12282:12830  function _withdraw(address _tokenAddress, address _user, uint256 _amount) internal nonZeroAmount(_amount) {... */\n      pop\n      pop\n      pop\n      pop\n      jump\t// out\n        /* \"lib/openzeppelin-contracts/contracts/token/ERC20/utils/SafeERC20.sol\":1704:1940  function safeTransferFrom(IERC20 token, address from, address to, uint256 value) internal {... */\n    tag_147:\n        /* \"lib/openzeppelin-contracts/contracts/token/ERC20/utils/SafeERC20.sol\":1810:1857  _safeTransferFrom(token, from, to, value, true) */\n      tag_220\n        /* \"lib/openzeppelin-contracts/contracts/token/ERC20/utils/SafeERC20.sol\":1828:1833  token */\n      dup5\n        /* \"lib/openzeppelin-contracts/contracts/token/ERC20/utils/SafeERC20.sol\":1835:1839  from */\n      dup5\n        /* \"lib/openzeppelin-contracts/contracts/token/ERC20/utils/SafeERC20.sol\":1841:1843  to */\n      dup5\n        /* \"lib/openzeppelin-contracts/contracts/token/ERC20/utils/SafeERC20.sol\":1845:1850  value */\n      dup5\n        /* \"lib/openzeppelin-contracts/contracts/token/ERC20/utils/SafeERC20.sol\":1852:1856  true */\n      0x01\n        /* \"lib/openzeppelin-contracts/contracts/token/ERC20/utils/SafeERC20.sol\":1810:1827  _safeTransferFrom */\n      tag_221\n        /* \"lib/openzeppelin-contracts/contracts/token/ERC20/utils/SafeERC20.sol\":1810:1857  _safeTransferFrom(token, from, to, value, true) */\n      jump\t// in\n    tag_220:\n        /* \"lib/openzeppelin-contracts/contracts/token/ERC20/utils/SafeERC20.sol\":1805:1933  if (!_safeTransferFrom(token, from, to, value, true)) {... */\n      tag_222\n      jumpi\n        /* \"lib/openzeppelin-contracts/contracts/token/ERC20/utils/SafeERC20.sol\":1914:1919  token */\n      dup4\n        /* \"lib/openzeppelin-contracts/contracts/token/ERC20/utils/SafeERC20.sol\":1881:1921  SafeERC20FailedOperation(address(token)) */\n      mload(0x40)\n      0x5274afe700000000000000000000000000000000000000000000000000000000\n      dup2\n      mstore\n      0x04\n      add\n      tag_223\n      swap2\n      swap1\n      tag_88\n      jump\t// in\n    tag_223:\n      mload(0x40)\n      dup1\n      swap2\n      sub\n      swap1\n      revert\n        /* \"lib/openzeppelin-contracts/contracts/token/ERC20/utils/SafeERC20.sol\":1805:1933  if (!_safeTransferFrom(token, from, to, value, true)) {... */\n    tag_222:\n        /* \"lib/openzeppelin-contracts/contracts/token/ERC20/utils/SafeERC20.sol\":1704:1940  function safeTransferFrom(IERC20 token, address from, address to, uint256 value) internal {... */\n      pop\n      pop\n      pop\n      pop\n      jump\t// out\n        /* \"src/Kipu-Bank_v2.sol\":11736:12094  function _deposit(address _tokenAddress, address _user, uint256 _amount) internal nonZeroAmount(_amount) {... */\n    tag_149:\n        /* \"src/Kipu-Bank_v2.sol\":11832:11839  _amount */\n      dup1\n        /* \"src/Kipu-Bank_v2.sol\":6832:6833  0 */\n      0x00\n        /* \"src/Kipu-Bank_v2.sol\":6821:6828  _amount */\n      dup2\n        /* \"src/Kipu-Bank_v2.sol\":6821:6833  _amount == 0 */\n      sub\n        /* \"src/Kipu-Bank_v2.sol\":6817:6908  if (_amount == 0) {... */\n      tag_225\n      jumpi\n        /* \"src/Kipu-Bank_v2.sol\":6857:6896  KipuBank__AmountMustBeGreaterThanZero() */\n      mload(0x40)\n      0xfa4e609e00000000000000000000000000000000000000000000000000000000\n      dup2\n      mstore\n      0x04\n      add\n      mload(0x40)\n      dup1\n      swap2\n      sub\n      swap1\n      revert\n        /* \"src/Kipu-Bank_v2.sol\":6817:6908  if (_amount == 0) {... */\n    tag_225:\n        /* \"src/Kipu-Bank_v2.sol\":11888:11895  _amount */\n      dup2\n        /* \"src/Kipu-Bank_v2.sol\":11852:11862  s_balances */\n      0x03\n        /* \"src/Kipu-Bank_v2.sol\":11852:11877  s_balances[_tokenAddress] */\n      0x00\n        /* \"src/Kipu-Bank_v2.sol\":11863:11876  _tokenAddress */\n      dup7\n        /* \"src/Kipu-Bank_v2.sol\":11852:11877  s_balances[_tokenAddress] */\n      0xffffffffffffffffffffffffffffffffffffffff\n      and\n      0xffffffffffffffffffffffffffffffffffffffff\n      and\n      dup2\n      mstore\n      0x20\n      add\n      swap1\n      dup2\n      mstore\n      0x20\n      add\n      0x00\n      keccak256\n        /* \"src/Kipu-Bank_v2.sol\":11852:11884  s_balances[_tokenAddress][_user] */\n      0x00\n        /* \"src/Kipu-Bank_v2.sol\":11878:11883  _user */\n      dup6\n        /* \"src/Kipu-Bank_v2.sol\":11852:11884  s_balances[_tokenAddress][_user] */\n      0xffffffffffffffffffffffffffffffffffffffff\n      and\n      0xffffffffffffffffffffffffffffffffffffffff\n      and\n      dup2\n      mstore\n      0x20\n      add\n      swap1\n      dup2\n      mstore\n      0x20\n      add\n      0x00\n      keccak256\n      0x00\n        /* \"src/Kipu-Bank_v2.sol\":11852:11895  s_balances[_tokenAddress][_user] += _amount */\n      dup3\n      dup3\n      sload\n      tag_227\n      swap2\n      swap1\n      tag_140\n      jump\t// in\n    tag_227:\n      swap3\n      pop\n      pop\n      dup2\n      swap1\n      sstore\n      pop\n        /* \"src/Kipu-Bank_v2.sol\":11906:11927  _updateCounters(true) */\n      tag_228\n        /* \"src/Kipu-Bank_v2.sol\":11922:11926  true */\n      0x01\n        /* \"src/Kipu-Bank_v2.sol\":11906:11921  _updateCounters */\n      tag_209\n        /* \"src/Kipu-Bank_v2.sol\":11906:11927  _updateCounters(true) */\n      jump\t// in\n    tag_228:\n        /* \"src/Kipu-Bank_v2.sol\":11940:11953  uint256 value */\n      0x00\n        /* \"src/Kipu-Bank_v2.sol\":11956:11993  getValueInUsd(_tokenAddress, _amount) */\n      tag_229\n        /* \"src/Kipu-Bank_v2.sol\":11970:11983  _tokenAddress */\n      dup6\n        /* \"src/Kipu-Bank_v2.sol\":11985:11992  _amount */\n      dup5\n        /* \"src/Kipu-Bank_v2.sol\":11956:11969  getValueInUsd */\n      tag_123\n        /* \"src/Kipu-Bank_v2.sol\":11956:11993  getValueInUsd(_tokenAddress, _amount) */\n      jump\t// in\n    tag_229:\n        /* \"src/Kipu-Bank_v2.sol\":11940:11993  uint256 value = getValueInUsd(_tokenAddress, _amount) */\n      swap1\n      pop\n        /* \"src/Kipu-Bank_v2.sol\":12023:12028  value */\n      dup1\n        /* \"src/Kipu-Bank_v2.sol\":12004:12019  s_totalUsdValue */\n      0x01\n      0x00\n        /* \"src/Kipu-Bank_v2.sol\":12004:12028  s_totalUsdValue += value */\n      dup3\n      dup3\n      sload\n      tag_230\n      swap2\n      swap1\n      tag_140\n      jump\t// in\n    tag_230:\n      swap3\n      pop\n      pop\n      dup2\n      swap1\n      sstore\n      pop\n        /* \"src/Kipu-Bank_v2.sol\":12071:12076  _user */\n      dup4\n        /* \"src/Kipu-Bank_v2.sol\":12046:12086  Deposited(_tokenAddress, _user, _amount) */\n      0xffffffffffffffffffffffffffffffffffffffff\n      and\n        /* \"src/Kipu-Bank_v2.sol\":12056:12069  _tokenAddress */\n      dup6\n        /* \"src/Kipu-Bank_v2.sol\":12046:12086  Deposited(_tokenAddress, _user, _amount) */\n      0xffffffffffffffffffffffffffffffffffffffff\n      and\n      0x8752a472e571a816aea92eec8dae9baf628e840f4929fbcc2d155e6233ff68a7\n        /* \"src/Kipu-Bank_v2.sol\":12078:12085  _amount */\n      dup6\n        /* \"src/Kipu-Bank_v2.sol\":12046:12086  Deposited(_tokenAddress, _user, _amount) */\n      mload(0x40)\n      tag_231\n      swap2\n      swap1\n      tag_40\n      jump\t// in\n    tag_231:\n      mload(0x40)\n      dup1\n      swap2\n      sub\n      swap1\n      log3\n        /* \"src/Kipu-Bank_v2.sol\":11841:12094  {... */\n      pop\n        /* \"src/Kipu-Bank_v2.sol\":11736:12094  function _deposit(address _tokenAddress, address _user, uint256 _amount) internal nonZeroAmount(_amount) {... */\n      pop\n      pop\n      pop\n      pop\n      jump\t// out\n        /* \"lib/openzeppelin-contracts/contracts/access/Ownable.sol\":1858:2024  function _checkOwner() internal view virtual {... */\n    tag_152:\n        /* \"lib/openzeppelin-contracts/contracts/access/Ownable.sol\":1929:1941  _msgSender() */\n      tag_233\n        /* \"lib/openzeppelin-contracts/contracts/access/Ownable.sol\":1929:1939  _msgSender */\n      tag_234\n        /* \"lib/openzeppelin-contracts/contracts/access/Ownable.sol\":1929:1941  _msgSender() */\n      jump\t// in\n    tag_233:\n        /* \"lib/openzeppelin-contracts/contracts/access/Ownable.sol\":1918:1941  owner() != _msgSender() */\n      0xffffffffffffffffffffffffffffffffffffffff\n      and\n        /* \"lib/openzeppelin-contracts/contracts/access/Ownable.sol\":1918:1925  owner() */\n      tag_235\n        /* \"lib/openzeppelin-contracts/contracts/access/Ownable.sol\":1918:1923  owner */\n      tag_86\n        /* \"lib/openzeppelin-contracts/contracts/access/Ownable.sol\":1918:1925  owner() */\n      jump\t// in\n    tag_235:\n        /* \"lib/openzeppelin-contracts/contracts/access/Ownable.sol\":1918:1941  owner() != _msgSender() */\n      0xffffffffffffffffffffffffffffffffffffffff\n      and\n      eq\n        /* \"lib/openzeppelin-contracts/contracts/access/Ownable.sol\":1914:2017  if (owner() != _msgSender()) {... */\n      tag_236\n      jumpi\n        /* \"lib/openzeppelin-contracts/contracts/access/Ownable.sol\":1992:2004  _msgSender() */\n      tag_237\n        /* \"lib/openzeppelin-contracts/contracts/access/Ownable.sol\":1992:2002  _msgSender */\n      tag_234\n        /* \"lib/openzeppelin-contracts/contracts/access/Ownable.sol\":1992:2004  _msgSender() */\n      jump\t// in\n    tag_237:\n        /* \"lib/openzeppelin-contracts/contracts/access/Ownable.sol\":1965:2005  OwnableUnauthorizedAccount(_msgSender()) */\n      mload(0x40)\n      0x118cdaa700000000000000000000000000000000000000000000000000000000\n      dup2\n      mstore\n      0x04\n      add\n      tag_238\n      swap2\n      swap1\n      tag_88\n      jump\t// in\n    tag_238:\n      mload(0x40)\n      dup1\n      swap2\n      sub\n      swap1\n      revert\n        /* \"lib/openzeppelin-contracts/contracts/access/Ownable.sol\":1914:2017  if (owner() != _msgSender()) {... */\n    tag_236:\n        /* \"lib/openzeppelin-contracts/contracts/access/Ownable.sol\":1858:2024  function _checkOwner() internal view virtual {... */\n      jump\t// out\n        /* \"lib/openzeppelin-contracts/contracts/access/Ownable.sol\":3006:3197  function _transferOwnership(address newOwner) internal virtual {... */\n    tag_155:\n        /* \"lib/openzeppelin-contracts/contracts/access/Ownable.sol\":3080:3096  address oldOwner */\n      0x00\n        /* \"lib/openzeppelin-contracts/contracts/access/Ownable.sol\":3099:3105  _owner */\n      0x00\n      0x00\n      swap1\n      sload\n      swap1\n      0x0100\n      exp\n      swap1\n      div\n      0xffffffffffffffffffffffffffffffffffffffff\n      and\n        /* \"lib/openzeppelin-contracts/contracts/access/Ownable.sol\":3080:3105  address oldOwner = _owner */\n      swap1\n      pop\n        /* \"lib/openzeppelin-contracts/contracts/access/Ownable.sol\":3125:3133  newOwner */\n      dup2\n        /* \"lib/openzeppelin-contracts/contracts/access/Ownable.sol\":3116:3122  _owner */\n      0x00\n      0x00\n        /* \"lib/openzeppelin-contracts/contracts/access/Ownable.sol\":3116:3133  _owner = newOwner */\n      0x0100\n      exp\n      dup2\n      sload\n      dup2\n      0xffffffffffffffffffffffffffffffffffffffff\n      mul\n      not\n      and\n      swap1\n      dup4\n      0xffffffffffffffffffffffffffffffffffffffff\n      and\n      mul\n      or\n      swap1\n      sstore\n      pop\n        /* \"lib/openzeppelin-contracts/contracts/access/Ownable.sol\":3180:3188  newOwner */\n      dup2\n        /* \"lib/openzeppelin-contracts/contracts/access/Ownable.sol\":3149:3189  OwnershipTransferred(oldOwner, newOwner) */\n      0xffffffffffffffffffffffffffffffffffffffff\n      and\n        /* \"lib/openzeppelin-contracts/contracts/access/Ownable.sol\":3170:3178  oldOwner */\n      dup2\n        /* \"lib/openzeppelin-contracts/contracts/access/Ownable.sol\":3149:3189  OwnershipTransferred(oldOwner, newOwner) */\n      0xffffffffffffffffffffffffffffffffffffffff\n      and\n      0x8be0079c531659141344cd1fd0a4f28419497f9722a3daafe3b4186f6b6457e0\n      mload(0x40)\n      mload(0x40)\n      dup1\n      swap2\n      sub\n      swap1\n      log3\n        /* \"lib/openzeppelin-contracts/contracts/access/Ownable.sol\":3069:3197  {... */\n      pop\n        /* \"lib/openzeppelin-contracts/contracts/access/Ownable.sol\":3006:3197  function _transferOwnership(address newOwner) internal virtual {... */\n      pop\n      jump\t// out\n        /* \"src/Kipu-Bank_v2.sol\":13245:13430  function _updateCounters(bool isDeposit) private {... */\n    tag_209:\n        /* \"src/Kipu-Bank_v2.sol\":13309:13318  isDeposit */\n      dup1\n        /* \"src/Kipu-Bank_v2.sol\":13305:13423  if (isDeposit) {... */\n      iszero\n      tag_241\n      jumpi\n        /* \"src/Kipu-Bank_v2.sol\":13354:13355  1 */\n      0x01\n        /* \"src/Kipu-Bank_v2.sol\":13335:13350  s_totalDeposits */\n      0x02\n      0x00\n        /* \"src/Kipu-Bank_v2.sol\":13335:13355  s_totalDeposits += 1 */\n      dup3\n      dup3\n      dup3\n      swap1\n      sload\n      swap1\n      0x0100\n      exp\n      swap1\n      div\n      0xffffffff\n      and\n      tag_242\n      swap2\n      swap1\n      tag_243\n      jump\t// in\n    tag_242:\n      swap3\n      pop\n      0x0100\n      exp\n      dup2\n      sload\n      dup2\n      0xffffffff\n      mul\n      not\n      and\n      swap1\n      dup4\n      0xffffffff\n      and\n      mul\n      or\n      swap1\n      sstore\n      pop\n        /* \"src/Kipu-Bank_v2.sol\":13305:13423  if (isDeposit) {... */\n      jump(tag_244)\n    tag_241:\n        /* \"src/Kipu-Bank_v2.sol\":13410:13411  1 */\n      0x01\n        /* \"src/Kipu-Bank_v2.sol\":13388:13406  s_totalWithdrawals */\n      0x02\n      0x04\n        /* \"src/Kipu-Bank_v2.sol\":13388:13411  s_totalWithdrawals += 1 */\n      dup3\n      dup3\n      dup3\n      swap1\n      sload\n      swap1\n      0x0100\n      exp\n      swap1\n      div\n      0xffffffff\n      and\n      tag_245\n      swap2\n      swap1\n      tag_243\n      jump\t// in\n    tag_245:\n      swap3\n      pop\n      0x0100\n      exp\n      dup2\n      sload\n      dup2\n      0xffffffff\n      mul\n      not\n      and\n      swap1\n      dup4\n      0xffffffff\n      and\n      mul\n      or\n      swap1\n      sstore\n      pop\n        /* \"src/Kipu-Bank_v2.sol\":13305:13423  if (isDeposit) {... */\n    tag_244:\n        /* \"src/Kipu-Bank_v2.sol\":13245:13430  function _updateCounters(bool isDeposit) private {... */\n      pop\n      jump\t// out\n        /* \"src/Kipu-Bank_v2.sol\":13554:13768  function _safeTransferEth(address to, uint256 amount) private {... */\n    tag_214:\n        /* \"src/Kipu-Bank_v2.sol\":13628:13637  bool sent */\n      0x00\n        /* \"src/Kipu-Bank_v2.sol\":13643:13645  to */\n      dup3\n        /* \"src/Kipu-Bank_v2.sol\":13643:13650  to.call */\n      0xffffffffffffffffffffffffffffffffffffffff\n      and\n        /* \"src/Kipu-Bank_v2.sol\":13658:13664  amount */\n      dup3\n        /* \"src/Kipu-Bank_v2.sol\":13643:13669  to.call{value: amount}(\"\") */\n      mload(0x40)\n      tag_247\n      swap1\n      tag_248\n      jump\t// in\n    tag_247:\n      0x00\n      mload(0x40)\n      dup1\n      dup4\n      sub\n      dup2\n      dup6\n      dup8\n      gas\n      call\n      swap3\n      pop\n      pop\n      pop\n      returndatasize\n      dup1\n      0x00\n      dup2\n      eq\n      tag_251\n      jumpi\n      mload(0x40)\n      swap2\n      pop\n      and(add(returndatasize, 0x3f), not(0x1f))\n      dup3\n      add\n      0x40\n      mstore\n      returndatasize\n      dup3\n      mstore\n      returndatasize\n      0x00\n      0x20\n      dup5\n      add\n      returndatacopy\n      jump(tag_250)\n    tag_251:\n      0x60\n      swap2\n      pop\n    tag_250:\n      pop\n        /* \"src/Kipu-Bank_v2.sol\":13627:13669  (bool sent, ) = to.call{value: amount}(\"\") */\n      pop\n      swap1\n      pop\n        /* \"src/Kipu-Bank_v2.sol\":13685:13689  sent */\n      dup1\n        /* \"src/Kipu-Bank_v2.sol\":13680:13761  if (!sent) {... */\n      tag_252\n      jumpi\n        /* \"src/Kipu-Bank_v2.sol\":13738:13740  to */\n      dup3\n        /* \"src/Kipu-Bank_v2.sol\":13742:13748  amount */\n      dup3\n        /* \"src/Kipu-Bank_v2.sol\":13713:13749  KipuBank__TransferFailed(to, amount) */\n      mload(0x40)\n      0xa36a1dba00000000000000000000000000000000000000000000000000000000\n      dup2\n      mstore\n      0x04\n      add\n      tag_253\n      swap3\n      swap2\n      swap1\n      tag_254\n      jump\t// in\n    tag_253:\n      mload(0x40)\n      dup1\n      swap2\n      sub\n      swap1\n      revert\n        /* \"src/Kipu-Bank_v2.sol\":13680:13761  if (!sent) {... */\n    tag_252:\n        /* \"src/Kipu-Bank_v2.sol\":13616:13768  {... */\n      pop\n        /* \"src/Kipu-Bank_v2.sol\":13554:13768  function _safeTransferEth(address to, uint256 amount) private {... */\n      pop\n      pop\n      jump\t// out\n        /* \"lib/openzeppelin-contracts/contracts/token/ERC20/utils/SafeERC20.sol\":1251:1459  function safeTransfer(IERC20 token, address to, uint256 value) internal {... */\n    tag_217:\n        /* \"lib/openzeppelin-contracts/contracts/token/ERC20/utils/SafeERC20.sol\":1339:1376  _safeTransfer(token, to, value, true) */\n      tag_256\n        /* \"lib/openzeppelin-contracts/contracts/token/ERC20/utils/SafeERC20.sol\":1353:1358  token */\n      dup4\n        /* \"lib/openzeppelin-contracts/contracts/token/ERC20/utils/SafeERC20.sol\":1360:1362  to */\n      dup4\n        /* \"lib/openzeppelin-contracts/contracts/token/ERC20/utils/SafeERC20.sol\":1364:1369  value */\n      dup4\n        /* \"lib/openzeppelin-contracts/contracts/token/ERC20/utils/SafeERC20.sol\":1371:1375  true */\n      0x01\n        /* \"lib/openzeppelin-contracts/contracts/token/ERC20/utils/SafeERC20.sol\":1339:1352  _safeTransfer */\n      tag_257\n        /* \"lib/openzeppelin-contracts/contracts/token/ERC20/utils/SafeERC20.sol\":1339:1376  _safeTransfer(token, to, value, true) */\n      jump\t// in\n    tag_256:\n        /* \"lib/openzeppelin-contracts/contracts/token/ERC20/utils/SafeERC20.sol\":1334:1452  if (!_safeTransfer(token, to, value, true)) {... */\n      tag_258\n      jumpi\n        /* \"lib/openzeppelin-contracts/contracts/token/ERC20/utils/SafeERC20.sol\":1433:1438  token */\n      dup3\n        /* \"lib/openzeppelin-contracts/contracts/token/ERC20/utils/SafeERC20.sol\":1400:1440  SafeERC20FailedOperation(address(token)) */\n      mload(0x40)\n      0x5274afe700000000000000000000000000000000000000000000000000000000\n      dup2\n      mstore\n      0x04\n      add\n      tag_259\n      swap2\n      swap1\n      tag_88\n      jump\t// in\n    tag_259:\n      mload(0x40)\n      dup1\n      swap2\n      sub\n      swap1\n      revert\n        /* \"lib/openzeppelin-contracts/contracts/token/ERC20/utils/SafeERC20.sol\":1334:1452  if (!_safeTransfer(token, to, value, true)) {... */\n    tag_258:\n        /* \"lib/openzeppelin-contracts/contracts/token/ERC20/utils/SafeERC20.sol\":1251:1459  function safeTransfer(IERC20 token, address to, uint256 value) internal {... */\n      pop\n      pop\n      pop\n      jump\t// out\n        /* \"lib/openzeppelin-contracts/contracts/token/ERC20/utils/SafeERC20.sol\":10376:11801  function _safeTransferFrom(... */\n    tag_221:\n        /* \"lib/openzeppelin-contracts/contracts/token/ERC20/utils/SafeERC20.sol\":10540:10552  bool success */\n      0x00\n        /* \"lib/openzeppelin-contracts/contracts/token/ERC20/utils/SafeERC20.sol\":10565:10580  bytes4 selector */\n      0x00\n        /* \"lib/openzeppelin-contracts/contracts/token/ERC20/utils/SafeERC20.sol\":10583:10611  IERC20.transferFrom.selector */\n      shl(0xe0, 0x23b872dd)\n        /* \"lib/openzeppelin-contracts/contracts/token/ERC20/utils/SafeERC20.sol\":10565:10611  bytes4 selector = IERC20.transferFrom.selector */\n      swap1\n      pop\n        /* \"lib/openzeppelin-contracts/contracts/token/ERC20/utils/SafeERC20.sol\":10681:10685  0x40 */\n      0x40\n        /* \"lib/openzeppelin-contracts/contracts/token/ERC20/utils/SafeERC20.sol\":10675:10686  mload(0x40) */\n      mload\n        /* \"lib/openzeppelin-contracts/contracts/token/ERC20/utils/SafeERC20.sol\":10713:10721  selector */\n      dup2\n        /* \"lib/openzeppelin-contracts/contracts/token/ERC20/utils/SafeERC20.sol\":10707:10711  0x00 */\n      0x00\n        /* \"lib/openzeppelin-contracts/contracts/token/ERC20/utils/SafeERC20.sol\":10700:10722  mstore(0x00, selector) */\n      mstore\n        /* \"lib/openzeppelin-contracts/contracts/token/ERC20/utils/SafeERC20.sol\":10771:10772  0 */\n      0x00\n        /* \"lib/openzeppelin-contracts/contracts/token/ERC20/utils/SafeERC20.sol\":10767:10773  not(0) */\n      not\n        /* \"lib/openzeppelin-contracts/contracts/token/ERC20/utils/SafeERC20.sol\":10763:10765  96 */\n      0x60\n        /* \"lib/openzeppelin-contracts/contracts/token/ERC20/utils/SafeERC20.sol\":10759:10774  shr(96, not(0)) */\n      shr\n        /* \"lib/openzeppelin-contracts/contracts/token/ERC20/utils/SafeERC20.sol\":10753:10757  from */\n      dup8\n        /* \"lib/openzeppelin-contracts/contracts/token/ERC20/utils/SafeERC20.sol\":10749:10775  and(from, shr(96, not(0))) */\n      and\n        /* \"lib/openzeppelin-contracts/contracts/token/ERC20/utils/SafeERC20.sol\":10743:10747  0x04 */\n      0x04\n        /* \"lib/openzeppelin-contracts/contracts/token/ERC20/utils/SafeERC20.sol\":10736:10776  mstore(0x04, and(from, shr(96, not(0)))) */\n      mstore\n        /* \"lib/openzeppelin-contracts/contracts/token/ERC20/utils/SafeERC20.sol\":10823:10824  0 */\n      0x00\n        /* \"lib/openzeppelin-contracts/contracts/token/ERC20/utils/SafeERC20.sol\":10819:10825  not(0) */\n      not\n        /* \"lib/openzeppelin-contracts/contracts/token/ERC20/utils/SafeERC20.sol\":10815:10817  96 */\n      0x60\n        /* \"lib/openzeppelin-contracts/contracts/token/ERC20/utils/SafeERC20.sol\":10811:10826  shr(96, not(0)) */\n      shr\n        /* \"lib/openzeppelin-contracts/contracts/token/ERC20/utils/SafeERC20.sol\":10807:10809  to */\n      dup7\n        /* \"lib/openzeppelin-contracts/contracts/token/ERC20/utils/SafeERC20.sol\":10803:10827  and(to, shr(96, not(0))) */\n      and\n        /* \"lib/openzeppelin-contracts/contracts/token/ERC20/utils/SafeERC20.sol\":10797:10801  0x24 */\n      0x24\n        /* \"lib/openzeppelin-contracts/contracts/token/ERC20/utils/SafeERC20.sol\":10790:10828  mstore(0x24, and(to, shr(96, not(0)))) */\n      mstore\n        /* \"lib/openzeppelin-contracts/contracts/token/ERC20/utils/SafeERC20.sol\":10855:10860  value */\n      dup5\n        /* \"lib/openzeppelin-contracts/contracts/token/ERC20/utils/SafeERC20.sol\":10849:10853  0x44 */\n      0x44\n        /* \"lib/openzeppelin-contracts/contracts/token/ERC20/utils/SafeERC20.sol\":10842:10861  mstore(0x44, value) */\n      mstore\n        /* \"lib/openzeppelin-contracts/contracts/token/ERC20/utils/SafeERC20.sol\":10926:10930  0x20 */\n      0x20\n        /* \"lib/openzeppelin-contracts/contracts/token/ERC20/utils/SafeERC20.sol\":10920:10924  0x00 */\n      0x00\n        /* \"lib/openzeppelin-contracts/contracts/token/ERC20/utils/SafeERC20.sol\":10914:10918  0x64 */\n      0x64\n        /* \"lib/openzeppelin-contracts/contracts/token/ERC20/utils/SafeERC20.sol\":10908:10912  0x00 */\n      0x00\n        /* \"lib/openzeppelin-contracts/contracts/token/ERC20/utils/SafeERC20.sol\":10905:10906  0 */\n      0x00\n        /* \"lib/openzeppelin-contracts/contracts/token/ERC20/utils/SafeERC20.sol\":10898:10903  token */\n      dup13\n        /* \"lib/openzeppelin-contracts/contracts/token/ERC20/utils/SafeERC20.sol\":10891:10896  gas() */\n      gas\n        /* \"lib/openzeppelin-contracts/contracts/token/ERC20/utils/SafeERC20.sol\":10886:10931  call(gas(), token, 0, 0x00, 0x64, 0x00, 0x20) */\n      call\n        /* \"lib/openzeppelin-contracts/contracts/token/ERC20/utils/SafeERC20.sol\":10875:10931  success := call(gas(), token, 0, 0x00, 0x64, 0x00, 0x20) */\n      swap3\n      pop\n        /* \"lib/openzeppelin-contracts/contracts/token/ERC20/utils/SafeERC20.sol\":11146:11147  1 */\n      0x01\n        /* \"lib/openzeppelin-contracts/contracts/token/ERC20/utils/SafeERC20.sol\":11139:11143  0x00 */\n      0x00\n        /* \"lib/openzeppelin-contracts/contracts/token/ERC20/utils/SafeERC20.sol\":11133:11144  mload(0x00) */\n      mload\n        /* \"lib/openzeppelin-contracts/contracts/token/ERC20/utils/SafeERC20.sol\":11130:11148  eq(mload(0x00), 1) */\n      eq\n        /* \"lib/openzeppelin-contracts/contracts/token/ERC20/utils/SafeERC20.sol\":11121:11128  success */\n      dup4\n        /* \"lib/openzeppelin-contracts/contracts/token/ERC20/utils/SafeERC20.sol\":11117:11149  and(success, eq(mload(0x00), 1)) */\n      and\n        /* \"lib/openzeppelin-contracts/contracts/token/ERC20/utils/SafeERC20.sol\":11107:11723  if iszero(and(success, eq(mload(0x00), 1))) {... */\n      tag_261\n      jumpi\n        /* \"lib/openzeppelin-contracts/contracts/token/ERC20/utils/SafeERC20.sol\":11280:11286  bubble */\n      dup4\n        /* \"lib/openzeppelin-contracts/contracts/token/ERC20/utils/SafeERC20.sol\":11270:11277  success */\n      dup4\n        /* \"lib/openzeppelin-contracts/contracts/token/ERC20/utils/SafeERC20.sol\":11263:11278  iszero(success) */\n      iszero\n        /* \"lib/openzeppelin-contracts/contracts/token/ERC20/utils/SafeERC20.sol\":11259:11287  and(iszero(success), bubble) */\n      and\n        /* \"lib/openzeppelin-contracts/contracts/token/ERC20/utils/SafeERC20.sol\":11256:11424  if and(iszero(success), bubble) {... */\n      iszero\n      tag_262\n      jumpi\n        /* \"lib/openzeppelin-contracts/contracts/token/ERC20/utils/SafeERC20.sol\":11337:11353  returndatasize() */\n      returndatasize\n        /* \"lib/openzeppelin-contracts/contracts/token/ERC20/utils/SafeERC20.sol\":11331:11335  0x00 */\n      0x00\n        /* \"lib/openzeppelin-contracts/contracts/token/ERC20/utils/SafeERC20.sol\":11326:11329  fmp */\n      dup3\n        /* \"lib/openzeppelin-contracts/contracts/token/ERC20/utils/SafeERC20.sol\":11311:11354  returndatacopy(fmp, 0x00, returndatasize()) */\n      returndatacopy\n        /* \"lib/openzeppelin-contracts/contracts/token/ERC20/utils/SafeERC20.sol\":11388:11404  returndatasize() */\n      returndatasize\n        /* \"lib/openzeppelin-contracts/contracts/token/ERC20/utils/SafeERC20.sol\":11383:11386  fmp */\n      dup2\n        /* \"lib/openzeppelin-contracts/contracts/token/ERC20/utils/SafeERC20.sol\":11376:11405  revert(fmp, returndatasize()) */\n      revert\n        /* \"lib/openzeppelin-contracts/contracts/token/ERC20/utils/SafeERC20.sol\":11256:11424  if and(iszero(success), bubble) {... */\n    tag_262:\n        /* \"lib/openzeppelin-contracts/contracts/token/ERC20/utils/SafeERC20.sol\":11704:11705  0 */\n      0x00\n        /* \"lib/openzeppelin-contracts/contracts/token/ERC20/utils/SafeERC20.sol\":11696:11701  token */\n      dup9\n        /* \"lib/openzeppelin-contracts/contracts/token/ERC20/utils/SafeERC20.sol\":11684:11702  extcodesize(token) */\n      extcodesize\n        /* \"lib/openzeppelin-contracts/contracts/token/ERC20/utils/SafeERC20.sol\":11681:11706  gt(extcodesize(token), 0) */\n      gt\n        /* \"lib/openzeppelin-contracts/contracts/token/ERC20/utils/SafeERC20.sol\":11662:11678  returndatasize() */\n      returndatasize\n        /* \"lib/openzeppelin-contracts/contracts/token/ERC20/utils/SafeERC20.sol\":11655:11679  iszero(returndatasize()) */\n      iszero\n        /* \"lib/openzeppelin-contracts/contracts/token/ERC20/utils/SafeERC20.sol\":11651:11707  and(iszero(returndatasize()), gt(extcodesize(token), 0)) */\n      and\n        /* \"lib/openzeppelin-contracts/contracts/token/ERC20/utils/SafeERC20.sol\":11642:11649  success */\n      dup4\n        /* \"lib/openzeppelin-contracts/contracts/token/ERC20/utils/SafeERC20.sol\":11638:11708  and(success, and(iszero(returndatasize()), gt(extcodesize(token), 0))) */\n      and\n        /* \"lib/openzeppelin-contracts/contracts/token/ERC20/utils/SafeERC20.sol\":11627:11708  success := and(success, and(iszero(returndatasize()), gt(extcodesize(token), 0))) */\n      swap3\n      pop\n        /* \"lib/openzeppelin-contracts/contracts/token/ERC20/utils/SafeERC20.sol\":11107:11723  if iszero(and(success, eq(mload(0x00), 1))) {... */\n    tag_261:\n        /* \"lib/openzeppelin-contracts/contracts/token/ERC20/utils/SafeERC20.sol\":11750:11753  fmp */\n      dup1\n        /* \"lib/openzeppelin-contracts/contracts/token/ERC20/utils/SafeERC20.sol\":11744:11748  0x40 */\n      0x40\n        /* \"lib/openzeppelin-contracts/contracts/token/ERC20/utils/SafeERC20.sol\":11737:11754  mstore(0x40, fmp) */\n      mstore\n        /* \"lib/openzeppelin-contracts/contracts/token/ERC20/utils/SafeERC20.sol\":11781:11782  0 */\n      0x00\n        /* \"lib/openzeppelin-contracts/contracts/token/ERC20/utils/SafeERC20.sol\":11775:11779  0x60 */\n      0x60\n        /* \"lib/openzeppelin-contracts/contracts/token/ERC20/utils/SafeERC20.sol\":11768:11783  mstore(0x60, 0) */\n      mstore\n        /* \"lib/openzeppelin-contracts/contracts/token/ERC20/utils/SafeERC20.sol\":10649:11794  {... */\n      pop\n      pop\n        /* \"lib/openzeppelin-contracts/contracts/token/ERC20/utils/SafeERC20.sol\":10376:11801  function _safeTransferFrom(... */\n      swap6\n      swap5\n      pop\n      pop\n      pop\n      pop\n      pop\n      jump\t// out\n        /* \"lib/openzeppelin-contracts/contracts/utils/Context.sol\":672:770  function _msgSender() internal view virtual returns (address) {... */\n    tag_234:\n        /* \"lib/openzeppelin-contracts/contracts/utils/Context.sol\":725:732  address */\n      0x00\n        /* \"lib/openzeppelin-contracts/contracts/utils/Context.sol\":752:762  msg.sender */\n      caller\n        /* \"lib/openzeppelin-contracts/contracts/utils/Context.sol\":745:762  return msg.sender */\n      swap1\n      pop\n        /* \"lib/openzeppelin-contracts/contracts/utils/Context.sol\":672:770  function _msgSender() internal view virtual returns (address) {... */\n      swap1\n      jump\t// out\n        /* \"lib/openzeppelin-contracts/contracts/token/ERC20/utils/SafeERC20.sol\":8548:9816  function _safeTransfer(IERC20 token, address to, uint256 value, bool bubble) private returns (bool success) {... */\n    tag_257:\n        /* \"lib/openzeppelin-contracts/contracts/token/ERC20/utils/SafeERC20.sol\":8642:8654  bool success */\n      0x00\n        /* \"lib/openzeppelin-contracts/contracts/token/ERC20/utils/SafeERC20.sol\":8667:8682  bytes4 selector */\n      0x00\n        /* \"lib/openzeppelin-contracts/contracts/token/ERC20/utils/SafeERC20.sol\":8685:8709  IERC20.transfer.selector */\n      shl(0xe0, 0xa9059cbb)\n        /* \"lib/openzeppelin-contracts/contracts/token/ERC20/utils/SafeERC20.sol\":8667:8709  bytes4 selector = IERC20.transfer.selector */\n      swap1\n      pop\n        /* \"lib/openzeppelin-contracts/contracts/token/ERC20/utils/SafeERC20.sol\":8779:8783  0x40 */\n      0x40\n        /* \"lib/openzeppelin-contracts/contracts/token/ERC20/utils/SafeERC20.sol\":8773:8784  mload(0x40) */\n      mload\n        /* \"lib/openzeppelin-contracts/contracts/token/ERC20/utils/SafeERC20.sol\":8811:8819  selector */\n      dup2\n        /* \"lib/openzeppelin-contracts/contracts/token/ERC20/utils/SafeERC20.sol\":8805:8809  0x00 */\n      0x00\n        /* \"lib/openzeppelin-contracts/contracts/token/ERC20/utils/SafeERC20.sol\":8798:8820  mstore(0x00, selector) */\n      mstore\n        /* \"lib/openzeppelin-contracts/contracts/token/ERC20/utils/SafeERC20.sol\":8867:8868  0 */\n      0x00\n        /* \"lib/openzeppelin-contracts/contracts/token/ERC20/utils/SafeERC20.sol\":8863:8869  not(0) */\n      not\n        /* \"lib/openzeppelin-contracts/contracts/token/ERC20/utils/SafeERC20.sol\":8859:8861  96 */\n      0x60\n        /* \"lib/openzeppelin-contracts/contracts/token/ERC20/utils/SafeERC20.sol\":8855:8870  shr(96, not(0)) */\n      shr\n        /* \"lib/openzeppelin-contracts/contracts/token/ERC20/utils/SafeERC20.sol\":8851:8853  to */\n      dup7\n        /* \"lib/openzeppelin-contracts/contracts/token/ERC20/utils/SafeERC20.sol\":8847:8871  and(to, shr(96, not(0))) */\n      and\n        /* \"lib/openzeppelin-contracts/contracts/token/ERC20/utils/SafeERC20.sol\":8841:8845  0x04 */\n      0x04\n        /* \"lib/openzeppelin-contracts/contracts/token/ERC20/utils/SafeERC20.sol\":8834:8872  mstore(0x04, and(to, shr(96, not(0)))) */\n      mstore\n        /* \"lib/openzeppelin-contracts/contracts/token/ERC20/utils/SafeERC20.sol\":8899:8904  value */\n      dup5\n        /* \"lib/openzeppelin-contracts/contracts/token/ERC20/utils/SafeERC20.sol\":8893:8897  0x24 */\n      0x24\n        /* \"lib/openzeppelin-contracts/contracts/token/ERC20/utils/SafeERC20.sol\":8886:8905  mstore(0x24, value) */\n      mstore\n        /* \"lib/openzeppelin-contracts/contracts/token/ERC20/utils/SafeERC20.sol\":8970:8974  0x20 */\n      0x20\n        /* \"lib/openzeppelin-contracts/contracts/token/ERC20/utils/SafeERC20.sol\":8964:8968  0x00 */\n      0x00\n        /* \"lib/openzeppelin-contracts/contracts/token/ERC20/utils/SafeERC20.sol\":8958:8962  0x44 */\n      0x44\n        /* \"lib/openzeppelin-contracts/contracts/token/ERC20/utils/SafeERC20.sol\":8952:8956  0x00 */\n      0x00\n        /* \"lib/openzeppelin-contracts/contracts/token/ERC20/utils/SafeERC20.sol\":8949:8950  0 */\n      0x00\n        /* \"lib/openzeppelin-contracts/contracts/token/ERC20/utils/SafeERC20.sol\":8942:8947  token */\n      dup12\n        /* \"lib/openzeppelin-contracts/contracts/token/ERC20/utils/SafeERC20.sol\":8935:8940  gas() */\n      gas\n        /* \"lib/openzeppelin-contracts/contracts/token/ERC20/utils/SafeERC20.sol\":8930:8975  call(gas(), token, 0, 0x00, 0x44, 0x00, 0x20) */\n      call\n        /* \"lib/openzeppelin-contracts/contracts/token/ERC20/utils/SafeERC20.sol\":8919:8975  success := call(gas(), token, 0, 0x00, 0x44, 0x00, 0x20) */\n      swap3\n      pop\n        /* \"lib/openzeppelin-contracts/contracts/token/ERC20/utils/SafeERC20.sol\":9190:9191  1 */\n      0x01\n        /* \"lib/openzeppelin-contracts/contracts/token/ERC20/utils/SafeERC20.sol\":9183:9187  0x00 */\n      0x00\n        /* \"lib/openzeppelin-contracts/contracts/token/ERC20/utils/SafeERC20.sol\":9177:9188  mload(0x00) */\n      mload\n        /* \"lib/openzeppelin-contracts/contracts/token/ERC20/utils/SafeERC20.sol\":9174:9192  eq(mload(0x00), 1) */\n      eq\n        /* \"lib/openzeppelin-contracts/contracts/token/ERC20/utils/SafeERC20.sol\":9165:9172  success */\n      dup4\n        /* \"lib/openzeppelin-contracts/contracts/token/ERC20/utils/SafeERC20.sol\":9161:9193  and(success, eq(mload(0x00), 1)) */\n      and\n        /* \"lib/openzeppelin-contracts/contracts/token/ERC20/utils/SafeERC20.sol\":9151:9767  if iszero(and(success, eq(mload(0x00), 1))) {... */\n      tag_265\n      jumpi\n        /* \"lib/openzeppelin-contracts/contracts/token/ERC20/utils/SafeERC20.sol\":9324:9330  bubble */\n      dup4\n        /* \"lib/openzeppelin-contracts/contracts/token/ERC20/utils/SafeERC20.sol\":9314:9321  success */\n      dup4\n        /* \"lib/openzeppelin-contracts/contracts/token/ERC20/utils/SafeERC20.sol\":9307:9322  iszero(success) */\n      iszero\n        /* \"lib/openzeppelin-contracts/contracts/token/ERC20/utils/SafeERC20.sol\":9303:9331  and(iszero(success), bubble) */\n      and\n        /* \"lib/openzeppelin-contracts/contracts/token/ERC20/utils/SafeERC20.sol\":9300:9468  if and(iszero(success), bubble) {... */\n      iszero\n      tag_266\n      jumpi\n        /* \"lib/openzeppelin-contracts/contracts/token/ERC20/utils/SafeERC20.sol\":9381:9397  returndatasize() */\n      returndatasize\n        /* \"lib/openzeppelin-contracts/contracts/token/ERC20/utils/SafeERC20.sol\":9375:9379  0x00 */\n      0x00\n        /* \"lib/openzeppelin-contracts/contracts/token/ERC20/utils/SafeERC20.sol\":9370:9373  fmp */\n      dup3\n        /* \"lib/openzeppelin-contracts/contracts/token/ERC20/utils/SafeERC20.sol\":9355:9398  returndatacopy(fmp, 0x00, returndatasize()) */\n      returndatacopy\n        /* \"lib/openzeppelin-contracts/contracts/token/ERC20/utils/SafeERC20.sol\":9432:9448  returndatasize() */\n      returndatasize\n        /* \"lib/openzeppelin-contracts/contracts/token/ERC20/utils/SafeERC20.sol\":9427:9430  fmp */\n      dup2\n        /* \"lib/openzeppelin-contracts/contracts/token/ERC20/utils/SafeERC20.sol\":9420:9449  revert(fmp, returndatasize()) */\n      revert\n        /* \"lib/openzeppelin-contracts/contracts/token/ERC20/utils/SafeERC20.sol\":9300:9468  if and(iszero(success), bubble) {... */\n    tag_266:\n        /* \"lib/openzeppelin-contracts/contracts/token/ERC20/utils/SafeERC20.sol\":9748:9749  0 */\n      0x00\n        /* \"lib/openzeppelin-contracts/contracts/token/ERC20/utils/SafeERC20.sol\":9740:9745  token */\n      dup8\n        /* \"lib/openzeppelin-contracts/contracts/token/ERC20/utils/SafeERC20.sol\":9728:9746  extcodesize(token) */\n      extcodesize\n        /* \"lib/openzeppelin-contracts/contracts/token/ERC20/utils/SafeERC20.sol\":9725:9750  gt(extcodesize(token), 0) */\n      gt\n        /* \"lib/openzeppelin-contracts/contracts/token/ERC20/utils/SafeERC20.sol\":9706:9722  returndatasize() */\n      returndatasize\n        /* \"lib/openzeppelin-contracts/contracts/token/ERC20/utils/SafeERC20.sol\":9699:9723  iszero(returndatasize()) */\n      iszero\n        /* \"lib/openzeppelin-contracts/contracts/token/ERC20/utils/SafeERC20.sol\":9695:9751  and(iszero(returndatasize()), gt(extcodesize(token), 0)) */\n      and\n        /* \"lib/openzeppelin-contracts/contracts/token/ERC20/utils/SafeERC20.sol\":9686:9693  success */\n      dup4\n        /* \"lib/openzeppelin-contracts/contracts/token/ERC20/utils/SafeERC20.sol\":9682:9752  and(success, and(iszero(returndatasize()), gt(extcodesize(token), 0))) */\n      and\n        /* \"lib/openzeppelin-contracts/contracts/token/ERC20/utils/SafeERC20.sol\":9671:9752  success := and(success, and(iszero(returndatasize()), gt(extcodesize(token), 0))) */\n      swap3\n      pop\n        /* \"lib/openzeppelin-contracts/contracts/token/ERC20/utils/SafeERC20.sol\":9151:9767  if iszero(and(success, eq(mload(0x00), 1))) {... */\n    tag_265:\n        /* \"lib/openzeppelin-contracts/contracts/token/ERC20/utils/SafeERC20.sol\":9794:9797  fmp */\n      dup1\n        /* \"lib/openzeppelin-contracts/contracts/token/ERC20/utils/SafeERC20.sol\":9788:9792  0x40 */\n      0x40\n        /* \"lib/openzeppelin-contracts/contracts/token/ERC20/utils/SafeERC20.sol\":9781:9798  mstore(0x40, fmp) */\n      mstore\n        /* \"lib/openzeppelin-contracts/contracts/token/ERC20/utils/SafeERC20.sol\":8747:9809  {... */\n      pop\n      pop\n        /* \"lib/openzeppelin-contracts/contracts/token/ERC20/utils/SafeERC20.sol\":8548:9816  function _safeTransfer(IERC20 token, address to, uint256 value, bool bubble) private returns (bool success) {... */\n      swap5\n      swap4\n      pop\n      pop\n      pop\n      pop\n      jump\t// out\n        /* \"#utility.yul\":7:84   */\n    tag_267:\n        /* \"#utility.yul\":44:51   */\n      0x00\n        /* \"#utility.yul\":73:78   */\n      dup2\n        /* \"#utility.yul\":62:78   */\n      swap1\n      pop\n        /* \"#utility.yul\":7:84   */\n      swap2\n      swap1\n      pop\n      jump\t// out\n        /* \"#utility.yul\":90:208   */\n    tag_268:\n        /* \"#utility.yul\":177:201   */\n      tag_303\n        /* \"#utility.yul\":195:200   */\n      dup2\n        /* \"#utility.yul\":177:201   */\n      tag_267\n      jump\t// in\n    tag_303:\n        /* \"#utility.yul\":172:175   */\n      dup3\n        /* \"#utility.yul\":165:202   */\n      mstore\n        /* \"#utility.yul\":90:208   */\n      pop\n      pop\n      jump\t// out\n        /* \"#utility.yul\":214:436   */\n    tag_40:\n        /* \"#utility.yul\":307:311   */\n      0x00\n        /* \"#utility.yul\":345:347   */\n      0x20\n        /* \"#utility.yul\":334:343   */\n      dup3\n        /* \"#utility.yul\":330:348   */\n      add\n        /* \"#utility.yul\":322:348   */\n      swap1\n      pop\n        /* \"#utility.yul\":358:429   */\n      tag_305\n        /* \"#utility.yul\":426:427   */\n      0x00\n        /* \"#utility.yul\":415:424   */\n      dup4\n        /* \"#utility.yul\":411:428   */\n      add\n        /* \"#utility.yul\":402:408   */\n      dup5\n        /* \"#utility.yul\":358:429   */\n      tag_268\n      jump\t// in\n    tag_305:\n        /* \"#utility.yul\":214:436   */\n      swap3\n      swap2\n      pop\n      pop\n      jump\t// out\n        /* \"#utility.yul\":523:640   */\n    tag_270:\n        /* \"#utility.yul\":632:633   */\n      0x00\n        /* \"#utility.yul\":629:630   */\n      0x00\n        /* \"#utility.yul\":622:634   */\n      revert\n        /* \"#utility.yul\":769:891   */\n    tag_272:\n        /* \"#utility.yul\":842:866   */\n      tag_310\n        /* \"#utility.yul\":860:865   */\n      dup2\n        /* \"#utility.yul\":842:866   */\n      tag_267\n      jump\t// in\n    tag_310:\n        /* \"#utility.yul\":835:840   */\n      dup2\n        /* \"#utility.yul\":832:867   */\n      eq\n        /* \"#utility.yul\":822:885   */\n      tag_311\n      jumpi\n        /* \"#utility.yul\":881:882   */\n      0x00\n        /* \"#utility.yul\":878:879   */\n      0x00\n        /* \"#utility.yul\":871:883   */\n      revert\n        /* \"#utility.yul\":822:885   */\n    tag_311:\n        /* \"#utility.yul\":769:891   */\n      pop\n      jump\t// out\n        /* \"#utility.yul\":897:1036   */\n    tag_273:\n        /* \"#utility.yul\":943:948   */\n      0x00\n        /* \"#utility.yul\":981:987   */\n      dup2\n        /* \"#utility.yul\":968:988   */\n      calldataload\n        /* \"#utility.yul\":959:988   */\n      swap1\n      pop\n        /* \"#utility.yul\":997:1030   */\n      tag_313\n        /* \"#utility.yul\":1024:1029   */\n      dup2\n        /* \"#utility.yul\":997:1030   */\n      tag_272\n      jump\t// in\n    tag_313:\n        /* \"#utility.yul\":897:1036   */\n      swap3\n      swap2\n      pop\n      pop\n      jump\t// out\n        /* \"#utility.yul\":1042:1371   */\n    tag_44:\n        /* \"#utility.yul\":1101:1107   */\n      0x00\n        /* \"#utility.yul\":1150:1152   */\n      0x20\n        /* \"#utility.yul\":1138:1147   */\n      dup3\n        /* \"#utility.yul\":1129:1136   */\n      dup5\n        /* \"#utility.yul\":1125:1148   */\n      sub\n        /* \"#utility.yul\":1121:1153   */\n      slt\n        /* \"#utility.yul\":1118:1237   */\n      iszero\n      tag_315\n      jumpi\n        /* \"#utility.yul\":1156:1235   */\n      tag_316\n      tag_270\n      jump\t// in\n    tag_316:\n        /* \"#utility.yul\":1118:1237   */\n    tag_315:\n        /* \"#utility.yul\":1276:1277   */\n      0x00\n        /* \"#utility.yul\":1301:1354   */\n      tag_317\n        /* \"#utility.yul\":1346:1353   */\n      dup5\n        /* \"#utility.yul\":1337:1343   */\n      dup3\n        /* \"#utility.yul\":1326:1335   */\n      dup6\n        /* \"#utility.yul\":1322:1344   */\n      add\n        /* \"#utility.yul\":1301:1354   */\n      tag_273\n      jump\t// in\n    tag_317:\n        /* \"#utility.yul\":1291:1354   */\n      swap2\n      pop\n        /* \"#utility.yul\":1247:1364   */\n      pop\n        /* \"#utility.yul\":1042:1371   */\n      swap3\n      swap2\n      pop\n      pop\n      jump\t// out\n        /* \"#utility.yul\":1377:1503   */\n    tag_274:\n        /* \"#utility.yul\":1414:1421   */\n      0x00\n        /* \"#utility.yul\":1454:1496   */\n      0xffffffffffffffffffffffffffffffffffffffff\n        /* \"#utility.yul\":1447:1452   */\n      dup3\n        /* \"#utility.yul\":1443:1497   */\n      and\n        /* \"#utility.yul\":1432:1497   */\n      swap1\n      pop\n        /* \"#utility.yul\":1377:1503   */\n      swap2\n      swap1\n      pop\n      jump\t// out\n        /* \"#utility.yul\":1509:1605   */\n    tag_275:\n        /* \"#utility.yul\":1546:1553   */\n      0x00\n        /* \"#utility.yul\":1575:1599   */\n      tag_320\n        /* \"#utility.yul\":1593:1598   */\n      dup3\n        /* \"#utility.yul\":1575:1599   */\n      tag_274\n      jump\t// in\n    tag_320:\n        /* \"#utility.yul\":1564:1599   */\n      swap1\n      pop\n        /* \"#utility.yul\":1509:1605   */\n      swap2\n      swap1\n      pop\n      jump\t// out\n        /* \"#utility.yul\":1611:1733   */\n    tag_276:\n        /* \"#utility.yul\":1684:1708   */\n      tag_322\n        /* \"#utility.yul\":1702:1707   */\n      dup2\n        /* \"#utility.yul\":1684:1708   */\n      tag_275\n      jump\t// in\n    tag_322:\n        /* \"#utility.yul\":1677:1682   */\n      dup2\n        /* \"#utility.yul\":1674:1709   */\n      eq\n        /* \"#utility.yul\":1664:1727   */\n      tag_323\n      jumpi\n        /* \"#utility.yul\":1723:1724   */\n      0x00\n        /* \"#utility.yul\":1720:1721   */\n      0x00\n        /* \"#utility.yul\":1713:1725   */\n      revert\n        /* \"#utility.yul\":1664:1727   */\n    tag_323:\n        /* \"#utility.yul\":1611:1733   */\n      pop\n      jump\t// out\n        /* \"#utility.yul\":1739:1878   */\n    tag_277:\n        /* \"#utility.yul\":1785:1790   */\n      0x00\n        /* \"#utility.yul\":1823:1829   */\n      dup2\n        /* \"#utility.yul\":1810:1830   */\n      calldataload\n        /* \"#utility.yul\":1801:1830   */\n      swap1\n      pop\n        /* \"#utility.yul\":1839:1872   */\n      tag_325\n        /* \"#utility.yul\":1866:1871   */\n      dup2\n        /* \"#utility.yul\":1839:1872   */\n      tag_276\n      jump\t// in\n    tag_325:\n        /* \"#utility.yul\":1739:1878   */\n      swap3\n      swap2\n      pop\n      pop\n      jump\t// out\n        /* \"#utility.yul\":1884:2358   */\n    tag_49:\n        /* \"#utility.yul\":1952:1958   */\n      0x00\n        /* \"#utility.yul\":1960:1966   */\n      0x00\n        /* \"#utility.yul\":2009:2011   */\n      0x40\n        /* \"#utility.yul\":1997:2006   */\n      dup4\n        /* \"#utility.yul\":1988:1995   */\n      dup6\n        /* \"#utility.yul\":1984:2007   */\n      sub\n        /* \"#utility.yul\":1980:2012   */\n      slt\n        /* \"#utility.yul\":1977:2096   */\n      iszero\n      tag_327\n      jumpi\n        /* \"#utility.yul\":2015:2094   */\n      tag_328\n      tag_270\n      jump\t// in\n    tag_328:\n        /* \"#utility.yul\":1977:2096   */\n    tag_327:\n        /* \"#utility.yul\":2135:2136   */\n      0x00\n        /* \"#utility.yul\":2160:2213   */\n      tag_329\n        /* \"#utility.yul\":2205:2212   */\n      dup6\n        /* \"#utility.yul\":2196:2202   */\n      dup3\n        /* \"#utility.yul\":2185:2194   */\n      dup7\n        /* \"#utility.yul\":2181:2203   */\n      add\n        /* \"#utility.yul\":2160:2213   */\n      tag_277\n      jump\t// in\n    tag_329:\n        /* \"#utility.yul\":2150:2213   */\n      swap3\n      pop\n        /* \"#utility.yul\":2106:2223   */\n      pop\n        /* \"#utility.yul\":2262:2264   */\n      0x20\n        /* \"#utility.yul\":2288:2341   */\n      tag_330\n        /* \"#utility.yul\":2333:2340   */\n      dup6\n        /* \"#utility.yul\":2324:2330   */\n      dup3\n        /* \"#utility.yul\":2313:2322   */\n      dup7\n        /* \"#utility.yul\":2309:2331   */\n      add\n        /* \"#utility.yul\":2288:2341   */\n      tag_273\n      jump\t// in\n    tag_330:\n        /* \"#utility.yul\":2278:2341   */\n      swap2\n      pop\n        /* \"#utility.yul\":2233:2351   */\n      pop\n        /* \"#utility.yul\":1884:2358   */\n      swap3\n      pop\n      swap3\n      swap1\n      pop\n      jump\t// out\n        /* \"#utility.yul\":2364:2693   */\n    tag_58:\n        /* \"#utility.yul\":2423:2429   */\n      0x00\n        /* \"#utility.yul\":2472:2474   */\n      0x20\n        /* \"#utility.yul\":2460:2469   */\n      dup3\n        /* \"#utility.yul\":2451:2458   */\n      dup5\n        /* \"#utility.yul\":2447:2470   */\n      sub\n        /* \"#utility.yul\":2443:2475   */\n      slt\n        /* \"#utility.yul\":2440:2559   */\n      iszero\n      tag_332\n      jumpi\n        /* \"#utility.yul\":2478:2557   */\n      tag_333\n      tag_270\n      jump\t// in\n    tag_333:\n        /* \"#utility.yul\":2440:2559   */\n    tag_332:\n        /* \"#utility.yul\":2598:2599   */\n      0x00\n        /* \"#utility.yul\":2623:2676   */\n      tag_334\n        /* \"#utility.yul\":2668:2675   */\n      dup5\n        /* \"#utility.yul\":2659:2665   */\n      dup3\n        /* \"#utility.yul\":2648:2657   */\n      dup6\n        /* \"#utility.yul\":2644:2666   */\n      add\n        /* \"#utility.yul\":2623:2676   */\n      tag_277\n      jump\t// in\n    tag_334:\n        /* \"#utility.yul\":2613:2676   */\n      swap2\n      pop\n        /* \"#utility.yul\":2569:2686   */\n      pop\n        /* \"#utility.yul\":2364:2693   */\n      swap3\n      swap2\n      pop\n      pop\n      jump\t// out\n        /* \"#utility.yul\":2699:2817   */\n    tag_278:\n        /* \"#utility.yul\":2786:2810   */\n      tag_336\n        /* \"#utility.yul\":2804:2809   */\n      dup2\n        /* \"#utility.yul\":2786:2810   */\n      tag_275\n      jump\t// in\n    tag_336:\n        /* \"#utility.yul\":2781:2784   */\n      dup3\n        /* \"#utility.yul\":2774:2811   */\n      mstore\n        /* \"#utility.yul\":2699:2817   */\n      pop\n      pop\n      jump\t// out\n        /* \"#utility.yul\":2823:2909   */\n    tag_279:\n        /* \"#utility.yul\":2858:2865   */\n      0x00\n        /* \"#utility.yul\":2898:2902   */\n      0xff\n        /* \"#utility.yul\":2891:2896   */\n      dup3\n        /* \"#utility.yul\":2887:2903   */\n      and\n        /* \"#utility.yul\":2876:2903   */\n      swap1\n      pop\n        /* \"#utility.yul\":2823:2909   */\n      swap2\n      swap1\n      pop\n      jump\t// out\n        /* \"#utility.yul\":2915:3027   */\n    tag_280:\n        /* \"#utility.yul\":2998:3020   */\n      tag_339\n        /* \"#utility.yul\":3014:3019   */\n      dup2\n        /* \"#utility.yul\":2998:3020   */\n      tag_279\n      jump\t// in\n    tag_339:\n        /* \"#utility.yul\":2993:2996   */\n      dup3\n        /* \"#utility.yul\":2986:3021   */\n      mstore\n        /* \"#utility.yul\":2915:3027   */\n      pop\n      pop\n      jump\t// out\n        /* \"#utility.yul\":3033:3357   */\n    tag_61:\n        /* \"#utility.yul\":3150:3154   */\n      0x00\n        /* \"#utility.yul\":3188:3190   */\n      0x40\n        /* \"#utility.yul\":3177:3186   */\n      dup3\n        /* \"#utility.yul\":3173:3191   */\n      add\n        /* \"#utility.yul\":3165:3191   */\n      swap1\n      pop\n        /* \"#utility.yul\":3201:3272   */\n      tag_341\n        /* \"#utility.yul\":3269:3270   */\n      0x00\n        /* \"#utility.yul\":3258:3267   */\n      dup4\n        /* \"#utility.yul\":3254:3271   */\n      add\n        /* \"#utility.yul\":3245:3251   */\n      dup6\n        /* \"#utility.yul\":3201:3272   */\n      tag_278\n      jump\t// in\n    tag_341:\n        /* \"#utility.yul\":3282:3350   */\n      tag_342\n        /* \"#utility.yul\":3346:3348   */\n      0x20\n        /* \"#utility.yul\":3335:3344   */\n      dup4\n        /* \"#utility.yul\":3331:3349   */\n      add\n        /* \"#utility.yul\":3322:3328   */\n      dup5\n        /* \"#utility.yul\":3282:3350   */\n      tag_280\n      jump\t// in\n    tag_342:\n        /* \"#utility.yul\":3033:3357   */\n      swap4\n      swap3\n      pop\n      pop\n      pop\n      jump\t// out\n        /* \"#utility.yul\":3363:3456   */\n    tag_281:\n        /* \"#utility.yul\":3399:3406   */\n      0x00\n        /* \"#utility.yul\":3439:3449   */\n      0xffffffff\n        /* \"#utility.yul\":3432:3437   */\n      dup3\n        /* \"#utility.yul\":3428:3450   */\n      and\n        /* \"#utility.yul\":3417:3450   */\n      swap1\n      pop\n        /* \"#utility.yul\":3363:3456   */\n      swap2\n      swap1\n      pop\n      jump\t// out\n        /* \"#utility.yul\":3462:3577   */\n    tag_282:\n        /* \"#utility.yul\":3547:3570   */\n      tag_345\n        /* \"#utility.yul\":3564:3569   */\n      dup2\n        /* \"#utility.yul\":3547:3570   */\n      tag_281\n      jump\t// in\n    tag_345:\n        /* \"#utility.yul\":3542:3545   */\n      dup3\n        /* \"#utility.yul\":3535:3571   */\n      mstore\n        /* \"#utility.yul\":3462:3577   */\n      pop\n      pop\n      jump\t// out\n        /* \"#utility.yul\":3583:3801   */\n    tag_70:\n        /* \"#utility.yul\":3674:3678   */\n      0x00\n        /* \"#utility.yul\":3712:3714   */\n      0x20\n        /* \"#utility.yul\":3701:3710   */\n      dup3\n        /* \"#utility.yul\":3697:3715   */\n      add\n        /* \"#utility.yul\":3689:3715   */\n      swap1\n      pop\n        /* \"#utility.yul\":3725:3794   */\n      tag_347\n        /* \"#utility.yul\":3791:3792   */\n      0x00\n        /* \"#utility.yul\":3780:3789   */\n      dup4\n        /* \"#utility.yul\":3776:3793   */\n      add\n        /* \"#utility.yul\":3767:3773   */\n      dup5\n        /* \"#utility.yul\":3725:3794   */\n      tag_282\n      jump\t// in\n    tag_347:\n        /* \"#utility.yul\":3583:3801   */\n      swap3\n      swap2\n      pop\n      pop\n      jump\t// out\n        /* \"#utility.yul\":3807:4281   */\n    tag_77:\n        /* \"#utility.yul\":3875:3881   */\n      0x00\n        /* \"#utility.yul\":3883:3889   */\n      0x00\n        /* \"#utility.yul\":3932:3934   */\n      0x40\n        /* \"#utility.yul\":3920:3929   */\n      dup4\n        /* \"#utility.yul\":3911:3918   */\n      dup6\n        /* \"#utility.yul\":3907:3930   */\n      sub\n        /* \"#utility.yul\":3903:3935   */\n      slt\n        /* \"#utility.yul\":3900:4019   */\n      iszero\n      tag_349\n      jumpi\n        /* \"#utility.yul\":3938:4017   */\n      tag_350\n      tag_270\n      jump\t// in\n    tag_350:\n        /* \"#utility.yul\":3900:4019   */\n    tag_349:\n        /* \"#utility.yul\":4058:4059   */\n      0x00\n        /* \"#utility.yul\":4083:4136   */\n      tag_351\n        /* \"#utility.yul\":4128:4135   */\n      dup6\n        /* \"#utility.yul\":4119:4125   */\n      dup3\n        /* \"#utility.yul\":4108:4117   */\n      dup7\n        /* \"#utility.yul\":4104:4126   */\n      add\n        /* \"#utility.yul\":4083:4136   */\n      tag_277\n      jump\t// in\n    tag_351:\n        /* \"#utility.yul\":4073:4136   */\n      swap3\n      pop\n        /* \"#utility.yul\":4029:4146   */\n      pop\n        /* \"#utility.yul\":4185:4187   */\n      0x20\n        /* \"#utility.yul\":4211:4264   */\n      tag_352\n        /* \"#utility.yul\":4256:4263   */\n      dup6\n        /* \"#utility.yul\":4247:4253   */\n      dup3\n        /* \"#utility.yul\":4236:4245   */\n      dup7\n        /* \"#utility.yul\":4232:4254   */\n      add\n        /* \"#utility.yul\":4211:4264   */\n      tag_277\n      jump\t// in\n    tag_352:\n        /* \"#utility.yul\":4201:4264   */\n      swap2\n      pop\n        /* \"#utility.yul\":4156:4274   */\n      pop\n        /* \"#utility.yul\":3807:4281   */\n      swap3\n      pop\n      swap3\n      swap1\n      pop\n      jump\t// out\n        /* \"#utility.yul\":4287:4509   */\n    tag_88:\n        /* \"#utility.yul\":4380:4384   */\n      0x00\n        /* \"#utility.yul\":4418:4420   */\n      0x20\n        /* \"#utility.yul\":4407:4416   */\n      dup3\n        /* \"#utility.yul\":4403:4421   */\n      add\n        /* \"#utility.yul\":4395:4421   */\n      swap1\n      pop\n        /* \"#utility.yul\":4431:4502   */\n      tag_354\n        /* \"#utility.yul\":4499:4500   */\n      0x00\n        /* \"#utility.yul\":4488:4497   */\n      dup4\n        /* \"#utility.yul\":4484:4501   */\n      add\n        /* \"#utility.yul\":4475:4481   */\n      dup5\n        /* \"#utility.yul\":4431:4502   */\n      tag_278\n      jump\t// in\n    tag_354:\n        /* \"#utility.yul\":4287:4509   */\n      swap3\n      swap2\n      pop\n      pop\n      jump\t// out\n        /* \"#utility.yul\":4515:4847   */\n    tag_129:\n        /* \"#utility.yul\":4636:4640   */\n      0x00\n        /* \"#utility.yul\":4674:4676   */\n      0x40\n        /* \"#utility.yul\":4663:4672   */\n      dup3\n        /* \"#utility.yul\":4659:4677   */\n      add\n        /* \"#utility.yul\":4651:4677   */\n      swap1\n      pop\n        /* \"#utility.yul\":4687:4758   */\n      tag_356\n        /* \"#utility.yul\":4755:4756   */\n      0x00\n        /* \"#utility.yul\":4744:4753   */\n      dup4\n        /* \"#utility.yul\":4740:4757   */\n      add\n        /* \"#utility.yul\":4731:4737   */\n      dup6\n        /* \"#utility.yul\":4687:4758   */\n      tag_268\n      jump\t// in\n    tag_356:\n        /* \"#utility.yul\":4768:4840   */\n      tag_357\n        /* \"#utility.yul\":4836:4838   */\n      0x20\n        /* \"#utility.yul\":4825:4834   */\n      dup4\n        /* \"#utility.yul\":4821:4839   */\n      add\n        /* \"#utility.yul\":4812:4818   */\n      dup5\n        /* \"#utility.yul\":4768:4840   */\n      tag_268\n      jump\t// in\n    tag_357:\n        /* \"#utility.yul\":4515:4847   */\n      swap4\n      swap3\n      pop\n      pop\n      pop\n      jump\t// out\n        /* \"#utility.yul\":4853:5295   */\n    tag_133:\n        /* \"#utility.yul\":5002:5006   */\n      0x00\n        /* \"#utility.yul\":5040:5042   */\n      0x60\n        /* \"#utility.yul\":5029:5038   */\n      dup3\n        /* \"#utility.yul\":5025:5043   */\n      add\n        /* \"#utility.yul\":5017:5043   */\n      swap1\n      pop\n        /* \"#utility.yul\":5053:5124   */\n      tag_359\n        /* \"#utility.yul\":5121:5122   */\n      0x00\n        /* \"#utility.yul\":5110:5119   */\n      dup4\n        /* \"#utility.yul\":5106:5123   */\n      add\n        /* \"#utility.yul\":5097:5103   */\n      dup7\n        /* \"#utility.yul\":5053:5124   */\n      tag_278\n      jump\t// in\n    tag_359:\n        /* \"#utility.yul\":5134:5206   */\n      tag_360\n        /* \"#utility.yul\":5202:5204   */\n      0x20\n        /* \"#utility.yul\":5191:5200   */\n      dup4\n        /* \"#utility.yul\":5187:5205   */\n      add\n        /* \"#utility.yul\":5178:5184   */\n      dup6\n        /* \"#utility.yul\":5134:5206   */\n      tag_268\n      jump\t// in\n    tag_360:\n        /* \"#utility.yul\":5216:5288   */\n      tag_361\n        /* \"#utility.yul\":5284:5286   */\n      0x40\n        /* \"#utility.yul\":5273:5282   */\n      dup4\n        /* \"#utility.yul\":5269:5287   */\n      add\n        /* \"#utility.yul\":5260:5266   */\n      dup5\n        /* \"#utility.yul\":5216:5288   */\n      tag_268\n      jump\t// in\n    tag_361:\n        /* \"#utility.yul\":4853:5295   */\n      swap5\n      swap4\n      pop\n      pop\n      pop\n      pop\n      jump\t// out\n        /* \"#utility.yul\":5301:5481   */\n    tag_283:\n        /* \"#utility.yul\":5349:5426   */\n      0x4e487b7100000000000000000000000000000000000000000000000000000000\n        /* \"#utility.yul\":5346:5347   */\n      0x00\n        /* \"#utility.yul\":5339:5427   */\n      mstore\n        /* \"#utility.yul\":5446:5450   */\n      0x11\n        /* \"#utility.yul\":5443:5444   */\n      0x04\n        /* \"#utility.yul\":5436:5451   */\n      mstore\n        /* \"#utility.yul\":5470:5474   */\n      0x24\n        /* \"#utility.yul\":5467:5468   */\n      0x00\n        /* \"#utility.yul\":5460:5475   */\n      revert\n        /* \"#utility.yul\":5487:5678   */\n    tag_140:\n        /* \"#utility.yul\":5527:5530   */\n      0x00\n        /* \"#utility.yul\":5546:5566   */\n      tag_364\n        /* \"#utility.yul\":5564:5565   */\n      dup3\n        /* \"#utility.yul\":5546:5566   */\n      tag_267\n      jump\t// in\n    tag_364:\n        /* \"#utility.yul\":5541:5566   */\n      swap2\n      pop\n        /* \"#utility.yul\":5580:5600   */\n      tag_365\n        /* \"#utility.yul\":5598:5599   */\n      dup4\n        /* \"#utility.yul\":5580:5600   */\n      tag_267\n      jump\t// in\n    tag_365:\n        /* \"#utility.yul\":5575:5600   */\n      swap3\n      pop\n        /* \"#utility.yul\":5623:5624   */\n      dup3\n        /* \"#utility.yul\":5620:5621   */\n      dup3\n        /* \"#utility.yul\":5616:5625   */\n      add\n        /* \"#utility.yul\":5609:5625   */\n      swap1\n      pop\n        /* \"#utility.yul\":5644:5647   */\n      dup1\n        /* \"#utility.yul\":5641:5642   */\n      dup3\n        /* \"#utility.yul\":5638:5648   */\n      gt\n        /* \"#utility.yul\":5635:5671   */\n      iszero\n      tag_366\n      jumpi\n        /* \"#utility.yul\":5651:5669   */\n      tag_367\n      tag_283\n      jump\t// in\n    tag_367:\n        /* \"#utility.yul\":5635:5671   */\n    tag_366:\n        /* \"#utility.yul\":5487:5678   */\n      swap3\n      swap2\n      pop\n      pop\n      jump\t// out\n        /* \"#utility.yul\":5684:5802   */\n    tag_284:\n        /* \"#utility.yul\":5755:5777   */\n      tag_369\n        /* \"#utility.yul\":5771:5776   */\n      dup2\n        /* \"#utility.yul\":5755:5777   */\n      tag_279\n      jump\t// in\n    tag_369:\n        /* \"#utility.yul\":5748:5753   */\n      dup2\n        /* \"#utility.yul\":5745:5778   */\n      eq\n        /* \"#utility.yul\":5735:5796   */\n      tag_370\n      jumpi\n        /* \"#utility.yul\":5792:5793   */\n      0x00\n        /* \"#utility.yul\":5789:5790   */\n      0x00\n        /* \"#utility.yul\":5782:5794   */\n      revert\n        /* \"#utility.yul\":5735:5796   */\n    tag_370:\n        /* \"#utility.yul\":5684:5802   */\n      pop\n      jump\t// out\n        /* \"#utility.yul\":5808:5947   */\n    tag_285:\n        /* \"#utility.yul\":5863:5868   */\n      0x00\n        /* \"#utility.yul\":5894:5900   */\n      dup2\n        /* \"#utility.yul\":5888:5901   */\n      mload\n        /* \"#utility.yul\":5879:5901   */\n      swap1\n      pop\n        /* \"#utility.yul\":5910:5941   */\n      tag_372\n        /* \"#utility.yul\":5935:5940   */\n      dup2\n        /* \"#utility.yul\":5910:5941   */\n      tag_284\n      jump\t// in\n    tag_372:\n        /* \"#utility.yul\":5808:5947   */\n      swap3\n      swap2\n      pop\n      pop\n      jump\t// out\n        /* \"#utility.yul\":5953:6300   */\n    tag_164:\n        /* \"#utility.yul\":6021:6027   */\n      0x00\n        /* \"#utility.yul\":6070:6072   */\n      0x20\n        /* \"#utility.yul\":6058:6067   */\n      dup3\n        /* \"#utility.yul\":6049:6056   */\n      dup5\n        /* \"#utility.yul\":6045:6068   */\n      sub\n        /* \"#utility.yul\":6041:6073   */\n      slt\n        /* \"#utility.yul\":6038:6157   */\n      iszero\n      tag_374\n      jumpi\n        /* \"#utility.yul\":6076:6155   */\n      tag_375\n      tag_270\n      jump\t// in\n    tag_375:\n        /* \"#utility.yul\":6038:6157   */\n    tag_374:\n        /* \"#utility.yul\":6196:6197   */\n      0x00\n        /* \"#utility.yul\":6221:6283   */\n      tag_376\n        /* \"#utility.yul\":6275:6282   */\n      dup5\n        /* \"#utility.yul\":6266:6272   */\n      dup3\n        /* \"#utility.yul\":6255:6264   */\n      dup6\n        /* \"#utility.yul\":6251:6273   */\n      add\n        /* \"#utility.yul\":6221:6283   */\n      tag_285\n      jump\t// in\n    tag_376:\n        /* \"#utility.yul\":6211:6283   */\n      swap2\n      pop\n        /* \"#utility.yul\":6167:6293   */\n      pop\n        /* \"#utility.yul\":5953:6300   */\n      swap3\n      swap2\n      pop\n      pop\n      jump\t// out\n        /* \"#utility.yul\":6306:6411   */\n    tag_286:\n        /* \"#utility.yul\":6342:6349   */\n      0x00\n        /* \"#utility.yul\":6382:6404   */\n      0xffffffffffffffffffff\n        /* \"#utility.yul\":6375:6380   */\n      dup3\n        /* \"#utility.yul\":6371:6405   */\n      and\n        /* \"#utility.yul\":6360:6405   */\n      swap1\n      pop\n        /* \"#utility.yul\":6306:6411   */\n      swap2\n      swap1\n      pop\n      jump\t// out\n        /* \"#utility.yul\":6417:6537   */\n    tag_287:\n        /* \"#utility.yul\":6489:6512   */\n      tag_379\n        /* \"#utility.yul\":6506:6511   */\n      dup2\n        /* \"#utility.yul\":6489:6512   */\n      tag_286\n      jump\t// in\n    tag_379:\n        /* \"#utility.yul\":6482:6487   */\n      dup2\n        /* \"#utility.yul\":6479:6513   */\n      eq\n        /* \"#utility.yul\":6469:6531   */\n      tag_380\n      jumpi\n        /* \"#utility.yul\":6527:6528   */\n      0x00\n        /* \"#utility.yul\":6524:6525   */\n      0x00\n        /* \"#utility.yul\":6517:6529   */\n      revert\n        /* \"#utility.yul\":6469:6531   */\n    tag_380:\n        /* \"#utility.yul\":6417:6537   */\n      pop\n      jump\t// out\n        /* \"#utility.yul\":6543:6684   */\n    tag_288:\n        /* \"#utility.yul\":6599:6604   */\n      0x00\n        /* \"#utility.yul\":6630:6636   */\n      dup2\n        /* \"#utility.yul\":6624:6637   */\n      mload\n        /* \"#utility.yul\":6615:6637   */\n      swap1\n      pop\n        /* \"#utility.yul\":6646:6678   */\n      tag_382\n        /* \"#utility.yul\":6672:6677   */\n      dup2\n        /* \"#utility.yul\":6646:6678   */\n      tag_287\n      jump\t// in\n    tag_382:\n        /* \"#utility.yul\":6543:6684   */\n      swap3\n      swap2\n      pop\n      pop\n      jump\t// out\n        /* \"#utility.yul\":6690:6766   */\n    tag_289:\n        /* \"#utility.yul\":6726:6733   */\n      0x00\n        /* \"#utility.yul\":6755:6760   */\n      dup2\n        /* \"#utility.yul\":6744:6760   */\n      swap1\n      pop\n        /* \"#utility.yul\":6690:6766   */\n      swap2\n      swap1\n      pop\n      jump\t// out\n        /* \"#utility.yul\":6772:6892   */\n    tag_290:\n        /* \"#utility.yul\":6844:6867   */\n      tag_385\n        /* \"#utility.yul\":6861:6866   */\n      dup2\n        /* \"#utility.yul\":6844:6867   */\n      tag_289\n      jump\t// in\n    tag_385:\n        /* \"#utility.yul\":6837:6842   */\n      dup2\n        /* \"#utility.yul\":6834:6868   */\n      eq\n        /* \"#utility.yul\":6824:6886   */\n      tag_386\n      jumpi\n        /* \"#utility.yul\":6882:6883   */\n      0x00\n        /* \"#utility.yul\":6879:6880   */\n      0x00\n        /* \"#utility.yul\":6872:6884   */\n      revert\n        /* \"#utility.yul\":6824:6886   */\n    tag_386:\n        /* \"#utility.yul\":6772:6892   */\n      pop\n      jump\t// out\n        /* \"#utility.yul\":6898:7039   */\n    tag_291:\n        /* \"#utility.yul\":6954:6959   */\n      0x00\n        /* \"#utility.yul\":6985:6991   */\n      dup2\n        /* \"#utility.yul\":6979:6992   */\n      mload\n        /* \"#utility.yul\":6970:6992   */\n      swap1\n      pop\n        /* \"#utility.yul\":7001:7033   */\n      tag_388\n        /* \"#utility.yul\":7027:7032   */\n      dup2\n        /* \"#utility.yul\":7001:7033   */\n      tag_290\n      jump\t// in\n    tag_388:\n        /* \"#utility.yul\":6898:7039   */\n      swap3\n      swap2\n      pop\n      pop\n      jump\t// out\n        /* \"#utility.yul\":7045:7188   */\n    tag_292:\n        /* \"#utility.yul\":7102:7107   */\n      0x00\n        /* \"#utility.yul\":7133:7139   */\n      dup2\n        /* \"#utility.yul\":7127:7140   */\n      mload\n        /* \"#utility.yul\":7118:7140   */\n      swap1\n      pop\n        /* \"#utility.yul\":7149:7182   */\n      tag_390\n        /* \"#utility.yul\":7176:7181   */\n      dup2\n        /* \"#utility.yul\":7149:7182   */\n      tag_272\n      jump\t// in\n    tag_390:\n        /* \"#utility.yul\":7045:7188   */\n      swap3\n      swap2\n      pop\n      pop\n      jump\t// out\n        /* \"#utility.yul\":7194:8165   */\n    tag_193:\n        /* \"#utility.yul\":7297:7303   */\n      0x00\n        /* \"#utility.yul\":7305:7311   */\n      0x00\n        /* \"#utility.yul\":7313:7319   */\n      0x00\n        /* \"#utility.yul\":7321:7327   */\n      0x00\n        /* \"#utility.yul\":7329:7335   */\n      0x00\n        /* \"#utility.yul\":7378:7381   */\n      0xa0\n        /* \"#utility.yul\":7366:7375   */\n      dup7\n        /* \"#utility.yul\":7357:7364   */\n      dup9\n        /* \"#utility.yul\":7353:7376   */\n      sub\n        /* \"#utility.yul\":7349:7382   */\n      slt\n        /* \"#utility.yul\":7346:7466   */\n      iszero\n      tag_392\n      jumpi\n        /* \"#utility.yul\":7385:7464   */\n      tag_393\n      tag_270\n      jump\t// in\n    tag_393:\n        /* \"#utility.yul\":7346:7466   */\n    tag_392:\n        /* \"#utility.yul\":7505:7506   */\n      0x00\n        /* \"#utility.yul\":7530:7593   */\n      tag_394\n        /* \"#utility.yul\":7585:7592   */\n      dup9\n        /* \"#utility.yul\":7576:7582   */\n      dup3\n        /* \"#utility.yul\":7565:7574   */\n      dup10\n        /* \"#utility.yul\":7561:7583   */\n      add\n        /* \"#utility.yul\":7530:7593   */\n      tag_288\n      jump\t// in\n    tag_394:\n        /* \"#utility.yul\":7520:7593   */\n      swap6\n      pop\n        /* \"#utility.yul\":7476:7603   */\n      pop\n        /* \"#utility.yul\":7642:7644   */\n      0x20\n        /* \"#utility.yul\":7668:7731   */\n      tag_395\n        /* \"#utility.yul\":7723:7730   */\n      dup9\n        /* \"#utility.yul\":7714:7720   */\n      dup3\n        /* \"#utility.yul\":7703:7712   */\n      dup10\n        /* \"#utility.yul\":7699:7721   */\n      add\n        /* \"#utility.yul\":7668:7731   */\n      tag_291\n      jump\t// in\n    tag_395:\n        /* \"#utility.yul\":7658:7731   */\n      swap5\n      pop\n        /* \"#utility.yul\":7613:7741   */\n      pop\n        /* \"#utility.yul\":7780:7782   */\n      0x40\n        /* \"#utility.yul\":7806:7870   */\n      tag_396\n        /* \"#utility.yul\":7862:7869   */\n      dup9\n        /* \"#utility.yul\":7853:7859   */\n      dup3\n        /* \"#utility.yul\":7842:7851   */\n      dup10\n        /* \"#utility.yul\":7838:7860   */\n      add\n        /* \"#utility.yul\":7806:7870   */\n      tag_292\n      jump\t// in\n    tag_396:\n        /* \"#utility.yul\":7796:7870   */\n      swap4\n      pop\n        /* \"#utility.yul\":7751:7880   */\n      pop\n        /* \"#utility.yul\":7919:7921   */\n      0x60\n        /* \"#utility.yul\":7945:8009   */\n      tag_397\n        /* \"#utility.yul\":8001:8008   */\n      dup9\n        /* \"#utility.yul\":7992:7998   */\n      dup3\n        /* \"#utility.yul\":7981:7990   */\n      dup10\n        /* \"#utility.yul\":7977:7999   */\n      add\n        /* \"#utility.yul\":7945:8009   */\n      tag_292\n      jump\t// in\n    tag_397:\n        /* \"#utility.yul\":7935:8009   */\n      swap3\n      pop\n        /* \"#utility.yul\":7890:8019   */\n      pop\n        /* \"#utility.yul\":8058:8061   */\n      0x80\n        /* \"#utility.yul\":8085:8148   */\n      tag_398\n        /* \"#utility.yul\":8140:8147   */\n      dup9\n        /* \"#utility.yul\":8131:8137   */\n      dup3\n        /* \"#utility.yul\":8120:8129   */\n      dup10\n        /* \"#utility.yul\":8116:8138   */\n      add\n        /* \"#utility.yul\":8085:8148   */\n      tag_288\n      jump\t// in\n    tag_398:\n        /* \"#utility.yul\":8075:8148   */\n      swap2\n      pop\n        /* \"#utility.yul\":8029:8158   */\n      pop\n        /* \"#utility.yul\":7194:8165   */\n      swap3\n      swap6\n      pop\n      swap3\n      swap6\n      swap1\n      swap4\n      pop\n      jump\t// out\n        /* \"#utility.yul\":8171:8365   */\n    tag_196:\n        /* \"#utility.yul\":8211:8215   */\n      0x00\n        /* \"#utility.yul\":8231:8251   */\n      tag_400\n        /* \"#utility.yul\":8249:8250   */\n      dup3\n        /* \"#utility.yul\":8231:8251   */\n      tag_267\n      jump\t// in\n    tag_400:\n        /* \"#utility.yul\":8226:8251   */\n      swap2\n      pop\n        /* \"#utility.yul\":8265:8285   */\n      tag_401\n        /* \"#utility.yul\":8283:8284   */\n      dup4\n        /* \"#utility.yul\":8265:8285   */\n      tag_267\n      jump\t// in\n    tag_401:\n        /* \"#utility.yul\":8260:8285   */\n      swap3\n      pop\n        /* \"#utility.yul\":8309:8310   */\n      dup3\n        /* \"#utility.yul\":8306:8307   */\n      dup3\n        /* \"#utility.yul\":8302:8311   */\n      sub\n        /* \"#utility.yul\":8294:8311   */\n      swap1\n      pop\n        /* \"#utility.yul\":8333:8334   */\n      dup2\n        /* \"#utility.yul\":8327:8331   */\n      dup2\n        /* \"#utility.yul\":8324:8335   */\n      gt\n        /* \"#utility.yul\":8321:8358   */\n      iszero\n      tag_402\n      jumpi\n        /* \"#utility.yul\":8338:8356   */\n      tag_403\n      tag_283\n      jump\t// in\n    tag_403:\n        /* \"#utility.yul\":8321:8358   */\n    tag_402:\n        /* \"#utility.yul\":8171:8365   */\n      swap3\n      swap2\n      pop\n      pop\n      jump\t// out\n        /* \"#utility.yul\":8371:8473   */\n    tag_293:\n        /* \"#utility.yul\":8413:8421   */\n      0x00\n        /* \"#utility.yul\":8460:8465   */\n      dup2\n        /* \"#utility.yul\":8457:8458   */\n      0x01\n        /* \"#utility.yul\":8453:8466   */\n      shr\n        /* \"#utility.yul\":8432:8466   */\n      swap1\n      pop\n        /* \"#utility.yul\":8371:8473   */\n      swap2\n      swap1\n      pop\n      jump\t// out\n        /* \"#utility.yul\":8479:9327   */\n    tag_294:\n        /* \"#utility.yul\":8540:8545   */\n      0x00\n        /* \"#utility.yul\":8547:8551   */\n      0x00\n        /* \"#utility.yul\":8571:8577   */\n      dup3\n        /* \"#utility.yul\":8562:8577   */\n      swap2\n      pop\n        /* \"#utility.yul\":8595:8600   */\n      dup4\n        /* \"#utility.yul\":8586:8600   */\n      swap1\n      pop\n        /* \"#utility.yul\":8609:9321   */\n    tag_406:\n        /* \"#utility.yul\":8630:8631   */\n      0x01\n        /* \"#utility.yul\":8620:8628   */\n      dup6\n        /* \"#utility.yul\":8617:8632   */\n      gt\n        /* \"#utility.yul\":8609:9321   */\n      iszero\n      tag_408\n      jumpi\n        /* \"#utility.yul\":8725:8729   */\n      dup1\n        /* \"#utility.yul\":8720:8723   */\n      dup7\n        /* \"#utility.yul\":8716:8730   */\n      div\n        /* \"#utility.yul\":8710:8714   */\n      dup2\n        /* \"#utility.yul\":8707:8731   */\n      gt\n        /* \"#utility.yul\":8704:8754   */\n      iszero\n      tag_409\n      jumpi\n        /* \"#utility.yul\":8734:8752   */\n      tag_410\n      tag_283\n      jump\t// in\n    tag_410:\n        /* \"#utility.yul\":8704:8754   */\n    tag_409:\n        /* \"#utility.yul\":8784:8785   */\n      0x01\n        /* \"#utility.yul\":8774:8782   */\n      dup6\n        /* \"#utility.yul\":8770:8786   */\n      and\n        /* \"#utility.yul\":8767:9218   */\n      iszero\n      tag_411\n      jumpi\n        /* \"#utility.yul\":9199:9203   */\n      dup1\n        /* \"#utility.yul\":9192:9197   */\n      dup3\n        /* \"#utility.yul\":9188:9204   */\n      mul\n        /* \"#utility.yul\":9179:9204   */\n      swap2\n      pop\n        /* \"#utility.yul\":8767:9218   */\n    tag_411:\n        /* \"#utility.yul\":9249:9253   */\n      dup1\n        /* \"#utility.yul\":9243:9247   */\n      dup2\n        /* \"#utility.yul\":9239:9254   */\n      mul\n        /* \"#utility.yul\":9231:9254   */\n      swap1\n      pop\n        /* \"#utility.yul\":9279:9311   */\n      tag_412\n        /* \"#utility.yul\":9302:9310   */\n      dup6\n        /* \"#utility.yul\":9279:9311   */\n      tag_293\n      jump\t// in\n    tag_412:\n        /* \"#utility.yul\":9267:9311   */\n      swap5\n      pop\n        /* \"#utility.yul\":8609:9321   */\n      jump(tag_406)\n    tag_408:\n        /* \"#utility.yul\":8479:9327   */\n      swap5\n      pop\n      swap5\n      swap3\n      pop\n      pop\n      pop\n      jump\t// out\n        /* \"#utility.yul\":9333:10406   */\n    tag_295:\n        /* \"#utility.yul\":9387:9392   */\n      0x00\n        /* \"#utility.yul\":9578:9586   */\n      dup3\n        /* \"#utility.yul\":9568:9608   */\n      tag_414\n      jumpi\n        /* \"#utility.yul\":9599:9600   */\n      0x01\n        /* \"#utility.yul\":9590:9600   */\n      swap1\n      pop\n        /* \"#utility.yul\":9601:9606   */\n      jump(tag_413)\n        /* \"#utility.yul\":9568:9608   */\n    tag_414:\n        /* \"#utility.yul\":9627:9631   */\n      dup2\n        /* \"#utility.yul\":9617:9653   */\n      tag_415\n      jumpi\n        /* \"#utility.yul\":9644:9645   */\n      0x00\n        /* \"#utility.yul\":9635:9645   */\n      swap1\n      pop\n        /* \"#utility.yul\":9646:9651   */\n      jump(tag_413)\n        /* \"#utility.yul\":9617:9653   */\n    tag_415:\n        /* \"#utility.yul\":9713:9717   */\n      dup2\n        /* \"#utility.yul\":9761:9762   */\n      0x01\n        /* \"#utility.yul\":9756:9783   */\n      dup2\n      eq\n      tag_417\n      jumpi\n        /* \"#utility.yul\":9797:9798   */\n      0x02\n        /* \"#utility.yul\":9792:9983   */\n      dup2\n      eq\n      tag_418\n      jumpi\n        /* \"#utility.yul\":9706:9983   */\n      jump(tag_416)\n        /* \"#utility.yul\":9756:9783   */\n    tag_417:\n        /* \"#utility.yul\":9774:9775   */\n      0x01\n        /* \"#utility.yul\":9765:9775   */\n      swap2\n      pop\n        /* \"#utility.yul\":9776:9781   */\n      pop\n      jump(tag_413)\n        /* \"#utility.yul\":9792:9983   */\n    tag_418:\n        /* \"#utility.yul\":9837:9840   */\n      0xff\n        /* \"#utility.yul\":9827:9835   */\n      dup5\n        /* \"#utility.yul\":9824:9841   */\n      gt\n        /* \"#utility.yul\":9821:9864   */\n      iszero\n      tag_419\n      jumpi\n        /* \"#utility.yul\":9844:9862   */\n      tag_420\n      tag_283\n      jump\t// in\n    tag_420:\n        /* \"#utility.yul\":9821:9864   */\n    tag_419:\n        /* \"#utility.yul\":9893:9901   */\n      dup4\n        /* \"#utility.yul\":9890:9891   */\n      0x02\n        /* \"#utility.yul\":9886:9902   */\n      exp\n        /* \"#utility.yul\":9877:9902   */\n      swap2\n      pop\n        /* \"#utility.yul\":9928:9931   */\n      dup5\n        /* \"#utility.yul\":9921:9926   */\n      dup3\n        /* \"#utility.yul\":9918:9932   */\n      gt\n        /* \"#utility.yul\":9915:9955   */\n      iszero\n      tag_421\n      jumpi\n        /* \"#utility.yul\":9935:9953   */\n      tag_422\n      tag_283\n      jump\t// in\n    tag_422:\n        /* \"#utility.yul\":9915:9955   */\n    tag_421:\n        /* \"#utility.yul\":9968:9973   */\n      pop\n      jump(tag_413)\n        /* \"#utility.yul\":9706:9983   */\n    tag_416:\n      pop\n        /* \"#utility.yul\":10092:10094   */\n      0x20\n        /* \"#utility.yul\":10082:10090   */\n      dup4\n        /* \"#utility.yul\":10079:10095   */\n      lt\n        /* \"#utility.yul\":10073:10076   */\n      0x0133\n        /* \"#utility.yul\":10067:10071   */\n      dup4\n        /* \"#utility.yul\":10064:10077   */\n      lt\n        /* \"#utility.yul\":10060:10096   */\n      and\n        /* \"#utility.yul\":10042:10044   */\n      0x4e\n        /* \"#utility.yul\":10032:10040   */\n      dup5\n        /* \"#utility.yul\":10029:10045   */\n      lt\n        /* \"#utility.yul\":10024:10026   */\n      0x0b\n        /* \"#utility.yul\":10018:10022   */\n      dup5\n        /* \"#utility.yul\":10015:10027   */\n      lt\n        /* \"#utility.yul\":10011:10046   */\n      and\n        /* \"#utility.yul\":9995:10106   */\n      or\n        /* \"#utility.yul\":9992:10238   */\n      iszero\n      tag_423\n      jumpi\n        /* \"#utility.yul\":10148:10156   */\n      dup3\n        /* \"#utility.yul\":10142:10146   */\n      dup3\n        /* \"#utility.yul\":10138:10157   */\n      exp\n        /* \"#utility.yul\":10129:10157   */\n      swap1\n      pop\n        /* \"#utility.yul\":10183:10186   */\n      dup4\n        /* \"#utility.yul\":10176:10181   */\n      dup2\n        /* \"#utility.yul\":10173:10187   */\n      gt\n        /* \"#utility.yul\":10170:10210   */\n      iszero\n      tag_424\n      jumpi\n        /* \"#utility.yul\":10190:10208   */\n      tag_425\n      tag_283\n      jump\t// in\n    tag_425:\n        /* \"#utility.yul\":10170:10210   */\n    tag_424:\n        /* \"#utility.yul\":10223:10228   */\n      jump(tag_413)\n        /* \"#utility.yul\":9992:10238   */\n    tag_423:\n        /* \"#utility.yul\":10263:10305   */\n      tag_426\n        /* \"#utility.yul\":10301:10304   */\n      dup5\n        /* \"#utility.yul\":10291:10299   */\n      dup5\n        /* \"#utility.yul\":10285:10289   */\n      dup5\n        /* \"#utility.yul\":10282:10283   */\n      0x01\n        /* \"#utility.yul\":10263:10305   */\n      tag_294\n      jump\t// in\n    tag_426:\n        /* \"#utility.yul\":10248:10305   */\n      swap3\n      pop\n      swap1\n      pop\n        /* \"#utility.yul\":10337:10341   */\n      dup2\n        /* \"#utility.yul\":10332:10335   */\n      dup5\n        /* \"#utility.yul\":10328:10342   */\n      div\n        /* \"#utility.yul\":10321:10326   */\n      dup2\n        /* \"#utility.yul\":10318:10343   */\n      gt\n        /* \"#utility.yul\":10315:10366   */\n      iszero\n      tag_427\n      jumpi\n        /* \"#utility.yul\":10346:10364   */\n      tag_428\n      tag_283\n      jump\t// in\n    tag_428:\n        /* \"#utility.yul\":10315:10366   */\n    tag_427:\n        /* \"#utility.yul\":10395:10399   */\n      dup2\n        /* \"#utility.yul\":10388:10393   */\n      dup2\n        /* \"#utility.yul\":10384:10400   */\n      mul\n        /* \"#utility.yul\":10375:10400   */\n      swap1\n      pop\n        /* \"#utility.yul\":9333:10406   */\n    tag_413:\n      swap4\n      swap3\n      pop\n      pop\n      pop\n      jump\t// out\n        /* \"#utility.yul\":10412:10697   */\n    tag_199:\n        /* \"#utility.yul\":10472:10477   */\n      0x00\n        /* \"#utility.yul\":10496:10519   */\n      tag_430\n        /* \"#utility.yul\":10514:10518   */\n      dup3\n        /* \"#utility.yul\":10496:10519   */\n      tag_267\n      jump\t// in\n    tag_430:\n        /* \"#utility.yul\":10488:10519   */\n      swap2\n      pop\n        /* \"#utility.yul\":10540:10567   */\n      tag_431\n        /* \"#utility.yul\":10558:10566   */\n      dup4\n        /* \"#utility.yul\":10540:10567   */\n      tag_267\n      jump\t// in\n    tag_431:\n        /* \"#utility.yul\":10528:10567   */\n      swap3\n      pop\n        /* \"#utility.yul\":10586:10690   */\n      tag_432\n        /* \"#utility.yul\":10623:10689   */\n      0xffffffffffffffffffffffffffffffffffffffffffffffffffffffffffffffff\n        /* \"#utility.yul\":10613:10621   */\n      dup5\n        /* \"#utility.yul\":10607:10611   */\n      dup5\n        /* \"#utility.yul\":10586:10690   */\n      tag_295\n      jump\t// in\n    tag_432:\n        /* \"#utility.yul\":10577:10690   */\n      swap1\n      pop\n        /* \"#utility.yul\":10412:10697   */\n      swap3\n      swap2\n      pop\n      pop\n      jump\t// out\n        /* \"#utility.yul\":10703:11113   */\n    tag_201:\n        /* \"#utility.yul\":10743:10750   */\n      0x00\n        /* \"#utility.yul\":10766:10786   */\n      tag_434\n        /* \"#utility.yul\":10784:10785   */\n      dup3\n        /* \"#utility.yul\":10766:10786   */\n      tag_267\n      jump\t// in\n    tag_434:\n        /* \"#utility.yul\":10761:10786   */\n      swap2\n      pop\n        /* \"#utility.yul\":10800:10820   */\n      tag_435\n        /* \"#utility.yul\":10818:10819   */\n      dup4\n        /* \"#utility.yul\":10800:10820   */\n      tag_267\n      jump\t// in\n    tag_435:\n        /* \"#utility.yul\":10795:10820   */\n      swap3\n      pop\n        /* \"#utility.yul\":10855:10856   */\n      dup3\n        /* \"#utility.yul\":10852:10853   */\n      dup3\n        /* \"#utility.yul\":10848:10857   */\n      mul\n        /* \"#utility.yul\":10877:10907   */\n      tag_436\n        /* \"#utility.yul\":10895:10906   */\n      dup2\n        /* \"#utility.yul\":10877:10907   */\n      tag_267\n      jump\t// in\n    tag_436:\n        /* \"#utility.yul\":10866:10907   */\n      swap2\n      pop\n        /* \"#utility.yul\":11056:11057   */\n      dup3\n        /* \"#utility.yul\":11047:11054   */\n      dup3\n        /* \"#utility.yul\":11043:11058   */\n      div\n        /* \"#utility.yul\":11040:11041   */\n      dup5\n        /* \"#utility.yul\":11037:11059   */\n      eq\n        /* \"#utility.yul\":11017:11018   */\n      dup4\n        /* \"#utility.yul\":11010:11019   */\n      iszero\n        /* \"#utility.yul\":10990:11073   */\n      or\n        /* \"#utility.yul\":10967:11106   */\n      tag_437\n      jumpi\n        /* \"#utility.yul\":11086:11104   */\n      tag_438\n      tag_283\n      jump\t// in\n    tag_438:\n        /* \"#utility.yul\":10967:11106   */\n    tag_437:\n        /* \"#utility.yul\":10751:11113   */\n      pop\n        /* \"#utility.yul\":10703:11113   */\n      swap3\n      swap2\n      pop\n      pop\n      jump\t// out\n        /* \"#utility.yul\":11119:11299   */\n    tag_296:\n        /* \"#utility.yul\":11167:11244   */\n      0x4e487b7100000000000000000000000000000000000000000000000000000000\n        /* \"#utility.yul\":11164:11165   */\n      0x00\n        /* \"#utility.yul\":11157:11245   */\n      mstore\n        /* \"#utility.yul\":11264:11268   */\n      0x12\n        /* \"#utility.yul\":11261:11262   */\n      0x04\n        /* \"#utility.yul\":11254:11269   */\n      mstore\n        /* \"#utility.yul\":11288:11292   */\n      0x24\n        /* \"#utility.yul\":11285:11286   */\n      0x00\n        /* \"#utility.yul\":11278:11293   */\n      revert\n        /* \"#utility.yul\":11305:11490   */\n    tag_203:\n        /* \"#utility.yul\":11345:11346   */\n      0x00\n        /* \"#utility.yul\":11362:11382   */\n      tag_441\n        /* \"#utility.yul\":11380:11381   */\n      dup3\n        /* \"#utility.yul\":11362:11382   */\n      tag_267\n      jump\t// in\n    tag_441:\n        /* \"#utility.yul\":11357:11382   */\n      swap2\n      pop\n        /* \"#utility.yul\":11396:11416   */\n      tag_442\n        /* \"#utility.yul\":11414:11415   */\n      dup4\n        /* \"#utility.yul\":11396:11416   */\n      tag_267\n      jump\t// in\n    tag_442:\n        /* \"#utility.yul\":11391:11416   */\n      swap3\n      pop\n        /* \"#utility.yul\":11435:11436   */\n      dup3\n        /* \"#utility.yul\":11425:11460   */\n      tag_443\n      jumpi\n        /* \"#utility.yul\":11440:11458   */\n      tag_444\n      tag_296\n      jump\t// in\n    tag_444:\n        /* \"#utility.yul\":11425:11460   */\n    tag_443:\n        /* \"#utility.yul\":11482:11483   */\n      dup3\n        /* \"#utility.yul\":11479:11480   */\n      dup3\n        /* \"#utility.yul\":11475:11484   */\n      div\n        /* \"#utility.yul\":11470:11484   */\n      swap1\n      pop\n        /* \"#utility.yul\":11305:11490   */\n      swap3\n      swap2\n      pop\n      pop\n      jump\t// out\n        /* \"#utility.yul\":11496:11693   */\n    tag_243:\n        /* \"#utility.yul\":11535:11538   */\n      0x00\n        /* \"#utility.yul\":11554:11573   */\n      tag_446\n        /* \"#utility.yul\":11571:11572   */\n      dup3\n        /* \"#utility.yul\":11554:11573   */\n      tag_281\n      jump\t// in\n    tag_446:\n        /* \"#utility.yul\":11549:11573   */\n      swap2\n      pop\n        /* \"#utility.yul\":11587:11606   */\n      tag_447\n        /* \"#utility.yul\":11604:11605   */\n      dup4\n        /* \"#utility.yul\":11587:11606   */\n      tag_281\n      jump\t// in\n    tag_447:\n        /* \"#utility.yul\":11582:11606   */\n      swap3\n      pop\n        /* \"#utility.yul\":11629:11630   */\n      dup3\n        /* \"#utility.yul\":11626:11627   */\n      dup3\n        /* \"#utility.yul\":11622:11631   */\n      add\n        /* \"#utility.yul\":11615:11631   */\n      swap1\n      pop\n        /* \"#utility.yul\":11652:11662   */\n      0xffffffff\n        /* \"#utility.yul\":11647:11650   */\n      dup2\n        /* \"#utility.yul\":11644:11663   */\n      gt\n        /* \"#utility.yul\":11641:11686   */\n      iszero\n      tag_448\n      jumpi\n        /* \"#utility.yul\":11666:11684   */\n      tag_449\n      tag_283\n      jump\t// in\n    tag_449:\n        /* \"#utility.yul\":11641:11686   */\n    tag_448:\n        /* \"#utility.yul\":11496:11693   */\n      swap3\n      swap2\n      pop\n      pop\n      jump\t// out\n        /* \"#utility.yul\":11699:11846   */\n    tag_297:\n        /* \"#utility.yul\":11800:11811   */\n      0x00\n        /* \"#utility.yul\":11837:11840   */\n      dup2\n        /* \"#utility.yul\":11822:11840   */\n      swap1\n      pop\n        /* \"#utility.yul\":11699:11846   */\n      swap3\n      swap2\n      pop\n      pop\n      jump\t// out\n        /* \"#utility.yul\":11852:11966   */\n    tag_298:\n      pop\n      jump\t// out\n        /* \"#utility.yul\":11972:12370   */\n    tag_299:\n        /* \"#utility.yul\":12131:12134   */\n      0x00\n        /* \"#utility.yul\":12152:12235   */\n      tag_453\n        /* \"#utility.yul\":12233:12234   */\n      0x00\n        /* \"#utility.yul\":12228:12231   */\n      dup4\n        /* \"#utility.yul\":12152:12235   */\n      tag_297\n      jump\t// in\n    tag_453:\n        /* \"#utility.yul\":12145:12235   */\n      swap2\n      pop\n        /* \"#utility.yul\":12244:12337   */\n      tag_454\n        /* \"#utility.yul\":12333:12336   */\n      dup3\n        /* \"#utility.yul\":12244:12337   */\n      tag_298\n      jump\t// in\n    tag_454:\n        /* \"#utility.yul\":12362:12363   */\n      0x00\n        /* \"#utility.yul\":12357:12360   */\n      dup3\n        /* \"#utility.yul\":12353:12364   */\n      add\n        /* \"#utility.yul\":12346:12364   */\n      swap1\n      pop\n        /* \"#utility.yul\":11972:12370   */\n      swap2\n      swap1\n      pop\n      jump\t// out\n        /* \"#utility.yul\":12376:12755   */\n    tag_248:\n        /* \"#utility.yul\":12560:12563   */\n      0x00\n        /* \"#utility.yul\":12582:12729   */\n      tag_456\n        /* \"#utility.yul\":12725:12728   */\n      dup3\n        /* \"#utility.yul\":12582:12729   */\n      tag_299\n      jump\t// in\n    tag_456:\n        /* \"#utility.yul\":12575:12729   */\n      swap2\n      pop\n        /* \"#utility.yul\":12746:12749   */\n      dup2\n        /* \"#utility.yul\":12739:12749   */\n      swap1\n      pop\n        /* \"#utility.yul\":12376:12755   */\n      swap2\n      swap1\n      pop\n      jump\t// out\n        /* \"#utility.yul\":12761:13093   */\n    tag_254:\n        /* \"#utility.yul\":12882:12886   */\n      0x00\n        /* \"#utility.yul\":12920:12922   */\n      0x40\n        /* \"#utility.yul\":12909:12918   */\n      dup3\n        /* \"#utility.yul\":12905:12923   */\n      add\n        /* \"#utility.yul\":12897:12923   */\n      swap1\n      pop\n        /* \"#utility.yul\":12933:13004   */\n      tag_458\n        /* \"#utility.yul\":13001:13002   */\n      0x00\n        /* \"#utility.yul\":12990:12999   */\n      dup4\n        /* \"#utility.yul\":12986:13003   */\n      add\n        /* \"#utility.yul\":12977:12983   */\n      dup6\n        /* \"#utility.yul\":12933:13004   */\n      tag_278\n      jump\t// in\n    tag_458:\n        /* \"#utility.yul\":13014:13086   */\n      tag_459\n        /* \"#utility.yul\":13082:13084   */\n      0x20\n        /* \"#utility.yul\":13071:13080   */\n      dup4\n        /* \"#utility.yul\":13067:13085   */\n      add\n        /* \"#utility.yul\":13058:13064   */\n      dup5\n        /* \"#utility.yul\":13014:13086   */\n      tag_268\n      jump\t// in\n    tag_459:\n        /* \"#utility.yul\":12761:13093   */\n      swap4\n      swap3\n      pop\n      pop\n      pop\n      jump\t// out\n\n    auxdata: 0xa26469706673582212204f978173d3d9dc9d8161c2c78b234a24c431efa919d509de2c079df8140d1c5164736f6c634300081e0033\n}\n",
				"bytecode": {
					"linkReferences": {},
					"object": "60c060405234801561000f575f5ffd5b5060405161227d38038061227d833981810160405281019061003191906101c1565b335f73ffffffffffffffffffffffffffffffffffffffff168173ffffffffffffffffffffffffffffffffffffffff16036100a2575f6040517f1e4fbdf7000000000000000000000000000000000000000000000000000000008152600401610099919061023e565b60405180910390fd5b6100b1816100c960201b60201c565b5081608081815250508060a081815250505050610257565b5f5f5f9054906101000a900473ffffffffffffffffffffffffffffffffffffffff169050815f5f6101000a81548173ffffffffffffffffffffffffffffffffffffffff021916908373ffffffffffffffffffffffffffffffffffffffff1602179055508173ffffffffffffffffffffffffffffffffffffffff168173ffffffffffffffffffffffffffffffffffffffff167f8be0079c531659141344cd1fd0a4f28419497f9722a3daafe3b4186f6b6457e060405160405180910390a35050565b5f5ffd5b5f819050919050565b6101a08161018e565b81146101aa575f5ffd5b50565b5f815190506101bb81610197565b92915050565b5f5f604083850312156101d7576101d661018a565b5b5f6101e4858286016101ad565b92505060206101f5858286016101ad565b9150509250929050565b5f73ffffffffffffffffffffffffffffffffffffffff82169050919050565b5f610228826101ff565b9050919050565b6102388161021e565b82525050565b5f6020820190506102515f83018461022f565b92915050565b60805160a051611fdb6102a25f395f81816105360152818161055f0152610d2401525f81816107180152818161075b01528181610d5701528181610d9a0152610ec20152611fdb5ff3fe608060405260043610610122575f3560e01c80638da5cb5b1161009f578063dccd58e311610063578063dccd58e314610438578063f2fde38b14610474578063f3db702c1461049c578063f6687af7146104c6578063fe3192f6146104f057610180565b80638da5cb5b146103885780639e281a98146103b2578063a734f06e146103da578063c801fb4014610404578063d0e30db01461042e57610180565b80634a83c3b7116100e65780634a83c3b7146102ba57806352963c2b146102e4578063715018a61461030e57806376e11286146103245780637e3ef7cd1461034c57610180565b8063287cc96b146101d95780632e1a7d4d14610203578063338b5dea1461022b5780633b1a4ec414610253578063432017ca1461027d57610180565b36610180573073ffffffffffffffffffffffffffffffffffffffff1663d0e30db06040518163ffffffff1660e01b81526004015f604051808303815f87803b15801561016c575f5ffd5b505af115801561017e573d5f5f3e3d5ffd5b005b3073ffffffffffffffffffffffffffffffffffffffff1663d0e30db06040518163ffffffff1660e01b81526004015f604051808303815f87803b1580156101c5575f5ffd5b505af11580156101d7573d5f5f3e3d5ffd5b005b3480156101e4575f5ffd5b506101ed61052c565b6040516101fa919061189a565b60405180910390f35b34801561020e575f5ffd5b50610229600480360381019061022491906118e1565b610533565b005b348015610236575f5ffd5b50610251600480360381019061024c9190611966565b610707565b005b34801561025e575f5ffd5b5061026761085b565b604051610274919061189a565b60405180910390f35b348015610288575f5ffd5b506102a3600480360381019061029e91906119a4565b610861565b6040516102b19291906119f9565b60405180910390f35b3480156102c5575f5ffd5b506102ce6108ac565b6040516102db919061189a565b60405180910390f35b3480156102ef575f5ffd5b506102f86108b2565b6040516103059190611a3e565b60405180910390f35b348015610319575f5ffd5b506103226108c7565b005b34801561032f575f5ffd5b5061034a60048036038101906103459190611a57565b6108da565b005b348015610357575f5ffd5b50610372600480360381019061036d91906119a4565b610ac5565b60405161037f919061189a565b60405180910390f35b348015610393575f5ffd5b5061039c610b46565b6040516103a99190611a95565b60405180910390f35b3480156103bd575f5ffd5b506103d860048036038101906103d39190611966565b610b6d565b005b3480156103e5575f5ffd5b506103ee610d1e565b6040516103fb9190611a95565b60405180910390f35b34801561040f575f5ffd5b50610418610d22565b604051610425919061189a565b60405180910390f35b610436610d46565b005b348015610443575f5ffd5b5061045e60048036038101906104599190611a57565b610e06565b60405161046b919061189a565b60405180910390f35b34801561047f575f5ffd5b5061049a600480360381019061049591906119a4565b610e26565b005b3480156104a7575f5ffd5b506104b0610eaa565b6040516104bd9190611a3e565b60405180910390f35b3480156104d1575f5ffd5b506104da610ec0565b6040516104e7919061189a565b60405180910390f35b3480156104fb575f5ffd5b5061051660048036038101906105119190611966565b610ee4565b604051610523919061189a565b60405180910390f35b5f47905090565b807f00000000000000000000000000000000000000000000000000000000000000008111156105bb57807f00000000000000000000000000000000000000000000000000000000000000006040517f631019960000000000000000000000000000000000000000000000000000000081526004016105b2929190611aae565b60405180910390fd5b5f8260035f8373ffffffffffffffffffffffffffffffffffffffff1673ffffffffffffffffffffffffffffffffffffffff1681526020019081526020015f205f3373ffffffffffffffffffffffffffffffffffffffff1673ffffffffffffffffffffffffffffffffffffffff1681526020019081526020015f20548111156106f657818160035f8573ffffffffffffffffffffffffffffffffffffffff1673ffffffffffffffffffffffffffffffffffffffff1681526020019081526020015f205f3373ffffffffffffffffffffffffffffffffffffffff1673ffffffffffffffffffffffffffffffffffffffff1681526020019081526020015f20546040517f5fedab090000000000000000000000000000000000000000000000000000000081526004016106ed93929190611ad5565b60405180910390fd5b6107015f3386611146565b50505050565b81815f6107148383610ee4565b90507f0000000000000000000000000000000000000000000000000000000000000000816001546107459190611b37565b11156107b757806001546107599190611b37565b7f00000000000000000000000000000000000000000000000000000000000000006040517ff6167f4e0000000000000000000000000000000000000000000000000000000081526004016107ae929190611aae565b60405180910390fd5b5f73ffffffffffffffffffffffffffffffffffffffff168573ffffffffffffffffffffffffffffffffffffffff160361081c576040517f7cb522e900000000000000000000000000000000000000000000000000000000815260040160405180910390fd5b6108493330868873ffffffffffffffffffffffffffffffffffffffff16611316909392919063ffffffff16565b61085485338661136b565b5050505050565b60015481565b6004602052805f5260405f205f91509050805f015f9054906101000a900473ffffffffffffffffffffffffffffffffffffffff1690805f0160149054906101000a900460ff16905082565b610e1081565b60025f9054906101000a900463ffffffff1681565b6108cf6114ce565b6108d85f611555565b565b6108e26114ce565b5f5f73ffffffffffffffffffffffffffffffffffffffff168373ffffffffffffffffffffffffffffffffffffffff160361091f576012905061098f565b8273ffffffffffffffffffffffffffffffffffffffff1663313ce5676040518163ffffffff1660e01b8152600401602060405180830381865afa158015610968573d5f5f3e3d5ffd5b505050506040513d601f19601f8201168201806040525081019061098c9190611b94565b90505b5f60405180604001604052808473ffffffffffffffffffffffffffffffffffffffff1681526020018360ff1681525090508060045f8673ffffffffffffffffffffffffffffffffffffffff1673ffffffffffffffffffffffffffffffffffffffff1681526020019081526020015f205f820151815f015f6101000a81548173ffffffffffffffffffffffffffffffffffffffff021916908373ffffffffffffffffffffffffffffffffffffffff1602179055506020820151815f0160146101000a81548160ff021916908360ff1602179055509050508273ffffffffffffffffffffffffffffffffffffffff168473ffffffffffffffffffffffffffffffffffffffff167fa8abe0398416476db5b05737cd4da3b3cbde5012d978a6a6c3fd49d32175353660405160405180910390a350505050565b5f60035f8373ffffffffffffffffffffffffffffffffffffffff1673ffffffffffffffffffffffffffffffffffffffff1681526020019081526020015f205f3373ffffffffffffffffffffffffffffffffffffffff1673ffffffffffffffffffffffffffffffffffffffff1681526020019081526020015f20549050919050565b5f5f5f9054906101000a900473ffffffffffffffffffffffffffffffffffffffff16905090565b818160035f8373ffffffffffffffffffffffffffffffffffffffff1673ffffffffffffffffffffffffffffffffffffffff1681526020019081526020015f205f3373ffffffffffffffffffffffffffffffffffffffff1673ffffffffffffffffffffffffffffffffffffffff1681526020019081526020015f2054811115610ca857818160035f8573ffffffffffffffffffffffffffffffffffffffff1673ffffffffffffffffffffffffffffffffffffffff1681526020019081526020015f205f3373ffffffffffffffffffffffffffffffffffffffff1673ffffffffffffffffffffffffffffffffffffffff1681526020019081526020015f20546040517f5fedab09000000000000000000000000000000000000000000000000000000008152600401610c9f93929190611ad5565b60405180910390fd5b5f73ffffffffffffffffffffffffffffffffffffffff168473ffffffffffffffffffffffffffffffffffffffff1603610d0d576040517f7cb522e900000000000000000000000000000000000000000000000000000000815260040160405180910390fd5b610d18843385611146565b50505050565b5f81565b7f000000000000000000000000000000000000000000000000000000000000000081565b5f345f610d538383610ee4565b90507f000000000000000000000000000000000000000000000000000000000000000081600154610d849190611b37565b1115610df65780600154610d989190611b37565b7f00000000000000000000000000000000000000000000000000000000000000006040517ff6167f4e000000000000000000000000000000000000000000000000000000008152600401610ded929190611aae565b60405180910390fd5b610e015f333461136b565b505050565b6003602052815f5260405f20602052805f5260405f205f91509150505481565b610e2e6114ce565b5f73ffffffffffffffffffffffffffffffffffffffff168173ffffffffffffffffffffffffffffffffffffffff1603610e9e575f6040517f1e4fbdf7000000000000000000000000000000000000000000000000000000008152600401610e959190611a95565b60405180910390fd5b610ea781611555565b50565b600260049054906101000a900463ffffffff1681565b7f000000000000000000000000000000000000000000000000000000000000000081565b5f5f60045f8573ffffffffffffffffffffffffffffffffffffffff1673ffffffffffffffffffffffffffffffffffffffff1681526020019081526020015f206040518060400160405290815f82015f9054906101000a900473ffffffffffffffffffffffffffffffffffffffff1673ffffffffffffffffffffffffffffffffffffffff1673ffffffffffffffffffffffffffffffffffffffff1681526020015f820160149054906101000a900460ff1660ff1660ff168152505090505f73ffffffffffffffffffffffffffffffffffffffff16815f015173ffffffffffffffffffffffffffffffffffffffff160361101357836040517fc25bec5600000000000000000000000000000000000000000000000000000000815260040161100a9190611a95565b60405180910390fd5b5f815f015190505f5f8273ffffffffffffffffffffffffffffffffffffffff1663feaf968c6040518163ffffffff1660e01b815260040160a060405180830381865afa158015611065573d5f5f3e3d5ffd5b505050506040513d601f19601f820116820180604052508101906110899190611c45565b509350509250505f82136110c9576040517f780cfa4700000000000000000000000000000000000000000000000000000000815260040160405180910390fd5b610e1081426110d89190611cbc565b1115611110576040517f71a821df00000000000000000000000000000000000000000000000000000000815260040160405180910390fd5b836020015160ff16600a6111249190611e1e565b82876111309190611e68565b61113a9190611ed6565b94505050505092915050565b805f8103611180576040517ffa4e609e00000000000000000000000000000000000000000000000000000000815260040160405180910390fd5b8160035f8673ffffffffffffffffffffffffffffffffffffffff1673ffffffffffffffffffffffffffffffffffffffff1681526020019081526020015f205f8573ffffffffffffffffffffffffffffffffffffffff1673ffffffffffffffffffffffffffffffffffffffff1681526020019081526020015f205f8282546112079190611cbc565b925050819055506112175f611616565b5f6112228584610ee4565b90508060015f8282546112359190611cbc565b925050819055505f73ffffffffffffffffffffffffffffffffffffffff168573ffffffffffffffffffffffffffffffffffffffff160361127e5761127984846116a4565b6112aa565b6112a984848773ffffffffffffffffffffffffffffffffffffffff166117559092919063ffffffff16565b5b8373ffffffffffffffffffffffffffffffffffffffff168573ffffffffffffffffffffffffffffffffffffffff167fd1c19fbcd4551a5edfb66d43d2e337c04837afda3482b42bdf569a8fccdae5fb85604051611307919061189a565b60405180910390a35050505050565b6113248484848460016117a8565b61136557836040517f5274afe700000000000000000000000000000000000000000000000000000000815260040161135c9190611a95565b60405180910390fd5b50505050565b805f81036113a5576040517ffa4e609e00000000000000000000000000000000000000000000000000000000815260040160405180910390fd5b8160035f8673ffffffffffffffffffffffffffffffffffffffff1673ffffffffffffffffffffffffffffffffffffffff1681526020019081526020015f205f8573ffffffffffffffffffffffffffffffffffffffff1673ffffffffffffffffffffffffffffffffffffffff1681526020019081526020015f205f82825461142c9190611b37565b9250508190555061143d6001611616565b5f6114488584610ee4565b90508060015f82825461145b9190611b37565b925050819055508373ffffffffffffffffffffffffffffffffffffffff168573ffffffffffffffffffffffffffffffffffffffff167f8752a472e571a816aea92eec8dae9baf628e840f4929fbcc2d155e6233ff68a7856040516114bf919061189a565b60405180910390a35050505050565b6114d6611819565b73ffffffffffffffffffffffffffffffffffffffff166114f4610b46565b73ffffffffffffffffffffffffffffffffffffffff161461155357611517611819565b6040517f118cdaa700000000000000000000000000000000000000000000000000000000815260040161154a9190611a95565b60405180910390fd5b565b5f5f5f9054906101000a900473ffffffffffffffffffffffffffffffffffffffff169050815f5f6101000a81548173ffffffffffffffffffffffffffffffffffffffff021916908373ffffffffffffffffffffffffffffffffffffffff1602179055508173ffffffffffffffffffffffffffffffffffffffff168173ffffffffffffffffffffffffffffffffffffffff167f8be0079c531659141344cd1fd0a4f28419497f9722a3daafe3b4186f6b6457e060405160405180910390a35050565b801561166057600160025f8282829054906101000a900463ffffffff1661163d9190611f06565b92506101000a81548163ffffffff021916908363ffffffff1602179055506116a1565b6001600260048282829054906101000a900463ffffffff166116829190611f06565b92506101000a81548163ffffffff021916908363ffffffff1602179055505b50565b5f8273ffffffffffffffffffffffffffffffffffffffff16826040516116c990611f6a565b5f6040518083038185875af1925050503d805f8114611703576040519150601f19603f3d011682016040523d82523d5f602084013e611708565b606091505b50509050806117505782826040517fa36a1dba000000000000000000000000000000000000000000000000000000008152600401611747929190611f7e565b60405180910390fd5b505050565b6117628383836001611820565b6117a357826040517f5274afe700000000000000000000000000000000000000000000000000000000815260040161179a9190611a95565b60405180910390fd5b505050565b5f5f6323b872dd60e01b9050604051815f525f1960601c87166004525f1960601c86166024528460445260205f60645f5f8c5af1925060015f511483166118065783831516156117fa573d5f823e3d81fd5b5f883b113d1516831692505b806040525f606052505095945050505050565b5f33905090565b5f5f63a9059cbb60e01b9050604051815f525f1960601c86166004528460245260205f60445f5f8b5af1925060015f51148316611874578383151615611868573d5f823e3d81fd5b5f873b113d1516831692505b806040525050949350505050565b5f819050919050565b61189481611882565b82525050565b5f6020820190506118ad5f83018461188b565b92915050565b5f5ffd5b6118c081611882565b81146118ca575f5ffd5b50565b5f813590506118db816118b7565b92915050565b5f602082840312156118f6576118f56118b3565b5b5f611903848285016118cd565b91505092915050565b5f73ffffffffffffffffffffffffffffffffffffffff82169050919050565b5f6119358261190c565b9050919050565b6119458161192b565b811461194f575f5ffd5b50565b5f813590506119608161193c565b92915050565b5f5f6040838503121561197c5761197b6118b3565b5b5f61198985828601611952565b925050602061199a858286016118cd565b9150509250929050565b5f602082840312156119b9576119b86118b3565b5b5f6119c684828501611952565b91505092915050565b6119d88161192b565b82525050565b5f60ff82169050919050565b6119f3816119de565b82525050565b5f604082019050611a0c5f8301856119cf565b611a1960208301846119ea565b9392505050565b5f63ffffffff82169050919050565b611a3881611a20565b82525050565b5f602082019050611a515f830184611a2f565b92915050565b5f5f60408385031215611a6d57611a6c6118b3565b5b5f611a7a85828601611952565b9250506020611a8b85828601611952565b9150509250929050565b5f602082019050611aa85f8301846119cf565b92915050565b5f604082019050611ac15f83018561188b565b611ace602083018461188b565b9392505050565b5f606082019050611ae85f8301866119cf565b611af5602083018561188b565b611b02604083018461188b565b949350505050565b7f4e487b71000000000000000000000000000000000000000000000000000000005f52601160045260245ffd5b5f611b4182611882565b9150611b4c83611882565b9250828201905080821115611b6457611b63611b0a565b5b92915050565b611b73816119de565b8114611b7d575f5ffd5b50565b5f81519050611b8e81611b6a565b92915050565b5f60208284031215611ba957611ba86118b3565b5b5f611bb684828501611b80565b91505092915050565b5f69ffffffffffffffffffff82169050919050565b611bdd81611bbf565b8114611be7575f5ffd5b50565b5f81519050611bf881611bd4565b92915050565b5f819050919050565b611c1081611bfe565b8114611c1a575f5ffd5b50565b5f81519050611c2b81611c07565b92915050565b5f81519050611c3f816118b7565b92915050565b5f5f5f5f5f60a08688031215611c5e57611c5d6118b3565b5b5f611c6b88828901611bea565b9550506020611c7c88828901611c1d565b9450506040611c8d88828901611c31565b9350506060611c9e88828901611c31565b9250506080611caf88828901611bea565b9150509295509295909350565b5f611cc682611882565b9150611cd183611882565b9250828203905081811115611ce957611ce8611b0a565b5b92915050565b5f8160011c9050919050565b5f5f8291508390505b6001851115611d4457808604811115611d2057611d1f611b0a565b5b6001851615611d2f5780820291505b8081029050611d3d85611cef565b9450611d04565b94509492505050565b5f82611d5c5760019050611e17565b81611d69575f9050611e17565b8160018114611d7f5760028114611d8957611db8565b6001915050611e17565b60ff841115611d9b57611d9a611b0a565b5b8360020a915084821115611db257611db1611b0a565b5b50611e17565b5060208310610133831016604e8410600b8410161715611ded5782820a905083811115611de857611de7611b0a565b5b611e17565b611dfa8484846001611cfb565b92509050818404811115611e1157611e10611b0a565b5b81810290505b9392505050565b5f611e2882611882565b9150611e3383611882565b9250611e607fffffffffffffffffffffffffffffffffffffffffffffffffffffffffffffffff8484611d4d565b905092915050565b5f611e7282611882565b9150611e7d83611882565b9250828202611e8b81611882565b91508282048414831517611ea257611ea1611b0a565b5b5092915050565b7f4e487b71000000000000000000000000000000000000000000000000000000005f52601260045260245ffd5b5f611ee082611882565b9150611eeb83611882565b925082611efb57611efa611ea9565b5b828204905092915050565b5f611f1082611a20565b9150611f1b83611a20565b9250828201905063ffffffff811115611f3757611f36611b0a565b5b92915050565b5f81905092915050565b50565b5f611f555f83611f3d565b9150611f6082611f47565b5f82019050919050565b5f611f7482611f4a565b9150819050919050565b5f604082019050611f915f8301856119cf565b611f9e602083018461188b565b939250505056fea26469706673582212204f978173d3d9dc9d8161c2c78b234a24c431efa919d509de2c079df8140d1c5164736f6c634300081e0033",
					"opcodes": "PUSH1 0xC0 PUSH1 0x40 MSTORE CALLVALUE DUP1 ISZERO PUSH2 0xF JUMPI PUSH0 PUSH0 REVERT JUMPDEST POP PUSH1 0x40 MLOAD PUSH2 0x227D CODESIZE SUB DUP1 PUSH2 0x227D DUP4 CODECOPY DUP2 DUP2 ADD PUSH1 0x40 MSTORE DUP2 ADD SWAP1 PUSH2 0x31 SWAP2 SWAP1 PUSH2 0x1C1 JUMP JUMPDEST CALLER PUSH0 PUSH20 0xFFFFFFFFFFFFFFFFFFFFFFFFFFFFFFFFFFFFFFFF AND DUP2 PUSH20 0xFFFFFFFFFFFFFFFFFFFFFFFFFFFFFFFFFFFFFFFF AND SUB PUSH2 0xA2 JUMPI PUSH0 PUSH1 0x40 MLOAD PUSH32 0x1E4FBDF700000000000000000000000000000000000000000000000000000000 DUP2 MSTORE PUSH1 0x4 ADD PUSH2 0x99 SWAP2 SWAP1 PUSH2 0x23E JUMP JUMPDEST PUSH1 0x40 MLOAD DUP1 SWAP2 SUB SWAP1 REVERT JUMPDEST PUSH2 0xB1 DUP2 PUSH2 0xC9 PUSH1 0x20 SHL PUSH1 0x20 SHR JUMP JUMPDEST POP DUP2 PUSH1 0x80 DUP2 DUP2 MSTORE POP POP DUP1 PUSH1 0xA0 DUP2 DUP2 MSTORE POP POP POP POP PUSH2 0x257 JUMP JUMPDEST PUSH0 PUSH0 PUSH0 SWAP1 SLOAD SWAP1 PUSH2 0x100 EXP SWAP1 DIV PUSH20 0xFFFFFFFFFFFFFFFFFFFFFFFFFFFFFFFFFFFFFFFF AND SWAP1 POP DUP2 PUSH0 PUSH0 PUSH2 0x100 EXP DUP2 SLOAD DUP2 PUSH20 0xFFFFFFFFFFFFFFFFFFFFFFFFFFFFFFFFFFFFFFFF MUL NOT AND SWAP1 DUP4 PUSH20 0xFFFFFFFFFFFFFFFFFFFFFFFFFFFFFFFFFFFFFFFF AND MUL OR SWAP1 SSTORE POP DUP2 PUSH20 0xFFFFFFFFFFFFFFFFFFFFFFFFFFFFFFFFFFFFFFFF AND DUP2 PUSH20 0xFFFFFFFFFFFFFFFFFFFFFFFFFFFFFFFFFFFFFFFF AND PUSH32 0x8BE0079C531659141344CD1FD0A4F28419497F9722A3DAAFE3B4186F6B6457E0 PUSH1 0x40 MLOAD PUSH1 0x40 MLOAD DUP1 SWAP2 SUB SWAP1 LOG3 POP POP JUMP JUMPDEST PUSH0 PUSH0 REVERT JUMPDEST PUSH0 DUP2 SWAP1 POP SWAP2 SWAP1 POP JUMP JUMPDEST PUSH2 0x1A0 DUP2 PUSH2 0x18E JUMP JUMPDEST DUP2 EQ PUSH2 0x1AA JUMPI PUSH0 PUSH0 REVERT JUMPDEST POP JUMP JUMPDEST PUSH0 DUP2 MLOAD SWAP1 POP PUSH2 0x1BB DUP2 PUSH2 0x197 JUMP JUMPDEST SWAP3 SWAP2 POP POP JUMP JUMPDEST PUSH0 PUSH0 PUSH1 0x40 DUP4 DUP6 SUB SLT ISZERO PUSH2 0x1D7 JUMPI PUSH2 0x1D6 PUSH2 0x18A JUMP JUMPDEST JUMPDEST PUSH0 PUSH2 0x1E4 DUP6 DUP3 DUP7 ADD PUSH2 0x1AD JUMP JUMPDEST SWAP3 POP POP PUSH1 0x20 PUSH2 0x1F5 DUP6 DUP3 DUP7 ADD PUSH2 0x1AD JUMP JUMPDEST SWAP2 POP POP SWAP3 POP SWAP3 SWAP1 POP JUMP JUMPDEST PUSH0 PUSH20 0xFFFFFFFFFFFFFFFFFFFFFFFFFFFFFFFFFFFFFFFF DUP3 AND SWAP1 POP SWAP2 SWAP1 POP JUMP JUMPDEST PUSH0 PUSH2 0x228 DUP3 PUSH2 0x1FF JUMP JUMPDEST SWAP1 POP SWAP2 SWAP1 POP JUMP JUMPDEST PUSH2 0x238 DUP2 PUSH2 0x21E JUMP JUMPDEST DUP3 MSTORE POP POP JUMP JUMPDEST PUSH0 PUSH1 0x20 DUP3 ADD SWAP1 POP PUSH2 0x251 PUSH0 DUP4 ADD DUP5 PUSH2 0x22F JUMP JUMPDEST SWAP3 SWAP2 POP POP JUMP JUMPDEST PUSH1 0x80 MLOAD PUSH1 0xA0 MLOAD PUSH2 0x1FDB PUSH2 0x2A2 PUSH0 CODECOPY PUSH0 DUP2 DUP2 PUSH2 0x536 ADD MSTORE DUP2 DUP2 PUSH2 0x55F ADD MSTORE PUSH2 0xD24 ADD MSTORE PUSH0 DUP2 DUP2 PUSH2 0x718 ADD MSTORE DUP2 DUP2 PUSH2 0x75B ADD MSTORE DUP2 DUP2 PUSH2 0xD57 ADD MSTORE DUP2 DUP2 PUSH2 0xD9A ADD MSTORE PUSH2 0xEC2 ADD MSTORE PUSH2 0x1FDB PUSH0 RETURN INVALID PUSH1 0x80 PUSH1 0x40 MSTORE PUSH1 0x4 CALLDATASIZE LT PUSH2 0x122 JUMPI PUSH0 CALLDATALOAD PUSH1 0xE0 SHR DUP1 PUSH4 0x8DA5CB5B GT PUSH2 0x9F JUMPI DUP1 PUSH4 0xDCCD58E3 GT PUSH2 0x63 JUMPI DUP1 PUSH4 0xDCCD58E3 EQ PUSH2 0x438 JUMPI DUP1 PUSH4 0xF2FDE38B EQ PUSH2 0x474 JUMPI DUP1 PUSH4 0xF3DB702C EQ PUSH2 0x49C JUMPI DUP1 PUSH4 0xF6687AF7 EQ PUSH2 0x4C6 JUMPI DUP1 PUSH4 0xFE3192F6 EQ PUSH2 0x4F0 JUMPI PUSH2 0x180 JUMP JUMPDEST DUP1 PUSH4 0x8DA5CB5B EQ PUSH2 0x388 JUMPI DUP1 PUSH4 0x9E281A98 EQ PUSH2 0x3B2 JUMPI DUP1 PUSH4 0xA734F06E EQ PUSH2 0x3DA JUMPI DUP1 PUSH4 0xC801FB40 EQ PUSH2 0x404 JUMPI DUP1 PUSH4 0xD0E30DB0 EQ PUSH2 0x42E JUMPI PUSH2 0x180 JUMP JUMPDEST DUP1 PUSH4 0x4A83C3B7 GT PUSH2 0xE6 JUMPI DUP1 PUSH4 0x4A83C3B7 EQ PUSH2 0x2BA JUMPI DUP1 PUSH4 0x52963C2B EQ PUSH2 0x2E4 JUMPI DUP1 PUSH4 0x715018A6 EQ PUSH2 0x30E JUMPI DUP1 PUSH4 0x76E11286 EQ PUSH2 0x324 JUMPI DUP1 PUSH4 0x7E3EF7CD EQ PUSH2 0x34C JUMPI PUSH2 0x180 JUMP JUMPDEST DUP1 PUSH4 0x287CC96B EQ PUSH2 0x1D9 JUMPI DUP1 PUSH4 0x2E1A7D4D EQ PUSH2 0x203 JUMPI DUP1 PUSH4 0x338B5DEA EQ PUSH2 0x22B JUMPI DUP1 PUSH4 0x3B1A4EC4 EQ PUSH2 0x253 JUMPI DUP1 PUSH4 0x432017CA EQ PUSH2 0x27D JUMPI PUSH2 0x180 JUMP JUMPDEST CALLDATASIZE PUSH2 0x180 JUMPI ADDRESS PUSH20 0xFFFFFFFFFFFFFFFFFFFFFFFFFFFFFFFFFFFFFFFF AND PUSH4 0xD0E30DB0 PUSH1 0x40 MLOAD DUP2 PUSH4 0xFFFFFFFF AND PUSH1 0xE0 SHL DUP2 MSTORE PUSH1 0x4 ADD PUSH0 PUSH1 0x40 MLOAD DUP1 DUP4 SUB DUP2 PUSH0 DUP8 DUP1 EXTCODESIZE ISZERO DUP1 ISZERO PUSH2 0x16C JUMPI PUSH0 PUSH0 REVERT JUMPDEST POP GAS CALL ISZERO DUP1 ISZERO PUSH2 0x17E JUMPI RETURNDATASIZE PUSH0 PUSH0 RETURNDATACOPY RETURNDATASIZE PUSH0 REVERT JUMPDEST STOP JUMPDEST ADDRESS PUSH20 0xFFFFFFFFFFFFFFFFFFFFFFFFFFFFFFFFFFFFFFFF AND PUSH4 0xD0E30DB0 PUSH1 0x40 MLOAD DUP2 PUSH4 0xFFFFFFFF AND PUSH1 0xE0 SHL DUP2 MSTORE PUSH1 0x4 ADD PUSH0 PUSH1 0x40 MLOAD DUP1 DUP4 SUB DUP2 PUSH0 DUP8 DUP1 EXTCODESIZE ISZERO DUP1 ISZERO PUSH2 0x1C5 JUMPI PUSH0 PUSH0 REVERT JUMPDEST POP GAS CALL ISZERO DUP1 ISZERO PUSH2 0x1D7 JUMPI RETURNDATASIZE PUSH0 PUSH0 RETURNDATACOPY RETURNDATASIZE PUSH0 REVERT JUMPDEST STOP JUMPDEST CALLVALUE DUP1 ISZERO PUSH2 0x1E4 JUMPI PUSH0 PUSH0 REVERT JUMPDEST POP PUSH2 0x1ED PUSH2 0x52C JUMP JUMPDEST PUSH1 0x40 MLOAD PUSH2 0x1FA SWAP2 SWAP1 PUSH2 0x189A JUMP JUMPDEST PUSH1 0x40 MLOAD DUP1 SWAP2 SUB SWAP1 RETURN JUMPDEST CALLVALUE DUP1 ISZERO PUSH2 0x20E JUMPI PUSH0 PUSH0 REVERT JUMPDEST POP PUSH2 0x229 PUSH1 0x4 DUP1 CALLDATASIZE SUB DUP2 ADD SWAP1 PUSH2 0x224 SWAP2 SWAP1 PUSH2 0x18E1 JUMP JUMPDEST PUSH2 0x533 JUMP JUMPDEST STOP JUMPDEST CALLVALUE DUP1 ISZERO PUSH2 0x236 JUMPI PUSH0 PUSH0 REVERT JUMPDEST POP PUSH2 0x251 PUSH1 0x4 DUP1 CALLDATASIZE SUB DUP2 ADD SWAP1 PUSH2 0x24C SWAP2 SWAP1 PUSH2 0x1966 JUMP JUMPDEST PUSH2 0x707 JUMP JUMPDEST STOP JUMPDEST CALLVALUE DUP1 ISZERO PUSH2 0x25E JUMPI PUSH0 PUSH0 REVERT JUMPDEST POP PUSH2 0x267 PUSH2 0x85B JUMP JUMPDEST PUSH1 0x40 MLOAD PUSH2 0x274 SWAP2 SWAP1 PUSH2 0x189A JUMP JUMPDEST PUSH1 0x40 MLOAD DUP1 SWAP2 SUB SWAP1 RETURN JUMPDEST CALLVALUE DUP1 ISZERO PUSH2 0x288 JUMPI PUSH0 PUSH0 REVERT JUMPDEST POP PUSH2 0x2A3 PUSH1 0x4 DUP1 CALLDATASIZE SUB DUP2 ADD SWAP1 PUSH2 0x29E SWAP2 SWAP1 PUSH2 0x19A4 JUMP JUMPDEST PUSH2 0x861 JUMP JUMPDEST PUSH1 0x40 MLOAD PUSH2 0x2B1 SWAP3 SWAP2 SWAP1 PUSH2 0x19F9 JUMP JUMPDEST PUSH1 0x40 MLOAD DUP1 SWAP2 SUB SWAP1 RETURN JUMPDEST CALLVALUE DUP1 ISZERO PUSH2 0x2C5 JUMPI PUSH0 PUSH0 REVERT JUMPDEST POP PUSH2 0x2CE PUSH2 0x8AC JUMP JUMPDEST PUSH1 0x40 MLOAD PUSH2 0x2DB SWAP2 SWAP1 PUSH2 0x189A JUMP JUMPDEST PUSH1 0x40 MLOAD DUP1 SWAP2 SUB SWAP1 RETURN JUMPDEST CALLVALUE DUP1 ISZERO PUSH2 0x2EF JUMPI PUSH0 PUSH0 REVERT JUMPDEST POP PUSH2 0x2F8 PUSH2 0x8B2 JUMP JUMPDEST PUSH1 0x40 MLOAD PUSH2 0x305 SWAP2 SWAP1 PUSH2 0x1A3E JUMP JUMPDEST PUSH1 0x40 MLOAD DUP1 SWAP2 SUB SWAP1 RETURN JUMPDEST CALLVALUE DUP1 ISZERO PUSH2 0x319 JUMPI PUSH0 PUSH0 REVERT JUMPDEST POP PUSH2 0x322 PUSH2 0x8C7 JUMP JUMPDEST STOP JUMPDEST CALLVALUE DUP1 ISZERO PUSH2 0x32F JUMPI PUSH0 PUSH0 REVERT JUMPDEST POP PUSH2 0x34A PUSH1 0x4 DUP1 CALLDATASIZE SUB DUP2 ADD SWAP1 PUSH2 0x345 SWAP2 SWAP1 PUSH2 0x1A57 JUMP JUMPDEST PUSH2 0x8DA JUMP JUMPDEST STOP JUMPDEST CALLVALUE DUP1 ISZERO PUSH2 0x357 JUMPI PUSH0 PUSH0 REVERT JUMPDEST POP PUSH2 0x372 PUSH1 0x4 DUP1 CALLDATASIZE SUB DUP2 ADD SWAP1 PUSH2 0x36D SWAP2 SWAP1 PUSH2 0x19A4 JUMP JUMPDEST PUSH2 0xAC5 JUMP JUMPDEST PUSH1 0x40 MLOAD PUSH2 0x37F SWAP2 SWAP1 PUSH2 0x189A JUMP JUMPDEST PUSH1 0x40 MLOAD DUP1 SWAP2 SUB SWAP1 RETURN JUMPDEST CALLVALUE DUP1 ISZERO PUSH2 0x393 JUMPI PUSH0 PUSH0 REVERT JUMPDEST POP PUSH2 0x39C PUSH2 0xB46 JUMP JUMPDEST PUSH1 0x40 MLOAD PUSH2 0x3A9 SWAP2 SWAP1 PUSH2 0x1A95 JUMP JUMPDEST PUSH1 0x40 MLOAD DUP1 SWAP2 SUB SWAP1 RETURN JUMPDEST CALLVALUE DUP1 ISZERO PUSH2 0x3BD JUMPI PUSH0 PUSH0 REVERT JUMPDEST POP PUSH2 0x3D8 PUSH1 0x4 DUP1 CALLDATASIZE SUB DUP2 ADD SWAP1 PUSH2 0x3D3 SWAP2 SWAP1 PUSH2 0x1966 JUMP JUMPDEST PUSH2 0xB6D JUMP JUMPDEST STOP JUMPDEST CALLVALUE DUP1 ISZERO PUSH2 0x3E5 JUMPI PUSH0 PUSH0 REVERT JUMPDEST POP PUSH2 0x3EE PUSH2 0xD1E JUMP JUMPDEST PUSH1 0x40 MLOAD PUSH2 0x3FB SWAP2 SWAP1 PUSH2 0x1A95 JUMP JUMPDEST PUSH1 0x40 MLOAD DUP1 SWAP2 SUB SWAP1 RETURN JUMPDEST CALLVALUE DUP1 ISZERO PUSH2 0x40F JUMPI PUSH0 PUSH0 REVERT JUMPDEST POP PUSH2 0x418 PUSH2 0xD22 JUMP JUMPDEST PUSH1 0x40 MLOAD PUSH2 0x425 SWAP2 SWAP1 PUSH2 0x189A JUMP JUMPDEST PUSH1 0x40 MLOAD DUP1 SWAP2 SUB SWAP1 RETURN JUMPDEST PUSH2 0x436 PUSH2 0xD46 JUMP JUMPDEST STOP JUMPDEST CALLVALUE DUP1 ISZERO PUSH2 0x443 JUMPI PUSH0 PUSH0 REVERT JUMPDEST POP PUSH2 0x45E PUSH1 0x4 DUP1 CALLDATASIZE SUB DUP2 ADD SWAP1 PUSH2 0x459 SWAP2 SWAP1 PUSH2 0x1A57 JUMP JUMPDEST PUSH2 0xE06 JUMP JUMPDEST PUSH1 0x40 MLOAD PUSH2 0x46B SWAP2 SWAP1 PUSH2 0x189A JUMP JUMPDEST PUSH1 0x40 MLOAD DUP1 SWAP2 SUB SWAP1 RETURN JUMPDEST CALLVALUE DUP1 ISZERO PUSH2 0x47F JUMPI PUSH0 PUSH0 REVERT JUMPDEST POP PUSH2 0x49A PUSH1 0x4 DUP1 CALLDATASIZE SUB DUP2 ADD SWAP1 PUSH2 0x495 SWAP2 SWAP1 PUSH2 0x19A4 JUMP JUMPDEST PUSH2 0xE26 JUMP JUMPDEST STOP JUMPDEST CALLVALUE DUP1 ISZERO PUSH2 0x4A7 JUMPI PUSH0 PUSH0 REVERT JUMPDEST POP PUSH2 0x4B0 PUSH2 0xEAA JUMP JUMPDEST PUSH1 0x40 MLOAD PUSH2 0x4BD SWAP2 SWAP1 PUSH2 0x1A3E JUMP JUMPDEST PUSH1 0x40 MLOAD DUP1 SWAP2 SUB SWAP1 RETURN JUMPDEST CALLVALUE DUP1 ISZERO PUSH2 0x4D1 JUMPI PUSH0 PUSH0 REVERT JUMPDEST POP PUSH2 0x4DA PUSH2 0xEC0 JUMP JUMPDEST PUSH1 0x40 MLOAD PUSH2 0x4E7 SWAP2 SWAP1 PUSH2 0x189A JUMP JUMPDEST PUSH1 0x40 MLOAD DUP1 SWAP2 SUB SWAP1 RETURN JUMPDEST CALLVALUE DUP1 ISZERO PUSH2 0x4FB JUMPI PUSH0 PUSH0 REVERT JUMPDEST POP PUSH2 0x516 PUSH1 0x4 DUP1 CALLDATASIZE SUB DUP2 ADD SWAP1 PUSH2 0x511 SWAP2 SWAP1 PUSH2 0x1966 JUMP JUMPDEST PUSH2 0xEE4 JUMP JUMPDEST PUSH1 0x40 MLOAD PUSH2 0x523 SWAP2 SWAP1 PUSH2 0x189A JUMP JUMPDEST PUSH1 0x40 MLOAD DUP1 SWAP2 SUB SWAP1 RETURN JUMPDEST PUSH0 SELFBALANCE SWAP1 POP SWAP1 JUMP JUMPDEST DUP1 PUSH32 0x0 DUP2 GT ISZERO PUSH2 0x5BB JUMPI DUP1 PUSH32 0x0 PUSH1 0x40 MLOAD PUSH32 0x6310199600000000000000000000000000000000000000000000000000000000 DUP2 MSTORE PUSH1 0x4 ADD PUSH2 0x5B2 SWAP3 SWAP2 SWAP1 PUSH2 0x1AAE JUMP JUMPDEST PUSH1 0x40 MLOAD DUP1 SWAP2 SUB SWAP1 REVERT JUMPDEST PUSH0 DUP3 PUSH1 0x3 PUSH0 DUP4 PUSH20 0xFFFFFFFFFFFFFFFFFFFFFFFFFFFFFFFFFFFFFFFF AND PUSH20 0xFFFFFFFFFFFFFFFFFFFFFFFFFFFFFFFFFFFFFFFF AND DUP2 MSTORE PUSH1 0x20 ADD SWAP1 DUP2 MSTORE PUSH1 0x20 ADD PUSH0 KECCAK256 PUSH0 CALLER PUSH20 0xFFFFFFFFFFFFFFFFFFFFFFFFFFFFFFFFFFFFFFFF AND PUSH20 0xFFFFFFFFFFFFFFFFFFFFFFFFFFFFFFFFFFFFFFFF AND DUP2 MSTORE PUSH1 0x20 ADD SWAP1 DUP2 MSTORE PUSH1 0x20 ADD PUSH0 KECCAK256 SLOAD DUP2 GT ISZERO PUSH2 0x6F6 JUMPI DUP2 DUP2 PUSH1 0x3 PUSH0 DUP6 PUSH20 0xFFFFFFFFFFFFFFFFFFFFFFFFFFFFFFFFFFFFFFFF AND PUSH20 0xFFFFFFFFFFFFFFFFFFFFFFFFFFFFFFFFFFFFFFFF AND DUP2 MSTORE PUSH1 0x20 ADD SWAP1 DUP2 MSTORE PUSH1 0x20 ADD PUSH0 KECCAK256 PUSH0 CALLER PUSH20 0xFFFFFFFFFFFFFFFFFFFFFFFFFFFFFFFFFFFFFFFF AND PUSH20 0xFFFFFFFFFFFFFFFFFFFFFFFFFFFFFFFFFFFFFFFF AND DUP2 MSTORE PUSH1 0x20 ADD SWAP1 DUP2 MSTORE PUSH1 0x20 ADD PUSH0 KECCAK256 SLOAD PUSH1 0x40 MLOAD PUSH32 0x5FEDAB0900000000000000000000000000000000000000000000000000000000 DUP2 MSTORE PUSH1 0x4 ADD PUSH2 0x6ED SWAP4 SWAP3 SWAP2 SWAP1 PUSH2 0x1AD5 JUMP JUMPDEST PUSH1 0x40 MLOAD DUP1 SWAP2 SUB SWAP1 REVERT JUMPDEST PUSH2 0x701 PUSH0 CALLER DUP7 PUSH2 0x1146 JUMP JUMPDEST POP POP POP POP JUMP JUMPDEST DUP2 DUP2 PUSH0 PUSH2 0x714 DUP4 DUP4 PUSH2 0xEE4 JUMP JUMPDEST SWAP1 POP PUSH32 0x0 DUP2 PUSH1 0x1 SLOAD PUSH2 0x745 SWAP2 SWAP1 PUSH2 0x1B37 JUMP JUMPDEST GT ISZERO PUSH2 0x7B7 JUMPI DUP1 PUSH1 0x1 SLOAD PUSH2 0x759 SWAP2 SWAP1 PUSH2 0x1B37 JUMP JUMPDEST PUSH32 0x0 PUSH1 0x40 MLOAD PUSH32 0xF6167F4E00000000000000000000000000000000000000000000000000000000 DUP2 MSTORE PUSH1 0x4 ADD PUSH2 0x7AE SWAP3 SWAP2 SWAP1 PUSH2 0x1AAE JUMP JUMPDEST PUSH1 0x40 MLOAD DUP1 SWAP2 SUB SWAP1 REVERT JUMPDEST PUSH0 PUSH20 0xFFFFFFFFFFFFFFFFFFFFFFFFFFFFFFFFFFFFFFFF AND DUP6 PUSH20 0xFFFFFFFFFFFFFFFFFFFFFFFFFFFFFFFFFFFFFFFF AND SUB PUSH2 0x81C JUMPI PUSH1 0x40 MLOAD PUSH32 0x7CB522E900000000000000000000000000000000000000000000000000000000 DUP2 MSTORE PUSH1 0x4 ADD PUSH1 0x40 MLOAD DUP1 SWAP2 SUB SWAP1 REVERT JUMPDEST PUSH2 0x849 CALLER ADDRESS DUP7 DUP9 PUSH20 0xFFFFFFFFFFFFFFFFFFFFFFFFFFFFFFFFFFFFFFFF AND PUSH2 0x1316 SWAP1 SWAP4 SWAP3 SWAP2 SWAP1 PUSH4 0xFFFFFFFF AND JUMP JUMPDEST PUSH2 0x854 DUP6 CALLER DUP7 PUSH2 0x136B JUMP JUMPDEST POP POP POP POP POP JUMP JUMPDEST PUSH1 0x1 SLOAD DUP2 JUMP JUMPDEST PUSH1 0x4 PUSH1 0x20 MSTORE DUP1 PUSH0 MSTORE PUSH1 0x40 PUSH0 KECCAK256 PUSH0 SWAP2 POP SWAP1 POP DUP1 PUSH0 ADD PUSH0 SWAP1 SLOAD SWAP1 PUSH2 0x100 EXP SWAP1 DIV PUSH20 0xFFFFFFFFFFFFFFFFFFFFFFFFFFFFFFFFFFFFFFFF AND SWAP1 DUP1 PUSH0 ADD PUSH1 0x14 SWAP1 SLOAD SWAP1 PUSH2 0x100 EXP SWAP1 DIV PUSH1 0xFF AND SWAP1 POP DUP3 JUMP JUMPDEST PUSH2 0xE10 DUP2 JUMP JUMPDEST PUSH1 0x2 PUSH0 SWAP1 SLOAD SWAP1 PUSH2 0x100 EXP SWAP1 DIV PUSH4 0xFFFFFFFF AND DUP2 JUMP JUMPDEST PUSH2 0x8CF PUSH2 0x14CE JUMP JUMPDEST PUSH2 0x8D8 PUSH0 PUSH2 0x1555 JUMP JUMPDEST JUMP JUMPDEST PUSH2 0x8E2 PUSH2 0x14CE JUMP JUMPDEST PUSH0 PUSH0 PUSH20 0xFFFFFFFFFFFFFFFFFFFFFFFFFFFFFFFFFFFFFFFF AND DUP4 PUSH20 0xFFFFFFFFFFFFFFFFFFFFFFFFFFFFFFFFFFFFFFFF AND SUB PUSH2 0x91F JUMPI PUSH1 0x12 SWAP1 POP PUSH2 0x98F JUMP JUMPDEST DUP3 PUSH20 0xFFFFFFFFFFFFFFFFFFFFFFFFFFFFFFFFFFFFFFFF AND PUSH4 0x313CE567 PUSH1 0x40 MLOAD DUP2 PUSH4 0xFFFFFFFF AND PUSH1 0xE0 SHL DUP2 MSTORE PUSH1 0x4 ADD PUSH1 0x20 PUSH1 0x40 MLOAD DUP1 DUP4 SUB DUP2 DUP7 GAS STATICCALL ISZERO DUP1 ISZERO PUSH2 0x968 JUMPI RETURNDATASIZE PUSH0 PUSH0 RETURNDATACOPY RETURNDATASIZE PUSH0 REVERT JUMPDEST POP POP POP POP PUSH1 0x40 MLOAD RETURNDATASIZE PUSH1 0x1F NOT PUSH1 0x1F DUP3 ADD AND DUP3 ADD DUP1 PUSH1 0x40 MSTORE POP DUP2 ADD SWAP1 PUSH2 0x98C SWAP2 SWAP1 PUSH2 0x1B94 JUMP JUMPDEST SWAP1 POP JUMPDEST PUSH0 PUSH1 0x40 MLOAD DUP1 PUSH1 0x40 ADD PUSH1 0x40 MSTORE DUP1 DUP5 PUSH20 0xFFFFFFFFFFFFFFFFFFFFFFFFFFFFFFFFFFFFFFFF AND DUP2 MSTORE PUSH1 0x20 ADD DUP4 PUSH1 0xFF AND DUP2 MSTORE POP SWAP1 POP DUP1 PUSH1 0x4 PUSH0 DUP7 PUSH20 0xFFFFFFFFFFFFFFFFFFFFFFFFFFFFFFFFFFFFFFFF AND PUSH20 0xFFFFFFFFFFFFFFFFFFFFFFFFFFFFFFFFFFFFFFFF AND DUP2 MSTORE PUSH1 0x20 ADD SWAP1 DUP2 MSTORE PUSH1 0x20 ADD PUSH0 KECCAK256 PUSH0 DUP3 ADD MLOAD DUP2 PUSH0 ADD PUSH0 PUSH2 0x100 EXP DUP2 SLOAD DUP2 PUSH20 0xFFFFFFFFFFFFFFFFFFFFFFFFFFFFFFFFFFFFFFFF MUL NOT AND SWAP1 DUP4 PUSH20 0xFFFFFFFFFFFFFFFFFFFFFFFFFFFFFFFFFFFFFFFF AND MUL OR SWAP1 SSTORE POP PUSH1 0x20 DUP3 ADD MLOAD DUP2 PUSH0 ADD PUSH1 0x14 PUSH2 0x100 EXP DUP2 SLOAD DUP2 PUSH1 0xFF MUL NOT AND SWAP1 DUP4 PUSH1 0xFF AND MUL OR SWAP1 SSTORE POP SWAP1 POP POP DUP3 PUSH20 0xFFFFFFFFFFFFFFFFFFFFFFFFFFFFFFFFFFFFFFFF AND DUP5 PUSH20 0xFFFFFFFFFFFFFFFFFFFFFFFFFFFFFFFFFFFFFFFF AND PUSH32 0xA8ABE0398416476DB5B05737CD4DA3B3CBDE5012D978A6A6C3FD49D321753536 PUSH1 0x40 MLOAD PUSH1 0x40 MLOAD DUP1 SWAP2 SUB SWAP1 LOG3 POP POP POP POP JUMP JUMPDEST PUSH0 PUSH1 0x3 PUSH0 DUP4 PUSH20 0xFFFFFFFFFFFFFFFFFFFFFFFFFFFFFFFFFFFFFFFF AND PUSH20 0xFFFFFFFFFFFFFFFFFFFFFFFFFFFFFFFFFFFFFFFF AND DUP2 MSTORE PUSH1 0x20 ADD SWAP1 DUP2 MSTORE PUSH1 0x20 ADD PUSH0 KECCAK256 PUSH0 CALLER PUSH20 0xFFFFFFFFFFFFFFFFFFFFFFFFFFFFFFFFFFFFFFFF AND PUSH20 0xFFFFFFFFFFFFFFFFFFFFFFFFFFFFFFFFFFFFFFFF AND DUP2 MSTORE PUSH1 0x20 ADD SWAP1 DUP2 MSTORE PUSH1 0x20 ADD PUSH0 KECCAK256 SLOAD SWAP1 POP SWAP2 SWAP1 POP JUMP JUMPDEST PUSH0 PUSH0 PUSH0 SWAP1 SLOAD SWAP1 PUSH2 0x100 EXP SWAP1 DIV PUSH20 0xFFFFFFFFFFFFFFFFFFFFFFFFFFFFFFFFFFFFFFFF AND SWAP1 POP SWAP1 JUMP JUMPDEST DUP2 DUP2 PUSH1 0x3 PUSH0 DUP4 PUSH20 0xFFFFFFFFFFFFFFFFFFFFFFFFFFFFFFFFFFFFFFFF AND PUSH20 0xFFFFFFFFFFFFFFFFFFFFFFFFFFFFFFFFFFFFFFFF AND DUP2 MSTORE PUSH1 0x20 ADD SWAP1 DUP2 MSTORE PUSH1 0x20 ADD PUSH0 KECCAK256 PUSH0 CALLER PUSH20 0xFFFFFFFFFFFFFFFFFFFFFFFFFFFFFFFFFFFFFFFF AND PUSH20 0xFFFFFFFFFFFFFFFFFFFFFFFFFFFFFFFFFFFFFFFF AND DUP2 MSTORE PUSH1 0x20 ADD SWAP1 DUP2 MSTORE PUSH1 0x20 ADD PUSH0 KECCAK256 SLOAD DUP2 GT ISZERO PUSH2 0xCA8 JUMPI DUP2 DUP2 PUSH1 0x3 PUSH0 DUP6 PUSH20 0xFFFFFFFFFFFFFFFFFFFFFFFFFFFFFFFFFFFFFFFF AND PUSH20 0xFFFFFFFFFFFFFFFFFFFFFFFFFFFFFFFFFFFFFFFF AND DUP2 MSTORE PUSH1 0x20 ADD SWAP1 DUP2 MSTORE PUSH1 0x20 ADD PUSH0 KECCAK256 PUSH0 CALLER PUSH20 0xFFFFFFFFFFFFFFFFFFFFFFFFFFFFFFFFFFFFFFFF AND PUSH20 0xFFFFFFFFFFFFFFFFFFFFFFFFFFFFFFFFFFFFFFFF AND DUP2 MSTORE PUSH1 0x20 ADD SWAP1 DUP2 MSTORE PUSH1 0x20 ADD PUSH0 KECCAK256 SLOAD PUSH1 0x40 MLOAD PUSH32 0x5FEDAB0900000000000000000000000000000000000000000000000000000000 DUP2 MSTORE PUSH1 0x4 ADD PUSH2 0xC9F SWAP4 SWAP3 SWAP2 SWAP1 PUSH2 0x1AD5 JUMP JUMPDEST PUSH1 0x40 MLOAD DUP1 SWAP2 SUB SWAP1 REVERT JUMPDEST PUSH0 PUSH20 0xFFFFFFFFFFFFFFFFFFFFFFFFFFFFFFFFFFFFFFFF AND DUP5 PUSH20 0xFFFFFFFFFFFFFFFFFFFFFFFFFFFFFFFFFFFFFFFF AND SUB PUSH2 0xD0D JUMPI PUSH1 0x40 MLOAD PUSH32 0x7CB522E900000000000000000000000000000000000000000000000000000000 DUP2 MSTORE PUSH1 0x4 ADD PUSH1 0x40 MLOAD DUP1 SWAP2 SUB SWAP1 REVERT JUMPDEST PUSH2 0xD18 DUP5 CALLER DUP6 PUSH2 0x1146 JUMP JUMPDEST POP POP POP POP JUMP JUMPDEST PUSH0 DUP2 JUMP JUMPDEST PUSH32 0x0 DUP2 JUMP JUMPDEST PUSH0 CALLVALUE PUSH0 PUSH2 0xD53 DUP4 DUP4 PUSH2 0xEE4 JUMP JUMPDEST SWAP1 POP PUSH32 0x0 DUP2 PUSH1 0x1 SLOAD PUSH2 0xD84 SWAP2 SWAP1 PUSH2 0x1B37 JUMP JUMPDEST GT ISZERO PUSH2 0xDF6 JUMPI DUP1 PUSH1 0x1 SLOAD PUSH2 0xD98 SWAP2 SWAP1 PUSH2 0x1B37 JUMP JUMPDEST PUSH32 0x0 PUSH1 0x40 MLOAD PUSH32 0xF6167F4E00000000000000000000000000000000000000000000000000000000 DUP2 MSTORE PUSH1 0x4 ADD PUSH2 0xDED SWAP3 SWAP2 SWAP1 PUSH2 0x1AAE JUMP JUMPDEST PUSH1 0x40 MLOAD DUP1 SWAP2 SUB SWAP1 REVERT JUMPDEST PUSH2 0xE01 PUSH0 CALLER CALLVALUE PUSH2 0x136B JUMP JUMPDEST POP POP POP JUMP JUMPDEST PUSH1 0x3 PUSH1 0x20 MSTORE DUP2 PUSH0 MSTORE PUSH1 0x40 PUSH0 KECCAK256 PUSH1 0x20 MSTORE DUP1 PUSH0 MSTORE PUSH1 0x40 PUSH0 KECCAK256 PUSH0 SWAP2 POP SWAP2 POP POP SLOAD DUP2 JUMP JUMPDEST PUSH2 0xE2E PUSH2 0x14CE JUMP JUMPDEST PUSH0 PUSH20 0xFFFFFFFFFFFFFFFFFFFFFFFFFFFFFFFFFFFFFFFF AND DUP2 PUSH20 0xFFFFFFFFFFFFFFFFFFFFFFFFFFFFFFFFFFFFFFFF AND SUB PUSH2 0xE9E JUMPI PUSH0 PUSH1 0x40 MLOAD PUSH32 0x1E4FBDF700000000000000000000000000000000000000000000000000000000 DUP2 MSTORE PUSH1 0x4 ADD PUSH2 0xE95 SWAP2 SWAP1 PUSH2 0x1A95 JUMP JUMPDEST PUSH1 0x40 MLOAD DUP1 SWAP2 SUB SWAP1 REVERT JUMPDEST PUSH2 0xEA7 DUP2 PUSH2 0x1555 JUMP JUMPDEST POP JUMP JUMPDEST PUSH1 0x2 PUSH1 0x4 SWAP1 SLOAD SWAP1 PUSH2 0x100 EXP SWAP1 DIV PUSH4 0xFFFFFFFF AND DUP2 JUMP JUMPDEST PUSH32 0x0 DUP2 JUMP JUMPDEST PUSH0 PUSH0 PUSH1 0x4 PUSH0 DUP6 PUSH20 0xFFFFFFFFFFFFFFFFFFFFFFFFFFFFFFFFFFFFFFFF AND PUSH20 0xFFFFFFFFFFFFFFFFFFFFFFFFFFFFFFFFFFFFFFFF AND DUP2 MSTORE PUSH1 0x20 ADD SWAP1 DUP2 MSTORE PUSH1 0x20 ADD PUSH0 KECCAK256 PUSH1 0x40 MLOAD DUP1 PUSH1 0x40 ADD PUSH1 0x40 MSTORE SWAP1 DUP2 PUSH0 DUP3 ADD PUSH0 SWAP1 SLOAD SWAP1 PUSH2 0x100 EXP SWAP1 DIV PUSH20 0xFFFFFFFFFFFFFFFFFFFFFFFFFFFFFFFFFFFFFFFF AND PUSH20 0xFFFFFFFFFFFFFFFFFFFFFFFFFFFFFFFFFFFFFFFF AND PUSH20 0xFFFFFFFFFFFFFFFFFFFFFFFFFFFFFFFFFFFFFFFF AND DUP2 MSTORE PUSH1 0x20 ADD PUSH0 DUP3 ADD PUSH1 0x14 SWAP1 SLOAD SWAP1 PUSH2 0x100 EXP SWAP1 DIV PUSH1 0xFF AND PUSH1 0xFF AND PUSH1 0xFF AND DUP2 MSTORE POP POP SWAP1 POP PUSH0 PUSH20 0xFFFFFFFFFFFFFFFFFFFFFFFFFFFFFFFFFFFFFFFF AND DUP2 PUSH0 ADD MLOAD PUSH20 0xFFFFFFFFFFFFFFFFFFFFFFFFFFFFFFFFFFFFFFFF AND SUB PUSH2 0x1013 JUMPI DUP4 PUSH1 0x40 MLOAD PUSH32 0xC25BEC5600000000000000000000000000000000000000000000000000000000 DUP2 MSTORE PUSH1 0x4 ADD PUSH2 0x100A SWAP2 SWAP1 PUSH2 0x1A95 JUMP JUMPDEST PUSH1 0x40 MLOAD DUP1 SWAP2 SUB SWAP1 REVERT JUMPDEST PUSH0 DUP2 PUSH0 ADD MLOAD SWAP1 POP PUSH0 PUSH0 DUP3 PUSH20 0xFFFFFFFFFFFFFFFFFFFFFFFFFFFFFFFFFFFFFFFF AND PUSH4 0xFEAF968C PUSH1 0x40 MLOAD DUP2 PUSH4 0xFFFFFFFF AND PUSH1 0xE0 SHL DUP2 MSTORE PUSH1 0x4 ADD PUSH1 0xA0 PUSH1 0x40 MLOAD DUP1 DUP4 SUB DUP2 DUP7 GAS STATICCALL ISZERO DUP1 ISZERO PUSH2 0x1065 JUMPI RETURNDATASIZE PUSH0 PUSH0 RETURNDATACOPY RETURNDATASIZE PUSH0 REVERT JUMPDEST POP POP POP POP PUSH1 0x40 MLOAD RETURNDATASIZE PUSH1 0x1F NOT PUSH1 0x1F DUP3 ADD AND DUP3 ADD DUP1 PUSH1 0x40 MSTORE POP DUP2 ADD SWAP1 PUSH2 0x1089 SWAP2 SWAP1 PUSH2 0x1C45 JUMP JUMPDEST POP SWAP4 POP POP SWAP3 POP POP PUSH0 DUP3 SGT PUSH2 0x10C9 JUMPI PUSH1 0x40 MLOAD PUSH32 0x780CFA4700000000000000000000000000000000000000000000000000000000 DUP2 MSTORE PUSH1 0x4 ADD PUSH1 0x40 MLOAD DUP1 SWAP2 SUB SWAP1 REVERT JUMPDEST PUSH2 0xE10 DUP2 TIMESTAMP PUSH2 0x10D8 SWAP2 SWAP1 PUSH2 0x1CBC JUMP JUMPDEST GT ISZERO PUSH2 0x1110 JUMPI PUSH1 0x40 MLOAD PUSH32 0x71A821DF00000000000000000000000000000000000000000000000000000000 DUP2 MSTORE PUSH1 0x4 ADD PUSH1 0x40 MLOAD DUP1 SWAP2 SUB SWAP1 REVERT JUMPDEST DUP4 PUSH1 0x20 ADD MLOAD PUSH1 0xFF AND PUSH1 0xA PUSH2 0x1124 SWAP2 SWAP1 PUSH2 0x1E1E JUMP JUMPDEST DUP3 DUP8 PUSH2 0x1130 SWAP2 SWAP1 PUSH2 0x1E68 JUMP JUMPDEST PUSH2 0x113A SWAP2 SWAP1 PUSH2 0x1ED6 JUMP JUMPDEST SWAP5 POP POP POP POP POP SWAP3 SWAP2 POP POP JUMP JUMPDEST DUP1 PUSH0 DUP2 SUB PUSH2 0x1180 JUMPI PUSH1 0x40 MLOAD PUSH32 0xFA4E609E00000000000000000000000000000000000000000000000000000000 DUP2 MSTORE PUSH1 0x4 ADD PUSH1 0x40 MLOAD DUP1 SWAP2 SUB SWAP1 REVERT JUMPDEST DUP2 PUSH1 0x3 PUSH0 DUP7 PUSH20 0xFFFFFFFFFFFFFFFFFFFFFFFFFFFFFFFFFFFFFFFF AND PUSH20 0xFFFFFFFFFFFFFFFFFFFFFFFFFFFFFFFFFFFFFFFF AND DUP2 MSTORE PUSH1 0x20 ADD SWAP1 DUP2 MSTORE PUSH1 0x20 ADD PUSH0 KECCAK256 PUSH0 DUP6 PUSH20 0xFFFFFFFFFFFFFFFFFFFFFFFFFFFFFFFFFFFFFFFF AND PUSH20 0xFFFFFFFFFFFFFFFFFFFFFFFFFFFFFFFFFFFFFFFF AND DUP2 MSTORE PUSH1 0x20 ADD SWAP1 DUP2 MSTORE PUSH1 0x20 ADD PUSH0 KECCAK256 PUSH0 DUP3 DUP3 SLOAD PUSH2 0x1207 SWAP2 SWAP1 PUSH2 0x1CBC JUMP JUMPDEST SWAP3 POP POP DUP2 SWAP1 SSTORE POP PUSH2 0x1217 PUSH0 PUSH2 0x1616 JUMP JUMPDEST PUSH0 PUSH2 0x1222 DUP6 DUP5 PUSH2 0xEE4 JUMP JUMPDEST SWAP1 POP DUP1 PUSH1 0x1 PUSH0 DUP3 DUP3 SLOAD PUSH2 0x1235 SWAP2 SWAP1 PUSH2 0x1CBC JUMP JUMPDEST SWAP3 POP POP DUP2 SWAP1 SSTORE POP PUSH0 PUSH20 0xFFFFFFFFFFFFFFFFFFFFFFFFFFFFFFFFFFFFFFFF AND DUP6 PUSH20 0xFFFFFFFFFFFFFFFFFFFFFFFFFFFFFFFFFFFFFFFF AND SUB PUSH2 0x127E JUMPI PUSH2 0x1279 DUP5 DUP5 PUSH2 0x16A4 JUMP JUMPDEST PUSH2 0x12AA JUMP JUMPDEST PUSH2 0x12A9 DUP5 DUP5 DUP8 PUSH20 0xFFFFFFFFFFFFFFFFFFFFFFFFFFFFFFFFFFFFFFFF AND PUSH2 0x1755 SWAP1 SWAP3 SWAP2 SWAP1 PUSH4 0xFFFFFFFF AND JUMP JUMPDEST JUMPDEST DUP4 PUSH20 0xFFFFFFFFFFFFFFFFFFFFFFFFFFFFFFFFFFFFFFFF AND DUP6 PUSH20 0xFFFFFFFFFFFFFFFFFFFFFFFFFFFFFFFFFFFFFFFF AND PUSH32 0xD1C19FBCD4551A5EDFB66D43D2E337C04837AFDA3482B42BDF569A8FCCDAE5FB DUP6 PUSH1 0x40 MLOAD PUSH2 0x1307 SWAP2 SWAP1 PUSH2 0x189A JUMP JUMPDEST PUSH1 0x40 MLOAD DUP1 SWAP2 SUB SWAP1 LOG3 POP POP POP POP POP JUMP JUMPDEST PUSH2 0x1324 DUP5 DUP5 DUP5 DUP5 PUSH1 0x1 PUSH2 0x17A8 JUMP JUMPDEST PUSH2 0x1365 JUMPI DUP4 PUSH1 0x40 MLOAD PUSH32 0x5274AFE700000000000000000000000000000000000000000000000000000000 DUP2 MSTORE PUSH1 0x4 ADD PUSH2 0x135C SWAP2 SWAP1 PUSH2 0x1A95 JUMP JUMPDEST PUSH1 0x40 MLOAD DUP1 SWAP2 SUB SWAP1 REVERT JUMPDEST POP POP POP POP JUMP JUMPDEST DUP1 PUSH0 DUP2 SUB PUSH2 0x13A5 JUMPI PUSH1 0x40 MLOAD PUSH32 0xFA4E609E00000000000000000000000000000000000000000000000000000000 DUP2 MSTORE PUSH1 0x4 ADD PUSH1 0x40 MLOAD DUP1 SWAP2 SUB SWAP1 REVERT JUMPDEST DUP2 PUSH1 0x3 PUSH0 DUP7 PUSH20 0xFFFFFFFFFFFFFFFFFFFFFFFFFFFFFFFFFFFFFFFF AND PUSH20 0xFFFFFFFFFFFFFFFFFFFFFFFFFFFFFFFFFFFFFFFF AND DUP2 MSTORE PUSH1 0x20 ADD SWAP1 DUP2 MSTORE PUSH1 0x20 ADD PUSH0 KECCAK256 PUSH0 DUP6 PUSH20 0xFFFFFFFFFFFFFFFFFFFFFFFFFFFFFFFFFFFFFFFF AND PUSH20 0xFFFFFFFFFFFFFFFFFFFFFFFFFFFFFFFFFFFFFFFF AND DUP2 MSTORE PUSH1 0x20 ADD SWAP1 DUP2 MSTORE PUSH1 0x20 ADD PUSH0 KECCAK256 PUSH0 DUP3 DUP3 SLOAD PUSH2 0x142C SWAP2 SWAP1 PUSH2 0x1B37 JUMP JUMPDEST SWAP3 POP POP DUP2 SWAP1 SSTORE POP PUSH2 0x143D PUSH1 0x1 PUSH2 0x1616 JUMP JUMPDEST PUSH0 PUSH2 0x1448 DUP6 DUP5 PUSH2 0xEE4 JUMP JUMPDEST SWAP1 POP DUP1 PUSH1 0x1 PUSH0 DUP3 DUP3 SLOAD PUSH2 0x145B SWAP2 SWAP1 PUSH2 0x1B37 JUMP JUMPDEST SWAP3 POP POP DUP2 SWAP1 SSTORE POP DUP4 PUSH20 0xFFFFFFFFFFFFFFFFFFFFFFFFFFFFFFFFFFFFFFFF AND DUP6 PUSH20 0xFFFFFFFFFFFFFFFFFFFFFFFFFFFFFFFFFFFFFFFF AND PUSH32 0x8752A472E571A816AEA92EEC8DAE9BAF628E840F4929FBCC2D155E6233FF68A7 DUP6 PUSH1 0x40 MLOAD PUSH2 0x14BF SWAP2 SWAP1 PUSH2 0x189A JUMP JUMPDEST PUSH1 0x40 MLOAD DUP1 SWAP2 SUB SWAP1 LOG3 POP POP POP POP POP JUMP JUMPDEST PUSH2 0x14D6 PUSH2 0x1819 JUMP JUMPDEST PUSH20 0xFFFFFFFFFFFFFFFFFFFFFFFFFFFFFFFFFFFFFFFF AND PUSH2 0x14F4 PUSH2 0xB46 JUMP JUMPDEST PUSH20 0xFFFFFFFFFFFFFFFFFFFFFFFFFFFFFFFFFFFFFFFF AND EQ PUSH2 0x1553 JUMPI PUSH2 0x1517 PUSH2 0x1819 JUMP JUMPDEST PUSH1 0x40 MLOAD PUSH32 0x118CDAA700000000000000000000000000000000000000000000000000000000 DUP2 MSTORE PUSH1 0x4 ADD PUSH2 0x154A SWAP2 SWAP1 PUSH2 0x1A95 JUMP JUMPDEST PUSH1 0x40 MLOAD DUP1 SWAP2 SUB SWAP1 REVERT JUMPDEST JUMP JUMPDEST PUSH0 PUSH0 PUSH0 SWAP1 SLOAD SWAP1 PUSH2 0x100 EXP SWAP1 DIV PUSH20 0xFFFFFFFFFFFFFFFFFFFFFFFFFFFFFFFFFFFFFFFF AND SWAP1 POP DUP2 PUSH0 PUSH0 PUSH2 0x100 EXP DUP2 SLOAD DUP2 PUSH20 0xFFFFFFFFFFFFFFFFFFFFFFFFFFFFFFFFFFFFFFFF MUL NOT AND SWAP1 DUP4 PUSH20 0xFFFFFFFFFFFFFFFFFFFFFFFFFFFFFFFFFFFFFFFF AND MUL OR SWAP1 SSTORE POP DUP2 PUSH20 0xFFFFFFFFFFFFFFFFFFFFFFFFFFFFFFFFFFFFFFFF AND DUP2 PUSH20 0xFFFFFFFFFFFFFFFFFFFFFFFFFFFFFFFFFFFFFFFF AND PUSH32 0x8BE0079C531659141344CD1FD0A4F28419497F9722A3DAAFE3B4186F6B6457E0 PUSH1 0x40 MLOAD PUSH1 0x40 MLOAD DUP1 SWAP2 SUB SWAP1 LOG3 POP POP JUMP JUMPDEST DUP1 ISZERO PUSH2 0x1660 JUMPI PUSH1 0x1 PUSH1 0x2 PUSH0 DUP3 DUP3 DUP3 SWAP1 SLOAD SWAP1 PUSH2 0x100 EXP SWAP1 DIV PUSH4 0xFFFFFFFF AND PUSH2 0x163D SWAP2 SWAP1 PUSH2 0x1F06 JUMP JUMPDEST SWAP3 POP PUSH2 0x100 EXP DUP2 SLOAD DUP2 PUSH4 0xFFFFFFFF MUL NOT AND SWAP1 DUP4 PUSH4 0xFFFFFFFF AND MUL OR SWAP1 SSTORE POP PUSH2 0x16A1 JUMP JUMPDEST PUSH1 0x1 PUSH1 0x2 PUSH1 0x4 DUP3 DUP3 DUP3 SWAP1 SLOAD SWAP1 PUSH2 0x100 EXP SWAP1 DIV PUSH4 0xFFFFFFFF AND PUSH2 0x1682 SWAP2 SWAP1 PUSH2 0x1F06 JUMP JUMPDEST SWAP3 POP PUSH2 0x100 EXP DUP2 SLOAD DUP2 PUSH4 0xFFFFFFFF MUL NOT AND SWAP1 DUP4 PUSH4 0xFFFFFFFF AND MUL OR SWAP1 SSTORE POP JUMPDEST POP JUMP JUMPDEST PUSH0 DUP3 PUSH20 0xFFFFFFFFFFFFFFFFFFFFFFFFFFFFFFFFFFFFFFFF AND DUP3 PUSH1 0x40 MLOAD PUSH2 0x16C9 SWAP1 PUSH2 0x1F6A JUMP JUMPDEST PUSH0 PUSH1 0x40 MLOAD DUP1 DUP4 SUB DUP2 DUP6 DUP8 GAS CALL SWAP3 POP POP POP RETURNDATASIZE DUP1 PUSH0 DUP2 EQ PUSH2 0x1703 JUMPI PUSH1 0x40 MLOAD SWAP2 POP PUSH1 0x1F NOT PUSH1 0x3F RETURNDATASIZE ADD AND DUP3 ADD PUSH1 0x40 MSTORE RETURNDATASIZE DUP3 MSTORE RETURNDATASIZE PUSH0 PUSH1 0x20 DUP5 ADD RETURNDATACOPY PUSH2 0x1708 JUMP JUMPDEST PUSH1 0x60 SWAP2 POP JUMPDEST POP POP SWAP1 POP DUP1 PUSH2 0x1750 JUMPI DUP3 DUP3 PUSH1 0x40 MLOAD PUSH32 0xA36A1DBA00000000000000000000000000000000000000000000000000000000 DUP2 MSTORE PUSH1 0x4 ADD PUSH2 0x1747 SWAP3 SWAP2 SWAP1 PUSH2 0x1F7E JUMP JUMPDEST PUSH1 0x40 MLOAD DUP1 SWAP2 SUB SWAP1 REVERT JUMPDEST POP POP POP JUMP JUMPDEST PUSH2 0x1762 DUP4 DUP4 DUP4 PUSH1 0x1 PUSH2 0x1820 JUMP JUMPDEST PUSH2 0x17A3 JUMPI DUP3 PUSH1 0x40 MLOAD PUSH32 0x5274AFE700000000000000000000000000000000000000000000000000000000 DUP2 MSTORE PUSH1 0x4 ADD PUSH2 0x179A SWAP2 SWAP1 PUSH2 0x1A95 JUMP JUMPDEST PUSH1 0x40 MLOAD DUP1 SWAP2 SUB SWAP1 REVERT JUMPDEST POP POP POP JUMP JUMPDEST PUSH0 PUSH0 PUSH4 0x23B872DD PUSH1 0xE0 SHL SWAP1 POP PUSH1 0x40 MLOAD DUP2 PUSH0 MSTORE PUSH0 NOT PUSH1 0x60 SHR DUP8 AND PUSH1 0x4 MSTORE PUSH0 NOT PUSH1 0x60 SHR DUP7 AND PUSH1 0x24 MSTORE DUP5 PUSH1 0x44 MSTORE PUSH1 0x20 PUSH0 PUSH1 0x64 PUSH0 PUSH0 DUP13 GAS CALL SWAP3 POP PUSH1 0x1 PUSH0 MLOAD EQ DUP4 AND PUSH2 0x1806 JUMPI DUP4 DUP4 ISZERO AND ISZERO PUSH2 0x17FA JUMPI RETURNDATASIZE PUSH0 DUP3 RETURNDATACOPY RETURNDATASIZE DUP2 REVERT JUMPDEST PUSH0 DUP9 EXTCODESIZE GT RETURNDATASIZE ISZERO AND DUP4 AND SWAP3 POP JUMPDEST DUP1 PUSH1 0x40 MSTORE PUSH0 PUSH1 0x60 MSTORE POP POP SWAP6 SWAP5 POP POP POP POP POP JUMP JUMPDEST PUSH0 CALLER SWAP1 POP SWAP1 JUMP JUMPDEST PUSH0 PUSH0 PUSH4 0xA9059CBB PUSH1 0xE0 SHL SWAP1 POP PUSH1 0x40 MLOAD DUP2 PUSH0 MSTORE PUSH0 NOT PUSH1 0x60 SHR DUP7 AND PUSH1 0x4 MSTORE DUP5 PUSH1 0x24 MSTORE PUSH1 0x20 PUSH0 PUSH1 0x44 PUSH0 PUSH0 DUP12 GAS CALL SWAP3 POP PUSH1 0x1 PUSH0 MLOAD EQ DUP4 AND PUSH2 0x1874 JUMPI DUP4 DUP4 ISZERO AND ISZERO PUSH2 0x1868 JUMPI RETURNDATASIZE PUSH0 DUP3 RETURNDATACOPY RETURNDATASIZE DUP2 REVERT JUMPDEST PUSH0 DUP8 EXTCODESIZE GT RETURNDATASIZE ISZERO AND DUP4 AND SWAP3 POP JUMPDEST DUP1 PUSH1 0x40 MSTORE POP POP SWAP5 SWAP4 POP POP POP POP JUMP JUMPDEST PUSH0 DUP2 SWAP1 POP SWAP2 SWAP1 POP JUMP JUMPDEST PUSH2 0x1894 DUP2 PUSH2 0x1882 JUMP JUMPDEST DUP3 MSTORE POP POP JUMP JUMPDEST PUSH0 PUSH1 0x20 DUP3 ADD SWAP1 POP PUSH2 0x18AD PUSH0 DUP4 ADD DUP5 PUSH2 0x188B JUMP JUMPDEST SWAP3 SWAP2 POP POP JUMP JUMPDEST PUSH0 PUSH0 REVERT JUMPDEST PUSH2 0x18C0 DUP2 PUSH2 0x1882 JUMP JUMPDEST DUP2 EQ PUSH2 0x18CA JUMPI PUSH0 PUSH0 REVERT JUMPDEST POP JUMP JUMPDEST PUSH0 DUP2 CALLDATALOAD SWAP1 POP PUSH2 0x18DB DUP2 PUSH2 0x18B7 JUMP JUMPDEST SWAP3 SWAP2 POP POP JUMP JUMPDEST PUSH0 PUSH1 0x20 DUP3 DUP5 SUB SLT ISZERO PUSH2 0x18F6 JUMPI PUSH2 0x18F5 PUSH2 0x18B3 JUMP JUMPDEST JUMPDEST PUSH0 PUSH2 0x1903 DUP5 DUP3 DUP6 ADD PUSH2 0x18CD JUMP JUMPDEST SWAP2 POP POP SWAP3 SWAP2 POP POP JUMP JUMPDEST PUSH0 PUSH20 0xFFFFFFFFFFFFFFFFFFFFFFFFFFFFFFFFFFFFFFFF DUP3 AND SWAP1 POP SWAP2 SWAP1 POP JUMP JUMPDEST PUSH0 PUSH2 0x1935 DUP3 PUSH2 0x190C JUMP JUMPDEST SWAP1 POP SWAP2 SWAP1 POP JUMP JUMPDEST PUSH2 0x1945 DUP2 PUSH2 0x192B JUMP JUMPDEST DUP2 EQ PUSH2 0x194F JUMPI PUSH0 PUSH0 REVERT JUMPDEST POP JUMP JUMPDEST PUSH0 DUP2 CALLDATALOAD SWAP1 POP PUSH2 0x1960 DUP2 PUSH2 0x193C JUMP JUMPDEST SWAP3 SWAP2 POP POP JUMP JUMPDEST PUSH0 PUSH0 PUSH1 0x40 DUP4 DUP6 SUB SLT ISZERO PUSH2 0x197C JUMPI PUSH2 0x197B PUSH2 0x18B3 JUMP JUMPDEST JUMPDEST PUSH0 PUSH2 0x1989 DUP6 DUP3 DUP7 ADD PUSH2 0x1952 JUMP JUMPDEST SWAP3 POP POP PUSH1 0x20 PUSH2 0x199A DUP6 DUP3 DUP7 ADD PUSH2 0x18CD JUMP JUMPDEST SWAP2 POP POP SWAP3 POP SWAP3 SWAP1 POP JUMP JUMPDEST PUSH0 PUSH1 0x20 DUP3 DUP5 SUB SLT ISZERO PUSH2 0x19B9 JUMPI PUSH2 0x19B8 PUSH2 0x18B3 JUMP JUMPDEST JUMPDEST PUSH0 PUSH2 0x19C6 DUP5 DUP3 DUP6 ADD PUSH2 0x1952 JUMP JUMPDEST SWAP2 POP POP SWAP3 SWAP2 POP POP JUMP JUMPDEST PUSH2 0x19D8 DUP2 PUSH2 0x192B JUMP JUMPDEST DUP3 MSTORE POP POP JUMP JUMPDEST PUSH0 PUSH1 0xFF DUP3 AND SWAP1 POP SWAP2 SWAP1 POP JUMP JUMPDEST PUSH2 0x19F3 DUP2 PUSH2 0x19DE JUMP JUMPDEST DUP3 MSTORE POP POP JUMP JUMPDEST PUSH0 PUSH1 0x40 DUP3 ADD SWAP1 POP PUSH2 0x1A0C PUSH0 DUP4 ADD DUP6 PUSH2 0x19CF JUMP JUMPDEST PUSH2 0x1A19 PUSH1 0x20 DUP4 ADD DUP5 PUSH2 0x19EA JUMP JUMPDEST SWAP4 SWAP3 POP POP POP JUMP JUMPDEST PUSH0 PUSH4 0xFFFFFFFF DUP3 AND SWAP1 POP SWAP2 SWAP1 POP JUMP JUMPDEST PUSH2 0x1A38 DUP2 PUSH2 0x1A20 JUMP JUMPDEST DUP3 MSTORE POP POP JUMP JUMPDEST PUSH0 PUSH1 0x20 DUP3 ADD SWAP1 POP PUSH2 0x1A51 PUSH0 DUP4 ADD DUP5 PUSH2 0x1A2F JUMP JUMPDEST SWAP3 SWAP2 POP POP JUMP JUMPDEST PUSH0 PUSH0 PUSH1 0x40 DUP4 DUP6 SUB SLT ISZERO PUSH2 0x1A6D JUMPI PUSH2 0x1A6C PUSH2 0x18B3 JUMP JUMPDEST JUMPDEST PUSH0 PUSH2 0x1A7A DUP6 DUP3 DUP7 ADD PUSH2 0x1952 JUMP JUMPDEST SWAP3 POP POP PUSH1 0x20 PUSH2 0x1A8B DUP6 DUP3 DUP7 ADD PUSH2 0x1952 JUMP JUMPDEST SWAP2 POP POP SWAP3 POP SWAP3 SWAP1 POP JUMP JUMPDEST PUSH0 PUSH1 0x20 DUP3 ADD SWAP1 POP PUSH2 0x1AA8 PUSH0 DUP4 ADD DUP5 PUSH2 0x19CF JUMP JUMPDEST SWAP3 SWAP2 POP POP JUMP JUMPDEST PUSH0 PUSH1 0x40 DUP3 ADD SWAP1 POP PUSH2 0x1AC1 PUSH0 DUP4 ADD DUP6 PUSH2 0x188B JUMP JUMPDEST PUSH2 0x1ACE PUSH1 0x20 DUP4 ADD DUP5 PUSH2 0x188B JUMP JUMPDEST SWAP4 SWAP3 POP POP POP JUMP JUMPDEST PUSH0 PUSH1 0x60 DUP3 ADD SWAP1 POP PUSH2 0x1AE8 PUSH0 DUP4 ADD DUP7 PUSH2 0x19CF JUMP JUMPDEST PUSH2 0x1AF5 PUSH1 0x20 DUP4 ADD DUP6 PUSH2 0x188B JUMP JUMPDEST PUSH2 0x1B02 PUSH1 0x40 DUP4 ADD DUP5 PUSH2 0x188B JUMP JUMPDEST SWAP5 SWAP4 POP POP POP POP JUMP JUMPDEST PUSH32 0x4E487B7100000000000000000000000000000000000000000000000000000000 PUSH0 MSTORE PUSH1 0x11 PUSH1 0x4 MSTORE PUSH1 0x24 PUSH0 REVERT JUMPDEST PUSH0 PUSH2 0x1B41 DUP3 PUSH2 0x1882 JUMP JUMPDEST SWAP2 POP PUSH2 0x1B4C DUP4 PUSH2 0x1882 JUMP JUMPDEST SWAP3 POP DUP3 DUP3 ADD SWAP1 POP DUP1 DUP3 GT ISZERO PUSH2 0x1B64 JUMPI PUSH2 0x1B63 PUSH2 0x1B0A JUMP JUMPDEST JUMPDEST SWAP3 SWAP2 POP POP JUMP JUMPDEST PUSH2 0x1B73 DUP2 PUSH2 0x19DE JUMP JUMPDEST DUP2 EQ PUSH2 0x1B7D JUMPI PUSH0 PUSH0 REVERT JUMPDEST POP JUMP JUMPDEST PUSH0 DUP2 MLOAD SWAP1 POP PUSH2 0x1B8E DUP2 PUSH2 0x1B6A JUMP JUMPDEST SWAP3 SWAP2 POP POP JUMP JUMPDEST PUSH0 PUSH1 0x20 DUP3 DUP5 SUB SLT ISZERO PUSH2 0x1BA9 JUMPI PUSH2 0x1BA8 PUSH2 0x18B3 JUMP JUMPDEST JUMPDEST PUSH0 PUSH2 0x1BB6 DUP5 DUP3 DUP6 ADD PUSH2 0x1B80 JUMP JUMPDEST SWAP2 POP POP SWAP3 SWAP2 POP POP JUMP JUMPDEST PUSH0 PUSH10 0xFFFFFFFFFFFFFFFFFFFF DUP3 AND SWAP1 POP SWAP2 SWAP1 POP JUMP JUMPDEST PUSH2 0x1BDD DUP2 PUSH2 0x1BBF JUMP JUMPDEST DUP2 EQ PUSH2 0x1BE7 JUMPI PUSH0 PUSH0 REVERT JUMPDEST POP JUMP JUMPDEST PUSH0 DUP2 MLOAD SWAP1 POP PUSH2 0x1BF8 DUP2 PUSH2 0x1BD4 JUMP JUMPDEST SWAP3 SWAP2 POP POP JUMP JUMPDEST PUSH0 DUP2 SWAP1 POP SWAP2 SWAP1 POP JUMP JUMPDEST PUSH2 0x1C10 DUP2 PUSH2 0x1BFE JUMP JUMPDEST DUP2 EQ PUSH2 0x1C1A JUMPI PUSH0 PUSH0 REVERT JUMPDEST POP JUMP JUMPDEST PUSH0 DUP2 MLOAD SWAP1 POP PUSH2 0x1C2B DUP2 PUSH2 0x1C07 JUMP JUMPDEST SWAP3 SWAP2 POP POP JUMP JUMPDEST PUSH0 DUP2 MLOAD SWAP1 POP PUSH2 0x1C3F DUP2 PUSH2 0x18B7 JUMP JUMPDEST SWAP3 SWAP2 POP POP JUMP JUMPDEST PUSH0 PUSH0 PUSH0 PUSH0 PUSH0 PUSH1 0xA0 DUP7 DUP9 SUB SLT ISZERO PUSH2 0x1C5E JUMPI PUSH2 0x1C5D PUSH2 0x18B3 JUMP JUMPDEST JUMPDEST PUSH0 PUSH2 0x1C6B DUP9 DUP3 DUP10 ADD PUSH2 0x1BEA JUMP JUMPDEST SWAP6 POP POP PUSH1 0x20 PUSH2 0x1C7C DUP9 DUP3 DUP10 ADD PUSH2 0x1C1D JUMP JUMPDEST SWAP5 POP POP PUSH1 0x40 PUSH2 0x1C8D DUP9 DUP3 DUP10 ADD PUSH2 0x1C31 JUMP JUMPDEST SWAP4 POP POP PUSH1 0x60 PUSH2 0x1C9E DUP9 DUP3 DUP10 ADD PUSH2 0x1C31 JUMP JUMPDEST SWAP3 POP POP PUSH1 0x80 PUSH2 0x1CAF DUP9 DUP3 DUP10 ADD PUSH2 0x1BEA JUMP JUMPDEST SWAP2 POP POP SWAP3 SWAP6 POP SWAP3 SWAP6 SWAP1 SWAP4 POP JUMP JUMPDEST PUSH0 PUSH2 0x1CC6 DUP3 PUSH2 0x1882 JUMP JUMPDEST SWAP2 POP PUSH2 0x1CD1 DUP4 PUSH2 0x1882 JUMP JUMPDEST SWAP3 POP DUP3 DUP3 SUB SWAP1 POP DUP2 DUP2 GT ISZERO PUSH2 0x1CE9 JUMPI PUSH2 0x1CE8 PUSH2 0x1B0A JUMP JUMPDEST JUMPDEST SWAP3 SWAP2 POP POP JUMP JUMPDEST PUSH0 DUP2 PUSH1 0x1 SHR SWAP1 POP SWAP2 SWAP1 POP JUMP JUMPDEST PUSH0 PUSH0 DUP3 SWAP2 POP DUP4 SWAP1 POP JUMPDEST PUSH1 0x1 DUP6 GT ISZERO PUSH2 0x1D44 JUMPI DUP1 DUP7 DIV DUP2 GT ISZERO PUSH2 0x1D20 JUMPI PUSH2 0x1D1F PUSH2 0x1B0A JUMP JUMPDEST JUMPDEST PUSH1 0x1 DUP6 AND ISZERO PUSH2 0x1D2F JUMPI DUP1 DUP3 MUL SWAP2 POP JUMPDEST DUP1 DUP2 MUL SWAP1 POP PUSH2 0x1D3D DUP6 PUSH2 0x1CEF JUMP JUMPDEST SWAP5 POP PUSH2 0x1D04 JUMP JUMPDEST SWAP5 POP SWAP5 SWAP3 POP POP POP JUMP JUMPDEST PUSH0 DUP3 PUSH2 0x1D5C JUMPI PUSH1 0x1 SWAP1 POP PUSH2 0x1E17 JUMP JUMPDEST DUP2 PUSH2 0x1D69 JUMPI PUSH0 SWAP1 POP PUSH2 0x1E17 JUMP JUMPDEST DUP2 PUSH1 0x1 DUP2 EQ PUSH2 0x1D7F JUMPI PUSH1 0x2 DUP2 EQ PUSH2 0x1D89 JUMPI PUSH2 0x1DB8 JUMP JUMPDEST PUSH1 0x1 SWAP2 POP POP PUSH2 0x1E17 JUMP JUMPDEST PUSH1 0xFF DUP5 GT ISZERO PUSH2 0x1D9B JUMPI PUSH2 0x1D9A PUSH2 0x1B0A JUMP JUMPDEST JUMPDEST DUP4 PUSH1 0x2 EXP SWAP2 POP DUP5 DUP3 GT ISZERO PUSH2 0x1DB2 JUMPI PUSH2 0x1DB1 PUSH2 0x1B0A JUMP JUMPDEST JUMPDEST POP PUSH2 0x1E17 JUMP JUMPDEST POP PUSH1 0x20 DUP4 LT PUSH2 0x133 DUP4 LT AND PUSH1 0x4E DUP5 LT PUSH1 0xB DUP5 LT AND OR ISZERO PUSH2 0x1DED JUMPI DUP3 DUP3 EXP SWAP1 POP DUP4 DUP2 GT ISZERO PUSH2 0x1DE8 JUMPI PUSH2 0x1DE7 PUSH2 0x1B0A JUMP JUMPDEST JUMPDEST PUSH2 0x1E17 JUMP JUMPDEST PUSH2 0x1DFA DUP5 DUP5 DUP5 PUSH1 0x1 PUSH2 0x1CFB JUMP JUMPDEST SWAP3 POP SWAP1 POP DUP2 DUP5 DIV DUP2 GT ISZERO PUSH2 0x1E11 JUMPI PUSH2 0x1E10 PUSH2 0x1B0A JUMP JUMPDEST JUMPDEST DUP2 DUP2 MUL SWAP1 POP JUMPDEST SWAP4 SWAP3 POP POP POP JUMP JUMPDEST PUSH0 PUSH2 0x1E28 DUP3 PUSH2 0x1882 JUMP JUMPDEST SWAP2 POP PUSH2 0x1E33 DUP4 PUSH2 0x1882 JUMP JUMPDEST SWAP3 POP PUSH2 0x1E60 PUSH32 0xFFFFFFFFFFFFFFFFFFFFFFFFFFFFFFFFFFFFFFFFFFFFFFFFFFFFFFFFFFFFFFFF DUP5 DUP5 PUSH2 0x1D4D JUMP JUMPDEST SWAP1 POP SWAP3 SWAP2 POP POP JUMP JUMPDEST PUSH0 PUSH2 0x1E72 DUP3 PUSH2 0x1882 JUMP JUMPDEST SWAP2 POP PUSH2 0x1E7D DUP4 PUSH2 0x1882 JUMP JUMPDEST SWAP3 POP DUP3 DUP3 MUL PUSH2 0x1E8B DUP2 PUSH2 0x1882 JUMP JUMPDEST SWAP2 POP DUP3 DUP3 DIV DUP5 EQ DUP4 ISZERO OR PUSH2 0x1EA2 JUMPI PUSH2 0x1EA1 PUSH2 0x1B0A JUMP JUMPDEST JUMPDEST POP SWAP3 SWAP2 POP POP JUMP JUMPDEST PUSH32 0x4E487B7100000000000000000000000000000000000000000000000000000000 PUSH0 MSTORE PUSH1 0x12 PUSH1 0x4 MSTORE PUSH1 0x24 PUSH0 REVERT JUMPDEST PUSH0 PUSH2 0x1EE0 DUP3 PUSH2 0x1882 JUMP JUMPDEST SWAP2 POP PUSH2 0x1EEB DUP4 PUSH2 0x1882 JUMP JUMPDEST SWAP3 POP DUP3 PUSH2 0x1EFB JUMPI PUSH2 0x1EFA PUSH2 0x1EA9 JUMP JUMPDEST JUMPDEST DUP3 DUP3 DIV SWAP1 POP SWAP3 SWAP2 POP POP JUMP JUMPDEST PUSH0 PUSH2 0x1F10 DUP3 PUSH2 0x1A20 JUMP JUMPDEST SWAP2 POP PUSH2 0x1F1B DUP4 PUSH2 0x1A20 JUMP JUMPDEST SWAP3 POP DUP3 DUP3 ADD SWAP1 POP PUSH4 0xFFFFFFFF DUP2 GT ISZERO PUSH2 0x1F37 JUMPI PUSH2 0x1F36 PUSH2 0x1B0A JUMP JUMPDEST JUMPDEST SWAP3 SWAP2 POP POP JUMP JUMPDEST PUSH0 DUP2 SWAP1 POP SWAP3 SWAP2 POP POP JUMP JUMPDEST POP JUMP JUMPDEST PUSH0 PUSH2 0x1F55 PUSH0 DUP4 PUSH2 0x1F3D JUMP JUMPDEST SWAP2 POP PUSH2 0x1F60 DUP3 PUSH2 0x1F47 JUMP JUMPDEST PUSH0 DUP3 ADD SWAP1 POP SWAP2 SWAP1 POP JUMP JUMPDEST PUSH0 PUSH2 0x1F74 DUP3 PUSH2 0x1F4A JUMP JUMPDEST SWAP2 POP DUP2 SWAP1 POP SWAP2 SWAP1 POP JUMP JUMPDEST PUSH0 PUSH1 0x40 DUP3 ADD SWAP1 POP PUSH2 0x1F91 PUSH0 DUP4 ADD DUP6 PUSH2 0x19CF JUMP JUMPDEST PUSH2 0x1F9E PUSH1 0x20 DUP4 ADD DUP5 PUSH2 0x188B JUMP JUMPDEST SWAP4 SWAP3 POP POP POP JUMP INVALID LOG2 PUSH5 0x6970667358 0x22 SLT KECCAK256 0x4F SWAP8 DUP2 PUSH20 0xD3D9DC9D8161C2C78B234A24C431EFA919D509DE 0x2C SMOD SWAP14 EXTCALL EQ 0xD SHR MLOAD PUSH5 0x736F6C6343 STOP ADDMOD 0x1E STOP CALLER "
				},
				"gasEstimates": {
					"creation": {
						"codeDepositCost": "1631000",
						"executionCost": "infinite",
						"totalCost": "infinite"
					},
					"external": {
						"": "infinite",
						"ETH_ADDRESS()": "439",
						"ORACLE_HEARTBEAT()": "348",
						"deposit()": "infinite",
						"depositToken(address,uint256)": "infinite",
						"getMyBalance(address)": "3027",
						"getTotalEthBalance()": "358",
						"getValueInUsd(address,uint256)": "infinite",
						"i_bankCap()": "infinite",
						"i_withdrawLimit()": "infinite",
						"owner()": "2537",
						"renounceOwnership()": "infinite",
						"s_balances(address,address)": "infinite",
						"s_tokenInfo(address)": "infinite",
						"s_totalDeposits()": "2511",
						"s_totalUsdValue()": "2515",
						"s_totalWithdrawals()": "2583",
						"setPriceFeed(address,address)": "infinite",
						"transferOwnership(address)": "infinite",
						"withdraw(uint256)": "infinite",
						"withdrawToken(address,uint256)": "infinite"
					},
					"internal": {
						"_deposit(address,address,uint256)": "infinite",
						"_safeTransferEth(address,uint256)": "infinite",
						"_updateCounters(bool)": "infinite",
						"_withdraw(address,address,uint256)": "infinite"
					}
				},
				"methodIdentifiers": {
					"ETH_ADDRESS()": "a734f06e",
					"ORACLE_HEARTBEAT()": "4a83c3b7",
					"deposit()": "d0e30db0",
					"depositToken(address,uint256)": "338b5dea",
					"getMyBalance(address)": "7e3ef7cd",
					"getTotalEthBalance()": "287cc96b",
					"getValueInUsd(address,uint256)": "fe3192f6",
					"i_bankCap()": "f6687af7",
					"i_withdrawLimit()": "c801fb40",
					"owner()": "8da5cb5b",
					"renounceOwnership()": "715018a6",
					"s_balances(address,address)": "dccd58e3",
					"s_tokenInfo(address)": "432017ca",
					"s_totalDeposits()": "52963c2b",
					"s_totalUsdValue()": "3b1a4ec4",
					"s_totalWithdrawals()": "f3db702c",
					"setPriceFeed(address,address)": "76e11286",
					"transferOwnership(address)": "f2fde38b",
					"withdraw(uint256)": "2e1a7d4d",
					"withdrawToken(address,uint256)": "9e281a98"
				}
			},
			"storageLayout": {
				"storage": [
					{
						"astId": 54,
						"contract": "src/Kipu-Bank_v2.sol:KipuBank",
						"label": "_owner",
						"offset": 0,
						"slot": "0",
						"type": "t_address"
					},
					{
						"astId": 917,
						"contract": "src/Kipu-Bank_v2.sol:KipuBank",
						"label": "s_totalUsdValue",
						"offset": 0,
						"slot": "1",
						"type": "t_uint256"
					},
					{
						"astId": 920,
						"contract": "src/Kipu-Bank_v2.sol:KipuBank",
						"label": "s_totalDeposits",
						"offset": 0,
						"slot": "2",
						"type": "t_uint32"
					},
					{
						"astId": 923,
						"contract": "src/Kipu-Bank_v2.sol:KipuBank",
						"label": "s_totalWithdrawals",
						"offset": 4,
						"slot": "2",
						"type": "t_uint32"
					},
					{
						"astId": 936,
						"contract": "src/Kipu-Bank_v2.sol:KipuBank",
						"label": "s_balances",
						"offset": 0,
						"slot": "3",
						"type": "t_mapping(t_address,t_mapping(t_address,t_uint256))"
					},
					{
						"astId": 942,
						"contract": "src/Kipu-Bank_v2.sol:KipuBank",
						"label": "s_tokenInfo",
						"offset": 0,
						"slot": "4",
						"type": "t_mapping(t_address,t_struct(TokenInfo)929_storage)"
					}
				],
				"types": {
					"t_address": {
						"encoding": "inplace",
						"label": "address",
						"numberOfBytes": "20"
					},
					"t_mapping(t_address,t_mapping(t_address,t_uint256))": {
						"encoding": "mapping",
						"key": "t_address",
						"label": "mapping(address => mapping(address => uint256))",
						"numberOfBytes": "32",
						"value": "t_mapping(t_address,t_uint256)"
					},
					"t_mapping(t_address,t_struct(TokenInfo)929_storage)": {
						"encoding": "mapping",
						"key": "t_address",
						"label": "mapping(address => struct KipuBank.TokenInfo)",
						"numberOfBytes": "32",
						"value": "t_struct(TokenInfo)929_storage"
					},
					"t_mapping(t_address,t_uint256)": {
						"encoding": "mapping",
						"key": "t_address",
						"label": "mapping(address => uint256)",
						"numberOfBytes": "32",
						"value": "t_uint256"
					},
					"t_struct(TokenInfo)929_storage": {
						"encoding": "inplace",
						"label": "struct KipuBank.TokenInfo",
						"members": [
							{
								"astId": 926,
								"contract": "src/Kipu-Bank_v2.sol:KipuBank",
								"label": "priceFeed",
								"offset": 0,
								"slot": "0",
								"type": "t_address"
							},
							{
								"astId": 928,
								"contract": "src/Kipu-Bank_v2.sol:KipuBank",
								"label": "decimals",
								"offset": 20,
								"slot": "0",
								"type": "t_uint8"
							}
						],
						"numberOfBytes": "32"
					},
					"t_uint256": {
						"encoding": "inplace",
						"label": "uint256",
						"numberOfBytes": "32"
					},
					"t_uint32": {
						"encoding": "inplace",
						"label": "uint32",
						"numberOfBytes": "4"
					},
					"t_uint8": {
						"encoding": "inplace",
						"label": "uint8",
						"numberOfBytes": "1"
					}
				}
			},
			"userdoc": {
				"errors": {
					"KipuBank__ExceedsBankCap(uint256,uint256)": [
						{
							"notice": "-----------------------------------------------------------------------------------------------                                         ERRORS -----------------------------------------------------------------------------------------------"
						}
					]
				},
				"events": {
					"Deposited(address,address,uint256)": {
						"notice": "Emitted upon ETH deposit"
					},
					"PriceFeedUpdated(address,address)": {
						"notice": "Emitted when a price feed is updated"
					},
					"Withdrawn(address,address,uint256)": {
						"notice": "Emitted upon ETH withdrawal"
					}
				},
				"kind": "user",
				"methods": {
					"ETH_ADDRESS()": {
						"notice": "ETH address constant"
					},
					"ORACLE_HEARTBEAT()": {
						"notice": "The maximum age of a price feed update (e.g., 1 hour)"
					},
					"constructor": {
						"notice": "Constructor to initialize bank cap and withdrawal limit"
					},
					"deposit()": {
						"notice": "Calls internal deposit function for ETH deposits"
					},
					"depositToken(address,uint256)": {
						"notice": "Deposit ERC20 tokens into the bank"
					},
					"getMyBalance(address)": {
						"notice": "Check your own token balance"
					},
					"getTotalEthBalance()": {
						"notice": "Check the total balance of the bank"
					},
					"getValueInUsd(address,uint256)": {
						"notice": "Get value of a token amount in USD"
					},
					"i_bankCap()": {
						"notice": "Total ETH limit that can be stored in the bank"
					},
					"i_withdrawLimit()": {
						"notice": "ETH limit that can be withdrawn in a single transaction"
					},
					"s_balances(address,address)": {
						"notice": "User balances mapping"
					},
					"s_tokenInfo(address)": {
						"notice": "Token information mapping"
					},
					"s_totalDeposits()": {
						"notice": "Total number of historical deposits"
					},
					"s_totalUsdValue()": {
						"notice": "Total USD value stored in the bank"
					},
					"s_totalWithdrawals()": {
						"notice": "Total number of historical withdrawals"
					},
					"setPriceFeed(address,address)": {
						"notice": "Set the price feed address for a token"
					},
					"withdraw(uint256)": {
						"notice": "Withdraw ETH from the bank"
					},
					"withdrawToken(address,uint256)": {
						"notice": "Withdraw ERC20 tokens from the bank"
					}
				},
				"notice": "This contract allows users to deposit and withdraw ETH with security limits",
				"version": 1
			}
		}
	}
}