{
	"data": {
		"bytecode": {
			"linkReferences": {},
			"object": "60c060405234801561000f575f5ffd5b5060405161227d38038061227d833981810160405281019061003191906101c1565b335f73ffffffffffffffffffffffffffffffffffffffff168173ffffffffffffffffffffffffffffffffffffffff16036100a2575f6040517f1e4fbdf7000000000000000000000000000000000000000000000000000000008152600401610099919061023e565b60405180910390fd5b6100b1816100c960201b60201c565b5081608081815250508060a081815250505050610257565b5f5f5f9054906101000a900473ffffffffffffffffffffffffffffffffffffffff169050815f5f6101000a81548173ffffffffffffffffffffffffffffffffffffffff021916908373ffffffffffffffffffffffffffffffffffffffff1602179055508173ffffffffffffffffffffffffffffffffffffffff168173ffffffffffffffffffffffffffffffffffffffff167f8be0079c531659141344cd1fd0a4f28419497f9722a3daafe3b4186f6b6457e060405160405180910390a35050565b5f5ffd5b5f819050919050565b6101a08161018e565b81146101aa575f5ffd5b50565b5f815190506101bb81610197565b92915050565b5f5f604083850312156101d7576101d661018a565b5b5f6101e4858286016101ad565b92505060206101f5858286016101ad565b9150509250929050565b5f73ffffffffffffffffffffffffffffffffffffffff82169050919050565b5f610228826101ff565b9050919050565b6102388161021e565b82525050565b5f6020820190506102515f83018461022f565b92915050565b60805160a051611fdb6102a25f395f81816105360152818161055f0152610d2401525f81816107180152818161075b01528181610d5701528181610d9a0152610ec20152611fdb5ff3fe608060405260043610610122575f3560e01c80638da5cb5b1161009f578063dccd58e311610063578063dccd58e314610438578063f2fde38b14610474578063f3db702c1461049c578063f6687af7146104c6578063fe3192f6146104f057610180565b80638da5cb5b146103885780639e281a98146103b2578063a734f06e146103da578063c801fb4014610404578063d0e30db01461042e57610180565b80634a83c3b7116100e65780634a83c3b7146102ba57806352963c2b146102e4578063715018a61461030e57806376e11286146103245780637e3ef7cd1461034c57610180565b8063287cc96b146101d95780632e1a7d4d14610203578063338b5dea1461022b5780633b1a4ec414610253578063432017ca1461027d57610180565b36610180573073ffffffffffffffffffffffffffffffffffffffff1663d0e30db06040518163ffffffff1660e01b81526004015f604051808303815f87803b15801561016c575f5ffd5b505af115801561017e573d5f5f3e3d5ffd5b005b3073ffffffffffffffffffffffffffffffffffffffff1663d0e30db06040518163ffffffff1660e01b81526004015f604051808303815f87803b1580156101c5575f5ffd5b505af11580156101d7573d5f5f3e3d5ffd5b005b3480156101e4575f5ffd5b506101ed61052c565b6040516101fa919061189a565b60405180910390f35b34801561020e575f5ffd5b50610229600480360381019061022491906118e1565b610533565b005b348015610236575f5ffd5b50610251600480360381019061024c9190611966565b610707565b005b34801561025e575f5ffd5b5061026761085b565b604051610274919061189a565b60405180910390f35b348015610288575f5ffd5b506102a3600480360381019061029e91906119a4565b610861565b6040516102b19291906119f9565b60405180910390f35b3480156102c5575f5ffd5b506102ce6108ac565b6040516102db919061189a565b60405180910390f35b3480156102ef575f5ffd5b506102f86108b2565b6040516103059190611a3e565b60405180910390f35b348015610319575f5ffd5b506103226108c7565b005b34801561032f575f5ffd5b5061034a60048036038101906103459190611a57565b6108da565b005b348015610357575f5ffd5b50610372600480360381019061036d91906119a4565b610ac5565b60405161037f919061189a565b60405180910390f35b348015610393575f5ffd5b5061039c610b46565b6040516103a99190611a95565b60405180910390f35b3480156103bd575f5ffd5b506103d860048036038101906103d39190611966565b610b6d565b005b3480156103e5575f5ffd5b506103ee610d1e565b6040516103fb9190611a95565b60405180910390f35b34801561040f575f5ffd5b50610418610d22565b604051610425919061189a565b60405180910390f35b610436610d46565b005b348015610443575f5ffd5b5061045e60048036038101906104599190611a57565b610e06565b60405161046b919061189a565b60405180910390f35b34801561047f575f5ffd5b5061049a600480360381019061049591906119a4565b610e26565b005b3480156104a7575f5ffd5b506104b0610eaa565b6040516104bd9190611a3e565b60405180910390f35b3480156104d1575f5ffd5b506104da610ec0565b6040516104e7919061189a565b60405180910390f35b3480156104fb575f5ffd5b5061051660048036038101906105119190611966565b610ee4565b604051610523919061189a565b60405180910390f35b5f47905090565b807f00000000000000000000000000000000000000000000000000000000000000008111156105bb57807f00000000000000000000000000000000000000000000000000000000000000006040517f631019960000000000000000000000000000000000000000000000000000000081526004016105b2929190611aae565b60405180910390fd5b5f8260035f8373ffffffffffffffffffffffffffffffffffffffff1673ffffffffffffffffffffffffffffffffffffffff1681526020019081526020015f205f3373ffffffffffffffffffffffffffffffffffffffff1673ffffffffffffffffffffffffffffffffffffffff1681526020019081526020015f20548111156106f657818160035f8573ffffffffffffffffffffffffffffffffffffffff1673ffffffffffffffffffffffffffffffffffffffff1681526020019081526020015f205f3373ffffffffffffffffffffffffffffffffffffffff1673ffffffffffffffffffffffffffffffffffffffff1681526020019081526020015f20546040517f5fedab090000000000000000000000000000000000000000000000000000000081526004016106ed93929190611ad5565b60405180910390fd5b6107015f3386611146565b50505050565b81815f6107148383610ee4565b90507f0000000000000000000000000000000000000000000000000000000000000000816001546107459190611b37565b11156107b757806001546107599190611b37565b7f00000000000000000000000000000000000000000000000000000000000000006040517ff6167f4e0000000000000000000000000000000000000000000000000000000081526004016107ae929190611aae565b60405180910390fd5b5f73ffffffffffffffffffffffffffffffffffffffff168573ffffffffffffffffffffffffffffffffffffffff160361081c576040517f7cb522e900000000000000000000000000000000000000000000000000000000815260040160405180910390fd5b6108493330868873ffffffffffffffffffffffffffffffffffffffff16611316909392919063ffffffff16565b61085485338661136b565b5050505050565b60015481565b6004602052805f5260405f205f91509050805f015f9054906101000a900473ffffffffffffffffffffffffffffffffffffffff1690805f0160149054906101000a900460ff16905082565b610e1081565b60025f9054906101000a900463ffffffff1681565b6108cf6114ce565b6108d85f611555565b565b6108e26114ce565b5f5f73ffffffffffffffffffffffffffffffffffffffff168373ffffffffffffffffffffffffffffffffffffffff160361091f576012905061098f565b8273ffffffffffffffffffffffffffffffffffffffff1663313ce5676040518163ffffffff1660e01b8152600401602060405180830381865afa158015610968573d5f5f3e3d5ffd5b505050506040513d601f19601f8201168201806040525081019061098c9190611b94565b90505b5f60405180604001604052808473ffffffffffffffffffffffffffffffffffffffff1681526020018360ff1681525090508060045f8673ffffffffffffffffffffffffffffffffffffffff1673ffffffffffffffffffffffffffffffffffffffff1681526020019081526020015f205f820151815f015f6101000a81548173ffffffffffffffffffffffffffffffffffffffff021916908373ffffffffffffffffffffffffffffffffffffffff1602179055506020820151815f0160146101000a81548160ff021916908360ff1602179055509050508273ffffffffffffffffffffffffffffffffffffffff168473ffffffffffffffffffffffffffffffffffffffff167fa8abe0398416476db5b05737cd4da3b3cbde5012d978a6a6c3fd49d32175353660405160405180910390a350505050565b5f60035f8373ffffffffffffffffffffffffffffffffffffffff1673ffffffffffffffffffffffffffffffffffffffff1681526020019081526020015f205f3373ffffffffffffffffffffffffffffffffffffffff1673ffffffffffffffffffffffffffffffffffffffff1681526020019081526020015f20549050919050565b5f5f5f9054906101000a900473ffffffffffffffffffffffffffffffffffffffff16905090565b818160035f8373ffffffffffffffffffffffffffffffffffffffff1673ffffffffffffffffffffffffffffffffffffffff1681526020019081526020015f205f3373ffffffffffffffffffffffffffffffffffffffff1673ffffffffffffffffffffffffffffffffffffffff1681526020019081526020015f2054811115610ca857818160035f8573ffffffffffffffffffffffffffffffffffffffff1673ffffffffffffffffffffffffffffffffffffffff1681526020019081526020015f205f3373ffffffffffffffffffffffffffffffffffffffff1673ffffffffffffffffffffffffffffffffffffffff1681526020019081526020015f20546040517f5fedab09000000000000000000000000000000000000000000000000000000008152600401610c9f93929190611ad5565b60405180910390fd5b5f73ffffffffffffffffffffffffffffffffffffffff168473ffffffffffffffffffffffffffffffffffffffff1603610d0d576040517f7cb522e900000000000000000000000000000000000000000000000000000000815260040160405180910390fd5b610d18843385611146565b50505050565b5f81565b7f000000000000000000000000000000000000000000000000000000000000000081565b5f345f610d538383610ee4565b90507f000000000000000000000000000000000000000000000000000000000000000081600154610d849190611b37565b1115610df65780600154610d989190611b37565b7f00000000000000000000000000000000000000000000000000000000000000006040517ff6167f4e000000000000000000000000000000000000000000000000000000008152600401610ded929190611aae565b60405180910390fd5b610e015f333461136b565b505050565b6003602052815f5260405f20602052805f5260405f205f91509150505481565b610e2e6114ce565b5f73ffffffffffffffffffffffffffffffffffffffff168173ffffffffffffffffffffffffffffffffffffffff1603610e9e575f6040517f1e4fbdf7000000000000000000000000000000000000000000000000000000008152600401610e959190611a95565b60405180910390fd5b610ea781611555565b50565b600260049054906101000a900463ffffffff1681565b7f000000000000000000000000000000000000000000000000000000000000000081565b5f5f60045f8573ffffffffffffffffffffffffffffffffffffffff1673ffffffffffffffffffffffffffffffffffffffff1681526020019081526020015f206040518060400160405290815f82015f9054906101000a900473ffffffffffffffffffffffffffffffffffffffff1673ffffffffffffffffffffffffffffffffffffffff1673ffffffffffffffffffffffffffffffffffffffff1681526020015f820160149054906101000a900460ff1660ff1660ff168152505090505f73ffffffffffffffffffffffffffffffffffffffff16815f015173ffffffffffffffffffffffffffffffffffffffff160361101357836040517fc25bec5600000000000000000000000000000000000000000000000000000000815260040161100a9190611a95565b60405180910390fd5b5f815f015190505f5f8273ffffffffffffffffffffffffffffffffffffffff1663feaf968c6040518163ffffffff1660e01b815260040160a060405180830381865afa158015611065573d5f5f3e3d5ffd5b505050506040513d601f19601f820116820180604052508101906110899190611c45565b509350509250505f82136110c9576040517f780cfa4700000000000000000000000000000000000000000000000000000000815260040160405180910390fd5b610e1081426110d89190611cbc565b1115611110576040517f71a821df00000000000000000000000000000000000000000000000000000000815260040160405180910390fd5b836020015160ff16600a6111249190611e1e565b82876111309190611e68565b61113a9190611ed6565b94505050505092915050565b805f8103611180576040517ffa4e609e00000000000000000000000000000000000000000000000000000000815260040160405180910390fd5b8160035f8673ffffffffffffffffffffffffffffffffffffffff1673ffffffffffffffffffffffffffffffffffffffff1681526020019081526020015f205f8573ffffffffffffffffffffffffffffffffffffffff1673ffffffffffffffffffffffffffffffffffffffff1681526020019081526020015f205f8282546112079190611cbc565b925050819055506112175f611616565b5f6112228584610ee4565b90508060015f8282546112359190611cbc565b925050819055505f73ffffffffffffffffffffffffffffffffffffffff168573ffffffffffffffffffffffffffffffffffffffff160361127e5761127984846116a4565b6112aa565b6112a984848773ffffffffffffffffffffffffffffffffffffffff166117559092919063ffffffff16565b5b8373ffffffffffffffffffffffffffffffffffffffff168573ffffffffffffffffffffffffffffffffffffffff167fd1c19fbcd4551a5edfb66d43d2e337c04837afda3482b42bdf569a8fccdae5fb85604051611307919061189a565b60405180910390a35050505050565b6113248484848460016117a8565b61136557836040517f5274afe700000000000000000000000000000000000000000000000000000000815260040161135c9190611a95565b60405180910390fd5b50505050565b805f81036113a5576040517ffa4e609e00000000000000000000000000000000000000000000000000000000815260040160405180910390fd5b8160035f8673ffffffffffffffffffffffffffffffffffffffff1673ffffffffffffffffffffffffffffffffffffffff1681526020019081526020015f205f8573ffffffffffffffffffffffffffffffffffffffff1673ffffffffffffffffffffffffffffffffffffffff1681526020019081526020015f205f82825461142c9190611b37565b9250508190555061143d6001611616565b5f6114488584610ee4565b90508060015f82825461145b9190611b37565b925050819055508373ffffffffffffffffffffffffffffffffffffffff168573ffffffffffffffffffffffffffffffffffffffff167f8752a472e571a816aea92eec8dae9baf628e840f4929fbcc2d155e6233ff68a7856040516114bf919061189a565b60405180910390a35050505050565b6114d6611819565b73ffffffffffffffffffffffffffffffffffffffff166114f4610b46565b73ffffffffffffffffffffffffffffffffffffffff161461155357611517611819565b6040517f118cdaa700000000000000000000000000000000000000000000000000000000815260040161154a9190611a95565b60405180910390fd5b565b5f5f5f9054906101000a900473ffffffffffffffffffffffffffffffffffffffff169050815f5f6101000a81548173ffffffffffffffffffffffffffffffffffffffff021916908373ffffffffffffffffffffffffffffffffffffffff1602179055508173ffffffffffffffffffffffffffffffffffffffff168173ffffffffffffffffffffffffffffffffffffffff167f8be0079c531659141344cd1fd0a4f28419497f9722a3daafe3b4186f6b6457e060405160405180910390a35050565b801561166057600160025f8282829054906101000a900463ffffffff1661163d9190611f06565b92506101000a81548163ffffffff021916908363ffffffff1602179055506116a1565b6001600260048282829054906101000a900463ffffffff166116829190611f06565b92506101000a81548163ffffffff021916908363ffffffff1602179055505b50565b5f8273ffffffffffffffffffffffffffffffffffffffff16826040516116c990611f6a565b5f6040518083038185875af1925050503d805f8114611703576040519150601f19603f3d011682016040523d82523d5f602084013e611708565b606091505b50509050806117505782826040517fa36a1dba000000000000000000000000000000000000000000000000000000008152600401611747929190611f7e565b60405180910390fd5b505050565b6117628383836001611820565b6117a357826040517f5274afe700000000000000000000000000000000000000000000000000000000815260040161179a9190611a95565b60405180910390fd5b505050565b5f5f6323b872dd60e01b9050604051815f525f1960601c87166004525f1960601c86166024528460445260205f60645f5f8c5af1925060015f511483166118065783831516156117fa573d5f823e3d81fd5b5f883b113d1516831692505b806040525f606052505095945050505050565b5f33905090565b5f5f63a9059cbb60e01b9050604051815f525f1960601c86166004528460245260205f60445f5f8b5af1925060015f51148316611874578383151615611868573d5f823e3d81fd5b5f873b113d1516831692505b806040525050949350505050565b5f819050919050565b61189481611882565b82525050565b5f6020820190506118ad5f83018461188b565b92915050565b5f5ffd5b6118c081611882565b81146118ca575f5ffd5b50565b5f813590506118db816118b7565b92915050565b5f602082840312156118f6576118f56118b3565b5b5f611903848285016118cd565b91505092915050565b5f73ffffffffffffffffffffffffffffffffffffffff82169050919050565b5f6119358261190c565b9050919050565b6119458161192b565b811461194f575f5ffd5b50565b5f813590506119608161193c565b92915050565b5f5f6040838503121561197c5761197b6118b3565b5b5f61198985828601611952565b925050602061199a858286016118cd565b9150509250929050565b5f602082840312156119b9576119b86118b3565b5b5f6119c684828501611952565b91505092915050565b6119d88161192b565b82525050565b5f60ff82169050919050565b6119f3816119de565b82525050565b5f604082019050611a0c5f8301856119cf565b611a1960208301846119ea565b9392505050565b5f63ffffffff82169050919050565b611a3881611a20565b82525050565b5f602082019050611a515f830184611a2f565b92915050565b5f5f60408385031215611a6d57611a6c6118b3565b5b5f611a7a85828601611952565b9250506020611a8b85828601611952565b9150509250929050565b5f602082019050611aa85f8301846119cf565b92915050565b5f604082019050611ac15f83018561188b565b611ace602083018461188b565b9392505050565b5f606082019050611ae85f8301866119cf565b611af5602083018561188b565b611b02604083018461188b565b949350505050565b7f4e487b71000000000000000000000000000000000000000000000000000000005f52601160045260245ffd5b5f611b4182611882565b9150611b4c83611882565b9250828201905080821115611b6457611b63611b0a565b5b92915050565b611b73816119de565b8114611b7d575f5ffd5b50565b5f81519050611b8e81611b6a565b92915050565b5f60208284031215611ba957611ba86118b3565b5b5f611bb684828501611b80565b91505092915050565b5f69ffffffffffffffffffff82169050919050565b611bdd81611bbf565b8114611be7575f5ffd5b50565b5f81519050611bf881611bd4565b92915050565b5f819050919050565b611c1081611bfe565b8114611c1a575f5ffd5b50565b5f81519050611c2b81611c07565b92915050565b5f81519050611c3f816118b7565b92915050565b5f5f5f5f5f60a08688031215611c5e57611c5d6118b3565b5b5f611c6b88828901611bea565b9550506020611c7c88828901611c1d565b9450506040611c8d88828901611c31565b9350506060611c9e88828901611c31565b9250506080611caf88828901611bea565b9150509295509295909350565b5f611cc682611882565b9150611cd183611882565b9250828203905081811115611ce957611ce8611b0a565b5b92915050565b5f8160011c9050919050565b5f5f8291508390505b6001851115611d4457808604811115611d2057611d1f611b0a565b5b6001851615611d2f5780820291505b8081029050611d3d85611cef565b9450611d04565b94509492505050565b5f82611d5c5760019050611e17565b81611d69575f9050611e17565b8160018114611d7f5760028114611d8957611db8565b6001915050611e17565b60ff841115611d9b57611d9a611b0a565b5b8360020a915084821115611db257611db1611b0a565b5b50611e17565b5060208310610133831016604e8410600b8410161715611ded5782820a905083811115611de857611de7611b0a565b5b611e17565b611dfa8484846001611cfb565b92509050818404811115611e1157611e10611b0a565b5b81810290505b9392505050565b5f611e2882611882565b9150611e3383611882565b9250611e607fffffffffffffffffffffffffffffffffffffffffffffffffffffffffffffffff8484611d4d565b905092915050565b5f611e7282611882565b9150611e7d83611882565b9250828202611e8b81611882565b91508282048414831517611ea257611ea1611b0a565b5b5092915050565b7f4e487b71000000000000000000000000000000000000000000000000000000005f52601260045260245ffd5b5f611ee082611882565b9150611eeb83611882565b925082611efb57611efa611ea9565b5b828204905092915050565b5f611f1082611a20565b9150611f1b83611a20565b9250828201905063ffffffff811115611f3757611f36611b0a565b5b92915050565b5f81905092915050565b50565b5f611f555f83611f3d565b9150611f6082611f47565b5f82019050919050565b5f611f7482611f4a565b9150819050919050565b5f604082019050611f915f8301856119cf565b611f9e602083018461188b565b939250505056fea26469706673582212204f978173d3d9dc9d8161c2c78b234a24c431efa919d509de2c079df8140d1c5164736f6c634300081e0033",
			"opcodes": "PUSH1 0xC0 PUSH1 0x40 MSTORE CALLVALUE DUP1 ISZERO PUSH2 0xF JUMPI PUSH0 PUSH0 REVERT JUMPDEST POP PUSH1 0x40 MLOAD PUSH2 0x227D CODESIZE SUB DUP1 PUSH2 0x227D DUP4 CODECOPY DUP2 DUP2 ADD PUSH1 0x40 MSTORE DUP2 ADD SWAP1 PUSH2 0x31 SWAP2 SWAP1 PUSH2 0x1C1 JUMP JUMPDEST CALLER PUSH0 PUSH20 0xFFFFFFFFFFFFFFFFFFFFFFFFFFFFFFFFFFFFFFFF AND DUP2 PUSH20 0xFFFFFFFFFFFFFFFFFFFFFFFFFFFFFFFFFFFFFFFF AND SUB PUSH2 0xA2 JUMPI PUSH0 PUSH1 0x40 MLOAD PUSH32 0x1E4FBDF700000000000000000000000000000000000000000000000000000000 DUP2 MSTORE PUSH1 0x4 ADD PUSH2 0x99 SWAP2 SWAP1 PUSH2 0x23E JUMP JUMPDEST PUSH1 0x40 MLOAD DUP1 SWAP2 SUB SWAP1 REVERT JUMPDEST PUSH2 0xB1 DUP2 PUSH2 0xC9 PUSH1 0x20 SHL PUSH1 0x20 SHR JUMP JUMPDEST POP DUP2 PUSH1 0x80 DUP2 DUP2 MSTORE POP POP DUP1 PUSH1 0xA0 DUP2 DUP2 MSTORE POP POP POP POP PUSH2 0x257 JUMP JUMPDEST PUSH0 PUSH0 PUSH0 SWAP1 SLOAD SWAP1 PUSH2 0x100 EXP SWAP1 DIV PUSH20 0xFFFFFFFFFFFFFFFFFFFFFFFFFFFFFFFFFFFFFFFF AND SWAP1 POP DUP2 PUSH0 PUSH0 PUSH2 0x100 EXP DUP2 SLOAD DUP2 PUSH20 0xFFFFFFFFFFFFFFFFFFFFFFFFFFFFFFFFFFFFFFFF MUL NOT AND SWAP1 DUP4 PUSH20 0xFFFFFFFFFFFFFFFFFFFFFFFFFFFFFFFFFFFFFFFF AND MUL OR SWAP1 SSTORE POP DUP2 PUSH20 0xFFFFFFFFFFFFFFFFFFFFFFFFFFFFFFFFFFFFFFFF AND DUP2 PUSH20 0xFFFFFFFFFFFFFFFFFFFFFFFFFFFFFFFFFFFFFFFF AND PUSH32 0x8BE0079C531659141344CD1FD0A4F28419497F9722A3DAAFE3B4186F6B6457E0 PUSH1 0x40 MLOAD PUSH1 0x40 MLOAD DUP1 SWAP2 SUB SWAP1 LOG3 POP POP JUMP JUMPDEST PUSH0 PUSH0 REVERT JUMPDEST PUSH0 DUP2 SWAP1 POP SWAP2 SWAP1 POP JUMP JUMPDEST PUSH2 0x1A0 DUP2 PUSH2 0x18E JUMP JUMPDEST DUP2 EQ PUSH2 0x1AA JUMPI PUSH0 PUSH0 REVERT JUMPDEST POP JUMP JUMPDEST PUSH0 DUP2 MLOAD SWAP1 POP PUSH2 0x1BB DUP2 PUSH2 0x197 JUMP JUMPDEST SWAP3 SWAP2 POP POP JUMP JUMPDEST PUSH0 PUSH0 PUSH1 0x40 DUP4 DUP6 SUB SLT ISZERO PUSH2 0x1D7 JUMPI PUSH2 0x1D6 PUSH2 0x18A JUMP JUMPDEST JUMPDEST PUSH0 PUSH2 0x1E4 DUP6 DUP3 DUP7 ADD PUSH2 0x1AD JUMP JUMPDEST SWAP3 POP POP PUSH1 0x20 PUSH2 0x1F5 DUP6 DUP3 DUP7 ADD PUSH2 0x1AD JUMP JUMPDEST SWAP2 POP POP SWAP3 POP SWAP3 SWAP1 POP JUMP JUMPDEST PUSH0 PUSH20 0xFFFFFFFFFFFFFFFFFFFFFFFFFFFFFFFFFFFFFFFF DUP3 AND SWAP1 POP SWAP2 SWAP1 POP JUMP JUMPDEST PUSH0 PUSH2 0x228 DUP3 PUSH2 0x1FF JUMP JUMPDEST SWAP1 POP SWAP2 SWAP1 POP JUMP JUMPDEST PUSH2 0x238 DUP2 PUSH2 0x21E JUMP JUMPDEST DUP3 MSTORE POP POP JUMP JUMPDEST PUSH0 PUSH1 0x20 DUP3 ADD SWAP1 POP PUSH2 0x251 PUSH0 DUP4 ADD DUP5 PUSH2 0x22F JUMP JUMPDEST SWAP3 SWAP2 POP POP JUMP JUMPDEST PUSH1 0x80 MLOAD PUSH1 0xA0 MLOAD PUSH2 0x1FDB PUSH2 0x2A2 PUSH0 CODECOPY PUSH0 DUP2 DUP2 PUSH2 0x536 ADD MSTORE DUP2 DUP2 PUSH2 0x55F ADD MSTORE PUSH2 0xD24 ADD MSTORE PUSH0 DUP2 DUP2 PUSH2 0x718 ADD MSTORE DUP2 DUP2 PUSH2 0x75B ADD MSTORE DUP2 DUP2 PUSH2 0xD57 ADD MSTORE DUP2 DUP2 PUSH2 0xD9A ADD MSTORE PUSH2 0xEC2 ADD MSTORE PUSH2 0x1FDB PUSH0 RETURN INVALID PUSH1 0x80 PUSH1 0x40 MSTORE PUSH1 0x4 CALLDATASIZE LT PUSH2 0x122 JUMPI PUSH0 CALLDATALOAD PUSH1 0xE0 SHR DUP1 PUSH4 0x8DA5CB5B GT PUSH2 0x9F JUMPI DUP1 PUSH4 0xDCCD58E3 GT PUSH2 0x63 JUMPI DUP1 PUSH4 0xDCCD58E3 EQ PUSH2 0x438 JUMPI DUP1 PUSH4 0xF2FDE38B EQ PUSH2 0x474 JUMPI DUP1 PUSH4 0xF3DB702C EQ PUSH2 0x49C JUMPI DUP1 PUSH4 0xF6687AF7 EQ PUSH2 0x4C6 JUMPI DUP1 PUSH4 0xFE3192F6 EQ PUSH2 0x4F0 JUMPI PUSH2 0x180 JUMP JUMPDEST DUP1 PUSH4 0x8DA5CB5B EQ PUSH2 0x388 JUMPI DUP1 PUSH4 0x9E281A98 EQ PUSH2 0x3B2 JUMPI DUP1 PUSH4 0xA734F06E EQ PUSH2 0x3DA JUMPI DUP1 PUSH4 0xC801FB40 EQ PUSH2 0x404 JUMPI DUP1 PUSH4 0xD0E30DB0 EQ PUSH2 0x42E JUMPI PUSH2 0x180 JUMP JUMPDEST DUP1 PUSH4 0x4A83C3B7 GT PUSH2 0xE6 JUMPI DUP1 PUSH4 0x4A83C3B7 EQ PUSH2 0x2BA JUMPI DUP1 PUSH4 0x52963C2B EQ PUSH2 0x2E4 JUMPI DUP1 PUSH4 0x715018A6 EQ PUSH2 0x30E JUMPI DUP1 PUSH4 0x76E11286 EQ PUSH2 0x324 JUMPI DUP1 PUSH4 0x7E3EF7CD EQ PUSH2 0x34C JUMPI PUSH2 0x180 JUMP JUMPDEST DUP1 PUSH4 0x287CC96B EQ PUSH2 0x1D9 JUMPI DUP1 PUSH4 0x2E1A7D4D EQ PUSH2 0x203 JUMPI DUP1 PUSH4 0x338B5DEA EQ PUSH2 0x22B JUMPI DUP1 PUSH4 0x3B1A4EC4 EQ PUSH2 0x253 JUMPI DUP1 PUSH4 0x432017CA EQ PUSH2 0x27D JUMPI PUSH2 0x180 JUMP JUMPDEST CALLDATASIZE PUSH2 0x180 JUMPI ADDRESS PUSH20 0xFFFFFFFFFFFFFFFFFFFFFFFFFFFFFFFFFFFFFFFF AND PUSH4 0xD0E30DB0 PUSH1 0x40 MLOAD DUP2 PUSH4 0xFFFFFFFF AND PUSH1 0xE0 SHL DUP2 MSTORE PUSH1 0x4 ADD PUSH0 PUSH1 0x40 MLOAD DUP1 DUP4 SUB DUP2 PUSH0 DUP8 DUP1 EXTCODESIZE ISZERO DUP1 ISZERO PUSH2 0x16C JUMPI PUSH0 PUSH0 REVERT JUMPDEST POP GAS CALL ISZERO DUP1 ISZERO PUSH2 0x17E JUMPI RETURNDATASIZE PUSH0 PUSH0 RETURNDATACOPY RETURNDATASIZE PUSH0 REVERT JUMPDEST STOP JUMPDEST ADDRESS PUSH20 0xFFFFFFFFFFFFFFFFFFFFFFFFFFFFFFFFFFFFFFFF AND PUSH4 0xD0E30DB0 PUSH1 0x40 MLOAD DUP2 PUSH4 0xFFFFFFFF AND PUSH1 0xE0 SHL DUP2 MSTORE PUSH1 0x4 ADD PUSH0 PUSH1 0x40 MLOAD DUP1 DUP4 SUB DUP2 PUSH0 DUP8 DUP1 EXTCODESIZE ISZERO DUP1 ISZERO PUSH2 0x1C5 JUMPI PUSH0 PUSH0 REVERT JUMPDEST POP GAS CALL ISZERO DUP1 ISZERO PUSH2 0x1D7 JUMPI RETURNDATASIZE PUSH0 PUSH0 RETURNDATACOPY RETURNDATASIZE PUSH0 REVERT JUMPDEST STOP JUMPDEST CALLVALUE DUP1 ISZERO PUSH2 0x1E4 JUMPI PUSH0 PUSH0 REVERT JUMPDEST POP PUSH2 0x1ED PUSH2 0x52C JUMP JUMPDEST PUSH1 0x40 MLOAD PUSH2 0x1FA SWAP2 SWAP1 PUSH2 0x189A JUMP JUMPDEST PUSH1 0x40 MLOAD DUP1 SWAP2 SUB SWAP1 RETURN JUMPDEST CALLVALUE DUP1 ISZERO PUSH2 0x20E JUMPI PUSH0 PUSH0 REVERT JUMPDEST POP PUSH2 0x229 PUSH1 0x4 DUP1 CALLDATASIZE SUB DUP2 ADD SWAP1 PUSH2 0x224 SWAP2 SWAP1 PUSH2 0x18E1 JUMP JUMPDEST PUSH2 0x533 JUMP JUMPDEST STOP JUMPDEST CALLVALUE DUP1 ISZERO PUSH2 0x236 JUMPI PUSH0 PUSH0 REVERT JUMPDEST POP PUSH2 0x251 PUSH1 0x4 DUP1 CALLDATASIZE SUB DUP2 ADD SWAP1 PUSH2 0x24C SWAP2 SWAP1 PUSH2 0x1966 JUMP JUMPDEST PUSH2 0x707 JUMP JUMPDEST STOP JUMPDEST CALLVALUE DUP1 ISZERO PUSH2 0x25E JUMPI PUSH0 PUSH0 REVERT JUMPDEST POP PUSH2 0x267 PUSH2 0x85B JUMP JUMPDEST PUSH1 0x40 MLOAD PUSH2 0x274 SWAP2 SWAP1 PUSH2 0x189A JUMP JUMPDEST PUSH1 0x40 MLOAD DUP1 SWAP2 SUB SWAP1 RETURN JUMPDEST CALLVALUE DUP1 ISZERO PUSH2 0x288 JUMPI PUSH0 PUSH0 REVERT JUMPDEST POP PUSH2 0x2A3 PUSH1 0x4 DUP1 CALLDATASIZE SUB DUP2 ADD SWAP1 PUSH2 0x29E SWAP2 SWAP1 PUSH2 0x19A4 JUMP JUMPDEST PUSH2 0x861 JUMP JUMPDEST PUSH1 0x40 MLOAD PUSH2 0x2B1 SWAP3 SWAP2 SWAP1 PUSH2 0x19F9 JUMP JUMPDEST PUSH1 0x40 MLOAD DUP1 SWAP2 SUB SWAP1 RETURN JUMPDEST CALLVALUE DUP1 ISZERO PUSH2 0x2C5 JUMPI PUSH0 PUSH0 REVERT JUMPDEST POP PUSH2 0x2CE PUSH2 0x8AC JUMP JUMPDEST PUSH1 0x40 MLOAD PUSH2 0x2DB SWAP2 SWAP1 PUSH2 0x189A JUMP JUMPDEST PUSH1 0x40 MLOAD DUP1 SWAP2 SUB SWAP1 RETURN JUMPDEST CALLVALUE DUP1 ISZERO PUSH2 0x2EF JUMPI PUSH0 PUSH0 REVERT JUMPDEST POP PUSH2 0x2F8 PUSH2 0x8B2 JUMP JUMPDEST PUSH1 0x40 MLOAD PUSH2 0x305 SWAP2 SWAP1 PUSH2 0x1A3E JUMP JUMPDEST PUSH1 0x40 MLOAD DUP1 SWAP2 SUB SWAP1 RETURN JUMPDEST CALLVALUE DUP1 ISZERO PUSH2 0x319 JUMPI PUSH0 PUSH0 REVERT JUMPDEST POP PUSH2 0x322 PUSH2 0x8C7 JUMP JUMPDEST STOP JUMPDEST CALLVALUE DUP1 ISZERO PUSH2 0x32F JUMPI PUSH0 PUSH0 REVERT JUMPDEST POP PUSH2 0x34A PUSH1 0x4 DUP1 CALLDATASIZE SUB DUP2 ADD SWAP1 PUSH2 0x345 SWAP2 SWAP1 PUSH2 0x1A57 JUMP JUMPDEST PUSH2 0x8DA JUMP JUMPDEST STOP JUMPDEST CALLVALUE DUP1 ISZERO PUSH2 0x357 JUMPI PUSH0 PUSH0 REVERT JUMPDEST POP PUSH2 0x372 PUSH1 0x4 DUP1 CALLDATASIZE SUB DUP2 ADD SWAP1 PUSH2 0x36D SWAP2 SWAP1 PUSH2 0x19A4 JUMP JUMPDEST PUSH2 0xAC5 JUMP JUMPDEST PUSH1 0x40 MLOAD PUSH2 0x37F SWAP2 SWAP1 PUSH2 0x189A JUMP JUMPDEST PUSH1 0x40 MLOAD DUP1 SWAP2 SUB SWAP1 RETURN JUMPDEST CALLVALUE DUP1 ISZERO PUSH2 0x393 JUMPI PUSH0 PUSH0 REVERT JUMPDEST POP PUSH2 0x39C PUSH2 0xB46 JUMP JUMPDEST PUSH1 0x40 MLOAD PUSH2 0x3A9 SWAP2 SWAP1 PUSH2 0x1A95 JUMP JUMPDEST PUSH1 0x40 MLOAD DUP1 SWAP2 SUB SWAP1 RETURN JUMPDEST CALLVALUE DUP1 ISZERO PUSH2 0x3BD JUMPI PUSH0 PUSH0 REVERT JUMPDEST POP PUSH2 0x3D8 PUSH1 0x4 DUP1 CALLDATASIZE SUB DUP2 ADD SWAP1 PUSH2 0x3D3 SWAP2 SWAP1 PUSH2 0x1966 JUMP JUMPDEST PUSH2 0xB6D JUMP JUMPDEST STOP JUMPDEST CALLVALUE DUP1 ISZERO PUSH2 0x3E5 JUMPI PUSH0 PUSH0 REVERT JUMPDEST POP PUSH2 0x3EE PUSH2 0xD1E JUMP JUMPDEST PUSH1 0x40 MLOAD PUSH2 0x3FB SWAP2 SWAP1 PUSH2 0x1A95 JUMP JUMPDEST PUSH1 0x40 MLOAD DUP1 SWAP2 SUB SWAP1 RETURN JUMPDEST CALLVALUE DUP1 ISZERO PUSH2 0x40F JUMPI PUSH0 PUSH0 REVERT JUMPDEST POP PUSH2 0x418 PUSH2 0xD22 JUMP JUMPDEST PUSH1 0x40 MLOAD PUSH2 0x425 SWAP2 SWAP1 PUSH2 0x189A JUMP JUMPDEST PUSH1 0x40 MLOAD DUP1 SWAP2 SUB SWAP1 RETURN JUMPDEST PUSH2 0x436 PUSH2 0xD46 JUMP JUMPDEST STOP JUMPDEST CALLVALUE DUP1 ISZERO PUSH2 0x443 JUMPI PUSH0 PUSH0 REVERT JUMPDEST POP PUSH2 0x45E PUSH1 0x4 DUP1 CALLDATASIZE SUB DUP2 ADD SWAP1 PUSH2 0x459 SWAP2 SWAP1 PUSH2 0x1A57 JUMP JUMPDEST PUSH2 0xE06 JUMP JUMPDEST PUSH1 0x40 MLOAD PUSH2 0x46B SWAP2 SWAP1 PUSH2 0x189A JUMP JUMPDEST PUSH1 0x40 MLOAD DUP1 SWAP2 SUB SWAP1 RETURN JUMPDEST CALLVALUE DUP1 ISZERO PUSH2 0x47F JUMPI PUSH0 PUSH0 REVERT JUMPDEST POP PUSH2 0x49A PUSH1 0x4 DUP1 CALLDATASIZE SUB DUP2 ADD SWAP1 PUSH2 0x495 SWAP2 SWAP1 PUSH2 0x19A4 JUMP JUMPDEST PUSH2 0xE26 JUMP JUMPDEST STOP JUMPDEST CALLVALUE DUP1 ISZERO PUSH2 0x4A7 JUMPI PUSH0 PUSH0 REVERT JUMPDEST POP PUSH2 0x4B0 PUSH2 0xEAA JUMP JUMPDEST PUSH1 0x40 MLOAD PUSH2 0x4BD SWAP2 SWAP1 PUSH2 0x1A3E JUMP JUMPDEST PUSH1 0x40 MLOAD DUP1 SWAP2 SUB SWAP1 RETURN JUMPDEST CALLVALUE DUP1 ISZERO PUSH2 0x4D1 JUMPI PUSH0 PUSH0 REVERT JUMPDEST POP PUSH2 0x4DA PUSH2 0xEC0 JUMP JUMPDEST PUSH1 0x40 MLOAD PUSH2 0x4E7 SWAP2 SWAP1 PUSH2 0x189A JUMP JUMPDEST PUSH1 0x40 MLOAD DUP1 SWAP2 SUB SWAP1 RETURN JUMPDEST CALLVALUE DUP1 ISZERO PUSH2 0x4FB JUMPI PUSH0 PUSH0 REVERT JUMPDEST POP PUSH2 0x516 PUSH1 0x4 DUP1 CALLDATASIZE SUB DUP2 ADD SWAP1 PUSH2 0x511 SWAP2 SWAP1 PUSH2 0x1966 JUMP JUMPDEST PUSH2 0xEE4 JUMP JUMPDEST PUSH1 0x40 MLOAD PUSH2 0x523 SWAP2 SWAP1 PUSH2 0x189A JUMP JUMPDEST PUSH1 0x40 MLOAD DUP1 SWAP2 SUB SWAP1 RETURN JUMPDEST PUSH0 SELFBALANCE SWAP1 POP SWAP1 JUMP JUMPDEST DUP1 PUSH32 0x0 DUP2 GT ISZERO PUSH2 0x5BB JUMPI DUP1 PUSH32 0x0 PUSH1 0x40 MLOAD PUSH32 0x6310199600000000000000000000000000000000000000000000000000000000 DUP2 MSTORE PUSH1 0x4 ADD PUSH2 0x5B2 SWAP3 SWAP2 SWAP1 PUSH2 0x1AAE JUMP JUMPDEST PUSH1 0x40 MLOAD DUP1 SWAP2 SUB SWAP1 REVERT JUMPDEST PUSH0 DUP3 PUSH1 0x3 PUSH0 DUP4 PUSH20 0xFFFFFFFFFFFFFFFFFFFFFFFFFFFFFFFFFFFFFFFF AND PUSH20 0xFFFFFFFFFFFFFFFFFFFFFFFFFFFFFFFFFFFFFFFF AND DUP2 MSTORE PUSH1 0x20 ADD SWAP1 DUP2 MSTORE PUSH1 0x20 ADD PUSH0 KECCAK256 PUSH0 CALLER PUSH20 0xFFFFFFFFFFFFFFFFFFFFFFFFFFFFFFFFFFFFFFFF AND PUSH20 0xFFFFFFFFFFFFFFFFFFFFFFFFFFFFFFFFFFFFFFFF AND DUP2 MSTORE PUSH1 0x20 ADD SWAP1 DUP2 MSTORE PUSH1 0x20 ADD PUSH0 KECCAK256 SLOAD DUP2 GT ISZERO PUSH2 0x6F6 JUMPI DUP2 DUP2 PUSH1 0x3 PUSH0 DUP6 PUSH20 0xFFFFFFFFFFFFFFFFFFFFFFFFFFFFFFFFFFFFFFFF AND PUSH20 0xFFFFFFFFFFFFFFFFFFFFFFFFFFFFFFFFFFFFFFFF AND DUP2 MSTORE PUSH1 0x20 ADD SWAP1 DUP2 MSTORE PUSH1 0x20 ADD PUSH0 KECCAK256 PUSH0 CALLER PUSH20 0xFFFFFFFFFFFFFFFFFFFFFFFFFFFFFFFFFFFFFFFF AND PUSH20 0xFFFFFFFFFFFFFFFFFFFFFFFFFFFFFFFFFFFFFFFF AND DUP2 MSTORE PUSH1 0x20 ADD SWAP1 DUP2 MSTORE PUSH1 0x20 ADD PUSH0 KECCAK256 SLOAD PUSH1 0x40 MLOAD PUSH32 0x5FEDAB0900000000000000000000000000000000000000000000000000000000 DUP2 MSTORE PUSH1 0x4 ADD PUSH2 0x6ED SWAP4 SWAP3 SWAP2 SWAP1 PUSH2 0x1AD5 JUMP JUMPDEST PUSH1 0x40 MLOAD DUP1 SWAP2 SUB SWAP1 REVERT JUMPDEST PUSH2 0x701 PUSH0 CALLER DUP7 PUSH2 0x1146 JUMP JUMPDEST POP POP POP POP JUMP JUMPDEST DUP2 DUP2 PUSH0 PUSH2 0x714 DUP4 DUP4 PUSH2 0xEE4 JUMP JUMPDEST SWAP1 POP PUSH32 0x0 DUP2 PUSH1 0x1 SLOAD PUSH2 0x745 SWAP2 SWAP1 PUSH2 0x1B37 JUMP JUMPDEST GT ISZERO PUSH2 0x7B7 JUMPI DUP1 PUSH1 0x1 SLOAD PUSH2 0x759 SWAP2 SWAP1 PUSH2 0x1B37 JUMP JUMPDEST PUSH32 0x0 PUSH1 0x40 MLOAD PUSH32 0xF6167F4E00000000000000000000000000000000000000000000000000000000 DUP2 MSTORE PUSH1 0x4 ADD PUSH2 0x7AE SWAP3 SWAP2 SWAP1 PUSH2 0x1AAE JUMP JUMPDEST PUSH1 0x40 MLOAD DUP1 SWAP2 SUB SWAP1 REVERT JUMPDEST PUSH0 PUSH20 0xFFFFFFFFFFFFFFFFFFFFFFFFFFFFFFFFFFFFFFFF AND DUP6 PUSH20 0xFFFFFFFFFFFFFFFFFFFFFFFFFFFFFFFFFFFFFFFF AND SUB PUSH2 0x81C JUMPI PUSH1 0x40 MLOAD PUSH32 0x7CB522E900000000000000000000000000000000000000000000000000000000 DUP2 MSTORE PUSH1 0x4 ADD PUSH1 0x40 MLOAD DUP1 SWAP2 SUB SWAP1 REVERT JUMPDEST PUSH2 0x849 CALLER ADDRESS DUP7 DUP9 PUSH20 0xFFFFFFFFFFFFFFFFFFFFFFFFFFFFFFFFFFFFFFFF AND PUSH2 0x1316 SWAP1 SWAP4 SWAP3 SWAP2 SWAP1 PUSH4 0xFFFFFFFF AND JUMP JUMPDEST PUSH2 0x854 DUP6 CALLER DUP7 PUSH2 0x136B JUMP JUMPDEST POP POP POP POP POP JUMP JUMPDEST PUSH1 0x1 SLOAD DUP2 JUMP JUMPDEST PUSH1 0x4 PUSH1 0x20 MSTORE DUP1 PUSH0 MSTORE PUSH1 0x40 PUSH0 KECCAK256 PUSH0 SWAP2 POP SWAP1 POP DUP1 PUSH0 ADD PUSH0 SWAP1 SLOAD SWAP1 PUSH2 0x100 EXP SWAP1 DIV PUSH20 0xFFFFFFFFFFFFFFFFFFFFFFFFFFFFFFFFFFFFFFFF AND SWAP1 DUP1 PUSH0 ADD PUSH1 0x14 SWAP1 SLOAD SWAP1 PUSH2 0x100 EXP SWAP1 DIV PUSH1 0xFF AND SWAP1 POP DUP3 JUMP JUMPDEST PUSH2 0xE10 DUP2 JUMP JUMPDEST PUSH1 0x2 PUSH0 SWAP1 SLOAD SWAP1 PUSH2 0x100 EXP SWAP1 DIV PUSH4 0xFFFFFFFF AND DUP2 JUMP JUMPDEST PUSH2 0x8CF PUSH2 0x14CE JUMP JUMPDEST PUSH2 0x8D8 PUSH0 PUSH2 0x1555 JUMP JUMPDEST JUMP JUMPDEST PUSH2 0x8E2 PUSH2 0x14CE JUMP JUMPDEST PUSH0 PUSH0 PUSH20 0xFFFFFFFFFFFFFFFFFFFFFFFFFFFFFFFFFFFFFFFF AND DUP4 PUSH20 0xFFFFFFFFFFFFFFFFFFFFFFFFFFFFFFFFFFFFFFFF AND SUB PUSH2 0x91F JUMPI PUSH1 0x12 SWAP1 POP PUSH2 0x98F JUMP JUMPDEST DUP3 PUSH20 0xFFFFFFFFFFFFFFFFFFFFFFFFFFFFFFFFFFFFFFFF AND PUSH4 0x313CE567 PUSH1 0x40 MLOAD DUP2 PUSH4 0xFFFFFFFF AND PUSH1 0xE0 SHL DUP2 MSTORE PUSH1 0x4 ADD PUSH1 0x20 PUSH1 0x40 MLOAD DUP1 DUP4 SUB DUP2 DUP7 GAS STATICCALL ISZERO DUP1 ISZERO PUSH2 0x968 JUMPI RETURNDATASIZE PUSH0 PUSH0 RETURNDATACOPY RETURNDATASIZE PUSH0 REVERT JUMPDEST POP POP POP POP PUSH1 0x40 MLOAD RETURNDATASIZE PUSH1 0x1F NOT PUSH1 0x1F DUP3 ADD AND DUP3 ADD DUP1 PUSH1 0x40 MSTORE POP DUP2 ADD SWAP1 PUSH2 0x98C SWAP2 SWAP1 PUSH2 0x1B94 JUMP JUMPDEST SWAP1 POP JUMPDEST PUSH0 PUSH1 0x40 MLOAD DUP1 PUSH1 0x40 ADD PUSH1 0x40 MSTORE DUP1 DUP5 PUSH20 0xFFFFFFFFFFFFFFFFFFFFFFFFFFFFFFFFFFFFFFFF AND DUP2 MSTORE PUSH1 0x20 ADD DUP4 PUSH1 0xFF AND DUP2 MSTORE POP SWAP1 POP DUP1 PUSH1 0x4 PUSH0 DUP7 PUSH20 0xFFFFFFFFFFFFFFFFFFFFFFFFFFFFFFFFFFFFFFFF AND PUSH20 0xFFFFFFFFFFFFFFFFFFFFFFFFFFFFFFFFFFFFFFFF AND DUP2 MSTORE PUSH1 0x20 ADD SWAP1 DUP2 MSTORE PUSH1 0x20 ADD PUSH0 KECCAK256 PUSH0 DUP3 ADD MLOAD DUP2 PUSH0 ADD PUSH0 PUSH2 0x100 EXP DUP2 SLOAD DUP2 PUSH20 0xFFFFFFFFFFFFFFFFFFFFFFFFFFFFFFFFFFFFFFFF MUL NOT AND SWAP1 DUP4 PUSH20 0xFFFFFFFFFFFFFFFFFFFFFFFFFFFFFFFFFFFFFFFF AND MUL OR SWAP1 SSTORE POP PUSH1 0x20 DUP3 ADD MLOAD DUP2 PUSH0 ADD PUSH1 0x14 PUSH2 0x100 EXP DUP2 SLOAD DUP2 PUSH1 0xFF MUL NOT AND SWAP1 DUP4 PUSH1 0xFF AND MUL OR SWAP1 SSTORE POP SWAP1 POP POP DUP3 PUSH20 0xFFFFFFFFFFFFFFFFFFFFFFFFFFFFFFFFFFFFFFFF AND DUP5 PUSH20 0xFFFFFFFFFFFFFFFFFFFFFFFFFFFFFFFFFFFFFFFF AND PUSH32 0xA8ABE0398416476DB5B05737CD4DA3B3CBDE5012D978A6A6C3FD49D321753536 PUSH1 0x40 MLOAD PUSH1 0x40 MLOAD DUP1 SWAP2 SUB SWAP1 LOG3 POP POP POP POP JUMP JUMPDEST PUSH0 PUSH1 0x3 PUSH0 DUP4 PUSH20 0xFFFFFFFFFFFFFFFFFFFFFFFFFFFFFFFFFFFFFFFF AND PUSH20 0xFFFFFFFFFFFFFFFFFFFFFFFFFFFFFFFFFFFFFFFF AND DUP2 MSTORE PUSH1 0x20 ADD SWAP1 DUP2 MSTORE PUSH1 0x20 ADD PUSH0 KECCAK256 PUSH0 CALLER PUSH20 0xFFFFFFFFFFFFFFFFFFFFFFFFFFFFFFFFFFFFFFFF AND PUSH20 0xFFFFFFFFFFFFFFFFFFFFFFFFFFFFFFFFFFFFFFFF AND DUP2 MSTORE PUSH1 0x20 ADD SWAP1 DUP2 MSTORE PUSH1 0x20 ADD PUSH0 KECCAK256 SLOAD SWAP1 POP SWAP2 SWAP1 POP JUMP JUMPDEST PUSH0 PUSH0 PUSH0 SWAP1 SLOAD SWAP1 PUSH2 0x100 EXP SWAP1 DIV PUSH20 0xFFFFFFFFFFFFFFFFFFFFFFFFFFFFFFFFFFFFFFFF AND SWAP1 POP SWAP1 JUMP JUMPDEST DUP2 DUP2 PUSH1 0x3 PUSH0 DUP4 PUSH20 0xFFFFFFFFFFFFFFFFFFFFFFFFFFFFFFFFFFFFFFFF AND PUSH20 0xFFFFFFFFFFFFFFFFFFFFFFFFFFFFFFFFFFFFFFFF AND DUP2 MSTORE PUSH1 0x20 ADD SWAP1 DUP2 MSTORE PUSH1 0x20 ADD PUSH0 KECCAK256 PUSH0 CALLER PUSH20 0xFFFFFFFFFFFFFFFFFFFFFFFFFFFFFFFFFFFFFFFF AND PUSH20 0xFFFFFFFFFFFFFFFFFFFFFFFFFFFFFFFFFFFFFFFF AND DUP2 MSTORE PUSH1 0x20 ADD SWAP1 DUP2 MSTORE PUSH1 0x20 ADD PUSH0 KECCAK256 SLOAD DUP2 GT ISZERO PUSH2 0xCA8 JUMPI DUP2 DUP2 PUSH1 0x3 PUSH0 DUP6 PUSH20 0xFFFFFFFFFFFFFFFFFFFFFFFFFFFFFFFFFFFFFFFF AND PUSH20 0xFFFFFFFFFFFFFFFFFFFFFFFFFFFFFFFFFFFFFFFF AND DUP2 MSTORE PUSH1 0x20 ADD SWAP1 DUP2 MSTORE PUSH1 0x20 ADD PUSH0 KECCAK256 PUSH0 CALLER PUSH20 0xFFFFFFFFFFFFFFFFFFFFFFFFFFFFFFFFFFFFFFFF AND PUSH20 0xFFFFFFFFFFFFFFFFFFFFFFFFFFFFFFFFFFFFFFFF AND DUP2 MSTORE PUSH1 0x20 ADD SWAP1 DUP2 MSTORE PUSH1 0x20 ADD PUSH0 KECCAK256 SLOAD PUSH1 0x40 MLOAD PUSH32 0x5FEDAB0900000000000000000000000000000000000000000000000000000000 DUP2 MSTORE PUSH1 0x4 ADD PUSH2 0xC9F SWAP4 SWAP3 SWAP2 SWAP1 PUSH2 0x1AD5 JUMP JUMPDEST PUSH1 0x40 MLOAD DUP1 SWAP2 SUB SWAP1 REVERT JUMPDEST PUSH0 PUSH20 0xFFFFFFFFFFFFFFFFFFFFFFFFFFFFFFFFFFFFFFFF AND DUP5 PUSH20 0xFFFFFFFFFFFFFFFFFFFFFFFFFFFFFFFFFFFFFFFF AND SUB PUSH2 0xD0D JUMPI PUSH1 0x40 MLOAD PUSH32 0x7CB522E900000000000000000000000000000000000000000000000000000000 DUP2 MSTORE PUSH1 0x4 ADD PUSH1 0x40 MLOAD DUP1 SWAP2 SUB SWAP1 REVERT JUMPDEST PUSH2 0xD18 DUP5 CALLER DUP6 PUSH2 0x1146 JUMP JUMPDEST POP POP POP POP JUMP JUMPDEST PUSH0 DUP2 JUMP JUMPDEST PUSH32 0x0 DUP2 JUMP JUMPDEST PUSH0 CALLVALUE PUSH0 PUSH2 0xD53 DUP4 DUP4 PUSH2 0xEE4 JUMP JUMPDEST SWAP1 POP PUSH32 0x0 DUP2 PUSH1 0x1 SLOAD PUSH2 0xD84 SWAP2 SWAP1 PUSH2 0x1B37 JUMP JUMPDEST GT ISZERO PUSH2 0xDF6 JUMPI DUP1 PUSH1 0x1 SLOAD PUSH2 0xD98 SWAP2 SWAP1 PUSH2 0x1B37 JUMP JUMPDEST PUSH32 0x0 PUSH1 0x40 MLOAD PUSH32 0xF6167F4E00000000000000000000000000000000000000000000000000000000 DUP2 MSTORE PUSH1 0x4 ADD PUSH2 0xDED SWAP3 SWAP2 SWAP1 PUSH2 0x1AAE JUMP JUMPDEST PUSH1 0x40 MLOAD DUP1 SWAP2 SUB SWAP1 REVERT JUMPDEST PUSH2 0xE01 PUSH0 CALLER CALLVALUE PUSH2 0x136B JUMP JUMPDEST POP POP POP JUMP JUMPDEST PUSH1 0x3 PUSH1 0x20 MSTORE DUP2 PUSH0 MSTORE PUSH1 0x40 PUSH0 KECCAK256 PUSH1 0x20 MSTORE DUP1 PUSH0 MSTORE PUSH1 0x40 PUSH0 KECCAK256 PUSH0 SWAP2 POP SWAP2 POP POP SLOAD DUP2 JUMP JUMPDEST PUSH2 0xE2E PUSH2 0x14CE JUMP JUMPDEST PUSH0 PUSH20 0xFFFFFFFFFFFFFFFFFFFFFFFFFFFFFFFFFFFFFFFF AND DUP2 PUSH20 0xFFFFFFFFFFFFFFFFFFFFFFFFFFFFFFFFFFFFFFFF AND SUB PUSH2 0xE9E JUMPI PUSH0 PUSH1 0x40 MLOAD PUSH32 0x1E4FBDF700000000000000000000000000000000000000000000000000000000 DUP2 MSTORE PUSH1 0x4 ADD PUSH2 0xE95 SWAP2 SWAP1 PUSH2 0x1A95 JUMP JUMPDEST PUSH1 0x40 MLOAD DUP1 SWAP2 SUB SWAP1 REVERT JUMPDEST PUSH2 0xEA7 DUP2 PUSH2 0x1555 JUMP JUMPDEST POP JUMP JUMPDEST PUSH1 0x2 PUSH1 0x4 SWAP1 SLOAD SWAP1 PUSH2 0x100 EXP SWAP1 DIV PUSH4 0xFFFFFFFF AND DUP2 JUMP JUMPDEST PUSH32 0x0 DUP2 JUMP JUMPDEST PUSH0 PUSH0 PUSH1 0x4 PUSH0 DUP6 PUSH20 0xFFFFFFFFFFFFFFFFFFFFFFFFFFFFFFFFFFFFFFFF AND PUSH20 0xFFFFFFFFFFFFFFFFFFFFFFFFFFFFFFFFFFFFFFFF AND DUP2 MSTORE PUSH1 0x20 ADD SWAP1 DUP2 MSTORE PUSH1 0x20 ADD PUSH0 KECCAK256 PUSH1 0x40 MLOAD DUP1 PUSH1 0x40 ADD PUSH1 0x40 MSTORE SWAP1 DUP2 PUSH0 DUP3 ADD PUSH0 SWAP1 SLOAD SWAP1 PUSH2 0x100 EXP SWAP1 DIV PUSH20 0xFFFFFFFFFFFFFFFFFFFFFFFFFFFFFFFFFFFFFFFF AND PUSH20 0xFFFFFFFFFFFFFFFFFFFFFFFFFFFFFFFFFFFFFFFF AND PUSH20 0xFFFFFFFFFFFFFFFFFFFFFFFFFFFFFFFFFFFFFFFF AND DUP2 MSTORE PUSH1 0x20 ADD PUSH0 DUP3 ADD PUSH1 0x14 SWAP1 SLOAD SWAP1 PUSH2 0x100 EXP SWAP1 DIV PUSH1 0xFF AND PUSH1 0xFF AND PUSH1 0xFF AND DUP2 MSTORE POP POP SWAP1 POP PUSH0 PUSH20 0xFFFFFFFFFFFFFFFFFFFFFFFFFFFFFFFFFFFFFFFF AND DUP2 PUSH0 ADD MLOAD PUSH20 0xFFFFFFFFFFFFFFFFFFFFFFFFFFFFFFFFFFFFFFFF AND SUB PUSH2 0x1013 JUMPI DUP4 PUSH1 0x40 MLOAD PUSH32 0xC25BEC5600000000000000000000000000000000000000000000000000000000 DUP2 MSTORE PUSH1 0x4 ADD PUSH2 0x100A SWAP2 SWAP1 PUSH2 0x1A95 JUMP JUMPDEST PUSH1 0x40 MLOAD DUP1 SWAP2 SUB SWAP1 REVERT JUMPDEST PUSH0 DUP2 PUSH0 ADD MLOAD SWAP1 POP PUSH0 PUSH0 DUP3 PUSH20 0xFFFFFFFFFFFFFFFFFFFFFFFFFFFFFFFFFFFFFFFF AND PUSH4 0xFEAF968C PUSH1 0x40 MLOAD DUP2 PUSH4 0xFFFFFFFF AND PUSH1 0xE0 SHL DUP2 MSTORE PUSH1 0x4 ADD PUSH1 0xA0 PUSH1 0x40 MLOAD DUP1 DUP4 SUB DUP2 DUP7 GAS STATICCALL ISZERO DUP1 ISZERO PUSH2 0x1065 JUMPI RETURNDATASIZE PUSH0 PUSH0 RETURNDATACOPY RETURNDATASIZE PUSH0 REVERT JUMPDEST POP POP POP POP PUSH1 0x40 MLOAD RETURNDATASIZE PUSH1 0x1F NOT PUSH1 0x1F DUP3 ADD AND DUP3 ADD DUP1 PUSH1 0x40 MSTORE POP DUP2 ADD SWAP1 PUSH2 0x1089 SWAP2 SWAP1 PUSH2 0x1C45 JUMP JUMPDEST POP SWAP4 POP POP SWAP3 POP POP PUSH0 DUP3 SGT PUSH2 0x10C9 JUMPI PUSH1 0x40 MLOAD PUSH32 0x780CFA4700000000000000000000000000000000000000000000000000000000 DUP2 MSTORE PUSH1 0x4 ADD PUSH1 0x40 MLOAD DUP1 SWAP2 SUB SWAP1 REVERT JUMPDEST PUSH2 0xE10 DUP2 TIMESTAMP PUSH2 0x10D8 SWAP2 SWAP1 PUSH2 0x1CBC JUMP JUMPDEST GT ISZERO PUSH2 0x1110 JUMPI PUSH1 0x40 MLOAD PUSH32 0x71A821DF00000000000000000000000000000000000000000000000000000000 DUP2 MSTORE PUSH1 0x4 ADD PUSH1 0x40 MLOAD DUP1 SWAP2 SUB SWAP1 REVERT JUMPDEST DUP4 PUSH1 0x20 ADD MLOAD PUSH1 0xFF AND PUSH1 0xA PUSH2 0x1124 SWAP2 SWAP1 PUSH2 0x1E1E JUMP JUMPDEST DUP3 DUP8 PUSH2 0x1130 SWAP2 SWAP1 PUSH2 0x1E68 JUMP JUMPDEST PUSH2 0x113A SWAP2 SWAP1 PUSH2 0x1ED6 JUMP JUMPDEST SWAP5 POP POP POP POP POP SWAP3 SWAP2 POP POP JUMP JUMPDEST DUP1 PUSH0 DUP2 SUB PUSH2 0x1180 JUMPI PUSH1 0x40 MLOAD PUSH32 0xFA4E609E00000000000000000000000000000000000000000000000000000000 DUP2 MSTORE PUSH1 0x4 ADD PUSH1 0x40 MLOAD DUP1 SWAP2 SUB SWAP1 REVERT JUMPDEST DUP2 PUSH1 0x3 PUSH0 DUP7 PUSH20 0xFFFFFFFFFFFFFFFFFFFFFFFFFFFFFFFFFFFFFFFF AND PUSH20 0xFFFFFFFFFFFFFFFFFFFFFFFFFFFFFFFFFFFFFFFF AND DUP2 MSTORE PUSH1 0x20 ADD SWAP1 DUP2 MSTORE PUSH1 0x20 ADD PUSH0 KECCAK256 PUSH0 DUP6 PUSH20 0xFFFFFFFFFFFFFFFFFFFFFFFFFFFFFFFFFFFFFFFF AND PUSH20 0xFFFFFFFFFFFFFFFFFFFFFFFFFFFFFFFFFFFFFFFF AND DUP2 MSTORE PUSH1 0x20 ADD SWAP1 DUP2 MSTORE PUSH1 0x20 ADD PUSH0 KECCAK256 PUSH0 DUP3 DUP3 SLOAD PUSH2 0x1207 SWAP2 SWAP1 PUSH2 0x1CBC JUMP JUMPDEST SWAP3 POP POP DUP2 SWAP1 SSTORE POP PUSH2 0x1217 PUSH0 PUSH2 0x1616 JUMP JUMPDEST PUSH0 PUSH2 0x1222 DUP6 DUP5 PUSH2 0xEE4 JUMP JUMPDEST SWAP1 POP DUP1 PUSH1 0x1 PUSH0 DUP3 DUP3 SLOAD PUSH2 0x1235 SWAP2 SWAP1 PUSH2 0x1CBC JUMP JUMPDEST SWAP3 POP POP DUP2 SWAP1 SSTORE POP PUSH0 PUSH20 0xFFFFFFFFFFFFFFFFFFFFFFFFFFFFFFFFFFFFFFFF AND DUP6 PUSH20 0xFFFFFFFFFFFFFFFFFFFFFFFFFFFFFFFFFFFFFFFF AND SUB PUSH2 0x127E JUMPI PUSH2 0x1279 DUP5 DUP5 PUSH2 0x16A4 JUMP JUMPDEST PUSH2 0x12AA JUMP JUMPDEST PUSH2 0x12A9 DUP5 DUP5 DUP8 PUSH20 0xFFFFFFFFFFFFFFFFFFFFFFFFFFFFFFFFFFFFFFFF AND PUSH2 0x1755 SWAP1 SWAP3 SWAP2 SWAP1 PUSH4 0xFFFFFFFF AND JUMP JUMPDEST JUMPDEST DUP4 PUSH20 0xFFFFFFFFFFFFFFFFFFFFFFFFFFFFFFFFFFFFFFFF AND DUP6 PUSH20 0xFFFFFFFFFFFFFFFFFFFFFFFFFFFFFFFFFFFFFFFF AND PUSH32 0xD1C19FBCD4551A5EDFB66D43D2E337C04837AFDA3482B42BDF569A8FCCDAE5FB DUP6 PUSH1 0x40 MLOAD PUSH2 0x1307 SWAP2 SWAP1 PUSH2 0x189A JUMP JUMPDEST PUSH1 0x40 MLOAD DUP1 SWAP2 SUB SWAP1 LOG3 POP POP POP POP POP JUMP JUMPDEST PUSH2 0x1324 DUP5 DUP5 DUP5 DUP5 PUSH1 0x1 PUSH2 0x17A8 JUMP JUMPDEST PUSH2 0x1365 JUMPI DUP4 PUSH1 0x40 MLOAD PUSH32 0x5274AFE700000000000000000000000000000000000000000000000000000000 DUP2 MSTORE PUSH1 0x4 ADD PUSH2 0x135C SWAP2 SWAP1 PUSH2 0x1A95 JUMP JUMPDEST PUSH1 0x40 MLOAD DUP1 SWAP2 SUB SWAP1 REVERT JUMPDEST POP POP POP POP JUMP JUMPDEST DUP1 PUSH0 DUP2 SUB PUSH2 0x13A5 JUMPI PUSH1 0x40 MLOAD PUSH32 0xFA4E609E00000000000000000000000000000000000000000000000000000000 DUP2 MSTORE PUSH1 0x4 ADD PUSH1 0x40 MLOAD DUP1 SWAP2 SUB SWAP1 REVERT JUMPDEST DUP2 PUSH1 0x3 PUSH0 DUP7 PUSH20 0xFFFFFFFFFFFFFFFFFFFFFFFFFFFFFFFFFFFFFFFF AND PUSH20 0xFFFFFFFFFFFFFFFFFFFFFFFFFFFFFFFFFFFFFFFF AND DUP2 MSTORE PUSH1 0x20 ADD SWAP1 DUP2 MSTORE PUSH1 0x20 ADD PUSH0 KECCAK256 PUSH0 DUP6 PUSH20 0xFFFFFFFFFFFFFFFFFFFFFFFFFFFFFFFFFFFFFFFF AND PUSH20 0xFFFFFFFFFFFFFFFFFFFFFFFFFFFFFFFFFFFFFFFF AND DUP2 MSTORE PUSH1 0x20 ADD SWAP1 DUP2 MSTORE PUSH1 0x20 ADD PUSH0 KECCAK256 PUSH0 DUP3 DUP3 SLOAD PUSH2 0x142C SWAP2 SWAP1 PUSH2 0x1B37 JUMP JUMPDEST SWAP3 POP POP DUP2 SWAP1 SSTORE POP PUSH2 0x143D PUSH1 0x1 PUSH2 0x1616 JUMP JUMPDEST PUSH0 PUSH2 0x1448 DUP6 DUP5 PUSH2 0xEE4 JUMP JUMPDEST SWAP1 POP DUP1 PUSH1 0x1 PUSH0 DUP3 DUP3 SLOAD PUSH2 0x145B SWAP2 SWAP1 PUSH2 0x1B37 JUMP JUMPDEST SWAP3 POP POP DUP2 SWAP1 SSTORE POP DUP4 PUSH20 0xFFFFFFFFFFFFFFFFFFFFFFFFFFFFFFFFFFFFFFFF AND DUP6 PUSH20 0xFFFFFFFFFFFFFFFFFFFFFFFFFFFFFFFFFFFFFFFF AND PUSH32 0x8752A472E571A816AEA92EEC8DAE9BAF628E840F4929FBCC2D155E6233FF68A7 DUP6 PUSH1 0x40 MLOAD PUSH2 0x14BF SWAP2 SWAP1 PUSH2 0x189A JUMP JUMPDEST PUSH1 0x40 MLOAD DUP1 SWAP2 SUB SWAP1 LOG3 POP POP POP POP POP JUMP JUMPDEST PUSH2 0x14D6 PUSH2 0x1819 JUMP JUMPDEST PUSH20 0xFFFFFFFFFFFFFFFFFFFFFFFFFFFFFFFFFFFFFFFF AND PUSH2 0x14F4 PUSH2 0xB46 JUMP JUMPDEST PUSH20 0xFFFFFFFFFFFFFFFFFFFFFFFFFFFFFFFFFFFFFFFF AND EQ PUSH2 0x1553 JUMPI PUSH2 0x1517 PUSH2 0x1819 JUMP JUMPDEST PUSH1 0x40 MLOAD PUSH32 0x118CDAA700000000000000000000000000000000000000000000000000000000 DUP2 MSTORE PUSH1 0x4 ADD PUSH2 0x154A SWAP2 SWAP1 PUSH2 0x1A95 JUMP JUMPDEST PUSH1 0x40 MLOAD DUP1 SWAP2 SUB SWAP1 REVERT JUMPDEST JUMP JUMPDEST PUSH0 PUSH0 PUSH0 SWAP1 SLOAD SWAP1 PUSH2 0x100 EXP SWAP1 DIV PUSH20 0xFFFFFFFFFFFFFFFFFFFFFFFFFFFFFFFFFFFFFFFF AND SWAP1 POP DUP2 PUSH0 PUSH0 PUSH2 0x100 EXP DUP2 SLOAD DUP2 PUSH20 0xFFFFFFFFFFFFFFFFFFFFFFFFFFFFFFFFFFFFFFFF MUL NOT AND SWAP1 DUP4 PUSH20 0xFFFFFFFFFFFFFFFFFFFFFFFFFFFFFFFFFFFFFFFF AND MUL OR SWAP1 SSTORE POP DUP2 PUSH20 0xFFFFFFFFFFFFFFFFFFFFFFFFFFFFFFFFFFFFFFFF AND DUP2 PUSH20 0xFFFFFFFFFFFFFFFFFFFFFFFFFFFFFFFFFFFFFFFF AND PUSH32 0x8BE0079C531659141344CD1FD0A4F28419497F9722A3DAAFE3B4186F6B6457E0 PUSH1 0x40 MLOAD PUSH1 0x40 MLOAD DUP1 SWAP2 SUB SWAP1 LOG3 POP POP JUMP JUMPDEST DUP1 ISZERO PUSH2 0x1660 JUMPI PUSH1 0x1 PUSH1 0x2 PUSH0 DUP3 DUP3 DUP3 SWAP1 SLOAD SWAP1 PUSH2 0x100 EXP SWAP1 DIV PUSH4 0xFFFFFFFF AND PUSH2 0x163D SWAP2 SWAP1 PUSH2 0x1F06 JUMP JUMPDEST SWAP3 POP PUSH2 0x100 EXP DUP2 SLOAD DUP2 PUSH4 0xFFFFFFFF MUL NOT AND SWAP1 DUP4 PUSH4 0xFFFFFFFF AND MUL OR SWAP1 SSTORE POP PUSH2 0x16A1 JUMP JUMPDEST PUSH1 0x1 PUSH1 0x2 PUSH1 0x4 DUP3 DUP3 DUP3 SWAP1 SLOAD SWAP1 PUSH2 0x100 EXP SWAP1 DIV PUSH4 0xFFFFFFFF AND PUSH2 0x1682 SWAP2 SWAP1 PUSH2 0x1F06 JUMP JUMPDEST SWAP3 POP PUSH2 0x100 EXP DUP2 SLOAD DUP2 PUSH4 0xFFFFFFFF MUL NOT AND SWAP1 DUP4 PUSH4 0xFFFFFFFF AND MUL OR SWAP1 SSTORE POP JUMPDEST POP JUMP JUMPDEST PUSH0 DUP3 PUSH20 0xFFFFFFFFFFFFFFFFFFFFFFFFFFFFFFFFFFFFFFFF AND DUP3 PUSH1 0x40 MLOAD PUSH2 0x16C9 SWAP1 PUSH2 0x1F6A JUMP JUMPDEST PUSH0 PUSH1 0x40 MLOAD DUP1 DUP4 SUB DUP2 DUP6 DUP8 GAS CALL SWAP3 POP POP POP RETURNDATASIZE DUP1 PUSH0 DUP2 EQ PUSH2 0x1703 JUMPI PUSH1 0x40 MLOAD SWAP2 POP PUSH1 0x1F NOT PUSH1 0x3F RETURNDATASIZE ADD AND DUP3 ADD PUSH1 0x40 MSTORE RETURNDATASIZE DUP3 MSTORE RETURNDATASIZE PUSH0 PUSH1 0x20 DUP5 ADD RETURNDATACOPY PUSH2 0x1708 JUMP JUMPDEST PUSH1 0x60 SWAP2 POP JUMPDEST POP POP SWAP1 POP DUP1 PUSH2 0x1750 JUMPI DUP3 DUP3 PUSH1 0x40 MLOAD PUSH32 0xA36A1DBA00000000000000000000000000000000000000000000000000000000 DUP2 MSTORE PUSH1 0x4 ADD PUSH2 0x1747 SWAP3 SWAP2 SWAP1 PUSH2 0x1F7E JUMP JUMPDEST PUSH1 0x40 MLOAD DUP1 SWAP2 SUB SWAP1 REVERT JUMPDEST POP POP POP JUMP JUMPDEST PUSH2 0x1762 DUP4 DUP4 DUP4 PUSH1 0x1 PUSH2 0x1820 JUMP JUMPDEST PUSH2 0x17A3 JUMPI DUP3 PUSH1 0x40 MLOAD PUSH32 0x5274AFE700000000000000000000000000000000000000000000000000000000 DUP2 MSTORE PUSH1 0x4 ADD PUSH2 0x179A SWAP2 SWAP1 PUSH2 0x1A95 JUMP JUMPDEST PUSH1 0x40 MLOAD DUP1 SWAP2 SUB SWAP1 REVERT JUMPDEST POP POP POP JUMP JUMPDEST PUSH0 PUSH0 PUSH4 0x23B872DD PUSH1 0xE0 SHL SWAP1 POP PUSH1 0x40 MLOAD DUP2 PUSH0 MSTORE PUSH0 NOT PUSH1 0x60 SHR DUP8 AND PUSH1 0x4 MSTORE PUSH0 NOT PUSH1 0x60 SHR DUP7 AND PUSH1 0x24 MSTORE DUP5 PUSH1 0x44 MSTORE PUSH1 0x20 PUSH0 PUSH1 0x64 PUSH0 PUSH0 DUP13 GAS CALL SWAP3 POP PUSH1 0x1 PUSH0 MLOAD EQ DUP4 AND PUSH2 0x1806 JUMPI DUP4 DUP4 ISZERO AND ISZERO PUSH2 0x17FA JUMPI RETURNDATASIZE PUSH0 DUP3 RETURNDATACOPY RETURNDATASIZE DUP2 REVERT JUMPDEST PUSH0 DUP9 EXTCODESIZE GT RETURNDATASIZE ISZERO AND DUP4 AND SWAP3 POP JUMPDEST DUP1 PUSH1 0x40 MSTORE PUSH0 PUSH1 0x60 MSTORE POP POP SWAP6 SWAP5 POP POP POP POP POP JUMP JUMPDEST PUSH0 CALLER SWAP1 POP SWAP1 JUMP JUMPDEST PUSH0 PUSH0 PUSH4 0xA9059CBB PUSH1 0xE0 SHL SWAP1 POP PUSH1 0x40 MLOAD DUP2 PUSH0 MSTORE PUSH0 NOT PUSH1 0x60 SHR DUP7 AND PUSH1 0x4 MSTORE DUP5 PUSH1 0x24 MSTORE PUSH1 0x20 PUSH0 PUSH1 0x44 PUSH0 PUSH0 DUP12 GAS CALL SWAP3 POP PUSH1 0x1 PUSH0 MLOAD EQ DUP4 AND PUSH2 0x1874 JUMPI DUP4 DUP4 ISZERO AND ISZERO PUSH2 0x1868 JUMPI RETURNDATASIZE PUSH0 DUP3 RETURNDATACOPY RETURNDATASIZE DUP2 REVERT JUMPDEST PUSH0 DUP8 EXTCODESIZE GT RETURNDATASIZE ISZERO AND DUP4 AND SWAP3 POP JUMPDEST DUP1 PUSH1 0x40 MSTORE POP POP SWAP5 SWAP4 POP POP POP POP JUMP JUMPDEST PUSH0 DUP2 SWAP1 POP SWAP2 SWAP1 POP JUMP JUMPDEST PUSH2 0x1894 DUP2 PUSH2 0x1882 JUMP JUMPDEST DUP3 MSTORE POP POP JUMP JUMPDEST PUSH0 PUSH1 0x20 DUP3 ADD SWAP1 POP PUSH2 0x18AD PUSH0 DUP4 ADD DUP5 PUSH2 0x188B JUMP JUMPDEST SWAP3 SWAP2 POP POP JUMP JUMPDEST PUSH0 PUSH0 REVERT JUMPDEST PUSH2 0x18C0 DUP2 PUSH2 0x1882 JUMP JUMPDEST DUP2 EQ PUSH2 0x18CA JUMPI PUSH0 PUSH0 REVERT JUMPDEST POP JUMP JUMPDEST PUSH0 DUP2 CALLDATALOAD SWAP1 POP PUSH2 0x18DB DUP2 PUSH2 0x18B7 JUMP JUMPDEST SWAP3 SWAP2 POP POP JUMP JUMPDEST PUSH0 PUSH1 0x20 DUP3 DUP5 SUB SLT ISZERO PUSH2 0x18F6 JUMPI PUSH2 0x18F5 PUSH2 0x18B3 JUMP JUMPDEST JUMPDEST PUSH0 PUSH2 0x1903 DUP5 DUP3 DUP6 ADD PUSH2 0x18CD JUMP JUMPDEST SWAP2 POP POP SWAP3 SWAP2 POP POP JUMP JUMPDEST PUSH0 PUSH20 0xFFFFFFFFFFFFFFFFFFFFFFFFFFFFFFFFFFFFFFFF DUP3 AND SWAP1 POP SWAP2 SWAP1 POP JUMP JUMPDEST PUSH0 PUSH2 0x1935 DUP3 PUSH2 0x190C JUMP JUMPDEST SWAP1 POP SWAP2 SWAP1 POP JUMP JUMPDEST PUSH2 0x1945 DUP2 PUSH2 0x192B JUMP JUMPDEST DUP2 EQ PUSH2 0x194F JUMPI PUSH0 PUSH0 REVERT JUMPDEST POP JUMP JUMPDEST PUSH0 DUP2 CALLDATALOAD SWAP1 POP PUSH2 0x1960 DUP2 PUSH2 0x193C JUMP JUMPDEST SWAP3 SWAP2 POP POP JUMP JUMPDEST PUSH0 PUSH0 PUSH1 0x40 DUP4 DUP6 SUB SLT ISZERO PUSH2 0x197C JUMPI PUSH2 0x197B PUSH2 0x18B3 JUMP JUMPDEST JUMPDEST PUSH0 PUSH2 0x1989 DUP6 DUP3 DUP7 ADD PUSH2 0x1952 JUMP JUMPDEST SWAP3 POP POP PUSH1 0x20 PUSH2 0x199A DUP6 DUP3 DUP7 ADD PUSH2 0x18CD JUMP JUMPDEST SWAP2 POP POP SWAP3 POP SWAP3 SWAP1 POP JUMP JUMPDEST PUSH0 PUSH1 0x20 DUP3 DUP5 SUB SLT ISZERO PUSH2 0x19B9 JUMPI PUSH2 0x19B8 PUSH2 0x18B3 JUMP JUMPDEST JUMPDEST PUSH0 PUSH2 0x19C6 DUP5 DUP3 DUP6 ADD PUSH2 0x1952 JUMP JUMPDEST SWAP2 POP POP SWAP3 SWAP2 POP POP JUMP JUMPDEST PUSH2 0x19D8 DUP2 PUSH2 0x192B JUMP JUMPDEST DUP3 MSTORE POP POP JUMP JUMPDEST PUSH0 PUSH1 0xFF DUP3 AND SWAP1 POP SWAP2 SWAP1 POP JUMP JUMPDEST PUSH2 0x19F3 DUP2 PUSH2 0x19DE JUMP JUMPDEST DUP3 MSTORE POP POP JUMP JUMPDEST PUSH0 PUSH1 0x40 DUP3 ADD SWAP1 POP PUSH2 0x1A0C PUSH0 DUP4 ADD DUP6 PUSH2 0x19CF JUMP JUMPDEST PUSH2 0x1A19 PUSH1 0x20 DUP4 ADD DUP5 PUSH2 0x19EA JUMP JUMPDEST SWAP4 SWAP3 POP POP POP JUMP JUMPDEST PUSH0 PUSH4 0xFFFFFFFF DUP3 AND SWAP1 POP SWAP2 SWAP1 POP JUMP JUMPDEST PUSH2 0x1A38 DUP2 PUSH2 0x1A20 JUMP JUMPDEST DUP3 MSTORE POP POP JUMP JUMPDEST PUSH0 PUSH1 0x20 DUP3 ADD SWAP1 POP PUSH2 0x1A51 PUSH0 DUP4 ADD DUP5 PUSH2 0x1A2F JUMP JUMPDEST SWAP3 SWAP2 POP POP JUMP JUMPDEST PUSH0 PUSH0 PUSH1 0x40 DUP4 DUP6 SUB SLT ISZERO PUSH2 0x1A6D JUMPI PUSH2 0x1A6C PUSH2 0x18B3 JUMP JUMPDEST JUMPDEST PUSH0 PUSH2 0x1A7A DUP6 DUP3 DUP7 ADD PUSH2 0x1952 JUMP JUMPDEST SWAP3 POP POP PUSH1 0x20 PUSH2 0x1A8B DUP6 DUP3 DUP7 ADD PUSH2 0x1952 JUMP JUMPDEST SWAP2 POP POP SWAP3 POP SWAP3 SWAP1 POP JUMP JUMPDEST PUSH0 PUSH1 0x20 DUP3 ADD SWAP1 POP PUSH2 0x1AA8 PUSH0 DUP4 ADD DUP5 PUSH2 0x19CF JUMP JUMPDEST SWAP3 SWAP2 POP POP JUMP JUMPDEST PUSH0 PUSH1 0x40 DUP3 ADD SWAP1 POP PUSH2 0x1AC1 PUSH0 DUP4 ADD DUP6 PUSH2 0x188B JUMP JUMPDEST PUSH2 0x1ACE PUSH1 0x20 DUP4 ADD DUP5 PUSH2 0x188B JUMP JUMPDEST SWAP4 SWAP3 POP POP POP JUMP JUMPDEST PUSH0 PUSH1 0x60 DUP3 ADD SWAP1 POP PUSH2 0x1AE8 PUSH0 DUP4 ADD DUP7 PUSH2 0x19CF JUMP JUMPDEST PUSH2 0x1AF5 PUSH1 0x20 DUP4 ADD DUP6 PUSH2 0x188B JUMP JUMPDEST PUSH2 0x1B02 PUSH1 0x40 DUP4 ADD DUP5 PUSH2 0x188B JUMP JUMPDEST SWAP5 SWAP4 POP POP POP POP JUMP JUMPDEST PUSH32 0x4E487B7100000000000000000000000000000000000000000000000000000000 PUSH0 MSTORE PUSH1 0x11 PUSH1 0x4 MSTORE PUSH1 0x24 PUSH0 REVERT JUMPDEST PUSH0 PUSH2 0x1B41 DUP3 PUSH2 0x1882 JUMP JUMPDEST SWAP2 POP PUSH2 0x1B4C DUP4 PUSH2 0x1882 JUMP JUMPDEST SWAP3 POP DUP3 DUP3 ADD SWAP1 POP DUP1 DUP3 GT ISZERO PUSH2 0x1B64 JUMPI PUSH2 0x1B63 PUSH2 0x1B0A JUMP JUMPDEST JUMPDEST SWAP3 SWAP2 POP POP JUMP JUMPDEST PUSH2 0x1B73 DUP2 PUSH2 0x19DE JUMP JUMPDEST DUP2 EQ PUSH2 0x1B7D JUMPI PUSH0 PUSH0 REVERT JUMPDEST POP JUMP JUMPDEST PUSH0 DUP2 MLOAD SWAP1 POP PUSH2 0x1B8E DUP2 PUSH2 0x1B6A JUMP JUMPDEST SWAP3 SWAP2 POP POP JUMP JUMPDEST PUSH0 PUSH1 0x20 DUP3 DUP5 SUB SLT ISZERO PUSH2 0x1BA9 JUMPI PUSH2 0x1BA8 PUSH2 0x18B3 JUMP JUMPDEST JUMPDEST PUSH0 PUSH2 0x1BB6 DUP5 DUP3 DUP6 ADD PUSH2 0x1B80 JUMP JUMPDEST SWAP2 POP POP SWAP3 SWAP2 POP POP JUMP JUMPDEST PUSH0 PUSH10 0xFFFFFFFFFFFFFFFFFFFF DUP3 AND SWAP1 POP SWAP2 SWAP1 POP JUMP JUMPDEST PUSH2 0x1BDD DUP2 PUSH2 0x1BBF JUMP JUMPDEST DUP2 EQ PUSH2 0x1BE7 JUMPI PUSH0 PUSH0 REVERT JUMPDEST POP JUMP JUMPDEST PUSH0 DUP2 MLOAD SWAP1 POP PUSH2 0x1BF8 DUP2 PUSH2 0x1BD4 JUMP JUMPDEST SWAP3 SWAP2 POP POP JUMP JUMPDEST PUSH0 DUP2 SWAP1 POP SWAP2 SWAP1 POP JUMP JUMPDEST PUSH2 0x1C10 DUP2 PUSH2 0x1BFE JUMP JUMPDEST DUP2 EQ PUSH2 0x1C1A JUMPI PUSH0 PUSH0 REVERT JUMPDEST POP JUMP JUMPDEST PUSH0 DUP2 MLOAD SWAP1 POP PUSH2 0x1C2B DUP2 PUSH2 0x1C07 JUMP JUMPDEST SWAP3 SWAP2 POP POP JUMP JUMPDEST PUSH0 DUP2 MLOAD SWAP1 POP PUSH2 0x1C3F DUP2 PUSH2 0x18B7 JUMP JUMPDEST SWAP3 SWAP2 POP POP JUMP JUMPDEST PUSH0 PUSH0 PUSH0 PUSH0 PUSH0 PUSH1 0xA0 DUP7 DUP9 SUB SLT ISZERO PUSH2 0x1C5E JUMPI PUSH2 0x1C5D PUSH2 0x18B3 JUMP JUMPDEST JUMPDEST PUSH0 PUSH2 0x1C6B DUP9 DUP3 DUP10 ADD PUSH2 0x1BEA JUMP JUMPDEST SWAP6 POP POP PUSH1 0x20 PUSH2 0x1C7C DUP9 DUP3 DUP10 ADD PUSH2 0x1C1D JUMP JUMPDEST SWAP5 POP POP PUSH1 0x40 PUSH2 0x1C8D DUP9 DUP3 DUP10 ADD PUSH2 0x1C31 JUMP JUMPDEST SWAP4 POP POP PUSH1 0x60 PUSH2 0x1C9E DUP9 DUP3 DUP10 ADD PUSH2 0x1C31 JUMP JUMPDEST SWAP3 POP POP PUSH1 0x80 PUSH2 0x1CAF DUP9 DUP3 DUP10 ADD PUSH2 0x1BEA JUMP JUMPDEST SWAP2 POP POP SWAP3 SWAP6 POP SWAP3 SWAP6 SWAP1 SWAP4 POP JUMP JUMPDEST PUSH0 PUSH2 0x1CC6 DUP3 PUSH2 0x1882 JUMP JUMPDEST SWAP2 POP PUSH2 0x1CD1 DUP4 PUSH2 0x1882 JUMP JUMPDEST SWAP3 POP DUP3 DUP3 SUB SWAP1 POP DUP2 DUP2 GT ISZERO PUSH2 0x1CE9 JUMPI PUSH2 0x1CE8 PUSH2 0x1B0A JUMP JUMPDEST JUMPDEST SWAP3 SWAP2 POP POP JUMP JUMPDEST PUSH0 DUP2 PUSH1 0x1 SHR SWAP1 POP SWAP2 SWAP1 POP JUMP JUMPDEST PUSH0 PUSH0 DUP3 SWAP2 POP DUP4 SWAP1 POP JUMPDEST PUSH1 0x1 DUP6 GT ISZERO PUSH2 0x1D44 JUMPI DUP1 DUP7 DIV DUP2 GT ISZERO PUSH2 0x1D20 JUMPI PUSH2 0x1D1F PUSH2 0x1B0A JUMP JUMPDEST JUMPDEST PUSH1 0x1 DUP6 AND ISZERO PUSH2 0x1D2F JUMPI DUP1 DUP3 MUL SWAP2 POP JUMPDEST DUP1 DUP2 MUL SWAP1 POP PUSH2 0x1D3D DUP6 PUSH2 0x1CEF JUMP JUMPDEST SWAP5 POP PUSH2 0x1D04 JUMP JUMPDEST SWAP5 POP SWAP5 SWAP3 POP POP POP JUMP JUMPDEST PUSH0 DUP3 PUSH2 0x1D5C JUMPI PUSH1 0x1 SWAP1 POP PUSH2 0x1E17 JUMP JUMPDEST DUP2 PUSH2 0x1D69 JUMPI PUSH0 SWAP1 POP PUSH2 0x1E17 JUMP JUMPDEST DUP2 PUSH1 0x1 DUP2 EQ PUSH2 0x1D7F JUMPI PUSH1 0x2 DUP2 EQ PUSH2 0x1D89 JUMPI PUSH2 0x1DB8 JUMP JUMPDEST PUSH1 0x1 SWAP2 POP POP PUSH2 0x1E17 JUMP JUMPDEST PUSH1 0xFF DUP5 GT ISZERO PUSH2 0x1D9B JUMPI PUSH2 0x1D9A PUSH2 0x1B0A JUMP JUMPDEST JUMPDEST DUP4 PUSH1 0x2 EXP SWAP2 POP DUP5 DUP3 GT ISZERO PUSH2 0x1DB2 JUMPI PUSH2 0x1DB1 PUSH2 0x1B0A JUMP JUMPDEST JUMPDEST POP PUSH2 0x1E17 JUMP JUMPDEST POP PUSH1 0x20 DUP4 LT PUSH2 0x133 DUP4 LT AND PUSH1 0x4E DUP5 LT PUSH1 0xB DUP5 LT AND OR ISZERO PUSH2 0x1DED JUMPI DUP3 DUP3 EXP SWAP1 POP DUP4 DUP2 GT ISZERO PUSH2 0x1DE8 JUMPI PUSH2 0x1DE7 PUSH2 0x1B0A JUMP JUMPDEST JUMPDEST PUSH2 0x1E17 JUMP JUMPDEST PUSH2 0x1DFA DUP5 DUP5 DUP5 PUSH1 0x1 PUSH2 0x1CFB JUMP JUMPDEST SWAP3 POP SWAP1 POP DUP2 DUP5 DIV DUP2 GT ISZERO PUSH2 0x1E11 JUMPI PUSH2 0x1E10 PUSH2 0x1B0A JUMP JUMPDEST JUMPDEST DUP2 DUP2 MUL SWAP1 POP JUMPDEST SWAP4 SWAP3 POP POP POP JUMP JUMPDEST PUSH0 PUSH2 0x1E28 DUP3 PUSH2 0x1882 JUMP JUMPDEST SWAP2 POP PUSH2 0x1E33 DUP4 PUSH2 0x1882 JUMP JUMPDEST SWAP3 POP PUSH2 0x1E60 PUSH32 0xFFFFFFFFFFFFFFFFFFFFFFFFFFFFFFFFFFFFFFFFFFFFFFFFFFFFFFFFFFFFFFFF DUP5 DUP5 PUSH2 0x1D4D JUMP JUMPDEST SWAP1 POP SWAP3 SWAP2 POP POP JUMP JUMPDEST PUSH0 PUSH2 0x1E72 DUP3 PUSH2 0x1882 JUMP JUMPDEST SWAP2 POP PUSH2 0x1E7D DUP4 PUSH2 0x1882 JUMP JUMPDEST SWAP3 POP DUP3 DUP3 MUL PUSH2 0x1E8B DUP2 PUSH2 0x1882 JUMP JUMPDEST SWAP2 POP DUP3 DUP3 DIV DUP5 EQ DUP4 ISZERO OR PUSH2 0x1EA2 JUMPI PUSH2 0x1EA1 PUSH2 0x1B0A JUMP JUMPDEST JUMPDEST POP SWAP3 SWAP2 POP POP JUMP JUMPDEST PUSH32 0x4E487B7100000000000000000000000000000000000000000000000000000000 PUSH0 MSTORE PUSH1 0x12 PUSH1 0x4 MSTORE PUSH1 0x24 PUSH0 REVERT JUMPDEST PUSH0 PUSH2 0x1EE0 DUP3 PUSH2 0x1882 JUMP JUMPDEST SWAP2 POP PUSH2 0x1EEB DUP4 PUSH2 0x1882 JUMP JUMPDEST SWAP3 POP DUP3 PUSH2 0x1EFB JUMPI PUSH2 0x1EFA PUSH2 0x1EA9 JUMP JUMPDEST JUMPDEST DUP3 DUP3 DIV SWAP1 POP SWAP3 SWAP2 POP POP JUMP JUMPDEST PUSH0 PUSH2 0x1F10 DUP3 PUSH2 0x1A20 JUMP JUMPDEST SWAP2 POP PUSH2 0x1F1B DUP4 PUSH2 0x1A20 JUMP JUMPDEST SWAP3 POP DUP3 DUP3 ADD SWAP1 POP PUSH4 0xFFFFFFFF DUP2 GT ISZERO PUSH2 0x1F37 JUMPI PUSH2 0x1F36 PUSH2 0x1B0A JUMP JUMPDEST JUMPDEST SWAP3 SWAP2 POP POP JUMP JUMPDEST PUSH0 DUP2 SWAP1 POP SWAP3 SWAP2 POP POP JUMP JUMPDEST POP JUMP JUMPDEST PUSH0 PUSH2 0x1F55 PUSH0 DUP4 PUSH2 0x1F3D JUMP JUMPDEST SWAP2 POP PUSH2 0x1F60 DUP3 PUSH2 0x1F47 JUMP JUMPDEST PUSH0 DUP3 ADD SWAP1 POP SWAP2 SWAP1 POP JUMP JUMPDEST PUSH0 PUSH2 0x1F74 DUP3 PUSH2 0x1F4A JUMP JUMPDEST SWAP2 POP DUP2 SWAP1 POP SWAP2 SWAP1 POP JUMP JUMPDEST PUSH0 PUSH1 0x40 DUP3 ADD SWAP1 POP PUSH2 0x1F91 PUSH0 DUP4 ADD DUP6 PUSH2 0x19CF JUMP JUMPDEST PUSH2 0x1F9E PUSH1 0x20 DUP4 ADD DUP5 PUSH2 0x188B JUMP JUMPDEST SWAP4 SWAP3 POP POP POP JUMP INVALID LOG2 PUSH5 0x6970667358 0x22 SLT KECCAK256 0x4F SWAP8 DUP2 PUSH20 0xD3D9DC9D8161C2C78B234A24C431EFA919D509DE 0x2C SMOD SWAP14 EXTCALL EQ 0xD SHR MLOAD PUSH5 0x736F6C6343 STOP ADDMOD 0x1E STOP CALLER "
		},
		"gasEstimates": {
			"creation": {
				"codeDepositCost": "1631000",
				"executionCost": "infinite",
				"totalCost": "infinite"
			},
			"external": {
				"": "infinite",
				"ETH_ADDRESS()": "439",
				"ORACLE_HEARTBEAT()": "348",
				"deposit()": "infinite",
				"depositToken(address,uint256)": "infinite",
				"getMyBalance(address)": "3027",
				"getTotalEthBalance()": "358",
				"getValueInUsd(address,uint256)": "infinite",
				"i_bankCap()": "infinite",
				"i_withdrawLimit()": "infinite",
				"owner()": "2537",
				"renounceOwnership()": "infinite",
				"s_balances(address,address)": "infinite",
				"s_tokenInfo(address)": "infinite",
				"s_totalDeposits()": "2511",
				"s_totalUsdValue()": "2515",
				"s_totalWithdrawals()": "2583",
				"setPriceFeed(address,address)": "infinite",
				"transferOwnership(address)": "infinite",
				"withdraw(uint256)": "infinite",
				"withdrawToken(address,uint256)": "infinite"
			},
			"internal": {
				"_deposit(address,address,uint256)": "infinite",
				"_safeTransferEth(address,uint256)": "infinite",
				"_updateCounters(bool)": "infinite",
				"_withdraw(address,address,uint256)": "infinite"
			}
		},
		"methodIdentifiers": {
			"ETH_ADDRESS()": "a734f06e",
			"ORACLE_HEARTBEAT()": "4a83c3b7",
			"deposit()": "d0e30db0",
			"depositToken(address,uint256)": "338b5dea",
			"getMyBalance(address)": "7e3ef7cd",
			"getTotalEthBalance()": "287cc96b",
			"getValueInUsd(address,uint256)": "fe3192f6",
			"i_bankCap()": "f6687af7",
			"i_withdrawLimit()": "c801fb40",
			"owner()": "8da5cb5b",
			"renounceOwnership()": "715018a6",
			"s_balances(address,address)": "dccd58e3",
			"s_tokenInfo(address)": "432017ca",
			"s_totalDeposits()": "52963c2b",
			"s_totalUsdValue()": "3b1a4ec4",
			"s_totalWithdrawals()": "f3db702c",
			"setPriceFeed(address,address)": "76e11286",
			"transferOwnership(address)": "f2fde38b",
			"withdraw(uint256)": "2e1a7d4d",
			"withdrawToken(address,uint256)": "9e281a98"
		}
	},
	"abi": [
		{
			"inputs": [
				{
					"internalType": "uint256",
					"name": "_bankCap",
					"type": "uint256"
				},
				{
					"internalType": "uint256",
					"name": "_withdrawLimit",
					"type": "uint256"
				}
			],
			"stateMutability": "nonpayable",
			"type": "constructor"
		},
		{
			"inputs": [],
			"name": "KipuBank__AmountMustBeGreaterThanZero",
			"type": "error"
		},
		{
			"inputs": [
				{
					"internalType": "uint256",
					"name": "attempted",
					"type": "uint256"
				},
				{
					"internalType": "uint256",
					"name": "cap",
					"type": "uint256"
				}
			],
			"name": "KipuBank__ExceedsBankCap",
			"type": "error"
		},
		{
			"inputs": [
				{
					"internalType": "uint256",
					"name": "attempted",
					"type": "uint256"
				},
				{
					"internalType": "uint256",
					"name": "limit",
					"type": "uint256"
				}
			],
			"name": "KipuBank__ExceedsWithdrawLimit",
			"type": "error"
		},
		{
			"inputs": [
				{
					"internalType": "address",
					"name": "token",
					"type": "address"
				},
				{
					"internalType": "uint256",
					"name": "requested",
					"type": "uint256"
				},
				{
					"internalType": "uint256",
					"name": "available",
					"type": "uint256"
				}
			],
			"name": "KipuBank__InsufficientBalance",
			"type": "error"
		},
		{
			"inputs": [],
			"name": "KipuBank__NotAToken",
			"type": "error"
		},
		{
			"inputs": [],
			"name": "KipuBank__OracleCompromised",
			"type": "error"
		},
		{
			"inputs": [
				{
					"internalType": "address",
					"name": "tokenAddress",
					"type": "address"
				}
			],
			"name": "KipuBank__PriceFeedNotSet",
			"type": "error"
		},
		{
			"inputs": [],
			"name": "KipuBank__StalePrice",
			"type": "error"
		},
		{
			"inputs": [
				{
					"internalType": "address",
					"name": "to",
					"type": "address"
				},
				{
					"internalType": "uint256",
					"name": "amount",
					"type": "uint256"
				}
			],
			"name": "KipuBank__TransferFailed",
			"type": "error"
		},
		{
			"inputs": [
				{
					"internalType": "address",
					"name": "owner",
					"type": "address"
				}
			],
			"name": "OwnableInvalidOwner",
			"type": "error"
		},
		{
			"inputs": [
				{
					"internalType": "address",
					"name": "account",
					"type": "address"
				}
			],
			"name": "OwnableUnauthorizedAccount",
			"type": "error"
		},
		{
			"inputs": [
				{
					"internalType": "address",
					"name": "token",
					"type": "address"
				}
			],
			"name": "SafeERC20FailedOperation",
			"type": "error"
		},
		{
			"anonymous": false,
			"inputs": [
				{
					"indexed": true,
					"internalType": "address",
					"name": "token",
					"type": "address"
				},
				{
					"indexed": true,
					"internalType": "address",
					"name": "user",
					"type": "address"
				},
				{
					"indexed": false,
					"internalType": "uint256",
					"name": "amount",
					"type": "uint256"
				}
			],
			"name": "Deposited",
			"type": "event"
		},
		{
			"anonymous": false,
			"inputs": [
				{
					"indexed": true,
					"internalType": "address",
					"name": "previousOwner",
					"type": "address"
				},
				{
					"indexed": true,
					"internalType": "address",
					"name": "newOwner",
					"type": "address"
				}
			],
			"name": "OwnershipTransferred",
			"type": "event"
		},
		{
			"anonymous": false,
			"inputs": [
				{
					"indexed": true,
					"internalType": "address",
					"name": "token",
					"type": "address"
				},
				{
					"indexed": true,
					"internalType": "address",
					"name": "feed",
					"type": "address"
				}
			],
			"name": "PriceFeedUpdated",
			"type": "event"
		},
		{
			"anonymous": false,
			"inputs": [
				{
					"indexed": true,
					"internalType": "address",
					"name": "token",
					"type": "address"
				},
				{
					"indexed": true,
					"internalType": "address",
					"name": "user",
					"type": "address"
				},
				{
					"indexed": false,
					"internalType": "uint256",
					"name": "amount",
					"type": "uint256"
				}
			],
			"name": "Withdrawn",
			"type": "event"
		},
		{
			"stateMutability": "payable",
			"type": "fallback"
		},
		{
			"inputs": [],
			"name": "ETH_ADDRESS",
			"outputs": [
				{
					"internalType": "address",
					"name": "",
					"type": "address"
				}
			],
			"stateMutability": "view",
			"type": "function"
		},
		{
			"inputs": [],
			"name": "ORACLE_HEARTBEAT",
			"outputs": [
				{
					"internalType": "uint256",
					"name": "",
					"type": "uint256"
				}
			],
			"stateMutability": "view",
			"type": "function"
		},
		{
			"inputs": [],
			"name": "deposit",
			"outputs": [],
			"stateMutability": "payable",
			"type": "function"
		},
		{
			"inputs": [
				{
					"internalType": "address",
					"name": "_tokenAddress",
					"type": "address"
				},
				{
					"internalType": "uint256",
					"name": "_amount",
					"type": "uint256"
				}
			],
			"name": "depositToken",
			"outputs": [],
			"stateMutability": "nonpayable",
			"type": "function"
		},
		{
			"inputs": [
				{
					"internalType": "address",
					"name": "_tokenAddress",
					"type": "address"
				}
			],
			"name": "getMyBalance",
			"outputs": [
				{
					"internalType": "uint256",
					"name": "",
					"type": "uint256"
				}
			],
			"stateMutability": "view",
			"type": "function"
		},
		{
			"inputs": [],
			"name": "getTotalEthBalance",
			"outputs": [
				{
					"internalType": "uint256",
					"name": "",
					"type": "uint256"
				}
			],
			"stateMutability": "view",
			"type": "function"
		},
		{
			"inputs": [
				{
					"internalType": "address",
					"name": "_tokenAddress",
					"type": "address"
				},
				{
					"internalType": "uint256",
					"name": "_amount",
					"type": "uint256"
				}
			],
			"name": "getValueInUsd",
			"outputs": [
				{
					"internalType": "uint256",
					"name": "",
					"type": "uint256"
				}
			],
			"stateMutability": "view",
			"type": "function"
		},
		{
			"inputs": [],
			"name": "i_bankCap",
			"outputs": [
				{
					"internalType": "uint256",
					"name": "",
					"type": "uint256"
				}
			],
			"stateMutability": "view",
			"type": "function"
		},
		{
			"inputs": [],
			"name": "i_withdrawLimit",
			"outputs": [
				{
					"internalType": "uint256",
					"name": "",
					"type": "uint256"
				}
			],
			"stateMutability": "view",
			"type": "function"
		},
		{
			"inputs": [],
			"name": "owner",
			"outputs": [
				{
					"internalType": "address",
					"name": "",
					"type": "address"
				}
			],
			"stateMutability": "view",
			"type": "function"
		},
		{
			"inputs": [],
			"name": "renounceOwnership",
			"outputs": [],
			"stateMutability": "nonpayable",
			"type": "function"
		},
		{
			"inputs": [
				{
					"internalType": "address",
					"name": "",
					"type": "address"
				},
				{
					"internalType": "address",
					"name": "",
					"type": "address"
				}
			],
			"name": "s_balances",
			"outputs": [
				{
					"internalType": "uint256",
					"name": "",
					"type": "uint256"
				}
			],
			"stateMutability": "view",
			"type": "function"
		},
		{
			"inputs": [
				{
					"internalType": "address",
					"name": "",
					"type": "address"
				}
			],
			"name": "s_tokenInfo",
			"outputs": [
				{
					"internalType": "address",
					"name": "priceFeed",
					"type": "address"
				},
				{
					"internalType": "uint8",
					"name": "decimals",
					"type": "uint8"
				}
			],
			"stateMutability": "view",
			"type": "function"
		},
		{
			"inputs": [],
			"name": "s_totalDeposits",
			"outputs": [
				{
					"internalType": "uint32",
					"name": "",
					"type": "uint32"
				}
			],
			"stateMutability": "view",
			"type": "function"
		},
		{
			"inputs": [],
			"name": "s_totalUsdValue",
			"outputs": [
				{
					"internalType": "uint256",
					"name": "",
					"type": "uint256"
				}
			],
			"stateMutability": "view",
			"type": "function"
		},
		{
			"inputs": [],
			"name": "s_totalWithdrawals",
			"outputs": [
				{
					"internalType": "uint32",
					"name": "",
					"type": "uint32"
				}
			],
			"stateMutability": "view",
			"type": "function"
		},
		{
			"inputs": [
				{
					"internalType": "address",
					"name": "_tokenAddress",
					"type": "address"
				},
				{
					"internalType": "address",
					"name": "_priceFeedAddress",
					"type": "address"
				}
			],
			"name": "setPriceFeed",
			"outputs": [],
			"stateMutability": "nonpayable",
			"type": "function"
		},
		{
			"inputs": [
				{
					"internalType": "address",
					"name": "newOwner",
					"type": "address"
				}
			],
			"name": "transferOwnership",
			"outputs": [],
			"stateMutability": "nonpayable",
			"type": "function"
		},
		{
			"inputs": [
				{
					"internalType": "uint256",
					"name": "_amount",
					"type": "uint256"
				}
			],
			"name": "withdraw",
			"outputs": [],
			"stateMutability": "nonpayable",
			"type": "function"
		},
		{
			"inputs": [
				{
					"internalType": "address",
					"name": "_tokenAddress",
					"type": "address"
				},
				{
					"internalType": "uint256",
					"name": "_amount",
					"type": "uint256"
				}
			],
			"name": "withdrawToken",
			"outputs": [],
			"stateMutability": "nonpayable",
			"type": "function"
		},
		{
			"stateMutability": "payable",
			"type": "receive"
		}
	]
}